{
  "contractName": "OldTellor",
  "abi": [
    {
      "constant": false,
      "inputs": [
        {
          "internalType": "address",
          "name": "_address",
          "type": "address"
        },
        {
          "internalType": "uint256",
          "name": "_amount",
          "type": "uint256"
        }
      ],
      "name": "theLazyCoon",
      "outputs": [],
      "payable": false,
      "stateMutability": "nonpayable",
      "type": "function"
    },
    {
      "constant": false,
      "inputs": [
        {
          "internalType": "uint256",
          "name": "_requestId",
          "type": "uint256"
        },
        {
          "internalType": "uint256",
          "name": "_timestamp",
          "type": "uint256"
        },
        {
          "internalType": "uint256",
          "name": "_minerIndex",
          "type": "uint256"
        }
      ],
      "name": "beginDispute",
      "outputs": [],
      "payable": false,
      "stateMutability": "nonpayable",
      "type": "function"
    },
    {
      "constant": false,
      "inputs": [
        {
          "internalType": "uint256",
          "name": "_disputeId",
          "type": "uint256"
        },
        {
          "internalType": "bool",
          "name": "_supportsDispute",
          "type": "bool"
        }
      ],
      "name": "vote",
      "outputs": [],
      "payable": false,
      "stateMutability": "nonpayable",
      "type": "function"
    },
    {
      "constant": false,
      "inputs": [
        {
          "internalType": "uint256",
          "name": "_disputeId",
          "type": "uint256"
        }
      ],
      "name": "tallyVotes",
      "outputs": [],
      "payable": false,
      "stateMutability": "nonpayable",
      "type": "function"
    },
    {
      "constant": false,
      "inputs": [
        {
          "internalType": "address",
          "name": "_propNewTellorAddress",
          "type": "address"
        }
      ],
      "name": "proposeFork",
      "outputs": [],
      "payable": false,
      "stateMutability": "nonpayable",
      "type": "function"
    },
    {
      "constant": false,
      "inputs": [
        {
          "internalType": "uint256",
          "name": "_requestId",
          "type": "uint256"
        },
        {
          "internalType": "uint256",
          "name": "_tip",
          "type": "uint256"
        }
      ],
      "name": "addTip",
      "outputs": [],
      "payable": false,
      "stateMutability": "nonpayable",
      "type": "function"
    },
    {
      "constant": false,
      "inputs": [
        {
          "internalType": "string",
          "name": "_c_sapi",
          "type": "string"
        },
        {
          "internalType": "string",
          "name": "_c_symbol",
          "type": "string"
        },
        {
          "internalType": "uint256",
          "name": "_granularity",
          "type": "uint256"
        },
        {
          "internalType": "uint256",
          "name": "_tip",
          "type": "uint256"
        }
      ],
      "name": "requestData",
      "outputs": [],
      "payable": false,
      "stateMutability": "nonpayable",
      "type": "function"
    },
    {
      "constant": false,
      "inputs": [
        {
          "internalType": "string",
          "name": "_nonce",
          "type": "string"
        },
        {
          "internalType": "uint256",
          "name": "_requestId",
          "type": "uint256"
        },
        {
          "internalType": "uint256",
          "name": "_value",
          "type": "uint256"
        }
      ],
      "name": "submitMiningSolution",
      "outputs": [],
      "payable": false,
      "stateMutability": "nonpayable",
      "type": "function"
    },
    {
      "constant": false,
      "inputs": [
        {
          "internalType": "string",
          "name": "_nonce",
          "type": "string"
        },
        {
          "internalType": "uint256",
          "name": "_requestId",
          "type": "uint256"
        },
        {
          "internalType": "uint256",
          "name": "_value",
          "type": "uint256"
        }
      ],
      "name": "testSubmitMiningSolution",
      "outputs": [],
      "payable": false,
      "stateMutability": "nonpayable",
      "type": "function"
    },
    {
      "constant": false,
      "inputs": [
        {
          "internalType": "address payable",
          "name": "_pendingOwner",
          "type": "address"
        }
      ],
      "name": "proposeOwnership",
      "outputs": [],
      "payable": false,
      "stateMutability": "nonpayable",
      "type": "function"
    },
    {
      "constant": false,
      "inputs": [],
      "name": "claimOwnership",
      "outputs": [],
      "payable": false,
      "stateMutability": "nonpayable",
      "type": "function"
    },
    {
      "constant": false,
      "inputs": [],
      "name": "depositStake",
      "outputs": [],
      "payable": false,
      "stateMutability": "nonpayable",
      "type": "function"
    },
    {
      "constant": false,
      "inputs": [],
      "name": "requestStakingWithdraw",
      "outputs": [],
      "payable": false,
      "stateMutability": "nonpayable",
      "type": "function"
    },
    {
      "constant": false,
      "inputs": [],
      "name": "withdrawStake",
      "outputs": [],
      "payable": false,
      "stateMutability": "nonpayable",
      "type": "function"
    },
    {
      "constant": false,
      "inputs": [
        {
          "internalType": "address",
          "name": "_spender",
          "type": "address"
        },
        {
          "internalType": "uint256",
          "name": "_amount",
          "type": "uint256"
        }
      ],
      "name": "approve",
      "outputs": [
        {
          "internalType": "bool",
          "name": "",
          "type": "bool"
        }
      ],
      "payable": false,
      "stateMutability": "nonpayable",
      "type": "function"
    },
    {
      "constant": false,
      "inputs": [
        {
          "internalType": "address",
          "name": "_to",
          "type": "address"
        },
        {
          "internalType": "uint256",
          "name": "_amount",
          "type": "uint256"
        }
      ],
      "name": "transfer",
      "outputs": [
        {
          "internalType": "bool",
          "name": "",
          "type": "bool"
        }
      ],
      "payable": false,
      "stateMutability": "nonpayable",
      "type": "function"
    },
    {
      "constant": false,
      "inputs": [
        {
          "internalType": "address",
          "name": "_from",
          "type": "address"
        },
        {
          "internalType": "address",
          "name": "_to",
          "type": "address"
        },
        {
          "internalType": "uint256",
          "name": "_amount",
          "type": "uint256"
        }
      ],
      "name": "transferFrom",
      "outputs": [
        {
          "internalType": "bool",
          "name": "",
          "type": "bool"
        }
      ],
      "payable": false,
      "stateMutability": "nonpayable",
      "type": "function"
    }
  ],
  "bytecode": "0x608060405234801561001057600080fd5b506114d7806100206000396000f3fe608060405234801561001057600080fd5b506004361061010b5760003560e01c806368c180d5116100a2578063a9059cbb11610071578063a9059cbb146104b9578063b079f64a1461051f578063bed9d8611461056d578063c0a8b65014610577578063c9d27afe146106045761010b565b806368c180d51461036e578063710bf322146103fb578063752d49a11461043f5780638581af19146104775761010b565b806328449c3a116100de57806328449c3a1461024a5780633fff2816146102545780634d318b0e146103365780634e71e0c8146103645761010b565b8063095ea7b3146101105780630d2d76a21461017657806323b872dd1461018057806326b7d9f614610206575b600080fd5b61015c6004803603604081101561012657600080fd5b81019080803573ffffffffffffffffffffffffffffffffffffffff1690602001909291908035906020019092919050505061063e565b604051808215151515815260200191505060405180910390f35b61017e610710565b005b6101ec6004803603606081101561019657600080fd5b81019080803573ffffffffffffffffffffffffffffffffffffffff169060200190929190803573ffffffffffffffffffffffffffffffffffffffff1690602001909291908035906020019092919050505061077c565b604051808215151515815260200191505060405180910390f35b6102486004803603602081101561021c57600080fd5b81019080803573ffffffffffffffffffffffffffffffffffffffff169060200190929190505050610883565b005b610252610924565b005b6103346004803603608081101561026a57600080fd5b810190808035906020019064010000000081111561028757600080fd5b82018360208201111561029957600080fd5b803590602001918460018302840111640100000000831117156102bb57600080fd5b9091929391929390803590602001906401000000008111156102dc57600080fd5b8201836020820111156102ee57600080fd5b8035906020019184600183028401116401000000008311171561031057600080fd5b90919293919293908035906020019092919080359060200190929190505050610990565b005b6103626004803603602081101561034c57600080fd5b8101908080359060200190929190505050610a7a565b005b61036c610aef565b005b6103f96004803603606081101561038457600080fd5b81019080803590602001906401000000008111156103a157600080fd5b8201836020820111156103b357600080fd5b803590602001918460018302840111640100000000831117156103d557600080fd5b90919293919293908035906020019092919080359060200190929190505050610afb565b005b61043d6004803603602081101561041157600080fd5b81019080803573ffffffffffffffffffffffffffffffffffffffff169060200190929190505050610baf565b005b6104756004803603604081101561045557600080fd5b810190808035906020019092919080359060200190929190505050610bc6565b005b6104b76004803603606081101561048d57600080fd5b81019080803590602001909291908035906020019092919080359060200190929190505050610c44565b005b610505600480360360408110156104cf57600080fd5b81019080803573ffffffffffffffffffffffffffffffffffffffff16906020019092919080359060200190929190505050610ccb565b604051808215151515815260200191505060405180910390f35b61056b6004803603604081101561053557600080fd5b81019080803573ffffffffffffffffffffffffffffffffffffffff16906020019092919080359060200190929190505050610d9d565b005b610575610e47565b005b6106026004803603606081101561058d57600080fd5b81019080803590602001906401000000008111156105aa57600080fd5b8201836020820111156105bc57600080fd5b803590602001918460018302840111640100000000831117156105de57600080fd5b90919293919293908035906020019092919080359060200190929190505050610eb3565b005b61063c6004803603604081101561061a57600080fd5b8101908080359060200190929190803515159060200190929190505050610f67565b005b60008073__OldTellorTransfer_____________________63cb6f7c66909185856040518463ffffffff1660e01b8152600401808481526020018373ffffffffffffffffffffffffffffffffffffffff1673ffffffffffffffffffffffffffffffffffffffff168152602001828152602001935050505060206040518083038186803b1580156106cd57600080fd5b505af41580156106e1573d6000803e3d6000fd5b505050506040513d60208110156106f757600080fd5b8101908080519060200190929190505050905092915050565b600073__OldTellorStake________________________636d09e1b490916040518263ffffffff1660e01b81526004018082815260200191505060006040518083038186803b15801561076257600080fd5b505af4158015610776573d6000803e3d6000fd5b50505050565b60008073__OldTellorTransfer_____________________6335ff14bd90918686866040518563ffffffff1660e01b8152600401808581526020018473ffffffffffffffffffffffffffffffffffffffff1673ffffffffffffffffffffffffffffffffffffffff1681526020018373ffffffffffffffffffffffffffffffffffffffff1673ffffffffffffffffffffffffffffffffffffffff16815260200182815260200194505050505060206040518083038186803b15801561083f57600080fd5b505af4158015610853573d6000803e3d6000fd5b505050506040513d602081101561086957600080fd5b810190808051906020019092919050505090509392505050565b600073__OldTellorDispute______________________63eaeddad99091836040518363ffffffff1660e01b8152600401808381526020018273ffffffffffffffffffffffffffffffffffffffff1673ffffffffffffffffffffffffffffffffffffffff1681526020019250505060006040518083038186803b15801561090957600080fd5b505af415801561091d573d6000803e3d6000fd5b5050505050565b600073__OldTellorStake________________________633c06d13990916040518263ffffffff1660e01b81526004018082815260200191505060006040518083038186803b15801561097657600080fd5b505af415801561098a573d6000803e3d6000fd5b50505050565b600073__OldTellorLibrary______________________63421ab07290918888888888886040518863ffffffff1660e01b81526004018088815260200180602001806020018581526020018481526020018381038352898982818152602001925080828437600081840152601f19601f8201169050808301925050508381038252878782818152602001925080828437600081840152601f19601f820116905080830192505050995050505050505050505060006040518083038186803b158015610a5a57600080fd5b505af4158015610a6e573d6000803e3d6000fd5b50505050505050505050565b600073__OldTellorDispute______________________63a513e1299091836040518363ffffffff1660e01b8152600401808381526020018281526020019250505060006040518083038186803b158015610ad457600080fd5b505af4158015610ae8573d6000803e3d6000fd5b5050505050565b610af96000610fe9565b565b600073__OldTellorLibrary______________________63c38a5c8a9091868686866040518663ffffffff1660e01b815260040180868152602001806020018481526020018381526020018281038252868682818152602001925080828437600081840152601f19601f820116905080830192505050965050505050505060006040518083038186803b158015610b9157600080fd5b505af4158015610ba5573d6000803e3d6000fd5b5050505050505050565b610bc38160006112af90919063ffffffff16565b50565b600073__OldTellorLibrary______________________6363687386909184846040518463ffffffff1660e01b815260040180848152602001838152602001828152602001935050505060006040518083038186803b158015610c2857600080fd5b505af4158015610c3c573d6000803e3d6000fd5b505050505050565b600073__OldTellorDispute______________________630edf76e490918585856040518563ffffffff1660e01b81526004018085815260200184815260200183815260200182815260200194505050505060006040518083038186803b158015610cae57600080fd5b505af4158015610cc2573d6000803e3d6000fd5b50505050505050565b60008073__OldTellorTransfer_____________________631e405eda909185856040518463ffffffff1660e01b8152600401808481526020018373ffffffffffffffffffffffffffffffffffffffff1673ffffffffffffffffffffffffffffffffffffffff168152602001828152602001935050505060206040518083038186803b158015610d5a57600080fd5b505af4158015610d6e573d6000803e3d6000fd5b505050506040513d6020811015610d8457600080fd5b8101908080519060200190929190505050905092915050565b600073__OldTellorLibrary______________________63fa0837b1909184846040518463ffffffff1660e01b8152600401808481526020018373ffffffffffffffffffffffffffffffffffffffff1673ffffffffffffffffffffffffffffffffffffffff168152602001828152602001935050505060006040518083038186803b158015610e2b57600080fd5b505af4158015610e3f573d6000803e3d6000fd5b505050505050565b600073__OldTellorStake________________________63e62c164590916040518263ffffffff1660e01b81526004018082815260200191505060006040518083038186803b158015610e9957600080fd5b505af4158015610ead573d6000803e3d6000fd5b50505050565b600073__OldTellorLibrary______________________63af026f0d9091868686866040518663ffffffff1660e01b815260040180868152602001806020018481526020018381526020018281038252868682818152602001925080828437600081840152601f19601f820116905080830192505050965050505050505060006040518083038186803b158015610f4957600080fd5b505af4158015610f5d573d6000803e3d6000fd5b5050505050505050565b600073__OldTellorDispute______________________632e8dcb7e909184846040518463ffffffff1660e01b81526004018084815260200183815260200182151515158152602001935050505060006040518083038186803b158015610fcd57600080fd5b505af4158015610fe1573d6000803e3d6000fd5b505050505050565b80603f01600060405180807f70656e64696e675f6f776e657200000000000000000000000000000000000000815250600d0190506040518091039020815260200190815260200160002060009054906101000a900473ffffffffffffffffffffffffffffffffffffffff1673ffffffffffffffffffffffffffffffffffffffff163373ffffffffffffffffffffffffffffffffffffffff161461108b57600080fd5b80603f01600060405180807f70656e64696e675f6f776e657200000000000000000000000000000000000000815250600d0190506040518091039020815260200190815260200160002060009054906101000a900473ffffffffffffffffffffffffffffffffffffffff1673ffffffffffffffffffffffffffffffffffffffff1681603f01600060405180807f5f6f776e6572000000000000000000000000000000000000000000000000000081525060060190506040518091039020815260200190815260200160002060009054906101000a900473ffffffffffffffffffffffffffffffffffffffff1673ffffffffffffffffffffffffffffffffffffffff167f8be0079c531659141344cd1fd0a4f28419497f9722a3daafe3b4186f6b6457e060405160405180910390a380603f01600060405180807f70656e64696e675f6f776e657200000000000000000000000000000000000000815250600d0190506040518091039020815260200190815260200160002060009054906101000a900473ffffffffffffffffffffffffffffffffffffffff1681603f01600060405180807f5f6f776e6572000000000000000000000000000000000000000000000000000081525060060190506040518091039020815260200190815260200160002060006101000a81548173ffffffffffffffffffffffffffffffffffffffff021916908373ffffffffffffffffffffffffffffffffffffffff16021790555050565b81603f01600060405180807f5f6f776e6572000000000000000000000000000000000000000000000000000081525060060190506040518091039020815260200190815260200160002060009054906101000a900473ffffffffffffffffffffffffffffffffffffffff1673ffffffffffffffffffffffffffffffffffffffff163373ffffffffffffffffffffffffffffffffffffffff161461135157600080fd5b8073ffffffffffffffffffffffffffffffffffffffff1682603f01600060405180807f5f6f776e6572000000000000000000000000000000000000000000000000000081525060060190506040518091039020815260200190815260200160002060009054906101000a900473ffffffffffffffffffffffffffffffffffffffff1673ffffffffffffffffffffffffffffffffffffffff167fb51454ce8c7f26becd312a46c4815553887f2ec876a0b8dc813b87f62edf6f8060405160405180910390a38082603f01600060405180807f70656e64696e675f6f776e657200000000000000000000000000000000000000815250600d0190506040518091039020815260200190815260200160002060006101000a81548173ffffffffffffffffffffffffffffffffffffffff021916908373ffffffffffffffffffffffffffffffffffffffff160217905550505056fea265627a7a7231582034f74224f4e8d3270e887aed68ac197f99cc5c40bc17197194e250f12ff1bac264736f6c63430005100032",
  "source": "pragma solidity ^0.5.0;\r\n\r\nimport \"./libraries/OldSafeMath.sol\";\r\nimport \"./libraries/OldTellorStorage.sol\";\r\nimport \"./libraries/OldTellorTransfer.sol\";\r\nimport \"./libraries/OldTellorDispute.sol\";\r\nimport \"./libraries/OldTellorStake.sol\";\r\nimport \"./libraries/OldTellorLibrary.sol\";\r\n\r\n/**\r\n * @title Tellor Oracle System\r\n * @dev Oracle contract where miners can submit the proof of work along with the value.\r\n * The logic for this contract is in TellorLibrary.sol, TellorDispute.sol, TellorStake.sol, \r\n * and TellorTransfer.sol\r\n */\r\ncontract OldTellor{\r\n\r\n    using OldSafeMath for uint256;\r\n\r\n    using OldTellorDispute for OldTellorStorage.TellorStorageStruct;\r\n    using OldTellorLibrary for OldTellorStorage.TellorStorageStruct;\r\n    using OldTellorStake for OldTellorStorage.TellorStorageStruct;\r\n    using OldTellorTransfer for OldTellorStorage.TellorStorageStruct;\r\n\r\n    OldTellorStorage.TellorStorageStruct tellor;\r\n\r\n    /*Functions*/\r\n    \r\n    /*This is a cheat for demo purposes, will delete upon actual launch*/\r\n    function theLazyCoon(address _address, uint _amount) public {\r\n        tellor.theLazyCoon(_address,_amount);\r\n    }\r\n\r\n\r\n    /**\r\n    * @dev Helps initialize a dispute by assigning it a disputeId \r\n    * when a miner returns a false on the validate array(in Tellor.ProofOfWork) it sends the \r\n    * invalidated value information to POS voting\r\n    * @param _requestId being disputed\r\n    * @param _timestamp being disputed\r\n    * @param _minerIndex the index of the miner that submitted the value being disputed. Since each official value \r\n    * requires 5 miners to submit a value.\r\n    */\r\n    function beginDispute(uint _requestId, uint _timestamp,uint _minerIndex) external {\r\n        tellor.beginDispute(_requestId,_timestamp,_minerIndex);\r\n    }\r\n\r\n\r\n    /**\r\n    * @dev Allows token holders to vote\r\n    * @param _disputeId is the dispute id\r\n    * @param _supportsDispute is the vote (true=the dispute has basis false = vote against dispute)\r\n    */\r\n    function vote(uint _disputeId, bool _supportsDispute) external {\r\n        tellor.vote(_disputeId,_supportsDispute);\r\n    }\r\n\r\n\r\n    /**\r\n    * @dev tallies the votes.\r\n    * @param _disputeId is the dispute id\r\n    */\r\n    function tallyVotes(uint _disputeId) external {\r\n        tellor.tallyVotes(_disputeId);\r\n    }\r\n\r\n\r\n    /**\r\n    * @dev Allows for a fork to be proposed\r\n    * @param _propNewTellorAddress address for new proposed Tellor\r\n    */\r\n    function proposeFork(address _propNewTellorAddress) external {\r\n        tellor.proposeFork(_propNewTellorAddress);\r\n    }\r\n\r\n\r\n   /**\r\n    * @dev Add tip to Request value from oracle\r\n    * @param _requestId being requested to be mined\r\n    * @param _tip amount the requester is willing to pay to be get on queue. Miners\r\n    * mine the onDeckQueryHash, or the api with the highest payout pool\r\n    */\r\n    function addTip(uint _requestId, uint _tip) external {\r\n        tellor.addTip(_requestId,_tip);\r\n    }\r\n\r\n\r\n    /**\r\n    * @dev Request to retreive value from oracle based on timestamp. The tip is not required to be \r\n    * greater than 0 because there are no tokens in circulation for the initial(genesis) request \r\n    * @param _c_sapi string API being requested be mined\r\n    * @param _c_symbol is the short string symbol for the api request\r\n    * @param _granularity is the number of decimals miners should include on the submitted value\r\n    * @param _tip amount the requester is willing to pay to be get on queue. Miners\r\n    * mine the onDeckQueryHash, or the api with the highest payout pool\r\n    */\r\n    function requestData(string calldata _c_sapi,string calldata _c_symbol,uint _granularity, uint _tip) external {\r\n        tellor.requestData(_c_sapi,_c_symbol,_granularity,_tip);\r\n    }\r\n\r\n\r\n    /**\r\n    * @dev Proof of work is called by the miner when they submit the solution (proof of work and value)\r\n    * @param _nonce uint submitted by miner\r\n    * @param _requestId the apiId being mined\r\n    * @param _value of api query\r\n    */\r\n    function submitMiningSolution(string calldata _nonce, uint _requestId, uint _value) external{\r\n        tellor.submitMiningSolution(_nonce,_requestId,_value);\r\n    }\r\n    function testSubmitMiningSolution(string calldata _nonce, uint256 _requestId, uint256 _value) external {\r\n        tellor.testSubmitMiningSolution(_nonce, _requestId, _value);\r\n    }\r\n    /**\r\n    * @dev Allows the current owner to propose transfer control of the contract to a \r\n    * newOwner and the ownership is pending until the new owner calls the claimOwnership \r\n    * function\r\n    * @param _pendingOwner The address to transfer ownership to.\r\n    */\r\n    function proposeOwnership(address payable _pendingOwner) external {\r\n        tellor.proposeOwnership(_pendingOwner);\r\n    }\r\n\r\n\r\n    /**\r\n    * @dev Allows the new owner to claim control of the contract\r\n    */\r\n    function claimOwnership() external {\r\n        tellor.claimOwnership();\r\n    }\r\n\r\n\r\n    /**\r\n    * @dev This function allows miners to deposit their stake.\r\n    */\r\n    function depositStake() external {\r\n        tellor.depositStake();\r\n    }\r\n\r\n\r\n    /**\r\n    * @dev This function allows stakers to request to withdraw their stake (no longer stake) \r\n    * once they lock for withdraw(stakes.currentStatus = 2) they are locked for 7 days before they \r\n    * can withdraw the stake\r\n    */\r\n    function requestStakingWithdraw() external {\r\n        tellor.requestStakingWithdraw();\r\n    }\r\n\r\n\r\n    /**\r\n    * @dev This function allows users to withdraw their stake after a 7 day waiting period from request \r\n    */\r\n    function withdrawStake() external {\r\n        tellor.withdrawStake();\r\n    }\r\n\r\n\r\n    /**\r\n    * @dev This function approves a _spender an _amount of tokens to use\r\n    * @param _spender address\r\n    * @param _amount amount the spender is being approved for\r\n    * @return true if spender appproved successfully\r\n    */\r\n    function approve(address _spender, uint _amount) external returns (bool) {\r\n        return tellor.approve(_spender,_amount);\r\n    }\r\n\r\n\r\n    /**\r\n    * @dev Allows for a transfer of tokens to _to\r\n    * @param _to The address to send tokens to\r\n    * @param _amount The amount of tokens to send\r\n    * @return true if transfer is successful\r\n    */\r\n    function transfer(address _to, uint256 _amount) external returns (bool) {\r\n        return tellor.transfer(_to,_amount);\r\n    }\r\n\r\n\r\n    /**\r\n    * @notice Send _amount tokens to _to from _from on the condition it\r\n    * is approved by _from\r\n    * @param _from The address holding the tokens being transferred\r\n    * @param _to The address of the recipient\r\n    * @param _amount The amount of tokens to be transferred\r\n    * @return True if the transfer was successful\r\n    */\r\n    function transferFrom(address _from, address _to, uint256 _amount) external returns (bool) {\r\n        return tellor.transferFrom(_from,_to,_amount);\r\n    }\r\n\r\n}\r\n",
  "sourcePath": "C:\\company\\code\\tellorlegacy\\contracts\\oldContracts\\OldTellor.sol",
  "compiler": {
    "name": "solc",
    "version": "0.5.16+commit.9c3226ce.Emscripten.clang"
  },
  "schemaVersion": "3.0.23",
  "updatedAt": "2020-10-04T01:22:39.718Z",
  "devdoc": {
    "details": "Oracle contract where miners can submit the proof of work along with the value. The logic for this contract is in TellorLibrary.sol, TellorDispute.sol, TellorStake.sol,  and TellorTransfer.sol",
    "methods": {
      "addTip(uint256,uint256)": {
        "details": "Add tip to Request value from oracle",
        "params": {
          "_requestId": "being requested to be mined",
          "_tip": "amount the requester is willing to pay to be get on queue. Miners mine the onDeckQueryHash, or the api with the highest payout pool"
        }
      },
      "approve(address,uint256)": {
        "details": "This function approves a _spender an _amount of tokens to use",
        "params": {
          "_amount": "amount the spender is being approved for",
          "_spender": "address"
        },
        "return": "true if spender appproved successfully"
      },
      "beginDispute(uint256,uint256,uint256)": {
        "details": "Helps initialize a dispute by assigning it a disputeId  when a miner returns a false on the validate array(in Tellor.ProofOfWork) it sends the  invalidated value information to POS voting",
        "params": {
          "_minerIndex": "the index of the miner that submitted the value being disputed. Since each official value  requires 5 miners to submit a value.",
          "_requestId": "being disputed",
          "_timestamp": "being disputed"
        }
      },
      "claimOwnership()": {
        "details": "Allows the new owner to claim control of the contract"
      },
      "depositStake()": {
        "details": "This function allows miners to deposit their stake."
      },
      "proposeFork(address)": {
        "details": "Allows for a fork to be proposed",
        "params": {
          "_propNewTellorAddress": "address for new proposed Tellor"
        }
      },
      "proposeOwnership(address)": {
        "details": "Allows the current owner to propose transfer control of the contract to a  newOwner and the ownership is pending until the new owner calls the claimOwnership  function",
        "params": {
          "_pendingOwner": "The address to transfer ownership to."
        }
      },
      "requestData(string,string,uint256,uint256)": {
        "details": "Request to retreive value from oracle based on timestamp. The tip is not required to be  greater than 0 because there are no tokens in circulation for the initial(genesis) request ",
        "params": {
          "_c_sapi": "string API being requested be mined",
          "_c_symbol": "is the short string symbol for the api request",
          "_granularity": "is the number of decimals miners should include on the submitted value",
          "_tip": "amount the requester is willing to pay to be get on queue. Miners mine the onDeckQueryHash, or the api with the highest payout pool"
        }
      },
      "requestStakingWithdraw()": {
        "details": "This function allows stakers to request to withdraw their stake (no longer stake)  once they lock for withdraw(stakes.currentStatus = 2) they are locked for 7 days before they  can withdraw the stake"
      },
      "submitMiningSolution(string,uint256,uint256)": {
        "details": "Proof of work is called by the miner when they submit the solution (proof of work and value)",
        "params": {
          "_nonce": "uint submitted by miner",
          "_requestId": "the apiId being mined",
          "_value": "of api query"
        }
      },
      "tallyVotes(uint256)": {
        "details": "tallies the votes.",
        "params": {
          "_disputeId": "is the dispute id"
        }
      },
      "transfer(address,uint256)": {
        "details": "Allows for a transfer of tokens to _to",
        "params": {
          "_amount": "The amount of tokens to send",
          "_to": "The address to send tokens to"
        },
        "return": "true if transfer is successful"
      },
      "transferFrom(address,address,uint256)": {
        "params": {
          "_amount": "The amount of tokens to be transferred",
          "_from": "The address holding the tokens being transferred",
          "_to": "The address of the recipient"
        },
        "return": "True if the transfer was successful"
      },
      "vote(uint256,bool)": {
        "details": "Allows token holders to vote",
        "params": {
          "_disputeId": "is the dispute id",
          "_supportsDispute": "is the vote (true=the dispute has basis false = vote against dispute)"
        }
      },
      "withdrawStake()": {
        "details": "This function allows users to withdraw their stake after a 7 day waiting period from request "
      }
    },
    "title": "Tellor Oracle System"
  },
  "userdoc": {
    "methods": {
      "transferFrom(address,address,uint256)": {
        "notice": "Send _amount tokens to _to from _from on the condition it is approved by _from"
      }
    }
  }
}