{
  "contractName": "OldTellorGetters",
  "abi": [
    {
      "constant": true,
      "inputs": [
        {
          "internalType": "address",
          "name": "_user",
          "type": "address"
        },
        {
          "internalType": "address",
          "name": "_spender",
          "type": "address"
        }
      ],
      "name": "allowance",
      "outputs": [
        {
          "internalType": "uint256",
          "name": "",
          "type": "uint256"
        }
      ],
      "payable": false,
      "stateMutability": "view",
      "type": "function"
    },
    {
      "constant": true,
      "inputs": [
        {
          "internalType": "address",
          "name": "_user",
          "type": "address"
        },
        {
          "internalType": "uint256",
          "name": "_amount",
          "type": "uint256"
        }
      ],
      "name": "allowedToTrade",
      "outputs": [
        {
          "internalType": "bool",
          "name": "",
          "type": "bool"
        }
      ],
      "payable": false,
      "stateMutability": "view",
      "type": "function"
    },
    {
      "constant": true,
      "inputs": [
        {
          "internalType": "address",
          "name": "_user",
          "type": "address"
        }
      ],
      "name": "balanceOf",
      "outputs": [
        {
          "internalType": "uint256",
          "name": "",
          "type": "uint256"
        }
      ],
      "payable": false,
      "stateMutability": "view",
      "type": "function"
    },
    {
      "constant": true,
      "inputs": [
        {
          "internalType": "address",
          "name": "_user",
          "type": "address"
        },
        {
          "internalType": "uint256",
          "name": "_blockNumber",
          "type": "uint256"
        }
      ],
      "name": "balanceOfAt",
      "outputs": [
        {
          "internalType": "uint256",
          "name": "",
          "type": "uint256"
        }
      ],
      "payable": false,
      "stateMutability": "view",
      "type": "function"
    },
    {
      "constant": true,
      "inputs": [
        {
          "internalType": "bytes32",
          "name": "_challenge",
          "type": "bytes32"
        },
        {
          "internalType": "address",
          "name": "_miner",
          "type": "address"
        }
      ],
      "name": "didMine",
      "outputs": [
        {
          "internalType": "bool",
          "name": "",
          "type": "bool"
        }
      ],
      "payable": false,
      "stateMutability": "view",
      "type": "function"
    },
    {
      "constant": true,
      "inputs": [
        {
          "internalType": "uint256",
          "name": "_disputeId",
          "type": "uint256"
        },
        {
          "internalType": "address",
          "name": "_address",
          "type": "address"
        }
      ],
      "name": "didVote",
      "outputs": [
        {
          "internalType": "bool",
          "name": "",
          "type": "bool"
        }
      ],
      "payable": false,
      "stateMutability": "view",
      "type": "function"
    },
    {
      "constant": true,
      "inputs": [
        {
          "internalType": "bytes32",
          "name": "_data",
          "type": "bytes32"
        }
      ],
      "name": "getAddressVars",
      "outputs": [
        {
          "internalType": "address",
          "name": "",
          "type": "address"
        }
      ],
      "payable": false,
      "stateMutability": "view",
      "type": "function"
    },
    {
      "constant": true,
      "inputs": [
        {
          "internalType": "uint256",
          "name": "_disputeId",
          "type": "uint256"
        }
      ],
      "name": "getAllDisputeVars",
      "outputs": [
        {
          "internalType": "bytes32",
          "name": "",
          "type": "bytes32"
        },
        {
          "internalType": "bool",
          "name": "",
          "type": "bool"
        },
        {
          "internalType": "bool",
          "name": "",
          "type": "bool"
        },
        {
          "internalType": "bool",
          "name": "",
          "type": "bool"
        },
        {
          "internalType": "address",
          "name": "",
          "type": "address"
        },
        {
          "internalType": "address",
          "name": "",
          "type": "address"
        },
        {
          "internalType": "address",
          "name": "",
          "type": "address"
        },
        {
          "internalType": "uint256[9]",
          "name": "",
          "type": "uint256[9]"
        },
        {
          "internalType": "int256",
          "name": "",
          "type": "int256"
        }
      ],
      "payable": false,
      "stateMutability": "view",
      "type": "function"
    },
    {
      "constant": true,
      "inputs": [],
      "name": "getCurrentVariables",
      "outputs": [
        {
          "internalType": "bytes32",
          "name": "",
          "type": "bytes32"
        },
        {
          "internalType": "uint256",
          "name": "",
          "type": "uint256"
        },
        {
          "internalType": "uint256",
          "name": "",
          "type": "uint256"
        },
        {
          "internalType": "string",
          "name": "",
          "type": "string"
        },
        {
          "internalType": "uint256",
          "name": "",
          "type": "uint256"
        },
        {
          "internalType": "uint256",
          "name": "",
          "type": "uint256"
        }
      ],
      "payable": false,
      "stateMutability": "view",
      "type": "function"
    },
    {
      "constant": true,
      "inputs": [
        {
          "internalType": "bytes32",
          "name": "_hash",
          "type": "bytes32"
        }
      ],
      "name": "getDisputeIdByDisputeHash",
      "outputs": [
        {
          "internalType": "uint256",
          "name": "",
          "type": "uint256"
        }
      ],
      "payable": false,
      "stateMutability": "view",
      "type": "function"
    },
    {
      "constant": true,
      "inputs": [
        {
          "internalType": "uint256",
          "name": "_disputeId",
          "type": "uint256"
        },
        {
          "internalType": "bytes32",
          "name": "_data",
          "type": "bytes32"
        }
      ],
      "name": "getDisputeUintVars",
      "outputs": [
        {
          "internalType": "uint256",
          "name": "",
          "type": "uint256"
        }
      ],
      "payable": false,
      "stateMutability": "view",
      "type": "function"
    },
    {
      "constant": true,
      "inputs": [],
      "name": "getLastNewValue",
      "outputs": [
        {
          "internalType": "uint256",
          "name": "",
          "type": "uint256"
        },
        {
          "internalType": "bool",
          "name": "",
          "type": "bool"
        }
      ],
      "payable": false,
      "stateMutability": "view",
      "type": "function"
    },
    {
      "constant": true,
      "inputs": [
        {
          "internalType": "uint256",
          "name": "_requestId",
          "type": "uint256"
        }
      ],
      "name": "getLastNewValueById",
      "outputs": [
        {
          "internalType": "uint256",
          "name": "",
          "type": "uint256"
        },
        {
          "internalType": "bool",
          "name": "",
          "type": "bool"
        }
      ],
      "payable": false,
      "stateMutability": "view",
      "type": "function"
    },
    {
      "constant": true,
      "inputs": [
        {
          "internalType": "uint256",
          "name": "_requestId",
          "type": "uint256"
        },
        {
          "internalType": "uint256",
          "name": "_timestamp",
          "type": "uint256"
        }
      ],
      "name": "getMinedBlockNum",
      "outputs": [
        {
          "internalType": "uint256",
          "name": "",
          "type": "uint256"
        }
      ],
      "payable": false,
      "stateMutability": "view",
      "type": "function"
    },
    {
      "constant": true,
      "inputs": [
        {
          "internalType": "uint256",
          "name": "_requestId",
          "type": "uint256"
        },
        {
          "internalType": "uint256",
          "name": "_timestamp",
          "type": "uint256"
        }
      ],
      "name": "getMinersByRequestIdAndTimestamp",
      "outputs": [
        {
          "internalType": "address[5]",
          "name": "",
          "type": "address[5]"
        }
      ],
      "payable": false,
      "stateMutability": "view",
      "type": "function"
    },
    {
      "constant": true,
      "inputs": [],
      "name": "getName",
      "outputs": [
        {
          "internalType": "string",
          "name": "",
          "type": "string"
        }
      ],
      "payable": false,
      "stateMutability": "pure",
      "type": "function"
    },
    {
      "constant": true,
      "inputs": [
        {
          "internalType": "uint256",
          "name": "_requestId",
          "type": "uint256"
        }
      ],
      "name": "getNewValueCountbyRequestId",
      "outputs": [
        {
          "internalType": "uint256",
          "name": "",
          "type": "uint256"
        }
      ],
      "payable": false,
      "stateMutability": "view",
      "type": "function"
    },
    {
      "constant": true,
      "inputs": [
        {
          "internalType": "uint256",
          "name": "_index",
          "type": "uint256"
        }
      ],
      "name": "getRequestIdByRequestQIndex",
      "outputs": [
        {
          "internalType": "uint256",
          "name": "",
          "type": "uint256"
        }
      ],
      "payable": false,
      "stateMutability": "view",
      "type": "function"
    },
    {
      "constant": true,
      "inputs": [
        {
          "internalType": "uint256",
          "name": "_timestamp",
          "type": "uint256"
        }
      ],
      "name": "getRequestIdByTimestamp",
      "outputs": [
        {
          "internalType": "uint256",
          "name": "",
          "type": "uint256"
        }
      ],
      "payable": false,
      "stateMutability": "view",
      "type": "function"
    },
    {
      "constant": true,
      "inputs": [
        {
          "internalType": "bytes32",
          "name": "_request",
          "type": "bytes32"
        }
      ],
      "name": "getRequestIdByQueryHash",
      "outputs": [
        {
          "internalType": "uint256",
          "name": "",
          "type": "uint256"
        }
      ],
      "payable": false,
      "stateMutability": "view",
      "type": "function"
    },
    {
      "constant": true,
      "inputs": [],
      "name": "getRequestQ",
      "outputs": [
        {
          "internalType": "uint256[51]",
          "name": "",
          "type": "uint256[51]"
        }
      ],
      "payable": false,
      "stateMutability": "view",
      "type": "function"
    },
    {
      "constant": true,
      "inputs": [
        {
          "internalType": "uint256",
          "name": "_requestId",
          "type": "uint256"
        },
        {
          "internalType": "bytes32",
          "name": "_data",
          "type": "bytes32"
        }
      ],
      "name": "getRequestUintVars",
      "outputs": [
        {
          "internalType": "uint256",
          "name": "",
          "type": "uint256"
        }
      ],
      "payable": false,
      "stateMutability": "view",
      "type": "function"
    },
    {
      "constant": true,
      "inputs": [
        {
          "internalType": "uint256",
          "name": "_requestId",
          "type": "uint256"
        }
      ],
      "name": "getRequestVars",
      "outputs": [
        {
          "internalType": "string",
          "name": "",
          "type": "string"
        },
        {
          "internalType": "string",
          "name": "",
          "type": "string"
        },
        {
          "internalType": "bytes32",
          "name": "",
          "type": "bytes32"
        },
        {
          "internalType": "uint256",
          "name": "",
          "type": "uint256"
        },
        {
          "internalType": "uint256",
          "name": "",
          "type": "uint256"
        },
        {
          "internalType": "uint256",
          "name": "",
          "type": "uint256"
        }
      ],
      "payable": false,
      "stateMutability": "view",
      "type": "function"
    },
    {
      "constant": true,
      "inputs": [
        {
          "internalType": "address",
          "name": "_staker",
          "type": "address"
        }
      ],
      "name": "getStakerInfo",
      "outputs": [
        {
          "internalType": "uint256",
          "name": "",
          "type": "uint256"
        },
        {
          "internalType": "uint256",
          "name": "",
          "type": "uint256"
        }
      ],
      "payable": false,
      "stateMutability": "view",
      "type": "function"
    },
    {
      "constant": true,
      "inputs": [
        {
          "internalType": "uint256",
          "name": "_requestId",
          "type": "uint256"
        },
        {
          "internalType": "uint256",
          "name": "_timestamp",
          "type": "uint256"
        }
      ],
      "name": "getSubmissionsByTimestamp",
      "outputs": [
        {
          "internalType": "uint256[5]",
          "name": "",
          "type": "uint256[5]"
        }
      ],
      "payable": false,
      "stateMutability": "view",
      "type": "function"
    },
    {
      "constant": true,
      "inputs": [],
      "name": "getSymbol",
      "outputs": [
        {
          "internalType": "string",
          "name": "",
          "type": "string"
        }
      ],
      "payable": false,
      "stateMutability": "pure",
      "type": "function"
    },
    {
      "constant": true,
      "inputs": [
        {
          "internalType": "uint256",
          "name": "_requestID",
          "type": "uint256"
        },
        {
          "internalType": "uint256",
          "name": "_index",
          "type": "uint256"
        }
      ],
      "name": "getTimestampbyRequestIDandIndex",
      "outputs": [
        {
          "internalType": "uint256",
          "name": "",
          "type": "uint256"
        }
      ],
      "payable": false,
      "stateMutability": "view",
      "type": "function"
    },
    {
      "constant": true,
      "inputs": [
        {
          "internalType": "bytes32",
          "name": "_data",
          "type": "bytes32"
        }
      ],
      "name": "getUintVar",
      "outputs": [
        {
          "internalType": "uint256",
          "name": "",
          "type": "uint256"
        }
      ],
      "payable": false,
      "stateMutability": "view",
      "type": "function"
    },
    {
      "constant": true,
      "inputs": [],
      "name": "getVariablesOnDeck",
      "outputs": [
        {
          "internalType": "uint256",
          "name": "",
          "type": "uint256"
        },
        {
          "internalType": "uint256",
          "name": "",
          "type": "uint256"
        },
        {
          "internalType": "string",
          "name": "",
          "type": "string"
        }
      ],
      "payable": false,
      "stateMutability": "view",
      "type": "function"
    },
    {
      "constant": true,
      "inputs": [
        {
          "internalType": "uint256",
          "name": "_requestId",
          "type": "uint256"
        },
        {
          "internalType": "uint256",
          "name": "_timestamp",
          "type": "uint256"
        }
      ],
      "name": "isInDispute",
      "outputs": [
        {
          "internalType": "bool",
          "name": "",
          "type": "bool"
        }
      ],
      "payable": false,
      "stateMutability": "view",
      "type": "function"
    },
    {
      "constant": true,
      "inputs": [
        {
          "internalType": "uint256",
          "name": "_requestId",
          "type": "uint256"
        },
        {
          "internalType": "uint256",
          "name": "_timestamp",
          "type": "uint256"
        }
      ],
      "name": "retrieveData",
      "outputs": [
        {
          "internalType": "uint256",
          "name": "",
          "type": "uint256"
        }
      ],
      "payable": false,
      "stateMutability": "view",
      "type": "function"
    },
    {
      "constant": true,
      "inputs": [],
      "name": "totalSupply",
      "outputs": [
        {
          "internalType": "uint256",
          "name": "",
          "type": "uint256"
        }
      ],
      "payable": false,
      "stateMutability": "view",
      "type": "function"
    }
  ],
  "bytecode": "0x608060405234801561001057600080fd5b506128f6806100206000396000f3fe608060405234801561001057600080fd5b50600436106101f05760003560e01c806370a082311161010f578063af0b1327116100a2578063dd62ed3e11610071578063dd62ed3e14610cc2578063e0ae93c114610d3a578063e1eee6d614610d86578063fc7cf0a014610eb5576101f0565b8063af0b132714610abc578063b541302914610bee578063c775b54214610c34578063da37994114610c80576101f0565b806393fa4915116100de57806393fa4915146108fe578063999cf26c1461094a578063a22e407a146109b0578063a7c438bc14610a56576101f0565b806370a08231146107af578063733bdef01461080757806377fbb663146108665780637f6fd5d9146108b2576101f0565b80633180f8df11610187578063612c8f7f11610156578063612c8f7f146106515780636173c0b81461069357806363bb82ad146106d557806369026d631461073b576101f0565b80633180f8df146105105780633df0777b1461055d57806346eee1c4146105ad5780634ee2cd7e146105ef576101f0565b806317d7de7c116101c357806317d7de7c1461039c57806318160ddd1461041f57806319e8e03b1461043d5780631db842f0146104ce576101f0565b80630f0b424d146101f557806311c9851214610237578063133bee5e146102ab5780631507040114610319575b600080fd5b6102216004803603602081101561020b57600080fd5b8101908080359060200190929190505050610ede565b6040518082815260200191505060405180910390f35b61026d6004803603604081101561024d57600080fd5b810190808035906020019092919080359060200190929190505050610efb565b6040518082600560200280838360005b8381101561029857808201518184015260208101905061027d565b5050505090500191505060405180910390f35b6102d7600480360360208110156102c157600080fd5b8101908080359060200190929190505050610f21565b604051808273ffffffffffffffffffffffffffffffffffffffff1673ffffffffffffffffffffffffffffffffffffffff16815260200191505060405180910390f35b610321610f3e565b6040518080602001828103825283818151815260200191508051906020019080838360005b83811015610361578082015181840152602081019050610346565b50505050905090810190601f16801561038e5780820380516001836020036101000a031916815260200191505b509250505060405180910390f35b6103a4610f7b565b6040518080602001828103825283818151815260200191508051906020019080838360005b838110156103e45780820151818401526020810190506103c9565b50505050905090810190601f1680156104115780820380516001836020036101000a031916815260200191505b509250505060405180910390f35b610427610fb8565b6040518082815260200191505060405180910390f35b610445610fc9565b6040518084815260200183815260200180602001828103825283818151815260200191508051906020019080838360005b83811015610491578082015181840152602081019050610476565b50505050905090810190601f1680156104be5780820380516001836020036101000a031916815260200191505b5094505050505060405180910390f35b6104fa600480360360208110156104e457600080fd5b8101908080359060200190929190505050610fe3565b6040518082815260200191505060405180910390f35b61053c6004803603602081101561052657600080fd5b8101908080359060200190929190505050611000565b60405180838152602001821515151581526020019250505060405180910390f35b6105936004803603604081101561057357600080fd5b810190808035906020019092919080359060200190929190505050611020565b604051808215151515815260200191505060405180910390f35b6105d9600480360360208110156105c357600080fd5b8101908080359060200190929190505050611040565b6040518082815260200191505060405180910390f35b61063b6004803603604081101561060557600080fd5b81019080803573ffffffffffffffffffffffffffffffffffffffff1690602001909291908035906020019092919050505061105d565b6040518082815260200191505060405180910390f35b61067d6004803603602081101561066757600080fd5b810190808035906020019092919050505061112f565b6040518082815260200191505060405180910390f35b6106bf600480360360208110156106a957600080fd5b810190808035906020019092919050505061114c565b6040518082815260200191505060405180910390f35b610721600480360360408110156106eb57600080fd5b8101908080359060200190929190803573ffffffffffffffffffffffffffffffffffffffff169060200190929190505050611169565b604051808215151515815260200191505060405180910390f35b6107716004803603604081101561075157600080fd5b810190808035906020019092919080359060200190929190505050611189565b6040518082600560200280838360005b8381101561079c578082015181840152602081019050610781565b5050505090500191505060405180910390f35b6107f1600480360360208110156107c557600080fd5b81019080803573ffffffffffffffffffffffffffffffffffffffff1690602001909291905050506111af565b6040518082815260200191505060405180910390f35b6108496004803603602081101561081d57600080fd5b81019080803573ffffffffffffffffffffffffffffffffffffffff169060200190929190505050611278565b604051808381526020018281526020019250505060405180910390f35b61089c6004803603604081101561087c57600080fd5b810190808035906020019092919080359060200190929190505050611298565b6040518082815260200191505060405180910390f35b6108e8600480360360408110156108c857600080fd5b8101908080359060200190929190803590602001909291905050506112b8565b6040518082815260200191505060405180910390f35b6109346004803603604081101561091457600080fd5b8101908080359060200190929190803590602001909291905050506112d8565b6040518082815260200191505060405180910390f35b6109966004803603604081101561096057600080fd5b81019080803573ffffffffffffffffffffffffffffffffffffffff169060200190929190803590602001909291905050506112f8565b604051808215151515815260200191505060405180910390f35b6109b86113ca565b6040518087815260200186815260200185815260200180602001848152602001838152602001828103825285818151815260200191508051906020019080838360005b83811015610a165780820151818401526020810190506109fb565b50505050905090810190601f168015610a435780820380516001836020036101000a031916815260200191505b5097505050505050505060405180910390f35b610aa260048036036040811015610a6c57600080fd5b8101908080359060200190929190803573ffffffffffffffffffffffffffffffffffffffff1690602001909291905050506113f2565b604051808215151515815260200191505060405180910390f35b610ae860048036036020811015610ad257600080fd5b8101908080359060200190929190505050611412565b604051808a81526020018915151515815260200188151515158152602001871515151581526020018673ffffffffffffffffffffffffffffffffffffffff1673ffffffffffffffffffffffffffffffffffffffff1681526020018573ffffffffffffffffffffffffffffffffffffffff1673ffffffffffffffffffffffffffffffffffffffff1681526020018473ffffffffffffffffffffffffffffffffffffffff1673ffffffffffffffffffffffffffffffffffffffff16815260200183600960200280838360005b83811015610bcd578082015181840152602081019050610bb2565b50505050905001828152602001995050505050505050505060405180910390f35b610bf661145a565b6040518082603360200280838360005b83811015610c21578082015181840152602081019050610c06565b5050505090500191505060405180910390f35b610c6a60048036036040811015610c4a57600080fd5b810190808035906020019092919080359060200190929190505050611471565b6040518082815260200191505060405180910390f35b610cac60048036036020811015610c9657600080fd5b8101908080359060200190929190505050611491565b6040518082815260200191505060405180910390f35b610d2460048036036040811015610cd857600080fd5b81019080803573ffffffffffffffffffffffffffffffffffffffff169060200190929190803573ffffffffffffffffffffffffffffffffffffffff1690602001909291905050506114ae565b6040518082815260200191505060405180910390f35b610d7060048036036040811015610d5057600080fd5b8101908080359060200190929190803590602001909291905050506115ac565b6040518082815260200191505060405180910390f35b610db260048036036020811015610d9c57600080fd5b81019080803590602001909291905050506115cc565b604051808060200180602001878152602001868152602001858152602001848152602001838103835289818151815260200191508051906020019080838360005b83811015610e0e578082015181840152602081019050610df3565b50505050905090810190601f168015610e3b5780820380516001836020036101000a031916815260200191505b50838103825288818151815260200191508051906020019080838360005b83811015610e74578082015181840152602081019050610e59565b50505050905090810190601f168015610ea15780820380516001836020036101000a031916815260200191505b509850505050505050505060405180910390f35b610ebd6115fe565b60405180838152602001821515151581526020019250505060405180910390f35b6000610ef482600061161390919063ffffffff16565b9050919050565b610f03612837565b610f19838360006116339092919063ffffffff16565b905092915050565b6000610f378260006116a990919063ffffffff16565b9050919050565b60606040518060400160405280600281526020017f5454000000000000000000000000000000000000000000000000000000000000815250905090565b60606040518060400160405280600f81526020017f54656c6c6f722054726962757465730000000000000000000000000000000000815250905090565b6000610fc460006116e9565b905090565b6000806060610fd8600061173d565b925092509250909192565b6000610ff982600061187190919063ffffffff16565b9050919050565b60008061101783600061189190919063ffffffff16565b91509150915091565b60006110388383600061190a9092919063ffffffff16565b905092915050565b600061105682600061194c90919063ffffffff16565b9050919050565b60008073__OldTellorTransfer_____________________6389c247e2909185856040518463ffffffff1660e01b8152600401808481526020018373ffffffffffffffffffffffffffffffffffffffff1673ffffffffffffffffffffffffffffffffffffffff168152602001828152602001935050505060206040518083038186803b1580156110ec57600080fd5b505af4158015611100573d6000803e3d6000fd5b505050506040513d602081101561111657600080fd5b8101908080519060200190929190505050905092915050565b600061114582600061197290919063ffffffff16565b9050919050565b600061116282600061199290919063ffffffff16565b9050919050565b6000611181838360006119c09092919063ffffffff16565b905092915050565b611191612859565b6111a783836000611a2b9092919063ffffffff16565b905092915050565b60008073__OldTellorTransfer_____________________63bb0a519e9091846040518363ffffffff1660e01b8152600401808381526020018273ffffffffffffffffffffffffffffffffffffffff1673ffffffffffffffffffffffffffffffffffffffff1681526020019250505060206040518083038186803b15801561123657600080fd5b505af415801561124a573d6000803e3d6000fd5b505050506040513d602081101561126057600080fd5b81019080805190602001909291905050509050919050565b60008061128f836000611ad790919063ffffffff16565b91509150915091565b60006112b083836000611b6f9092919063ffffffff16565b905092915050565b60006112d083836000611ba89092919063ffffffff16565b905092915050565b60006112f083836000611bdd9092919063ffffffff16565b905092915050565b60008073__OldTellorTransfer_____________________6375f7b5b2909185856040518463ffffffff1660e01b8152600401808481526020018373ffffffffffffffffffffffffffffffffffffffff1673ffffffffffffffffffffffffffffffffffffffff168152602001828152602001935050505060206040518083038186803b15801561138757600080fd5b505af415801561139b573d6000803e3d6000fd5b505050506040513d60208110156113b157600080fd5b8101908080519060200190929190505050905092915050565b600080600060606000806113de6000611c12565b955095509550955095509550909192939495565b600061140a83836000611f1c9092919063ffffffff16565b905092915050565b600080600080600080600061142561287b565b600061143b8a6000611f8a90919063ffffffff16565b9850985098509850985098509850985098509193959799909294969850565b61146261289e565b61146c6000612360565b905090565b6000611489838360006123af9092919063ffffffff16565b905092915050565b60006114a78260006123e490919063ffffffff16565b9050919050565b60008073__OldTellorTransfer_____________________63adf5211b909185856040518463ffffffff1660e01b8152600401808481526020018373ffffffffffffffffffffffffffffffffffffffff1673ffffffffffffffffffffffffffffffffffffffff1681526020018273ffffffffffffffffffffffffffffffffffffffff1673ffffffffffffffffffffffffffffffffffffffff168152602001935050505060206040518083038186803b15801561156957600080fd5b505af415801561157d573d6000803e3d6000fd5b505050506040513d602081101561159357600080fd5b8101908080519060200190929190505050905092915050565b60006115c4838360006124049092919063ffffffff16565b905092915050565b6060806000806000806115e987600061243990919063ffffffff16565b95509550955095509550955091939550919395565b60008061160b6000612698565b915091509091565b600082604201600083815260200190815260200160002054905092915050565b61163b612837565b836048016000848152602001908152602001600020600901600083815260200190815260200160002060058060200260405190810160405280929190826005801561169b576020028201915b815481526020019060010190808311611687575b505050505090509392505050565b600082603f01600083815260200190815260200160002060009054906101000a900473ffffffffffffffffffffffffffffffffffffffff16905092915050565b600081604001600060405180807f746f74616c5f737570706c790000000000000000000000000000000000000000815250600c01905060405180910390208152602001908152602001600020549050919050565b6000806060600061174d8561275a565b905080856048016000838152602001908152602001600020600401600060405180807f746f74616c54697000000000000000000000000000000000000000000000000081525060080190506040518091039020815260200190815260200160002054866048016000848152602001908152602001600020600001808054600181600116156101000203166002900480601f01602080910402602001604051908101604052809291908181526020018280546001816001161561010002031660029004801561185c5780601f106118315761010080835404028352916020019161185c565b820191906000526020600020905b81548152906001019060200180831161183f57829003601f168201915b50505050509050935093509350509193909250565b600082604901600083815260200190815260200160002054905092915050565b600080600084604801600085815260200190815260200160002090506000816003018054905011156118f7576118eb8585836003016001856003018054905003815481106118db57fe5b9060005260206000200154611bdd565b60019250925050611903565b60008081915092509250505b9250929050565b6000836048016000848152602001908152602001600020600701600083815260200190815260200160002060009054906101000a900460ff1690509392505050565b600082604801600083815260200190815260200160002060030180549050905092915050565b600082604001600083815260200190815260200160002054905092915050565b600060328211156119a257600080fd5b82604301600083815260200190815260200160002054905092915050565b600083604101600084815260200190815260200160002060008373ffffffffffffffffffffffffffffffffffffffff1673ffffffffffffffffffffffffffffffffffffffff16815260200190815260200160002060009054906101000a900460ff1690509392505050565b611a33612859565b8360480160008481526020019081526020016000206008016000838152602001908152602001600020600580602002604051908101604052809291908260058015611ac9576020028201915b8160009054906101000a900473ffffffffffffffffffffffffffffffffffffffff1673ffffffffffffffffffffffffffffffffffffffff1681526020019060010190808311611a7f575b505050505090509392505050565b6000808360470160008473ffffffffffffffffffffffffffffffffffffffff1673ffffffffffffffffffffffffffffffffffffffff168152602001908152602001600020600001548460470160008573ffffffffffffffffffffffffffffffffffffffff1673ffffffffffffffffffffffffffffffffffffffff16815260200190815260200160002060010154915091509250929050565b60008360480160008481526020019081526020016000206003018281548110611b9457fe5b906000526020600020015490509392505050565b600083604401600084815260200190815260200160002060050160008381526020019081526020016000205490509392505050565b600083604801600084815260200190815260200160002060060160008381526020019081526020016000205490509392505050565b60008060006060600080866000015487604001600060405180807f63757272656e74526571756573744964000000000000000000000000000000008152506010019050604051809103902081526020019081526020016000205488604001600060405180807f646966666963756c747900000000000000000000000000000000000000000000815250600a01905060405180910390208152602001908152602001600020548960480160008b604001600060405180807f63757272656e74526571756573744964000000000000000000000000000000008152506010019050604051809103902081526020019081526020016000205481526020019081526020016000206000018a60480160008c604001600060405180807f63757272656e7452657175657374496400000000000000000000000000000000815250601001905060405180910390208152602001908152602001600020548152602001908152602001600020600401600060405180807f6772616e756c6172697479000000000000000000000000000000000000000000815250600b01905060405180910390208152602001908152602001600020548b60480160008d604001600060405180807f63757272656e7452657175657374496400000000000000000000000000000000815250601001905060405180910390208152602001908152602001600020548152602001908152602001600020600401600060405180807f746f74616c54697000000000000000000000000000000000000000000000000081525060080190506040518091039020815260200190815260200160002054828054600181600116156101000203166002900480601f016020809104026020016040519081016040528092919081815260200182805460018160011615610100020316600290048015611f005780601f10611ed557610100808354040283529160200191611f00565b820191906000526020600020905b815481529060010190602001808311611ee357829003601f168201915b5050505050925095509550955095509550955091939550919395565b600083604401600084815260200190815260200160002060060160008373ffffffffffffffffffffffffffffffffffffffff1673ffffffffffffffffffffffffffffffffffffffff16815260200190815260200160002060009054906101000a900460ff1690509392505050565b6000806000806000806000611f9d61287b565b6000808b60440160008c8152602001908152602001600020905080600001548160020160009054906101000a900460ff168260020160019054906101000a900460ff168360020160029054906101000a900460ff168460020160039054906101000a900473ffffffffffffffffffffffffffffffffffffffff168560030160009054906101000a900473ffffffffffffffffffffffffffffffffffffffff168660040160009054906101000a900473ffffffffffffffffffffffffffffffffffffffff1660405180610120016040528089600501600060405180807f726571756573744964000000000000000000000000000000000000000000000081525060090190506040518091039020815260200190815260200160002054815260200189600501600060405180807f74696d657374616d70000000000000000000000000000000000000000000000081525060090190506040518091039020815260200190815260200160002054815260200189600501600060405180807f76616c756500000000000000000000000000000000000000000000000000000081525060050190506040518091039020815260200190815260200160002054815260200189600501600060405180807f6d696e457865637574696f6e446174650000000000000000000000000000000081525060100190506040518091039020815260200190815260200160002054815260200189600501600060405180807f6e756d6265724f66566f74657300000000000000000000000000000000000000815250600d0190506040518091039020815260200190815260200160002054815260200189600501600060405180807f626c6f636b4e756d626572000000000000000000000000000000000000000000815250600b0190506040518091039020815260200190815260200160002054815260200189600501600060405180807f6d696e6572536c6f74000000000000000000000000000000000000000000000081525060090190506040518091039020815260200190815260200160002054815260200189600501600060405180807f71756f72756d000000000000000000000000000000000000000000000000000081525060060190506040518091039020815260200190815260200160002054815260200189600501600060405180807f6665650000000000000000000000000000000000000000000000000000000000815250600301905060405180910390208152602001908152602001600020548152508860010154995099509950995099509950995099509950509295985092959850929598565b61236861289e565b816001016033806020026040519081016040528092919082603380156123a3576020028201915b81548152602001906001019080831161238f575b50505050509050919050565b600083604801600084815260200190815260200160002060050160008381526020019081526020016000205490509392505050565b600082604a01600083815260200190815260200160002054905092915050565b600083604801600084815260200190815260200160002060040160008381526020019081526020016000205490509392505050565b606080600080600080600088604801600089815260200190815260200160002090508060000181600101826002015483600401600060405180807f6772616e756c6172697479000000000000000000000000000000000000000000815250600b019050604051809103902081526020019081526020016000205484600401600060405180807f7265717565737451506f736974696f6e000000000000000000000000000000008152506010019050604051809103902081526020019081526020016000205485600401600060405180807f746f74616c54697000000000000000000000000000000000000000000000000081525060080190506040518091039020815260200190815260200160002054858054600181600116156101000203166002900480601f0160208091040260200160405190810160405280929190818152602001828054600181600116156101000203166002900480156125de5780601f106125b3576101008083540402835291602001916125de565b820191906000526020600020905b8154815290600101906020018083116125c157829003601f168201915b50505050509550848054600181600116156101000203166002900480601f01602080910402602001604051908101604052809291908181526020018280546001816001161561010002031660029004801561267a5780601f1061264f5761010080835404028352916020019161267a565b820191906000526020600020905b81548152906001019060200180831161265d57829003601f168201915b50505050509450965096509650965096509650509295509295509295565b60008061274f8384604201600086604001600060405180807f74696d654f664c6173744e657756616c756500000000000000000000000000008152506012019050604051809103902081526020019081526020016000205481526020019081526020016000205485604001600060405180807f74696d654f664c6173744e657756616c7565000000000000000000000000000081525060120190506040518091039020815260200190815260200160002054611bdd565b600191509150915091565b60008060006127a78460010160338060200260405190810160405280929190826033801561279d576020028201915b815481526020019060010190808311612789575b50505050506127ce565b80925081935050508360430160008281526020019081526020016000205492505050919050565b600080826001603381106127de57fe5b602002015191506000600190505b6033811015612831578284826033811061280257fe5b602002015111156128245783816033811061281957fe5b602002015192508091505b80806001019150506127ec565b50915091565b6040518060a00160405280600590602082028038833980820191505090505090565b6040518060a00160405280600590602082028038833980820191505090505090565b604051806101200160405280600990602082028038833980820191505090505090565b60405180610660016040528060339060208202803883398082019150509050509056fea265627a7a72315820d9b31ecc4701bab4ca27561050e468477df303334a11735cc90a0c361374f05064736f6c63430005100032",
  "source": "pragma solidity ^0.5.0;\r\n\r\nimport \"./libraries/OldSafeMath.sol\";\r\nimport \"./libraries/OldTellorStorage.sol\";\r\nimport \"./libraries/OldTellorTransfer.sol\";\r\nimport \"./libraries/OldTellorGettersLibrary.sol\";\r\nimport \"./libraries/OldTellorStake.sol\";\r\n\r\n/**\r\n* @title Tellor Getters\r\n* @dev Oracle contract with all tellor getter functions. The logic for the functions on this contract \r\n* is saved on the TellorGettersLibrary, TellorTransfer, TellorGettersLibrary, and TellorStake\r\n*/\r\ncontract OldTellorGetters{\r\n    using OldSafeMath for uint256;\r\n\r\n    using OldTellorTransfer for OldTellorStorage.TellorStorageStruct;\r\n    using OldTellorGettersLibrary for OldTellorStorage.TellorStorageStruct;\r\n    using OldTellorStake for OldTellorStorage.TellorStorageStruct;\r\n\r\n    OldTellorStorage.TellorStorageStruct tellor;\r\n    \r\n    /**\r\n    * @param _user address\r\n    * @param _spender address\r\n    * @return Returns the remaining allowance of tokens granted to the _spender from the _user\r\n    */\r\n    function allowance(address _user, address _spender) external view returns (uint) {\r\n       return tellor.allowance(_user,_spender);\r\n    }\r\n\r\n    /**\r\n    * @dev This function returns whether or not a given user is allowed to trade a given amount  \r\n    * @param _user address\r\n    * @param _amount uint of amount\r\n    * @return true if the user is alloed to trade the amount specified\r\n    */\r\n    function allowedToTrade(address _user,uint _amount) external view returns(bool){\r\n        return tellor.allowedToTrade(_user,_amount);\r\n    }\r\n\r\n    /**\r\n    * @dev Gets balance of owner specified\r\n    * @param _user is the owner address used to look up the balance\r\n    * @return Returns the balance associated with the passed in _user\r\n    */\r\n    function balanceOf(address _user) external view returns (uint) { \r\n        return tellor.balanceOf(_user);\r\n    }\r\n\r\n    /**\r\n    * @dev Queries the balance of _user at a specific _blockNumber\r\n    * @param _user The address from which the balance will be retrieved\r\n    * @param _blockNumber The block number when the balance is queried\r\n    * @return The balance at _blockNumber\r\n    */\r\n    function balanceOfAt(address _user, uint _blockNumber) external view returns (uint) {\r\n        return tellor.balanceOfAt(_user,_blockNumber);\r\n    }\r\n\r\n    /**\r\n    * @dev This function tells you if a given challenge has been completed by a given miner\r\n    * @param _challenge the challenge to search for\r\n    * @param _miner address that you want to know if they solved the challenge\r\n    * @return true if the _miner address provided solved the \r\n    */\r\n    function didMine(bytes32 _challenge, address _miner) external view returns(bool){\r\n        return tellor.didMine(_challenge,_miner);\r\n    }\r\n\r\n\r\n    /**\r\n    * @dev Checks if an address voted in a given dispute\r\n    * @param _disputeId to look up\r\n    * @param _address to look up\r\n    * @return bool of whether or not party voted\r\n    */\r\n    function didVote(uint _disputeId, address _address) external view returns(bool){\r\n        return tellor.didVote(_disputeId,_address);\r\n    }\r\n\r\n\r\n    /**\r\n    * @dev allows Tellor to read data from the addressVars mapping\r\n    * @param _data is the keccak256(\"variable_name\") of the variable that is being accessed. \r\n    * These are examples of how the variables are saved within other functions:\r\n    * addressVars[keccak256(\"_owner\")]\r\n    * addressVars[keccak256(\"tellorContract\")]\r\n    */\r\n    function getAddressVars(bytes32 _data) view external returns(address){\r\n        return tellor.getAddressVars(_data);\r\n    }\r\n\r\n\r\n    /**\r\n    * @dev Gets all dispute variables\r\n    * @param _disputeId to look up\r\n    * @return bytes32 hash of dispute \r\n    * @return bool executed where true if it has been voted on\r\n    * @return bool disputeVotePassed\r\n    * @return bool isPropFork true if the dispute is a proposed fork\r\n    * @return address of reportedMiner\r\n    * @return address of reportingParty\r\n    * @return address of proposedForkAddress\r\n    * @return uint of requestId\r\n    * @return uint of timestamp\r\n    * @return uint of value\r\n    * @return uint of minExecutionDate\r\n    * @return uint of numberOfVotes\r\n    * @return uint of blocknumber\r\n    * @return uint of minerSlot\r\n    * @return uint of quorum\r\n    * @return uint of fee\r\n    * @return int count of the current tally\r\n    */\r\n    function getAllDisputeVars(uint _disputeId) public view returns(bytes32, bool, bool, bool, address, address, address,uint[9] memory, int){\r\n        return tellor.getAllDisputeVars(_disputeId);\r\n    }\r\n    \r\n\r\n    /**\r\n    * @dev Getter function for variables for the requestId being currently mined(currentRequestId)\r\n    * @return current challenge, curretnRequestId, level of difficulty, api/query string, and granularity(number of decimals requested), total tip for the request \r\n    */\r\n    function getCurrentVariables() external view returns(bytes32, uint, uint,string memory,uint,uint){    \r\n        return tellor.getCurrentVariables();\r\n    }\r\n\r\n    /**\r\n    * @dev Checks if a given hash of miner,requestId has been disputed\r\n    * @param _hash is the sha256(abi.encodePacked(_miners[2],_requestId));\r\n    * @return uint disputeId\r\n    */\r\n    function getDisputeIdByDisputeHash(bytes32 _hash) external view returns(uint){\r\n        return  tellor.getDisputeIdByDisputeHash(_hash);\r\n    }\r\n    \r\n\r\n    /**\r\n    * @dev Checks for uint variables in the disputeUintVars mapping based on the disuputeId\r\n    * @param _disputeId is the dispute id;\r\n    * @param _data the variable to pull from the mapping. _data = keccak256(\"variable_name\") where variable_name is \r\n    * the variables/strings used to save the data in the mapping. The variables names are  \r\n    * commented out under the disputeUintVars under the Dispute struct\r\n    * @return uint value for the bytes32 data submitted\r\n    */\r\n    function getDisputeUintVars(uint _disputeId,bytes32 _data) external view returns(uint){\r\n        return tellor.getDisputeUintVars(_disputeId,_data);\r\n    }\r\n\r\n\r\n    /**\r\n    * @dev Gets the a value for the latest timestamp available\r\n    * @return value for timestamp of last proof of work submited\r\n    * @return true if the is a timestamp for the lastNewValue\r\n    */\r\n    function getLastNewValue() external view returns(uint,bool){\r\n        return tellor.getLastNewValue();\r\n    }\r\n\r\n\r\n    /**\r\n    * @dev Gets the a value for the latest timestamp available\r\n    * @param _requestId being requested\r\n    * @return value for timestamp of last proof of work submited and if true if it exist or 0 and false if it doesn't\r\n    */\r\n    function getLastNewValueById(uint _requestId) external view returns(uint,bool){\r\n        return tellor.getLastNewValueById(_requestId);\r\n    }\r\n        \r\n\r\n    /**\r\n    * @dev Gets blocknumber for mined timestamp \r\n    * @param _requestId to look up\r\n    * @param _timestamp is the timestamp to look up blocknumber\r\n    * @return uint of the blocknumber which the dispute was mined\r\n    */\r\n    function getMinedBlockNum(uint _requestId, uint _timestamp) external view returns(uint){\r\n        return tellor.getMinedBlockNum(_requestId,_timestamp);\r\n    }\r\n\r\n\r\n    /**\r\n    * @dev Gets the 5 miners who mined the value for the specified requestId/_timestamp \r\n    * @param _requestId to look up\r\n    * @param _timestamp is the timestamp to look up miners for\r\n    * @return the 5 miners' addresses\r\n    */\r\n    function getMinersByRequestIdAndTimestamp(uint _requestId, uint _timestamp) external view returns(address[5] memory){\r\n        return tellor.getMinersByRequestIdAndTimestamp(_requestId,_timestamp);\r\n    }\r\n\r\n\r\n    /**\r\n    * @dev Get the name of the token\r\n    * return string of the token name\r\n    */\r\n    function getName() external pure returns(string memory){\r\n        return \"Tellor Tributes\";\r\n    }\r\n\r\n\r\n    /**\r\n    * @dev Counts the number of values that have been submited for the request \r\n    * if called for the currentRequest being mined it can tell you how many miners have submitted a value for that\r\n    * request so far\r\n    * @param _requestId the requestId to look up\r\n    * @return uint count of the number of values received for the requestId\r\n    */\r\n    function getNewValueCountbyRequestId(uint _requestId) external view returns(uint){\r\n        return tellor.getNewValueCountbyRequestId(_requestId);\r\n    }\r\n\r\n\r\n    /**\r\n    * @dev Getter function for the specified requestQ index\r\n    * @param _index to look up in the requestQ array\r\n    * @return uint of reqeuestId\r\n    */\r\n    function getRequestIdByRequestQIndex(uint _index) external view returns(uint){\r\n        return tellor.getRequestIdByRequestQIndex(_index);\r\n    }\r\n\r\n\r\n    /**\r\n    * @dev Getter function for requestId based on timestamp \r\n    * @param _timestamp to check requestId\r\n    * @return uint of reqeuestId\r\n    */\r\n    function getRequestIdByTimestamp(uint _timestamp) external view returns(uint){    \r\n        return tellor.getRequestIdByTimestamp(_timestamp);\r\n    }\r\n\r\n    /**\r\n    * @dev Getter function for requestId based on the queryHash\r\n    * @param _request is the hash(of string api and granularity) to check if a request already exists\r\n    * @return uint requestId\r\n    */\r\n    function getRequestIdByQueryHash(bytes32 _request) external view returns(uint){    \r\n        return tellor.getRequestIdByQueryHash(_request);\r\n    }\r\n\r\n\r\n    /**\r\n    * @dev Getter function for the requestQ array\r\n    * @return the requestQ arrray\r\n    */\r\n    function getRequestQ() view public returns(uint[51] memory){\r\n        return tellor.getRequestQ();\r\n    }\r\n\r\n\r\n    /**\r\n    * @dev Allowes access to the uint variables saved in the apiUintVars under the requestDetails struct\r\n    * for the requestId specified\r\n    * @param _requestId to look up\r\n    * @param _data the variable to pull from the mapping. _data = keccak256(\"variable_name\") where variable_name is \r\n    * the variables/strings used to save the data in the mapping. The variables names are  \r\n    * commented out under the apiUintVars under the requestDetails struct\r\n    * @return uint value of the apiUintVars specified in _data for the requestId specified\r\n    */\r\n    function getRequestUintVars(uint _requestId,bytes32 _data) external view returns(uint){\r\n        return tellor.getRequestUintVars(_requestId,_data);\r\n    }\r\n\r\n\r\n    /**\r\n    * @dev Gets the API struct variables that are not mappings\r\n    * @param _requestId to look up\r\n    * @return string of api to query\r\n    * @return string of symbol of api to query\r\n    * @return bytes32 hash of string\r\n    * @return bytes32 of the granularity(decimal places) requested\r\n    * @return uint of index in requestQ array\r\n    * @return uint of current payout/tip for this requestId\r\n    */\r\n    function getRequestVars(uint _requestId) external view returns(string memory, string memory,bytes32,uint, uint, uint) {\r\n        return tellor.getRequestVars(_requestId);\r\n    }\r\n\r\n\r\n    /**\r\n    * @dev This function allows users to retireve all information about a staker\r\n    * @param _staker address of staker inquiring about\r\n    * @return uint current state of staker\r\n    * @return uint startDate of staking\r\n    */\r\n    function getStakerInfo(address _staker) external view returns(uint,uint){\r\n        return tellor.getStakerInfo(_staker);\r\n    }\r\n    \r\n    /**\r\n    * @dev Gets the 5 miners who mined the value for the specified requestId/_timestamp \r\n    * @param _requestId to look up\r\n    * @param _timestamp is the timestampt to look up miners for\r\n    * @return address[5] array of 5 addresses ofminers that mined the requestId\r\n    */    \r\n    function getSubmissionsByTimestamp(uint _requestId, uint _timestamp) external view returns(uint[5] memory){\r\n        return tellor.getSubmissionsByTimestamp(_requestId,_timestamp);\r\n    }\r\n\r\n    /**\r\n    * @dev Get the symbol of the token\r\n    * return string of the token symbol\r\n    */\r\n    function getSymbol() external pure returns(string memory){\r\n        return \"TT\";\r\n    } \r\n\r\n    /**\r\n    * @dev Gets the timestamp for the value based on their index\r\n    * @param _requestID is the requestId to look up\r\n    * @param _index is the value index to look up\r\n    * @return uint timestamp\r\n    */\r\n    function getTimestampbyRequestIDandIndex(uint _requestID, uint _index) external view returns(uint){\r\n        return tellor.getTimestampbyRequestIDandIndex(_requestID,_index);\r\n    }\r\n\r\n\r\n    /**\r\n    * @dev Getter for the variables saved under the TellorStorageStruct uintVars variable\r\n    * @param _data the variable to pull from the mapping. _data = keccak256(\"variable_name\") where variable_name is \r\n    * the variables/strings used to save the data in the mapping. The variables names are  \r\n    * commented out under the uintVars under the TellorStorageStruct struct\r\n    * This is an example of how data is saved into the mapping within other functions: \r\n    * self.uintVars[keccak256(\"stakerCount\")]\r\n    * @return uint of specified variable  \r\n    */ \r\n    function getUintVar(bytes32 _data) view public returns(uint){\r\n        return tellor.getUintVar(_data);\r\n    }\r\n\r\n\r\n    /**\r\n    * @dev Getter function for next requestId on queue/request with highest payout at time the function is called\r\n    * @return onDeck/info on request with highest payout-- RequestId, Totaltips, and API query string\r\n    */\r\n    function getVariablesOnDeck() external view returns(uint, uint,string memory){    \r\n        return tellor.getVariablesOnDeck();\r\n    }\r\n\r\n    \r\n    /**\r\n    * @dev Gets the 5 miners who mined the value for the specified requestId/_timestamp \r\n    * @param _requestId to look up\r\n    * @param _timestamp is the timestamp to look up miners for\r\n    * @return bool true if requestId/timestamp is under dispute\r\n    */\r\n    function isInDispute(uint _requestId, uint _timestamp) external view returns(bool){\r\n        return tellor.isInDispute(_requestId,_timestamp);\r\n    }\r\n    \r\n\r\n    /**\r\n    * @dev Retreive value from oracle based on timestamp\r\n    * @param _requestId being requested\r\n    * @param _timestamp to retreive data/value from\r\n    * @return value for timestamp submitted\r\n    */\r\n    function retrieveData(uint _requestId, uint _timestamp) external view returns (uint) {\r\n        return tellor.retrieveData(_requestId,_timestamp);\r\n    }\r\n\r\n\r\n    /**\r\n    * @dev Getter for the total_supply of oracle tokens\r\n    * @return uint total supply\r\n    */\r\n    function totalSupply() external view returns (uint) {\r\n       return tellor.totalSupply();\r\n    }\r\n\r\n\r\n}",
  "sourcePath": "C:\\company\\code\\tellorlegacy\\contracts\\oldContracts\\OldTellorGetters.sol",
  "compiler": {
    "name": "solc",
    "version": "0.5.16+commit.9c3226ce.Emscripten.clang"
  },
  "schemaVersion": "3.0.23",
  "updatedAt": "2020-10-04T01:22:39.730Z",
  "devdoc": {
    "details": "Oracle contract with all tellor getter functions. The logic for the functions on this contract  is saved on the TellorGettersLibrary, TellorTransfer, TellorGettersLibrary, and TellorStake",
    "methods": {
      "allowance(address,address)": {
        "params": {
          "_spender": "address",
          "_user": "address"
        },
        "return": "Returns the remaining allowance of tokens granted to the _spender from the _user"
      },
      "allowedToTrade(address,uint256)": {
        "details": "This function returns whether or not a given user is allowed to trade a given amount  ",
        "params": {
          "_amount": "uint of amount",
          "_user": "address"
        },
        "return": "true if the user is alloed to trade the amount specified"
      },
      "balanceOf(address)": {
        "details": "Gets balance of owner specified",
        "params": {
          "_user": "is the owner address used to look up the balance"
        },
        "return": "Returns the balance associated with the passed in _user"
      },
      "balanceOfAt(address,uint256)": {
        "details": "Queries the balance of _user at a specific _blockNumber",
        "params": {
          "_blockNumber": "The block number when the balance is queried",
          "_user": "The address from which the balance will be retrieved"
        },
        "return": "The balance at _blockNumber"
      },
      "didMine(bytes32,address)": {
        "details": "This function tells you if a given challenge has been completed by a given miner",
        "params": {
          "_challenge": "the challenge to search for",
          "_miner": "address that you want to know if they solved the challenge"
        },
        "return": "true if the _miner address provided solved the "
      },
      "didVote(uint256,address)": {
        "details": "Checks if an address voted in a given dispute",
        "params": {
          "_address": "to look up",
          "_disputeId": "to look up"
        },
        "return": "bool of whether or not party voted"
      },
      "getAddressVars(bytes32)": {
        "details": "allows Tellor to read data from the addressVars mapping",
        "params": {
          "_data": "is the keccak256(\"variable_name\") of the variable that is being accessed.  These are examples of how the variables are saved within other functions: addressVars[keccak256(\"_owner\")] addressVars[keccak256(\"tellorContract\")]"
        }
      },
      "getAllDisputeVars(uint256)": {
        "details": "Gets all dispute variables",
        "params": {
          "_disputeId": "to look up"
        },
        "return": "bytes32 hash of dispute bool executed where true if it has been voted onbool disputeVotePassedbool isPropFork true if the dispute is a proposed forkaddress of reportedMineraddress of reportingPartyaddress of proposedForkAddressuint of requestIduint of timestampuint of valueuint of minExecutionDateuint of numberOfVotesuint of blocknumberuint of minerSlotuint of quorumuint of feeint count of the current tally"
      },
      "getCurrentVariables()": {
        "details": "Getter function for variables for the requestId being currently mined(currentRequestId)",
        "return": "current challenge, curretnRequestId, level of difficulty, api/query string, and granularity(number of decimals requested), total tip for the request "
      },
      "getDisputeIdByDisputeHash(bytes32)": {
        "details": "Checks if a given hash of miner,requestId has been disputed",
        "params": {
          "_hash": "is the sha256(abi.encodePacked(_miners[2],_requestId));"
        },
        "return": "uint disputeId"
      },
      "getDisputeUintVars(uint256,bytes32)": {
        "details": "Checks for uint variables in the disputeUintVars mapping based on the disuputeId",
        "params": {
          "_data": "the variable to pull from the mapping. _data = keccak256(\"variable_name\") where variable_name is  the variables/strings used to save the data in the mapping. The variables names are   commented out under the disputeUintVars under the Dispute struct",
          "_disputeId": "is the dispute id;"
        },
        "return": "uint value for the bytes32 data submitted"
      },
      "getLastNewValue()": {
        "details": "Gets the a value for the latest timestamp available",
        "return": "value for timestamp of last proof of work submitedtrue if the is a timestamp for the lastNewValue"
      },
      "getLastNewValueById(uint256)": {
        "details": "Gets the a value for the latest timestamp available",
        "params": {
          "_requestId": "being requested"
        },
        "return": "value for timestamp of last proof of work submited and if true if it exist or 0 and false if it doesn't"
      },
      "getMinedBlockNum(uint256,uint256)": {
        "details": "Gets blocknumber for mined timestamp ",
        "params": {
          "_requestId": "to look up",
          "_timestamp": "is the timestamp to look up blocknumber"
        },
        "return": "uint of the blocknumber which the dispute was mined"
      },
      "getMinersByRequestIdAndTimestamp(uint256,uint256)": {
        "details": "Gets the 5 miners who mined the value for the specified requestId/_timestamp ",
        "params": {
          "_requestId": "to look up",
          "_timestamp": "is the timestamp to look up miners for"
        },
        "return": "the 5 miners' addresses"
      },
      "getName()": {
        "details": "Get the name of the token return string of the token name"
      },
      "getNewValueCountbyRequestId(uint256)": {
        "details": "Counts the number of values that have been submited for the request  if called for the currentRequest being mined it can tell you how many miners have submitted a value for that request so far",
        "params": {
          "_requestId": "the requestId to look up"
        },
        "return": "uint count of the number of values received for the requestId"
      },
      "getRequestIdByQueryHash(bytes32)": {
        "details": "Getter function for requestId based on the queryHash",
        "params": {
          "_request": "is the hash(of string api and granularity) to check if a request already exists"
        },
        "return": "uint requestId"
      },
      "getRequestIdByRequestQIndex(uint256)": {
        "details": "Getter function for the specified requestQ index",
        "params": {
          "_index": "to look up in the requestQ array"
        },
        "return": "uint of reqeuestId"
      },
      "getRequestIdByTimestamp(uint256)": {
        "details": "Getter function for requestId based on timestamp ",
        "params": {
          "_timestamp": "to check requestId"
        },
        "return": "uint of reqeuestId"
      },
      "getRequestQ()": {
        "details": "Getter function for the requestQ array",
        "return": "the requestQ arrray"
      },
      "getRequestUintVars(uint256,bytes32)": {
        "details": "Allowes access to the uint variables saved in the apiUintVars under the requestDetails struct for the requestId specified",
        "params": {
          "_data": "the variable to pull from the mapping. _data = keccak256(\"variable_name\") where variable_name is  the variables/strings used to save the data in the mapping. The variables names are   commented out under the apiUintVars under the requestDetails struct",
          "_requestId": "to look up"
        },
        "return": "uint value of the apiUintVars specified in _data for the requestId specified"
      },
      "getRequestVars(uint256)": {
        "details": "Gets the API struct variables that are not mappings",
        "params": {
          "_requestId": "to look up"
        },
        "return": "string of api to querystring of symbol of api to querybytes32 hash of stringbytes32 of the granularity(decimal places) requesteduint of index in requestQ arrayuint of current payout/tip for this requestId"
      },
      "getStakerInfo(address)": {
        "details": "This function allows users to retireve all information about a staker",
        "params": {
          "_staker": "address of staker inquiring about"
        },
        "return": "uint current state of stakeruint startDate of staking"
      },
      "getSubmissionsByTimestamp(uint256,uint256)": {
        "details": "Gets the 5 miners who mined the value for the specified requestId/_timestamp ",
        "params": {
          "_requestId": "to look up",
          "_timestamp": "is the timestampt to look up miners for"
        },
        "return": "address[5] array of 5 addresses ofminers that mined the requestId"
      },
      "getSymbol()": {
        "details": "Get the symbol of the token return string of the token symbol"
      },
      "getTimestampbyRequestIDandIndex(uint256,uint256)": {
        "details": "Gets the timestamp for the value based on their index",
        "params": {
          "_index": "is the value index to look up",
          "_requestID": "is the requestId to look up"
        },
        "return": "uint timestamp"
      },
      "getUintVar(bytes32)": {
        "details": "Getter for the variables saved under the TellorStorageStruct uintVars variable",
        "params": {
          "_data": "the variable to pull from the mapping. _data = keccak256(\"variable_name\") where variable_name is  the variables/strings used to save the data in the mapping. The variables names are   commented out under the uintVars under the TellorStorageStruct struct This is an example of how data is saved into the mapping within other functions:  self.uintVars[keccak256(\"stakerCount\")]"
        },
        "return": "uint of specified variable  "
      },
      "getVariablesOnDeck()": {
        "details": "Getter function for next requestId on queue/request with highest payout at time the function is called",
        "return": "onDeck/info on request with highest payout-- RequestId, Totaltips, and API query string"
      },
      "isInDispute(uint256,uint256)": {
        "details": "Gets the 5 miners who mined the value for the specified requestId/_timestamp ",
        "params": {
          "_requestId": "to look up",
          "_timestamp": "is the timestamp to look up miners for"
        },
        "return": "bool true if requestId/timestamp is under dispute"
      },
      "retrieveData(uint256,uint256)": {
        "details": "Retreive value from oracle based on timestamp",
        "params": {
          "_requestId": "being requested",
          "_timestamp": "to retreive data/value from"
        },
        "return": "value for timestamp submitted"
      },
      "totalSupply()": {
        "details": "Getter for the total_supply of oracle tokens",
        "return": "uint total supply"
      }
    },
    "title": "Tellor Getters"
  },
  "userdoc": {
    "methods": {}
  }
}