{
  "contractName": "OldTellor2",
  "abi": [
    {
      "constant": false,
      "inputs": [
        {
          "internalType": "address",
          "name": "_address",
          "type": "address"
        },
        {
          "internalType": "uint256",
          "name": "_amount",
          "type": "uint256"
        }
      ],
      "name": "theLazyCoon",
      "outputs": [],
      "payable": false,
      "stateMutability": "nonpayable",
      "type": "function"
    },
    {
      "constant": false,
      "inputs": [
        {
          "internalType": "uint256",
          "name": "_requestId",
          "type": "uint256"
        },
        {
          "internalType": "uint256",
          "name": "_timestamp",
          "type": "uint256"
        },
        {
          "internalType": "uint256",
          "name": "_minerIndex",
          "type": "uint256"
        }
      ],
      "name": "beginDispute",
      "outputs": [],
      "payable": false,
      "stateMutability": "nonpayable",
      "type": "function"
    },
    {
      "constant": false,
      "inputs": [
        {
          "internalType": "uint256",
          "name": "_disputeId",
          "type": "uint256"
        },
        {
          "internalType": "bool",
          "name": "_supportsDispute",
          "type": "bool"
        }
      ],
      "name": "vote",
      "outputs": [],
      "payable": false,
      "stateMutability": "nonpayable",
      "type": "function"
    },
    {
      "constant": false,
      "inputs": [
        {
          "internalType": "uint256",
          "name": "_disputeId",
          "type": "uint256"
        }
      ],
      "name": "tallyVotes",
      "outputs": [],
      "payable": false,
      "stateMutability": "nonpayable",
      "type": "function"
    },
    {
      "constant": false,
      "inputs": [
        {
          "internalType": "address",
          "name": "_propNewTellorAddress",
          "type": "address"
        }
      ],
      "name": "proposeFork",
      "outputs": [],
      "payable": false,
      "stateMutability": "nonpayable",
      "type": "function"
    },
    {
      "constant": false,
      "inputs": [
        {
          "internalType": "uint256",
          "name": "_requestId",
          "type": "uint256"
        },
        {
          "internalType": "uint256",
          "name": "_tip",
          "type": "uint256"
        }
      ],
      "name": "addTip",
      "outputs": [],
      "payable": false,
      "stateMutability": "nonpayable",
      "type": "function"
    },
    {
      "constant": false,
      "inputs": [
        {
          "internalType": "string",
          "name": "_c_sapi",
          "type": "string"
        },
        {
          "internalType": "string",
          "name": "_c_symbol",
          "type": "string"
        },
        {
          "internalType": "uint256",
          "name": "_granularity",
          "type": "uint256"
        },
        {
          "internalType": "uint256",
          "name": "_tip",
          "type": "uint256"
        }
      ],
      "name": "requestData",
      "outputs": [],
      "payable": false,
      "stateMutability": "nonpayable",
      "type": "function"
    },
    {
      "constant": false,
      "inputs": [
        {
          "internalType": "string",
          "name": "_nonce",
          "type": "string"
        },
        {
          "internalType": "uint256",
          "name": "_requestId",
          "type": "uint256"
        },
        {
          "internalType": "uint256",
          "name": "_value",
          "type": "uint256"
        }
      ],
      "name": "submitMiningSolution",
      "outputs": [],
      "payable": false,
      "stateMutability": "nonpayable",
      "type": "function"
    },
    {
      "constant": false,
      "inputs": [
        {
          "internalType": "string",
          "name": "_nonce",
          "type": "string"
        },
        {
          "internalType": "uint256",
          "name": "_requestId",
          "type": "uint256"
        },
        {
          "internalType": "uint256",
          "name": "_value",
          "type": "uint256"
        }
      ],
      "name": "testSubmitMiningSolution",
      "outputs": [],
      "payable": false,
      "stateMutability": "nonpayable",
      "type": "function"
    },
    {
      "constant": false,
      "inputs": [
        {
          "internalType": "address payable",
          "name": "_pendingOwner",
          "type": "address"
        }
      ],
      "name": "proposeOwnership",
      "outputs": [],
      "payable": false,
      "stateMutability": "nonpayable",
      "type": "function"
    },
    {
      "constant": false,
      "inputs": [],
      "name": "claimOwnership",
      "outputs": [],
      "payable": false,
      "stateMutability": "nonpayable",
      "type": "function"
    },
    {
      "constant": false,
      "inputs": [],
      "name": "depositStake",
      "outputs": [],
      "payable": false,
      "stateMutability": "nonpayable",
      "type": "function"
    },
    {
      "constant": false,
      "inputs": [],
      "name": "requestStakingWithdraw",
      "outputs": [],
      "payable": false,
      "stateMutability": "nonpayable",
      "type": "function"
    },
    {
      "constant": false,
      "inputs": [],
      "name": "withdrawStake",
      "outputs": [],
      "payable": false,
      "stateMutability": "nonpayable",
      "type": "function"
    },
    {
      "constant": false,
      "inputs": [
        {
          "internalType": "address",
          "name": "_spender",
          "type": "address"
        },
        {
          "internalType": "uint256",
          "name": "_amount",
          "type": "uint256"
        }
      ],
      "name": "approve",
      "outputs": [
        {
          "internalType": "bool",
          "name": "",
          "type": "bool"
        }
      ],
      "payable": false,
      "stateMutability": "nonpayable",
      "type": "function"
    },
    {
      "constant": false,
      "inputs": [
        {
          "internalType": "address",
          "name": "_to",
          "type": "address"
        },
        {
          "internalType": "uint256",
          "name": "_amount",
          "type": "uint256"
        }
      ],
      "name": "transfer",
      "outputs": [
        {
          "internalType": "bool",
          "name": "",
          "type": "bool"
        }
      ],
      "payable": false,
      "stateMutability": "nonpayable",
      "type": "function"
    },
    {
      "constant": false,
      "inputs": [
        {
          "internalType": "address",
          "name": "_from",
          "type": "address"
        },
        {
          "internalType": "address",
          "name": "_to",
          "type": "address"
        },
        {
          "internalType": "uint256",
          "name": "_amount",
          "type": "uint256"
        }
      ],
      "name": "transferFrom",
      "outputs": [
        {
          "internalType": "bool",
          "name": "",
          "type": "bool"
        }
      ],
      "payable": false,
      "stateMutability": "nonpayable",
      "type": "function"
    },
    {
      "constant": true,
      "inputs": [],
      "name": "name",
      "outputs": [
        {
          "internalType": "string",
          "name": "",
          "type": "string"
        }
      ],
      "payable": false,
      "stateMutability": "pure",
      "type": "function"
    },
    {
      "constant": true,
      "inputs": [],
      "name": "symbol",
      "outputs": [
        {
          "internalType": "string",
          "name": "",
          "type": "string"
        }
      ],
      "payable": false,
      "stateMutability": "pure",
      "type": "function"
    },
    {
      "constant": true,
      "inputs": [],
      "name": "decimals",
      "outputs": [
        {
          "internalType": "uint8",
          "name": "",
          "type": "uint8"
        }
      ],
      "payable": false,
      "stateMutability": "pure",
      "type": "function"
    }
  ],
  "bytecode": "0x608060405234801561001057600080fd5b50611777806100206000396000f3fe608060405234801561001057600080fd5b506004361061012c5760003560e01c806368c180d5116100ad578063a9059cbb11610071578063a9059cbb14610604578063b079f64a1461066a578063bed9d861146106b8578063c0a8b650146106c2578063c9d27afe1461074f5761012c565b806368c180d514610436578063710bf322146104c3578063752d49a1146105075780638581af191461053f57806395d89b41146105815761012c565b806328449c3a116100f457806328449c3a146102ee578063313ce567146102f85780633fff28161461031c5780634d318b0e146103fe5780634e71e0c81461042c5761012c565b806306fdde0314610131578063095ea7b3146101b45780630d2d76a21461021a57806323b872dd1461022457806326b7d9f6146102aa575b600080fd5b610139610789565b6040518080602001828103825283818151815260200191508051906020019080838360005b8381101561017957808201518184015260208101905061015e565b50505050905090810190601f1680156101a65780820380516001836020036101000a031916815260200191505b509250505060405180910390f35b610200600480360360408110156101ca57600080fd5b81019080803573ffffffffffffffffffffffffffffffffffffffff169060200190929190803590602001909291905050506107c6565b604051808215151515815260200191505060405180910390f35b610222610898565b005b6102906004803603606081101561023a57600080fd5b81019080803573ffffffffffffffffffffffffffffffffffffffff169060200190929190803573ffffffffffffffffffffffffffffffffffffffff16906020019092919080359060200190929190505050610904565b604051808215151515815260200191505060405180910390f35b6102ec600480360360208110156102c057600080fd5b81019080803573ffffffffffffffffffffffffffffffffffffffff169060200190929190505050610a0b565b005b6102f6610aac565b005b610300610b18565b604051808260ff1660ff16815260200191505060405180910390f35b6103fc6004803603608081101561033257600080fd5b810190808035906020019064010000000081111561034f57600080fd5b82018360208201111561036157600080fd5b8035906020019184600183028401116401000000008311171561038357600080fd5b9091929391929390803590602001906401000000008111156103a457600080fd5b8201836020820111156103b657600080fd5b803590602001918460018302840111640100000000831117156103d857600080fd5b90919293919293908035906020019092919080359060200190929190505050610b21565b005b61042a6004803603602081101561041457600080fd5b8101908080359060200190929190505050610c0b565b005b610434610c80565b005b6104c16004803603606081101561044c57600080fd5b810190808035906020019064010000000081111561046957600080fd5b82018360208201111561047b57600080fd5b8035906020019184600183028401116401000000008311171561049d57600080fd5b90919293919293908035906020019092919080359060200190929190505050610c8c565b005b610505600480360360208110156104d957600080fd5b81019080803573ffffffffffffffffffffffffffffffffffffffff169060200190929190505050610d40565b005b61053d6004803603604081101561051d57600080fd5b810190808035906020019092919080359060200190929190505050610d57565b005b61057f6004803603606081101561055557600080fd5b81019080803590602001909291908035906020019092919080359060200190929190505050610dd5565b005b610589610e5c565b6040518080602001828103825283818151815260200191508051906020019080838360005b838110156105c95780820151818401526020810190506105ae565b50505050905090810190601f1680156105f65780820380516001836020036101000a031916815260200191505b509250505060405180910390f35b6106506004803603604081101561061a57600080fd5b81019080803573ffffffffffffffffffffffffffffffffffffffff16906020019092919080359060200190929190505050610e99565b604051808215151515815260200191505060405180910390f35b6106b66004803603604081101561068057600080fd5b81019080803573ffffffffffffffffffffffffffffffffffffffff16906020019092919080359060200190929190505050610f6b565b005b6106c0611015565b005b61074d600480360360608110156106d857600080fd5b81019080803590602001906401000000008111156106f557600080fd5b82018360208201111561070757600080fd5b8035906020019184600183028401116401000000008311171561072957600080fd5b90919293919293908035906020019092919080359060200190929190505050611081565b005b6107876004803603604081101561076557600080fd5b8101908080359060200190929190803515159060200190929190505050611135565b005b60606040518060400160405280600f81526020017f54656c6c6f722054726962757465730000000000000000000000000000000000815250905090565b60008073__Old2TellorTransfer____________________637a1f149e909185856040518463ffffffff1660e01b8152600401808481526020018373ffffffffffffffffffffffffffffffffffffffff1673ffffffffffffffffffffffffffffffffffffffff168152602001828152602001935050505060206040518083038186803b15801561085557600080fd5b505af4158015610869573d6000803e3d6000fd5b505050506040513d602081101561087f57600080fd5b8101908080519060200190929190505050905092915050565b600073__Old2TellorStake_______________________63035d2f7290916040518263ffffffff1660e01b81526004018082815260200191505060006040518083038186803b1580156108ea57600080fd5b505af41580156108fe573d6000803e3d6000fd5b50505050565b60008073__Old2TellorTransfer____________________63c739441690918686866040518563ffffffff1660e01b8152600401808581526020018473ffffffffffffffffffffffffffffffffffffffff1673ffffffffffffffffffffffffffffffffffffffff1681526020018373ffffffffffffffffffffffffffffffffffffffff1673ffffffffffffffffffffffffffffffffffffffff16815260200182815260200194505050505060206040518083038186803b1580156109c757600080fd5b505af41580156109db573d6000803e3d6000fd5b505050506040513d60208110156109f157600080fd5b810190808051906020019092919050505090509392505050565b600073__Old2TellorDispute_____________________638859673f9091836040518363ffffffff1660e01b8152600401808381526020018273ffffffffffffffffffffffffffffffffffffffff1673ffffffffffffffffffffffffffffffffffffffff1681526020019250505060006040518083038186803b158015610a9157600080fd5b505af4158015610aa5573d6000803e3d6000fd5b5050505050565b600073__Old2TellorStake_______________________63c5b401b990916040518263ffffffff1660e01b81526004018082815260200191505060006040518083038186803b158015610afe57600080fd5b505af4158015610b12573d6000803e3d6000fd5b50505050565b60006012905090565b600073__Old2TellorLibrary_____________________6364e0c3ac90918888888888886040518863ffffffff1660e01b81526004018088815260200180602001806020018581526020018481526020018381038352898982818152602001925080828437600081840152601f19601f8201169050808301925050508381038252878782818152602001925080828437600081840152601f19601f820116905080830192505050995050505050505050505060006040518083038186803b158015610beb57600080fd5b505af4158015610bff573d6000803e3d6000fd5b50505050505050505050565b600073__Old2TellorDispute_____________________63b183f5749091836040518363ffffffff1660e01b8152600401808381526020018281526020019250505060006040518083038186803b158015610c6557600080fd5b505af4158015610c79573d6000803e3d6000fd5b5050505050565b610c8a60006111b7565b565b600073__Old2TellorLibrary_____________________639bd0f6069091868686866040518663ffffffff1660e01b815260040180868152602001806020018481526020018381526020018281038252868682818152602001925080828437600081840152601f19601f820116905080830192505050965050505050505060006040518083038186803b158015610d2257600080fd5b505af4158015610d36573d6000803e3d6000fd5b5050505050505050565b610d548160006114e690919063ffffffff16565b50565b600073__Old2TellorLibrary_____________________63be29e7f1909184846040518463ffffffff1660e01b815260040180848152602001838152602001828152602001935050505060006040518083038186803b158015610db957600080fd5b505af4158015610dcd573d6000803e3d6000fd5b505050505050565b600073__Old2TellorDispute_____________________63cc4d022990918585856040518563ffffffff1660e01b81526004018085815260200184815260200183815260200182815260200194505050505060006040518083038186803b158015610e3f57600080fd5b505af4158015610e53573d6000803e3d6000fd5b50505050505050565b60606040518060400160405280600381526020017f5452420000000000000000000000000000000000000000000000000000000000815250905090565b60008073__Old2TellorTransfer____________________63a1b993c3909185856040518463ffffffff1660e01b8152600401808481526020018373ffffffffffffffffffffffffffffffffffffffff1673ffffffffffffffffffffffffffffffffffffffff168152602001828152602001935050505060206040518083038186803b158015610f2857600080fd5b505af4158015610f3c573d6000803e3d6000fd5b505050506040513d6020811015610f5257600080fd5b8101908080519060200190929190505050905092915050565b600073__Old2TellorLibrary_____________________63db019b56909184846040518463ffffffff1660e01b8152600401808481526020018373ffffffffffffffffffffffffffffffffffffffff1673ffffffffffffffffffffffffffffffffffffffff168152602001828152602001935050505060006040518083038186803b158015610ff957600080fd5b505af415801561100d573d6000803e3d6000fd5b505050505050565b600073__Old2TellorStake_______________________6397a2484e90916040518263ffffffff1660e01b81526004018082815260200191505060006040518083038186803b15801561106757600080fd5b505af415801561107b573d6000803e3d6000fd5b50505050565b600073__Old2TellorLibrary_____________________63857e7ded9091868686866040518663ffffffff1660e01b815260040180868152602001806020018481526020018381526020018281038252868682818152602001925080828437600081840152601f19601f820116905080830192505050965050505050505060006040518083038186803b15801561111757600080fd5b505af415801561112b573d6000803e3d6000fd5b5050505050505050565b600073__Old2TellorDispute_____________________6369a5c535909184846040518463ffffffff1660e01b81526004018084815260200183815260200182151515158152602001935050505060006040518083038186803b15801561119b57600080fd5b505af41580156111af573d6000803e3d6000fd5b505050505050565b80603f01600060405180807f70656e64696e675f6f776e657200000000000000000000000000000000000000815250600d0190506040518091039020815260200190815260200160002060009054906101000a900473ffffffffffffffffffffffffffffffffffffffff1673ffffffffffffffffffffffffffffffffffffffff163373ffffffffffffffffffffffffffffffffffffffff16146112c2576040517f08c379a000000000000000000000000000000000000000000000000000000000815260040180806020018281038252601b8152602001807f53656e646572206973206e6f742070656e64696e67206f776e6572000000000081525060200191505060405180910390fd5b80603f01600060405180807f70656e64696e675f6f776e657200000000000000000000000000000000000000815250600d0190506040518091039020815260200190815260200160002060009054906101000a900473ffffffffffffffffffffffffffffffffffffffff1673ffffffffffffffffffffffffffffffffffffffff1681603f01600060405180807f5f6f776e6572000000000000000000000000000000000000000000000000000081525060060190506040518091039020815260200190815260200160002060009054906101000a900473ffffffffffffffffffffffffffffffffffffffff1673ffffffffffffffffffffffffffffffffffffffff167f8be0079c531659141344cd1fd0a4f28419497f9722a3daafe3b4186f6b6457e060405160405180910390a380603f01600060405180807f70656e64696e675f6f776e657200000000000000000000000000000000000000815250600d0190506040518091039020815260200190815260200160002060009054906101000a900473ffffffffffffffffffffffffffffffffffffffff1681603f01600060405180807f5f6f776e6572000000000000000000000000000000000000000000000000000081525060060190506040518091039020815260200190815260200160002060006101000a81548173ffffffffffffffffffffffffffffffffffffffff021916908373ffffffffffffffffffffffffffffffffffffffff16021790555050565b81603f01600060405180807f5f6f776e6572000000000000000000000000000000000000000000000000000081525060060190506040518091039020815260200190815260200160002060009054906101000a900473ffffffffffffffffffffffffffffffffffffffff1673ffffffffffffffffffffffffffffffffffffffff163373ffffffffffffffffffffffffffffffffffffffff16146115f1576040517f08c379a00000000000000000000000000000000000000000000000000000000081526004018080602001828103825260138152602001807f53656e646572206973206e6f74206f776e65720000000000000000000000000081525060200191505060405180910390fd5b8073ffffffffffffffffffffffffffffffffffffffff1682603f01600060405180807f5f6f776e6572000000000000000000000000000000000000000000000000000081525060060190506040518091039020815260200190815260200160002060009054906101000a900473ffffffffffffffffffffffffffffffffffffffff1673ffffffffffffffffffffffffffffffffffffffff167fb51454ce8c7f26becd312a46c4815553887f2ec876a0b8dc813b87f62edf6f8060405160405180910390a38082603f01600060405180807f70656e64696e675f6f776e657200000000000000000000000000000000000000815250600d0190506040518091039020815260200190815260200160002060006101000a81548173ffffffffffffffffffffffffffffffffffffffff021916908373ffffffffffffffffffffffffffffffffffffffff160217905550505056fea265627a7a72315820d6d5192f2d55de28694ffc28480ba6a43aed91199754e37b0bf23a80b7b9bc8964736f6c63430005100032",
  "source": "pragma solidity ^0.5.0;\r\n\r\nimport \"./libraries/Old2SafeMath.sol\";\r\nimport \"./libraries/Old2TellorStorage.sol\";\r\nimport \"./libraries/Old2TellorTransfer.sol\";\r\nimport \"./libraries/Old2TellorDispute.sol\";\r\nimport \"./libraries/Old2TellorStake.sol\";\r\nimport \"./libraries/Old2TellorLibrary.sol\";\r\n\r\n/**\r\n * @title Tellor Oracle System\r\n * @dev Oracle contract where miners can submit the proof of work along with the value.\r\n * The logic for this contract is in TellorLibrary.sol, TellorDispute.sol, TellorStake.sol,\r\n * and TellorTransfer.sol\r\n */\r\ncontract OldTellor2 {\r\n    using Old2SafeMath for uint256;\r\n\r\n    using Old2TellorDispute for Old2TellorStorage.TellorStorageStruct;\r\n    using Old2TellorLibrary for Old2TellorStorage.TellorStorageStruct;\r\n    using Old2TellorStake for Old2TellorStorage.TellorStorageStruct;\r\n    using Old2TellorTransfer for Old2TellorStorage.TellorStorageStruct;\r\n\r\n    Old2TellorStorage.TellorStorageStruct tellor;\r\n\r\n    /*Functions*/\r\n\r\n    /*This is a cheat for demo purposes, will delete upon actual launch*/\r\n    function theLazyCoon(address _address, uint _amount) public {\r\n        tellor.theLazyCoon(_address,_amount);\r\n    }\r\n\r\n    /**\r\n    * @dev Helps initialize a dispute by assigning it a disputeId\r\n    * when a miner returns a false on the validate array(in Tellor.ProofOfWork) it sends the\r\n    * invalidated value information to POS voting\r\n    * @param _requestId being disputed\r\n    * @param _timestamp being disputed\r\n    * @param _minerIndex the index of the miner that submitted the value being disputed. Since each official value\r\n    * requires 5 miners to submit a value.\r\n    */\r\n    function beginDispute(uint256 _requestId, uint256 _timestamp, uint256 _minerIndex) external {\r\n        tellor.beginDispute(_requestId, _timestamp, _minerIndex);\r\n    }\r\n\r\n    /**\r\n    * @dev Allows token holders to vote\r\n    * @param _disputeId is the dispute id\r\n    * @param _supportsDispute is the vote (true=the dispute has basis false = vote against dispute)\r\n    */\r\n    function vote(uint256 _disputeId, bool _supportsDispute) external {\r\n        tellor.vote(_disputeId, _supportsDispute);\r\n    }\r\n\r\n    /**\r\n    * @dev tallies the votes.\r\n    * @param _disputeId is the dispute id\r\n    */\r\n    function tallyVotes(uint256 _disputeId) external {\r\n        tellor.tallyVotes(_disputeId);\r\n    }\r\n\r\n    /**\r\n    * @dev Allows for a fork to be proposed\r\n    * @param _propNewTellorAddress address for new proposed Tellor\r\n    */\r\n    function proposeFork(address _propNewTellorAddress) external {\r\n        tellor.proposeFork(_propNewTellorAddress);\r\n    }\r\n\r\n    /**\r\n    * @dev Add tip to Request value from oracle\r\n    * @param _requestId being requested to be mined\r\n    * @param _tip amount the requester is willing to pay to be get on queue. Miners\r\n    * mine the onDeckQueryHash, or the api with the highest payout pool\r\n    */\r\n    function addTip(uint256 _requestId, uint256 _tip) external {\r\n        tellor.addTip(_requestId, _tip);\r\n    }\r\n\r\n    /**\r\n    * @dev Request to retreive value from oracle based on timestamp. The tip is not required to be\r\n    * greater than 0 because there are no tokens in circulation for the initial(genesis) request\r\n    * @param _c_sapi string API being requested be mined\r\n    * @param _c_symbol is the short string symbol for the api request\r\n    * @param _granularity is the number of decimals miners should include on the submitted value\r\n    * @param _tip amount the requester is willing to pay to be get on queue. Miners\r\n    * mine the onDeckQueryHash, or the api with the highest payout pool\r\n    */\r\n    function requestData(string calldata _c_sapi, string calldata _c_symbol, uint256 _granularity, uint256 _tip) external {\r\n        tellor.requestData(_c_sapi, _c_symbol, _granularity, _tip);\r\n    }\r\n\r\n    /**\r\n    * @dev Proof of work is called by the miner when they submit the solution (proof of work and value)\r\n    * @param _nonce uint submitted by miner\r\n    * @param _requestId the apiId being mined\r\n    * @param _value of api query\r\n    */\r\n    function submitMiningSolution(string calldata _nonce, uint256 _requestId, uint256 _value) external {\r\n        tellor.submitMiningSolution(_nonce, _requestId, _value);\r\n    }\r\n\r\n    function testSubmitMiningSolution(string calldata _nonce, uint256 _requestId, uint256 _value) external {\r\n        tellor.testSubmitMiningSolution(_nonce, _requestId, _value);\r\n    }\r\n\r\n    /**\r\n    * @dev Allows the current owner to propose transfer control of the contract to a\r\n    * newOwner and the ownership is pending until the new owner calls the claimOwnership\r\n    * function\r\n    * @param _pendingOwner The address to transfer ownership to.\r\n    */\r\n    function proposeOwnership(address payable _pendingOwner) external {\r\n        tellor.proposeOwnership(_pendingOwner);\r\n    }\r\n\r\n    /**\r\n    * @dev Allows the new owner to claim control of the contract\r\n    */\r\n    function claimOwnership() external {\r\n        tellor.claimOwnership();\r\n    }\r\n\r\n    /**\r\n    * @dev This function allows miners to deposit their stake.\r\n    */\r\n    function depositStake() external {\r\n        tellor.depositStake();\r\n    }\r\n\r\n    /**\r\n    * @dev This function allows stakers to request to withdraw their stake (no longer stake)\r\n    * once they lock for withdraw(stakes.currentStatus = 2) they are locked for 7 days before they\r\n    * can withdraw the stake\r\n    */\r\n    function requestStakingWithdraw() external {\r\n        tellor.requestStakingWithdraw();\r\n    }\r\n\r\n    /**\r\n    * @dev This function allows users to withdraw their stake after a 7 day waiting period from request\r\n    */\r\n    function withdrawStake() external {\r\n        tellor.withdrawStake();\r\n    }\r\n\r\n    /**\r\n    * @dev This function approves a _spender an _amount of tokens to use\r\n    * @param _spender address\r\n    * @param _amount amount the spender is being approved for\r\n    * @return true if spender appproved successfully\r\n    */\r\n    function approve(address _spender, uint256 _amount) external returns (bool) {\r\n        return tellor.approve(_spender, _amount);\r\n    }\r\n\r\n    /**\r\n    * @dev Allows for a transfer of tokens to _to\r\n    * @param _to The address to send tokens to\r\n    * @param _amount The amount of tokens to send\r\n    * @return true if transfer is successful\r\n    */\r\n    function transfer(address _to, uint256 _amount) external returns (bool) {\r\n        return tellor.transfer(_to, _amount);\r\n    }\r\n\r\n    /**\r\n    * @dev Sends _amount tokens to _to from _from on the condition it\r\n    * is approved by _from\r\n    * @param _from The address holding the tokens being transferred\r\n    * @param _to The address of the recipient\r\n    * @param _amount The amount of tokens to be transferred\r\n    * @return True if the transfer was successful\r\n    */\r\n    function transferFrom(address _from, address _to, uint256 _amount) external returns (bool) {\r\n        return tellor.transferFrom(_from, _to, _amount);\r\n    }\r\n\r\n    /**\r\n    * @dev Allows users to access the token's name\r\n    */\r\n    function name() external pure returns (string memory) {\r\n        return \"Tellor Tributes\";\r\n    }\r\n\r\n    /**\r\n    * @dev Allows users to access the token's symbol\r\n    */\r\n    function symbol() external pure returns (string memory) {\r\n        return \"TRB\";\r\n    }\r\n\r\n    /**\r\n    * @dev Allows users to access the number of decimals\r\n    */\r\n    function decimals() external pure returns (uint8) {\r\n        return 18;\r\n    }\r\n\r\n}\r\n",
  "sourcePath": "C:\\company\\code\\tellorlegacy\\contracts\\oldContracts2\\Old2Tellor.sol",
  "compiler": {
    "name": "solc",
    "version": "0.5.16+commit.9c3226ce.Emscripten.clang"
  },
  "schemaVersion": "3.0.23",
  "updatedAt": "2020-10-04T01:22:39.946Z",
  "devdoc": {
    "details": "Oracle contract where miners can submit the proof of work along with the value. The logic for this contract is in TellorLibrary.sol, TellorDispute.sol, TellorStake.sol, and TellorTransfer.sol",
    "methods": {
      "addTip(uint256,uint256)": {
        "details": "Add tip to Request value from oracle",
        "params": {
          "_requestId": "being requested to be mined",
          "_tip": "amount the requester is willing to pay to be get on queue. Miners mine the onDeckQueryHash, or the api with the highest payout pool"
        }
      },
      "approve(address,uint256)": {
        "details": "This function approves a _spender an _amount of tokens to use",
        "params": {
          "_amount": "amount the spender is being approved for",
          "_spender": "address"
        },
        "return": "true if spender appproved successfully"
      },
      "beginDispute(uint256,uint256,uint256)": {
        "details": "Helps initialize a dispute by assigning it a disputeId when a miner returns a false on the validate array(in Tellor.ProofOfWork) it sends the invalidated value information to POS voting",
        "params": {
          "_minerIndex": "the index of the miner that submitted the value being disputed. Since each official value requires 5 miners to submit a value.",
          "_requestId": "being disputed",
          "_timestamp": "being disputed"
        }
      },
      "claimOwnership()": {
        "details": "Allows the new owner to claim control of the contract"
      },
      "decimals()": {
        "details": "Allows users to access the number of decimals"
      },
      "depositStake()": {
        "details": "This function allows miners to deposit their stake."
      },
      "name()": {
        "details": "Allows users to access the token's name"
      },
      "proposeFork(address)": {
        "details": "Allows for a fork to be proposed",
        "params": {
          "_propNewTellorAddress": "address for new proposed Tellor"
        }
      },
      "proposeOwnership(address)": {
        "details": "Allows the current owner to propose transfer control of the contract to a newOwner and the ownership is pending until the new owner calls the claimOwnership function",
        "params": {
          "_pendingOwner": "The address to transfer ownership to."
        }
      },
      "requestData(string,string,uint256,uint256)": {
        "details": "Request to retreive value from oracle based on timestamp. The tip is not required to be greater than 0 because there are no tokens in circulation for the initial(genesis) request",
        "params": {
          "_c_sapi": "string API being requested be mined",
          "_c_symbol": "is the short string symbol for the api request",
          "_granularity": "is the number of decimals miners should include on the submitted value",
          "_tip": "amount the requester is willing to pay to be get on queue. Miners mine the onDeckQueryHash, or the api with the highest payout pool"
        }
      },
      "requestStakingWithdraw()": {
        "details": "This function allows stakers to request to withdraw their stake (no longer stake) once they lock for withdraw(stakes.currentStatus = 2) they are locked for 7 days before they can withdraw the stake"
      },
      "submitMiningSolution(string,uint256,uint256)": {
        "details": "Proof of work is called by the miner when they submit the solution (proof of work and value)",
        "params": {
          "_nonce": "uint submitted by miner",
          "_requestId": "the apiId being mined",
          "_value": "of api query"
        }
      },
      "symbol()": {
        "details": "Allows users to access the token's symbol"
      },
      "tallyVotes(uint256)": {
        "details": "tallies the votes.",
        "params": {
          "_disputeId": "is the dispute id"
        }
      },
      "transfer(address,uint256)": {
        "details": "Allows for a transfer of tokens to _to",
        "params": {
          "_amount": "The amount of tokens to send",
          "_to": "The address to send tokens to"
        },
        "return": "true if transfer is successful"
      },
      "transferFrom(address,address,uint256)": {
        "details": "Sends _amount tokens to _to from _from on the condition it is approved by _from",
        "params": {
          "_amount": "The amount of tokens to be transferred",
          "_from": "The address holding the tokens being transferred",
          "_to": "The address of the recipient"
        },
        "return": "True if the transfer was successful"
      },
      "vote(uint256,bool)": {
        "details": "Allows token holders to vote",
        "params": {
          "_disputeId": "is the dispute id",
          "_supportsDispute": "is the vote (true=the dispute has basis false = vote against dispute)"
        }
      },
      "withdrawStake()": {
        "details": "This function allows users to withdraw their stake after a 7 day waiting period from request"
      }
    },
    "title": "Tellor Oracle System"
  },
  "userdoc": {
    "methods": {}
  }
}