{
  "contractName": "Tellor",
  "abi": [
    {
      "constant": false,
      "inputs": [
        {
          "internalType": "uint256",
          "name": "_requestId",
          "type": "uint256"
        },
        {
          "internalType": "uint256",
          "name": "_timestamp",
          "type": "uint256"
        },
        {
          "internalType": "uint256",
          "name": "_minerIndex",
          "type": "uint256"
        }
      ],
      "name": "beginDispute",
      "outputs": [],
      "payable": false,
      "stateMutability": "nonpayable",
      "type": "function"
    },
    {
      "constant": false,
      "inputs": [
        {
          "internalType": "uint256",
          "name": "_disputeId",
          "type": "uint256"
        },
        {
          "internalType": "bool",
          "name": "_supportsDispute",
          "type": "bool"
        }
      ],
      "name": "vote",
      "outputs": [],
      "payable": false,
      "stateMutability": "nonpayable",
      "type": "function"
    },
    {
      "constant": false,
      "inputs": [
        {
          "internalType": "uint256",
          "name": "_disputeId",
          "type": "uint256"
        }
      ],
      "name": "tallyVotes",
      "outputs": [],
      "payable": false,
      "stateMutability": "nonpayable",
      "type": "function"
    },
    {
      "constant": false,
      "inputs": [
        {
          "internalType": "address",
          "name": "_propNewTellorAddress",
          "type": "address"
        }
      ],
      "name": "proposeFork",
      "outputs": [],
      "payable": false,
      "stateMutability": "nonpayable",
      "type": "function"
    },
    {
      "constant": false,
      "inputs": [
        {
          "internalType": "uint256",
          "name": "_requestId",
          "type": "uint256"
        },
        {
          "internalType": "uint256",
          "name": "_tip",
          "type": "uint256"
        }
      ],
      "name": "addTip",
      "outputs": [],
      "payable": false,
      "stateMutability": "nonpayable",
      "type": "function"
    },
    {
      "constant": false,
      "inputs": [
        {
          "internalType": "string",
          "name": "_nonce",
          "type": "string"
        },
        {
          "internalType": "uint256[5]",
          "name": "_requestId",
          "type": "uint256[5]"
        },
        {
          "internalType": "uint256[5]",
          "name": "_value",
          "type": "uint256[5]"
        }
      ],
      "name": "submitMiningSolution",
      "outputs": [],
      "payable": false,
      "stateMutability": "nonpayable",
      "type": "function"
    },
    {
      "constant": false,
      "inputs": [
        {
          "internalType": "string",
          "name": "_nonce",
          "type": "string"
        },
        {
          "internalType": "uint256",
          "name": "_requestId",
          "type": "uint256"
        },
        {
          "internalType": "uint256",
          "name": "_value",
          "type": "uint256"
        }
      ],
      "name": "submitMiningSolution",
      "outputs": [],
      "payable": false,
      "stateMutability": "nonpayable",
      "type": "function"
    },
    {
      "constant": false,
      "inputs": [
        {
          "internalType": "address payable",
          "name": "_pendingOwner",
          "type": "address"
        }
      ],
      "name": "proposeOwnership",
      "outputs": [],
      "payable": false,
      "stateMutability": "nonpayable",
      "type": "function"
    },
    {
      "constant": false,
      "inputs": [],
      "name": "claimOwnership",
      "outputs": [],
      "payable": false,
      "stateMutability": "nonpayable",
      "type": "function"
    },
    {
      "constant": false,
      "inputs": [],
      "name": "depositStake",
      "outputs": [],
      "payable": false,
      "stateMutability": "nonpayable",
      "type": "function"
    },
    {
      "constant": false,
      "inputs": [],
      "name": "requestStakingWithdraw",
      "outputs": [],
      "payable": false,
      "stateMutability": "nonpayable",
      "type": "function"
    },
    {
      "constant": false,
      "inputs": [],
      "name": "withdrawStake",
      "outputs": [],
      "payable": false,
      "stateMutability": "nonpayable",
      "type": "function"
    },
    {
      "constant": false,
      "inputs": [
        {
          "internalType": "address",
          "name": "_spender",
          "type": "address"
        },
        {
          "internalType": "uint256",
          "name": "_amount",
          "type": "uint256"
        }
      ],
      "name": "approve",
      "outputs": [
        {
          "internalType": "bool",
          "name": "",
          "type": "bool"
        }
      ],
      "payable": false,
      "stateMutability": "nonpayable",
      "type": "function"
    },
    {
      "constant": false,
      "inputs": [
        {
          "internalType": "address",
          "name": "_to",
          "type": "address"
        },
        {
          "internalType": "uint256",
          "name": "_amount",
          "type": "uint256"
        }
      ],
      "name": "transfer",
      "outputs": [
        {
          "internalType": "bool",
          "name": "",
          "type": "bool"
        }
      ],
      "payable": false,
      "stateMutability": "nonpayable",
      "type": "function"
    },
    {
      "constant": false,
      "inputs": [
        {
          "internalType": "address",
          "name": "_from",
          "type": "address"
        },
        {
          "internalType": "address",
          "name": "_to",
          "type": "address"
        },
        {
          "internalType": "uint256",
          "name": "_amount",
          "type": "uint256"
        }
      ],
      "name": "transferFrom",
      "outputs": [
        {
          "internalType": "bool",
          "name": "",
          "type": "bool"
        }
      ],
      "payable": false,
      "stateMutability": "nonpayable",
      "type": "function"
    },
    {
      "constant": true,
      "inputs": [],
      "name": "name",
      "outputs": [
        {
          "internalType": "string",
          "name": "",
          "type": "string"
        }
      ],
      "payable": false,
      "stateMutability": "pure",
      "type": "function"
    },
    {
      "constant": true,
      "inputs": [],
      "name": "symbol",
      "outputs": [
        {
          "internalType": "string",
          "name": "",
          "type": "string"
        }
      ],
      "payable": false,
      "stateMutability": "pure",
      "type": "function"
    },
    {
      "constant": true,
      "inputs": [],
      "name": "decimals",
      "outputs": [
        {
          "internalType": "uint8",
          "name": "",
          "type": "uint8"
        }
      ],
      "payable": false,
      "stateMutability": "pure",
      "type": "function"
    },
    {
      "constant": true,
      "inputs": [],
      "name": "getNewCurrentVariables",
      "outputs": [
        {
          "internalType": "bytes32",
          "name": "_challenge",
          "type": "bytes32"
        },
        {
          "internalType": "uint256[5]",
          "name": "_requestIds",
          "type": "uint256[5]"
        },
        {
          "internalType": "uint256",
          "name": "_difficutly",
          "type": "uint256"
        },
        {
          "internalType": "uint256",
          "name": "_tip",
          "type": "uint256"
        }
      ],
      "payable": false,
      "stateMutability": "view",
      "type": "function"
    },
    {
      "constant": true,
      "inputs": [],
      "name": "getTopRequestIDs",
      "outputs": [
        {
          "internalType": "uint256[5]",
          "name": "_requestIds",
          "type": "uint256[5]"
        }
      ],
      "payable": false,
      "stateMutability": "view",
      "type": "function"
    },
    {
      "constant": true,
      "inputs": [],
      "name": "getNewVariablesOnDeck",
      "outputs": [
        {
          "internalType": "uint256[5]",
          "name": "idsOnDeck",
          "type": "uint256[5]"
        },
        {
          "internalType": "uint256[5]",
          "name": "tipsOnDeck",
          "type": "uint256[5]"
        }
      ],
      "payable": false,
      "stateMutability": "view",
      "type": "function"
    },
    {
      "constant": false,
      "inputs": [
        {
          "internalType": "uint256",
          "name": "_disputeId",
          "type": "uint256"
        }
      ],
      "name": "updateTellor",
      "outputs": [],
      "payable": false,
      "stateMutability": "nonpayable",
      "type": "function"
    },
    {
      "constant": false,
      "inputs": [
        {
          "internalType": "uint256",
          "name": "_disputeId",
          "type": "uint256"
        }
      ],
      "name": "unlockDisputeFee",
      "outputs": [],
      "payable": false,
      "stateMutability": "nonpayable",
      "type": "function"
    }
  ],
  "bytecode": "0x608060405234801561001057600080fd5b506117ae806100206000396000f3fe608060405234801561001057600080fd5b506004361061014d5760003560e01c806368c180d5116100c35780639a7077ab1161007c5780639a7077ab1461065a578063a9059cbb146106cf578063bed9d86114610735578063c9d27afe1461073f578063f458ab9814610779578063fe1cd15d146107a75761014d565b806368c180d51461045e578063710bf322146104eb578063752d49a11461052f5780638581af191461056757806395d89b41146105a95780639a01ca131461062c5761014d565b806328449c3a1161011557806328449c3a1461030f578063313ce567146103195780634049f1981461033d5780634350283e146103985780634d318b0e146104265780634e71e0c8146104545761014d565b806306fdde0314610152578063095ea7b3146101d55780630d2d76a21461023b57806323b872dd1461024557806326b7d9f6146102cb575b600080fd5b61015a6107ed565b6040518080602001828103825283818151815260200191508051906020019080838360005b8381101561019a57808201518184015260208101905061017f565b50505050905090810190601f1680156101c75780820380516001836020036101000a031916815260200191505b509250505060405180910390f35b610221600480360360408110156101eb57600080fd5b81019080803573ffffffffffffffffffffffffffffffffffffffff1690602001909291908035906020019092919050505061082a565b604051808215151515815260200191505060405180910390f35b6102436108fc565b005b6102b16004803603606081101561025b57600080fd5b81019080803573ffffffffffffffffffffffffffffffffffffffff169060200190929190803573ffffffffffffffffffffffffffffffffffffffff16906020019092919080359060200190929190505050610968565b604051808215151515815260200191505060405180910390f35b61030d600480360360208110156102e157600080fd5b81019080803573ffffffffffffffffffffffffffffffffffffffff169060200190929190505050610a6f565b005b610317610b10565b005b610321610b7c565b604051808260ff1660ff16815260200191505060405180910390f35b610345610b85565b6040518085815260200184600560200280838360005b8381101561037657808201518184015260208101905061035b565b5050505090500183815260200182815260200194505050505060405180910390f35b61042460048036036101608110156103af57600080fd5b81019080803590602001906401000000008111156103cc57600080fd5b8201836020820111156103de57600080fd5b8035906020019184600183028401116401000000008311171561040057600080fd5b90919293919293908060a0019091929192908060a001909192919290505050610baa565b005b6104526004803603602081101561043c57600080fd5b8101908080359060200190929190505050610c94565b005b61045c610d09565b005b6104e96004803603606081101561047457600080fd5b810190808035906020019064010000000081111561049157600080fd5b8201836020820111156104a357600080fd5b803590602001918460018302840111640100000000831117156104c557600080fd5b90919293919293908035906020019092919080359060200190929190505050610d75565b005b61052d6004803603602081101561050157600080fd5b81019080803573ffffffffffffffffffffffffffffffffffffffff169060200190929190505050610e29565b005b6105656004803603604081101561054557600080fd5b810190808035906020019092919080359060200190929190505050610eca565b005b6105a76004803603606081101561057d57600080fd5b81019080803590602001909291908035906020019092919080359060200190929190505050610f48565b005b6105b1610fcf565b6040518080602001828103825283818151815260200191508051906020019080838360005b838110156105f15780820151818401526020810190506105d6565b50505050905090810190601f16801561061e5780820380516001836020036101000a031916815260200191505b509250505060405180910390f35b6106586004803603602081101561064257600080fd5b810190808035906020019092919050505061100c565b005b610662611081565b6040518083600560200280838360005b8381101561068d578082015181840152602081019050610672565b5050505090500182600560200280838360005b838110156106bb5780820151818401526020810190506106a0565b505050509050019250505060405180910390f35b61071b600480360360408110156106e557600080fd5b81019080803573ffffffffffffffffffffffffffffffffffffffff169060200190929190803590602001909291905050506110a3565b604051808215151515815260200191505060405180910390f35b61073d611175565b005b6107776004803603604081101561075557600080fd5b81019080803590602001909291908035151590602001909291905050506111e1565b005b6107a56004803603602081101561078f57600080fd5b8101908080359060200190929190505050611263565b005b6107af6112d8565b6040518082600560200280838360005b838110156107da5780820151818401526020810190506107bf565b5050505090500191505060405180910390f35b60606040518060400160405280600f81526020017f54656c6c6f722054726962757465730000000000000000000000000000000000815250905090565b60008073__v2TellorTransfer______________________63052bc340909185856040518463ffffffff1660e01b8152600401808481526020018373ffffffffffffffffffffffffffffffffffffffff1673ffffffffffffffffffffffffffffffffffffffff168152602001828152602001935050505060206040518083038186803b1580156108b957600080fd5b505af41580156108cd573d6000803e3d6000fd5b505050506040513d60208110156108e357600080fd5b8101908080519060200190929190505050905092915050565b600073__v2TellorStake_________________________6318b2a9eb90916040518263ffffffff1660e01b81526004018082815260200191505060006040518083038186803b15801561094e57600080fd5b505af4158015610962573d6000803e3d6000fd5b50505050565b60008073__v2TellorTransfer______________________63dc84521e90918686866040518563ffffffff1660e01b8152600401808581526020018473ffffffffffffffffffffffffffffffffffffffff1673ffffffffffffffffffffffffffffffffffffffff1681526020018373ffffffffffffffffffffffffffffffffffffffff1673ffffffffffffffffffffffffffffffffffffffff16815260200182815260200194505050505060206040518083038186803b158015610a2b57600080fd5b505af4158015610a3f573d6000803e3d6000fd5b505050506040513d6020811015610a5557600080fd5b810190808051906020019092919050505090509392505050565b600073__v2TellorDispute_______________________636677dc919091836040518363ffffffff1660e01b8152600401808381526020018273ffffffffffffffffffffffffffffffffffffffff1673ffffffffffffffffffffffffffffffffffffffff1681526020019250505060006040518083038186803b158015610af557600080fd5b505af4158015610b09573d6000803e3d6000fd5b5050505050565b600073__v2TellorStake_________________________6313a08a9e90916040518263ffffffff1660e01b81526004018082815260200191505060006040518083038186803b158015610b6257600080fd5b505af4158015610b76573d6000803e3d6000fd5b50505050565b60006012905090565b6000610b8f611757565b600080610b9c60006112ef565b935093509350935090919293565b600073__v2TellorLibrary_______________________63fce5b00f9091868686866040518663ffffffff1660e01b8152600401808681526020018060200184600560200280828437600081840152601f19601f82011690508083019250505083600560200280828437600081840152601f19601f8201169050808301925050508281038252868682818152602001925080828437600081840152601f19601f820116905080830192505050965050505050505060006040518083038186803b158015610c7657600080fd5b505af4158015610c8a573d6000803e3d6000fd5b5050505050505050565b600073__v2TellorDispute_______________________6333f7b1009091836040518363ffffffff1660e01b8152600401808381526020018281526020019250505060006040518083038186803b158015610cee57600080fd5b505af4158015610d02573d6000803e3d6000fd5b5050505050565b600073__v2TellorLibrary_______________________6376bb5a7990916040518263ffffffff1660e01b81526004018082815260200191505060006040518083038186803b158015610d5b57600080fd5b505af4158015610d6f573d6000803e3d6000fd5b50505050565b600073__v2TellorLibrary_______________________63c108687c9091868686866040518663ffffffff1660e01b815260040180868152602001806020018481526020018381526020018281038252868682818152602001925080828437600081840152601f19601f820116905080830192505050965050505050505060006040518083038186803b158015610e0b57600080fd5b505af4158015610e1f573d6000803e3d6000fd5b5050505050505050565b600073__v2TellorLibrary_______________________633c5ff1a89091836040518363ffffffff1660e01b8152600401808381526020018273ffffffffffffffffffffffffffffffffffffffff1673ffffffffffffffffffffffffffffffffffffffff1681526020019250505060006040518083038186803b158015610eaf57600080fd5b505af4158015610ec3573d6000803e3d6000fd5b5050505050565b600073__v2TellorLibrary_______________________63b2611916909184846040518463ffffffff1660e01b815260040180848152602001838152602001828152602001935050505060006040518083038186803b158015610f2c57600080fd5b505af4158015610f40573d6000803e3d6000fd5b505050505050565b600073__v2TellorDispute_______________________63ac30382c90918585856040518563ffffffff1660e01b81526004018085815260200184815260200183815260200182815260200194505050505060006040518083038186803b158015610fb257600080fd5b505af4158015610fc6573d6000803e3d6000fd5b50505050505050565b60606040518060400160405280600381526020017f5452420000000000000000000000000000000000000000000000000000000000815250905090565b600073__v2TellorDispute_______________________630fbe95da9091836040518363ffffffff1660e01b8152600401808381526020018281526020019250505060006040518083038186803b15801561106657600080fd5b505af415801561107a573d6000803e3d6000fd5b5050505050565b611089611757565b611091611757565b61109b60006113f0565b915091509091565b60008073__v2TellorTransfer______________________6317fe051c909185856040518463ffffffff1660e01b8152600401808481526020018373ffffffffffffffffffffffffffffffffffffffff1673ffffffffffffffffffffffffffffffffffffffff168152602001828152602001935050505060206040518083038186803b15801561113257600080fd5b505af4158015611146573d6000803e3d6000fd5b505050506040513d602081101561115c57600080fd5b8101908080519060200190929190505050905092915050565b600073__v2TellorStake_________________________6337a31e8490916040518263ffffffff1660e01b81526004018082815260200191505060006040518083038186803b1580156111c757600080fd5b505af41580156111db573d6000803e3d6000fd5b50505050565b600073__v2TellorDispute_______________________63514fe794909184846040518463ffffffff1660e01b81526004018084815260200183815260200182151515158152602001935050505060006040518083038186803b15801561124757600080fd5b505af415801561125b573d6000803e3d6000fd5b505050505050565b600073__v2TellorDispute_______________________630d0459899091836040518363ffffffff1660e01b8152600401808381526020018281526020019250505060006040518083038186803b1580156112bd57600080fd5b505af41580156112d1573d6000803e3d6000fd5b5050505050565b6112e0611757565b6112ea60006114b1565b905090565b60006112f9611757565b60008060008090505b60058110156113445785603501816005811061131a57fe5b600202016000015484826005811061132e57fe5b6020020181815250508080600101915050611302565b5084600001548386604001600060405180807f646966666963756c747900000000000000000000000000000000000000000000815250600a019050604051809103902081526020019081526020016000205487604001600060405180807f63757272656e74546f74616c54697073000000000000000000000000000000008152506010019050604051809103902081526020019081526020016000205493509350935093509193509193565b6113f8611757565b611400611757565b611409836114b1565b915060008090505b60058110156114ab5783604801600084836005811061142c57fe5b60200201518152602001908152602001600020600401600060405180807f746f74616c5469700000000000000000000000000000000000000000000000008152506008019050604051809103902081526020019081526020016000205482826005811061149557fe5b6020020181815250508080600101915050611411565b50915091565b6114b9611757565b6114c1611757565b6114c9611757565b61151184600101603380602002604051908101604052809291908260338015611507576020028201915b8154815260200190600101908083116114f3575b50505050506115c5565b809250819350505060008090505b60058110156115bd57600083826005811061153657fe5b6020020151146115805784604301600083836005811061155257fe5b602002015181526020019081526020016000205484826005811061157257fe5b6020020181815250506115b0565b84603501816004036005811061159257fe5b60020201600001548482600581106115a657fe5b6020020181815250505b808060010191505061151f565b505050919050565b6115cd611757565b6115d5611757565b6000836001603381106115e457fe5b60200201519050600080905060008090505b600581101561167d5785600182016033811061160e57fe5b602002015185826005811061161f57fe5b6020020181815250506001810184826005811061163857fe5b6020020181815250508285826005811061164e57fe5b602002015110156116705784816005811061166557fe5b602002015192508091505b80806001019150506115f6565b506000600690505b603381101561174f578286826033811061169b57fe5b60200201511115611742578581603381106116b257fe5b60200201518583600581106116c357fe5b602002018181525050808483600581106116d957fe5b6020020181815250508581603381106116ee57fe5b6020020151925060008090505b6005811015611740578386826005811061171157fe5b602002015110156117335785816005811061172857fe5b602002015193508092505b80806001019150506116fb565b505b8080600101915050611685565b505050915091565b6040518060a0016040528060059060208202803883398082019150509050509056fea265627a7a72315820c7a442fa6566189da23f10620e184d85678d38cbfdf85852731b01477b69f30e64736f6c63430005100032",
  "source": "pragma solidity ^0.5.16;\r\n\r\n\r\nimport \"./libraries/v2SafeMath.sol\";\r\nimport \"./libraries/v2TellorStorage.sol\";\r\nimport \"./libraries/v2TellorTransfer.sol\";\r\nimport \"./libraries/v2TellorDispute.sol\";\r\nimport \"./libraries/v2TellorStake.sol\";\r\nimport \"./libraries/v2TellorLibrary.sol\";\r\n\r\n/**\r\n * @title Tellor Oracle System\r\n * @dev Oracle contract where miners can submit the proof of work along with the value.\r\n * The logic for this contract is in TellorLibrary.sol, TellorDispute.sol, TellorStake.sol,\r\n * and TellorTransfer.sol\r\n */\r\ncontract Tellor {\r\n    using v2SafeMath for uint256;\r\n\r\n    using v2TellorDispute for v2TellorStorage.TellorStorageStruct;\r\n    using v2TellorLibrary for v2TellorStorage.TellorStorageStruct;\r\n    using v2TellorStake for v2TellorStorage.TellorStorageStruct;\r\n    using v2TellorTransfer for v2TellorStorage.TellorStorageStruct;\r\n\r\n    v2TellorStorage.TellorStorageStruct tellor;\r\n\r\n    /*Functions*/\r\n\r\n    /**\r\n    * @dev Helps initialize a dispute by assigning it a disputeId\r\n    * when a miner returns a false on the validate array(in Tellor.ProofOfWork) it sends the\r\n    * invalidated value information to POS voting\r\n    * @param _requestId being disputed\r\n    * @param _timestamp being disputed\r\n    * @param _minerIndex the index of the miner that submitted the value being disputed. Since each official value\r\n    * requires 5 miners to submit a value.\r\n    */\r\n    function beginDispute(uint256 _requestId, uint256 _timestamp, uint256 _minerIndex) external {\r\n        tellor.beginDispute(_requestId, _timestamp, _minerIndex);\r\n    }\r\n\r\n    /**\r\n    * @dev Allows token holders to vote\r\n    * @param _disputeId is the dispute id\r\n    * @param _supportsDispute is the vote (true=the dispute has basis false = vote against dispute)\r\n    */\r\n    function vote(uint256 _disputeId, bool _supportsDispute) external {\r\n        tellor.vote(_disputeId, _supportsDispute);\r\n    }\r\n\r\n    /**\r\n    * @dev tallies the votes.\r\n    * @param _disputeId is the dispute id\r\n    */\r\n    function tallyVotes(uint256 _disputeId) external {\r\n        tellor.tallyVotes(_disputeId);\r\n    }\r\n\r\n    /**\r\n    * @dev Allows for a fork to be proposed\r\n    * @param _propNewTellorAddress address for new proposed Tellor\r\n    */\r\n    function proposeFork(address _propNewTellorAddress) external {\r\n        tellor.proposeFork(_propNewTellorAddress);\r\n    }\r\n\r\n    /**\r\n    * @dev Add tip to Request value from oracle\r\n    * @param _requestId being requested to be mined\r\n    * @param _tip amount the requester is willing to pay to be get on queue. Miners\r\n    * mine the onDeckQueryHash, or the api with the highest payout pool\r\n    */\r\n    function addTip(uint256 _requestId, uint256 _tip) external {\r\n        tellor.addTip(_requestId, _tip);\r\n    }\r\n\r\n\r\n    /**\r\n    * @dev This is called by the miner when they submit the PoW solution (proof of work and value)\r\n    * @param _nonce uint submitted by miner\r\n    * @param _requestId the apiId being mined\r\n    * @param _value of api query\r\n    * \r\n    */\r\n    function submitMiningSolution(string calldata _nonce, uint256 _requestId, uint256 _value) external {\r\n        tellor.submitMiningSolution(_nonce, _requestId, _value);\r\n    }\r\n\r\n    /**\r\n    * @dev This is called by the miner when they submit the PoW solution (proof of work and value)\r\n    * @param _nonce uint submitted by miner\r\n    * @param _requestId is the array of the 5 PSR's being mined\r\n    * @param _value is an array of 5 values\r\n    */\r\n    function submitMiningSolution(string calldata _nonce,uint256[5] calldata _requestId, uint256[5] calldata _value) external {\r\n        tellor.submitMiningSolution(_nonce,_requestId, _value);\r\n    }\r\n\r\n\r\n    /**\r\n    * @dev Allows the current owner to propose transfer control of the contract to a\r\n    * newOwner and the ownership is pending until the new owner calls the claimOwnership\r\n    * function\r\n    * @param _pendingOwner The address to transfer ownership to.\r\n    */\r\n    function proposeOwnership(address payable _pendingOwner) external {\r\n        tellor.proposeOwnership(_pendingOwner);\r\n    }\r\n\r\n    /**\r\n    * @dev Allows the new owner to claim control of the contract\r\n    */\r\n    function claimOwnership() external {\r\n        tellor.claimOwnership();\r\n    }\r\n\r\n    /**\r\n    * @dev This function allows miners to deposit their stake.\r\n    */\r\n    function depositStake() external {\r\n        tellor.depositStake();\r\n    }\r\n\r\n    /**\r\n    * @dev This function allows stakers to request to withdraw their stake (no longer stake)\r\n    * once they lock for withdraw(stakes.currentStatus = 2) they are locked for 7 days before they\r\n    * can withdraw the stake\r\n    */\r\n    function requestStakingWithdraw() external {\r\n        tellor.requestStakingWithdraw();\r\n    }\r\n\r\n    /**\r\n    * @dev This function allows users to withdraw their stake after a 7 day waiting period from request\r\n    */\r\n    function withdrawStake() external {\r\n        tellor.withdrawStake();\r\n    }\r\n\r\n    /**\r\n    * @dev This function approves a _spender an _amount of tokens to use\r\n    * @param _spender address\r\n    * @param _amount amount the spender is being approved for\r\n    * @return true if spender appproved successfully\r\n    */\r\n    function approve(address _spender, uint256 _amount) external returns (bool) {\r\n        return tellor.approve(_spender, _amount);\r\n    }\r\n\r\n    /**\r\n    * @dev Allows for a transfer of tokens to _to\r\n    * @param _to The address to send tokens to\r\n    * @param _amount The amount of tokens to send\r\n    * @return true if transfer is successful\r\n    */\r\n    function transfer(address _to, uint256 _amount) external returns (bool) {\r\n        return tellor.transfer(_to, _amount);\r\n    }\r\n\r\n    /**\r\n    * @dev Sends _amount tokens to _to from _from on the condition it\r\n    * is approved by _from\r\n    * @param _from The address holding the tokens being transferred\r\n    * @param _to The address of the recipient\r\n    * @param _amount The amount of tokens to be transferred\r\n    * @return True if the transfer was successful\r\n    */\r\n    function transferFrom(address _from, address _to, uint256 _amount) external returns (bool) {\r\n        return tellor.transferFrom(_from, _to, _amount);\r\n    }\r\n\r\n    /**\r\n    * @dev Allows users to access the token's name\r\n    */\r\n    function name() external pure returns (string memory) {\r\n        return \"Tellor Tributes\";\r\n    }\r\n\r\n    /**\r\n    * @dev Allows users to access the token's symbol\r\n    */\r\n    function symbol() external pure returns (string memory) {\r\n        return \"TRB\";\r\n    }\r\n\r\n    /**\r\n    * @dev Allows users to access the number of decimals\r\n    */\r\n    function decimals() external pure returns (uint8) {\r\n        return 18;\r\n    }\r\n\r\n    /**\r\n    * @dev Getter for the current variables that include the 5 requests Id's\r\n    * @return the challenge, 5 requestsId, difficulty and tip\r\n    */\r\n    function getNewCurrentVariables() external view returns(bytes32 _challenge,uint[5] memory _requestIds,uint256 _difficutly, uint256 _tip){\r\n        return tellor.getNewCurrentVariables();\r\n    }\r\n\r\n    /**\r\n    * @dev Getter for the top tipped 5 requests Id's\r\n    * @return the 5 requestsId\r\n    */\r\n    function getTopRequestIDs() external view returns(uint256[5] memory _requestIds){\r\n        return tellor.getTopRequestIDs();\r\n    }\r\n\r\n    /**\r\n    * @dev Getter for the 5 requests Id's next in line to get mined\r\n    * @return the 5 requestsId\r\n    */\r\n    function getNewVariablesOnDeck() external view returns (uint256[5] memory idsOnDeck, uint256[5] memory tipsOnDeck) {\r\n        return tellor.getNewVariablesOnDeck();\r\n    }\r\n\r\n    /**\r\n    * @dev Updates the Tellor address after a proposed fork has \r\n    * passed the vote and day has gone by without a dispute\r\n    * @param _disputeId the disputeId for the proposed fork\r\n    */\r\n     function updateTellor(uint _disputeId) external{\r\n        return tellor.updateTellor(_disputeId);\r\n    }\r\n\r\n    /**\r\n    * @dev Allows disputer to unlock the dispute fee\r\n    * @param _disputeId to unlock fee from\r\n    */\r\n     function unlockDisputeFee (uint _disputeId) external{\r\n        return tellor.unlockDisputeFee(_disputeId);\r\n    }\r\n\r\n    /*******************TEST Functions NOT INCLUDED ON PRODUCTION/MAINNET/RINKEBY******/\r\n    /*This is a cheat for demo purposes, will delete upon actual launch*/\r\n    // function theLazyCoon(address _address, uint _amount) external {\r\n    //     tellor.theLazyCoon(_address,_amount);\r\n    // }\r\n\r\n    // function testSubmitMiningSolution(string calldata _nonce, uint256 _requestId, uint256 _value) external {\r\n    //     tellor.testSubmitMiningSolution(_nonce, _requestId, _value);\r\n    // }\r\n\r\n    // function testSubmitMiningSolution(string calldata _nonce,uint256[5] calldata _requestId, uint256[5] calldata _value) external {\r\n    //     tellor.testSubmitMiningSolution(_nonce,_requestId, _value);\r\n    // }\r\n    /***************END TEST Functions NOT INCLUDED ON PRODUCTION/MAINNET/RINKEBY******/\r\n }\r\n",
  "sourcePath": "C:\\company\\code\\tellorlegacy\\contracts\\v2\\v2Tellor.sol",
  "compiler": {
    "name": "solc",
    "version": "0.5.16+commit.9c3226ce.Emscripten.clang"
  },
  "schemaVersion": "3.0.23",
  "updatedAt": "2020-10-04T01:22:40.390Z",
  "devdoc": {
    "details": "Oracle contract where miners can submit the proof of work along with the value. The logic for this contract is in TellorLibrary.sol, TellorDispute.sol, TellorStake.sol, and TellorTransfer.sol",
    "methods": {
      "addTip(uint256,uint256)": {
        "details": "Add tip to Request value from oracle",
        "params": {
          "_requestId": "being requested to be mined",
          "_tip": "amount the requester is willing to pay to be get on queue. Miners mine the onDeckQueryHash, or the api with the highest payout pool"
        }
      },
      "approve(address,uint256)": {
        "details": "This function approves a _spender an _amount of tokens to use",
        "params": {
          "_amount": "amount the spender is being approved for",
          "_spender": "address"
        },
        "return": "true if spender appproved successfully"
      },
      "beginDispute(uint256,uint256,uint256)": {
        "details": "Helps initialize a dispute by assigning it a disputeId when a miner returns a false on the validate array(in Tellor.ProofOfWork) it sends the invalidated value information to POS voting",
        "params": {
          "_minerIndex": "the index of the miner that submitted the value being disputed. Since each official value requires 5 miners to submit a value.",
          "_requestId": "being disputed",
          "_timestamp": "being disputed"
        }
      },
      "claimOwnership()": {
        "details": "Allows the new owner to claim control of the contract"
      },
      "decimals()": {
        "details": "Allows users to access the number of decimals"
      },
      "depositStake()": {
        "details": "This function allows miners to deposit their stake."
      },
      "getNewCurrentVariables()": {
        "details": "Getter for the current variables that include the 5 requests Id's",
        "return": "the challenge, 5 requestsId, difficulty and tip"
      },
      "getNewVariablesOnDeck()": {
        "details": "Getter for the 5 requests Id's next in line to get mined",
        "return": "the 5 requestsId"
      },
      "getTopRequestIDs()": {
        "details": "Getter for the top tipped 5 requests Id's",
        "return": "the 5 requestsId"
      },
      "name()": {
        "details": "Allows users to access the token's name"
      },
      "proposeFork(address)": {
        "details": "Allows for a fork to be proposed",
        "params": {
          "_propNewTellorAddress": "address for new proposed Tellor"
        }
      },
      "proposeOwnership(address)": {
        "details": "Allows the current owner to propose transfer control of the contract to a newOwner and the ownership is pending until the new owner calls the claimOwnership function",
        "params": {
          "_pendingOwner": "The address to transfer ownership to."
        }
      },
      "requestStakingWithdraw()": {
        "details": "This function allows stakers to request to withdraw their stake (no longer stake) once they lock for withdraw(stakes.currentStatus = 2) they are locked for 7 days before they can withdraw the stake"
      },
      "submitMiningSolution(string,uint256,uint256)": {
        "details": "This is called by the miner when they submit the PoW solution (proof of work and value)",
        "params": {
          "_nonce": "uint submitted by miner",
          "_requestId": "the apiId being mined",
          "_value": "of api query \r"
        }
      },
      "submitMiningSolution(string,uint256[5],uint256[5])": {
        "details": "This is called by the miner when they submit the PoW solution (proof of work and value)",
        "params": {
          "_nonce": "uint submitted by miner",
          "_requestId": "is the array of the 5 PSR's being mined",
          "_value": "is an array of 5 values"
        }
      },
      "symbol()": {
        "details": "Allows users to access the token's symbol"
      },
      "tallyVotes(uint256)": {
        "details": "tallies the votes.",
        "params": {
          "_disputeId": "is the dispute id"
        }
      },
      "transfer(address,uint256)": {
        "details": "Allows for a transfer of tokens to _to",
        "params": {
          "_amount": "The amount of tokens to send",
          "_to": "The address to send tokens to"
        },
        "return": "true if transfer is successful"
      },
      "transferFrom(address,address,uint256)": {
        "details": "Sends _amount tokens to _to from _from on the condition it is approved by _from",
        "params": {
          "_amount": "The amount of tokens to be transferred",
          "_from": "The address holding the tokens being transferred",
          "_to": "The address of the recipient"
        },
        "return": "True if the transfer was successful"
      },
      "unlockDisputeFee(uint256)": {
        "details": "Allows disputer to unlock the dispute fee",
        "params": {
          "_disputeId": "to unlock fee from"
        }
      },
      "updateTellor(uint256)": {
        "details": "Updates the Tellor address after a proposed fork has  passed the vote and day has gone by without a dispute",
        "params": {
          "_disputeId": "the disputeId for the proposed fork"
        }
      },
      "vote(uint256,bool)": {
        "details": "Allows token holders to vote",
        "params": {
          "_disputeId": "is the dispute id",
          "_supportsDispute": "is the vote (true=the dispute has basis false = vote against dispute)"
        }
      },
      "withdrawStake()": {
        "details": "This function allows users to withdraw their stake after a 7 day waiting period from request"
      }
    },
    "title": "Tellor Oracle System"
  },
  "userdoc": {
    "methods": {}
  }
}