{
  "contractName": "v25Tellor",
  "abi": [
    {
      "constant": false,
      "inputs": [
        {
          "internalType": "uint256",
          "name": "_requestId",
          "type": "uint256"
        },
        {
          "internalType": "uint256",
          "name": "_timestamp",
          "type": "uint256"
        },
        {
          "internalType": "uint256",
          "name": "_minerIndex",
          "type": "uint256"
        }
      ],
      "name": "beginDispute",
      "outputs": [],
      "payable": false,
      "stateMutability": "nonpayable",
      "type": "function"
    },
    {
      "constant": false,
      "inputs": [
        {
          "internalType": "uint256",
          "name": "_disputeId",
          "type": "uint256"
        },
        {
          "internalType": "bool",
          "name": "_supportsDispute",
          "type": "bool"
        }
      ],
      "name": "vote",
      "outputs": [],
      "payable": false,
      "stateMutability": "nonpayable",
      "type": "function"
    },
    {
      "constant": false,
      "inputs": [
        {
          "internalType": "uint256",
          "name": "_disputeId",
          "type": "uint256"
        }
      ],
      "name": "tallyVotes",
      "outputs": [],
      "payable": false,
      "stateMutability": "nonpayable",
      "type": "function"
    },
    {
      "constant": false,
      "inputs": [
        {
          "internalType": "address",
          "name": "_propNewTellorAddress",
          "type": "address"
        }
      ],
      "name": "proposeFork",
      "outputs": [],
      "payable": false,
      "stateMutability": "nonpayable",
      "type": "function"
    },
    {
      "constant": false,
      "inputs": [
        {
          "internalType": "uint256",
          "name": "_requestId",
          "type": "uint256"
        },
        {
          "internalType": "uint256",
          "name": "_tip",
          "type": "uint256"
        }
      ],
      "name": "addTip",
      "outputs": [],
      "payable": false,
      "stateMutability": "nonpayable",
      "type": "function"
    },
    {
      "constant": false,
      "inputs": [
        {
          "internalType": "string",
          "name": "_nonce",
          "type": "string"
        },
        {
          "internalType": "uint256[5]",
          "name": "_requestId",
          "type": "uint256[5]"
        },
        {
          "internalType": "uint256[5]",
          "name": "_value",
          "type": "uint256[5]"
        }
      ],
      "name": "submitMiningSolution",
      "outputs": [],
      "payable": false,
      "stateMutability": "nonpayable",
      "type": "function"
    },
    {
      "constant": false,
      "inputs": [
        {
          "internalType": "address payable",
          "name": "_pendingOwner",
          "type": "address"
        }
      ],
      "name": "proposeOwnership",
      "outputs": [],
      "payable": false,
      "stateMutability": "nonpayable",
      "type": "function"
    },
    {
      "constant": false,
      "inputs": [],
      "name": "claimOwnership",
      "outputs": [],
      "payable": false,
      "stateMutability": "nonpayable",
      "type": "function"
    },
    {
      "constant": false,
      "inputs": [],
      "name": "depositStake",
      "outputs": [],
      "payable": false,
      "stateMutability": "nonpayable",
      "type": "function"
    },
    {
      "constant": false,
      "inputs": [],
      "name": "requestStakingWithdraw",
      "outputs": [],
      "payable": false,
      "stateMutability": "nonpayable",
      "type": "function"
    },
    {
      "constant": false,
      "inputs": [],
      "name": "withdrawStake",
      "outputs": [],
      "payable": false,
      "stateMutability": "nonpayable",
      "type": "function"
    },
    {
      "constant": false,
      "inputs": [
        {
          "internalType": "address",
          "name": "_spender",
          "type": "address"
        },
        {
          "internalType": "uint256",
          "name": "_amount",
          "type": "uint256"
        }
      ],
      "name": "approve",
      "outputs": [
        {
          "internalType": "bool",
          "name": "",
          "type": "bool"
        }
      ],
      "payable": false,
      "stateMutability": "nonpayable",
      "type": "function"
    },
    {
      "constant": false,
      "inputs": [
        {
          "internalType": "address",
          "name": "_to",
          "type": "address"
        },
        {
          "internalType": "uint256",
          "name": "_amount",
          "type": "uint256"
        }
      ],
      "name": "transfer",
      "outputs": [
        {
          "internalType": "bool",
          "name": "",
          "type": "bool"
        }
      ],
      "payable": false,
      "stateMutability": "nonpayable",
      "type": "function"
    },
    {
      "constant": false,
      "inputs": [
        {
          "internalType": "address",
          "name": "_from",
          "type": "address"
        },
        {
          "internalType": "address",
          "name": "_to",
          "type": "address"
        },
        {
          "internalType": "uint256",
          "name": "_amount",
          "type": "uint256"
        }
      ],
      "name": "transferFrom",
      "outputs": [
        {
          "internalType": "bool",
          "name": "",
          "type": "bool"
        }
      ],
      "payable": false,
      "stateMutability": "nonpayable",
      "type": "function"
    },
    {
      "constant": true,
      "inputs": [],
      "name": "name",
      "outputs": [
        {
          "internalType": "string",
          "name": "",
          "type": "string"
        }
      ],
      "payable": false,
      "stateMutability": "pure",
      "type": "function"
    },
    {
      "constant": true,
      "inputs": [],
      "name": "symbol",
      "outputs": [
        {
          "internalType": "string",
          "name": "",
          "type": "string"
        }
      ],
      "payable": false,
      "stateMutability": "pure",
      "type": "function"
    },
    {
      "constant": true,
      "inputs": [],
      "name": "decimals",
      "outputs": [
        {
          "internalType": "uint8",
          "name": "",
          "type": "uint8"
        }
      ],
      "payable": false,
      "stateMutability": "pure",
      "type": "function"
    },
    {
      "constant": true,
      "inputs": [],
      "name": "getNewCurrentVariables",
      "outputs": [
        {
          "internalType": "bytes32",
          "name": "_challenge",
          "type": "bytes32"
        },
        {
          "internalType": "uint256[5]",
          "name": "_requestIds",
          "type": "uint256[5]"
        },
        {
          "internalType": "uint256",
          "name": "_difficutly",
          "type": "uint256"
        },
        {
          "internalType": "uint256",
          "name": "_tip",
          "type": "uint256"
        }
      ],
      "payable": false,
      "stateMutability": "view",
      "type": "function"
    },
    {
      "constant": true,
      "inputs": [],
      "name": "getTopRequestIDs",
      "outputs": [
        {
          "internalType": "uint256[5]",
          "name": "_requestIds",
          "type": "uint256[5]"
        }
      ],
      "payable": false,
      "stateMutability": "view",
      "type": "function"
    },
    {
      "constant": true,
      "inputs": [],
      "name": "getNewVariablesOnDeck",
      "outputs": [
        {
          "internalType": "uint256[5]",
          "name": "idsOnDeck",
          "type": "uint256[5]"
        },
        {
          "internalType": "uint256[5]",
          "name": "tipsOnDeck",
          "type": "uint256[5]"
        }
      ],
      "payable": false,
      "stateMutability": "view",
      "type": "function"
    },
    {
      "constant": false,
      "inputs": [
        {
          "internalType": "uint256",
          "name": "_disputeId",
          "type": "uint256"
        }
      ],
      "name": "updateTellor",
      "outputs": [],
      "payable": false,
      "stateMutability": "nonpayable",
      "type": "function"
    },
    {
      "constant": false,
      "inputs": [
        {
          "internalType": "uint256",
          "name": "_disputeId",
          "type": "uint256"
        }
      ],
      "name": "unlockDisputeFee",
      "outputs": [],
      "payable": false,
      "stateMutability": "nonpayable",
      "type": "function"
    }
  ],
  "bytecode": "0x608060405234801561001057600080fd5b50611662806100206000396000f3fe608060405234801561001057600080fd5b50600436106101425760003560e01c8063710bf322116100b85780639a7077ab1161007c5780639a7077ab146105c2578063a9059cbb14610637578063bed9d8611461069d578063c9d27afe146106a7578063f458ab98146106e1578063fe1cd15d1461070f57610142565b8063710bf32214610453578063752d49a1146104975780638581af19146104cf57806395d89b41146105115780639a01ca131461059457610142565b806328449c3a1161010a57806328449c3a14610304578063313ce5671461030e5780634049f198146103325780634350283e1461038d5780634d318b0e1461041b5780634e71e0c81461044957610142565b806306fdde0314610147578063095ea7b3146101ca5780630d2d76a21461023057806323b872dd1461023a57806326b7d9f6146102c0575b600080fd5b61014f610755565b6040518080602001828103825283818151815260200191508051906020019080838360005b8381101561018f578082015181840152602081019050610174565b50505050905090810190601f1680156101bc5780820380516001836020036101000a031916815260200191505b509250505060405180910390f35b610216600480360360408110156101e057600080fd5b81019080803573ffffffffffffffffffffffffffffffffffffffff16906020019092919080359060200190929190505050610792565b604051808215151515815260200191505060405180910390f35b610238610864565b005b6102a66004803603606081101561025057600080fd5b81019080803573ffffffffffffffffffffffffffffffffffffffff169060200190929190803573ffffffffffffffffffffffffffffffffffffffff169060200190929190803590602001909291905050506108d0565b604051808215151515815260200191505060405180910390f35b610302600480360360208110156102d657600080fd5b81019080803573ffffffffffffffffffffffffffffffffffffffff1690602001909291905050506109d7565b005b61030c610a78565b005b610316610ae4565b604051808260ff1660ff16815260200191505060405180910390f35b61033a610aed565b6040518085815260200184600560200280838360005b8381101561036b578082015181840152602081019050610350565b5050505090500183815260200182815260200194505050505060405180910390f35b61041960048036036101608110156103a457600080fd5b81019080803590602001906401000000008111156103c157600080fd5b8201836020820111156103d357600080fd5b803590602001918460018302840111640100000000831117156103f557600080fd5b90919293919293908060a0019091929192908060a001909192919290505050610b12565b005b6104476004803603602081101561043157600080fd5b8101908080359060200190929190505050610bfc565b005b610451610c71565b005b6104956004803603602081101561046957600080fd5b81019080803573ffffffffffffffffffffffffffffffffffffffff169060200190929190505050610cdd565b005b6104cd600480360360408110156104ad57600080fd5b810190808035906020019092919080359060200190929190505050610d7e565b005b61050f600480360360608110156104e557600080fd5b81019080803590602001909291908035906020019092919080359060200190929190505050610dfc565b005b610519610e83565b6040518080602001828103825283818151815260200191508051906020019080838360005b8381101561055957808201518184015260208101905061053e565b50505050905090810190601f1680156105865780820380516001836020036101000a031916815260200191505b509250505060405180910390f35b6105c0600480360360208110156105aa57600080fd5b8101908080359060200190929190505050610ec0565b005b6105ca610f35565b6040518083600560200280838360005b838110156105f55780820151818401526020810190506105da565b5050505090500182600560200280838360005b83811015610623578082015181840152602081019050610608565b505050509050019250505060405180910390f35b6106836004803603604081101561064d57600080fd5b81019080803573ffffffffffffffffffffffffffffffffffffffff16906020019092919080359060200190929190505050610f57565b604051808215151515815260200191505060405180910390f35b6106a5611029565b005b6106df600480360360408110156106bd57600080fd5b8101908080359060200190929190803515159060200190929190505050611095565b005b61070d600480360360208110156106f757600080fd5b8101908080359060200190929190505050611117565b005b61071761118c565b6040518082600560200280838360005b83811015610742578082015181840152602081019050610727565b5050505090500191505060405180910390f35b60606040518060400160405280601281526020017f76323554656c6c6f722054726962757465730000000000000000000000000000815250905090565b60008073__v25TellorTransfer_____________________63b5e46a62909185856040518463ffffffff1660e01b8152600401808481526020018373ffffffffffffffffffffffffffffffffffffffff1673ffffffffffffffffffffffffffffffffffffffff168152602001828152602001935050505060206040518083038186803b15801561082157600080fd5b505af4158015610835573d6000803e3d6000fd5b505050506040513d602081101561084b57600080fd5b8101908080519060200190929190505050905092915050565b600073__v25TellorStake________________________63625641eb90916040518263ffffffff1660e01b81526004018082815260200191505060006040518083038186803b1580156108b657600080fd5b505af41580156108ca573d6000803e3d6000fd5b50505050565b60008073__v25TellorTransfer_____________________6352fec45d90918686866040518563ffffffff1660e01b8152600401808581526020018473ffffffffffffffffffffffffffffffffffffffff1673ffffffffffffffffffffffffffffffffffffffff1681526020018373ffffffffffffffffffffffffffffffffffffffff1673ffffffffffffffffffffffffffffffffffffffff16815260200182815260200194505050505060206040518083038186803b15801561099357600080fd5b505af41580156109a7573d6000803e3d6000fd5b505050506040513d60208110156109bd57600080fd5b810190808051906020019092919050505090509392505050565b600073__v25TellorDispute______________________633e2d55249091836040518363ffffffff1660e01b8152600401808381526020018273ffffffffffffffffffffffffffffffffffffffff1673ffffffffffffffffffffffffffffffffffffffff1681526020019250505060006040518083038186803b158015610a5d57600080fd5b505af4158015610a71573d6000803e3d6000fd5b5050505050565b600073__v25TellorStake________________________63443ef57d90916040518263ffffffff1660e01b81526004018082815260200191505060006040518083038186803b158015610aca57600080fd5b505af4158015610ade573d6000803e3d6000fd5b50505050565b60006012905090565b6000610af761160b565b600080610b0460006111a3565b935093509350935090919293565b600073__v25TellorLibrary______________________6336c0d8589091868686866040518663ffffffff1660e01b8152600401808681526020018060200184600560200280828437600081840152601f19601f82011690508083019250505083600560200280828437600081840152601f19601f8201169050808301925050508281038252868682818152602001925080828437600081840152601f19601f820116905080830192505050965050505050505060006040518083038186803b158015610bde57600080fd5b505af4158015610bf2573d6000803e3d6000fd5b5050505050505050565b600073__v25TellorDispute______________________634018145f9091836040518363ffffffff1660e01b8152600401808381526020018281526020019250505060006040518083038186803b158015610c5657600080fd5b505af4158015610c6a573d6000803e3d6000fd5b5050505050565b600073__v25TellorLibrary______________________631d49d12d90916040518263ffffffff1660e01b81526004018082815260200191505060006040518083038186803b158015610cc357600080fd5b505af4158015610cd7573d6000803e3d6000fd5b50505050565b600073__v25TellorLibrary______________________633916bf889091836040518363ffffffff1660e01b8152600401808381526020018273ffffffffffffffffffffffffffffffffffffffff1673ffffffffffffffffffffffffffffffffffffffff1681526020019250505060006040518083038186803b158015610d6357600080fd5b505af4158015610d77573d6000803e3d6000fd5b5050505050565b600073__v25TellorLibrary______________________633718708d909184846040518463ffffffff1660e01b815260040180848152602001838152602001828152602001935050505060006040518083038186803b158015610de057600080fd5b505af4158015610df4573d6000803e3d6000fd5b505050505050565b600073__v25TellorDispute______________________632cf174c290918585856040518563ffffffff1660e01b81526004018085815260200184815260200183815260200182815260200194505050505060006040518083038186803b158015610e6657600080fd5b505af4158015610e7a573d6000803e3d6000fd5b50505050505050565b60606040518060400160405280600381526020017f5452420000000000000000000000000000000000000000000000000000000000815250905090565b600073__v25TellorDispute______________________63948cfa9c9091836040518363ffffffff1660e01b8152600401808381526020018281526020019250505060006040518083038186803b158015610f1a57600080fd5b505af4158015610f2e573d6000803e3d6000fd5b5050505050565b610f3d61160b565b610f4561160b565b610f4f60006112a4565b915091509091565b60008073__v25TellorTransfer_____________________638fbe41c1909185856040518463ffffffff1660e01b8152600401808481526020018373ffffffffffffffffffffffffffffffffffffffff1673ffffffffffffffffffffffffffffffffffffffff168152602001828152602001935050505060206040518083038186803b158015610fe657600080fd5b505af4158015610ffa573d6000803e3d6000fd5b505050506040513d602081101561101057600080fd5b8101908080519060200190929190505050905092915050565b600073__v25TellorStake________________________63f88c2d2190916040518263ffffffff1660e01b81526004018082815260200191505060006040518083038186803b15801561107b57600080fd5b505af415801561108f573d6000803e3d6000fd5b50505050565b600073__v25TellorDispute______________________63db2c7356909184846040518463ffffffff1660e01b81526004018084815260200183815260200182151515158152602001935050505060006040518083038186803b1580156110fb57600080fd5b505af415801561110f573d6000803e3d6000fd5b505050505050565b600073__v25TellorDispute______________________635115ed9d9091836040518363ffffffff1660e01b8152600401808381526020018281526020019250505060006040518083038186803b15801561117157600080fd5b505af4158015611185573d6000803e3d6000fd5b5050505050565b61119461160b565b61119e6000611365565b905090565b60006111ad61160b565b60008060008090505b60058110156111f8578560350181600581106111ce57fe5b60020201600001548482600581106111e257fe5b60200201818152505080806001019150506111b6565b5084600001548386604001600060405180807f646966666963756c747900000000000000000000000000000000000000000000815250600a019050604051809103902081526020019081526020016000205487604001600060405180807f63757272656e74546f74616c54697073000000000000000000000000000000008152506010019050604051809103902081526020019081526020016000205493509350935093509193509193565b6112ac61160b565b6112b461160b565b6112bd83611365565b915060008090505b600581101561135f578360480160008483600581106112e057fe5b60200201518152602001908152602001600020600401600060405180807f746f74616c5469700000000000000000000000000000000000000000000000008152506008019050604051809103902081526020019081526020016000205482826005811061134957fe5b60200201818152505080806001019150506112c5565b50915091565b61136d61160b565b61137561160b565b61137d61160b565b6113c5846001016033806020026040519081016040528092919082603380156113bb576020028201915b8154815260200190600101908083116113a7575b5050505050611479565b809250819350505060008090505b60058110156114715760008382600581106113ea57fe5b6020020151146114345784604301600083836005811061140657fe5b602002015181526020019081526020016000205484826005811061142657fe5b602002018181525050611464565b84603501816004036005811061144657fe5b600202016000015484826005811061145a57fe5b6020020181815250505b80806001019150506113d3565b505050919050565b61148161160b565b61148961160b565b60008360016033811061149857fe5b60200201519050600080905060008090505b6005811015611531578560018201603381106114c257fe5b60200201518582600581106114d357fe5b602002018181525050600181018482600581106114ec57fe5b6020020181815250508285826005811061150257fe5b602002015110156115245784816005811061151957fe5b602002015192508091505b80806001019150506114aa565b506000600690505b6033811015611603578286826033811061154f57fe5b602002015111156115f65785816033811061156657fe5b602002015185836005811061157757fe5b6020020181815250508084836005811061158d57fe5b6020020181815250508581603381106115a257fe5b6020020151925060008090505b60058110156115f457838682600581106115c557fe5b602002015110156115e7578581600581106115dc57fe5b602002015193508092505b80806001019150506115af565b505b8080600101915050611539565b505050915091565b6040518060a0016040528060059060208202803883398082019150509050509056fea265627a7a723158208ee1cf3245038a99d9aaa9cb1a0400095732842e86b1a3c1e8f4f0b1edc495f464736f6c63430005100032",
  "source": "pragma solidity ^0.5.16;\n\n\nimport \"./libraries/v25SafeMath.sol\";\nimport \"./libraries/v25TellorStorage.sol\";\nimport \"./libraries/v25TellorTransfer.sol\";\nimport \"./libraries/v25TellorDispute.sol\";\nimport \"./libraries/v25TellorStake.sol\";\nimport \"./libraries/v25TellorLibrary.sol\";\n\n/**\n * @title v25Tellor Oracle System\n * @dev Oracle contract where miners can submit the proof of work along with the value.\n * The logic for this contract is in v25TellorLibrary.sol, v25TellorDispute.sol, v25TellorStake.sol,\n * and v25TellorTransfer.sol\n */\ncontract v25Tellor {\n    using v25SafeMath for uint256;\n\n    using v25TellorDispute for v25TellorStorage.TellorStorageStruct;\n    using v25TellorLibrary for v25TellorStorage.TellorStorageStruct;\n    using v25TellorStake for v25TellorStorage.TellorStorageStruct;\n    using v25TellorTransfer for v25TellorStorage.TellorStorageStruct;\n\n    v25TellorStorage.TellorStorageStruct tellor;\n\n    /*Functions*/\n\n    /**\n    * @dev Helps initialize a dispute by assigning it a disputeId\n    * when a miner returns a false on the validate array(in v25Tellor.ProofOfWork) it sends the\n    * invalidated value information to POS voting\n    * @param _requestId being disputed\n    * @param _timestamp being disputed\n    * @param _minerIndex the index of the miner that submitted the value being disputed. Since each official value\n    * requires 5 miners to submit a value.\n    */\n    function beginDispute(uint256 _requestId, uint256 _timestamp, uint256 _minerIndex) external {\n        tellor.beginDispute(_requestId, _timestamp, _minerIndex);\n    }\n\n    /**\n    * @dev Allows token holders to vote\n    * @param _disputeId is the dispute id\n    * @param _supportsDispute is the vote (true=the dispute has basis false = vote against dispute)\n    */\n    function vote(uint256 _disputeId, bool _supportsDispute) external {\n        tellor.vote(_disputeId, _supportsDispute);\n    }\n\n    /**\n    * @dev tallies the votes.\n    * @param _disputeId is the dispute id\n    */\n    function tallyVotes(uint256 _disputeId) external {\n        tellor.tallyVotes(_disputeId);\n    }\n\n    /**\n    * @dev Allows for a fork to be proposed\n    * @param _propNewTellorAddress address for new proposed v25Tellor\n    */\n    function proposeFork(address _propNewTellorAddress) external {\n        tellor.proposeFork(_propNewTellorAddress);\n    }\n\n    /**\n    * @dev Add tip to Request value from oracle\n    * @param _requestId being requested to be mined\n    * @param _tip amount the requester is willing to pay to be get on queue. Miners\n    * mine the onDeckQueryHash, or the api with the highest payout pool\n    */\n    function addTip(uint256 _requestId, uint256 _tip) external {\n        tellor.addTip(_requestId, _tip);\n    }\n\n    /**\n    * @dev This is called by the miner when they submit the PoW solution (proof of work and value)\n    * @param _nonce uint submitted by miner\n    * @param _requestId is the array of the 5 PSR's being mined\n    * @param _value is an array of 5 values\n    */\n    function submitMiningSolution(string calldata _nonce,uint256[5] calldata _requestId, uint256[5] calldata _value) external {\n        tellor.submitMiningSolution(_nonce,_requestId, _value);\n    }\n\n\n    /**\n    * @dev Allows the current owner to propose transfer control of the contract to a\n    * newOwner and the ownership is pending until the new owner calls the claimOwnership\n    * function\n    * @param _pendingOwner The address to transfer ownership to.\n    */\n    function proposeOwnership(address payable _pendingOwner) external {\n        tellor.proposeOwnership(_pendingOwner);\n    }\n\n    /**\n    * @dev Allows the new owner to claim control of the contract\n    */\n    function claimOwnership() external {\n        tellor.claimOwnership();\n    }\n\n    /**\n    * @dev This function allows miners to deposit their stake.\n    */\n    function depositStake() external {\n        tellor.depositStake();\n    }\n\n    /**\n    * @dev This function allows stakers to request to withdraw their stake (no longer stake)\n    * once they lock for withdraw(stakes.currentStatus = 2) they are locked for 7 days before they\n    * can withdraw the stake\n    */\n    function requestStakingWithdraw() external {\n        tellor.requestStakingWithdraw();\n    }\n\n    /**\n    * @dev This function allows users to withdraw their stake after a 7 day waiting period from request\n    */\n    function withdrawStake() external {\n        tellor.withdrawStake();\n    }\n\n    /**\n    * @dev This function approves a _spender an _amount of tokens to use\n    * @param _spender address\n    * @param _amount amount the spender is being approved for\n    * @return true if spender appproved successfully\n    */\n    function approve(address _spender, uint256 _amount) external returns (bool) {\n        return tellor.approve(_spender, _amount);\n    }\n\n    /**\n    * @dev Allows for a transfer of tokens to _to\n    * @param _to The address to send tokens to\n    * @param _amount The amount of tokens to send\n    * @return true if transfer is successful\n    */\n    function transfer(address _to, uint256 _amount) external returns (bool) {\n        return tellor.transfer(_to, _amount);\n    }\n\n    /**\n    * @dev Sends _amount tokens to _to from _from on the condition it\n    * is approved by _from\n    * @param _from The address holding the tokens being transferred\n    * @param _to The address of the recipient\n    * @param _amount The amount of tokens to be transferred\n    * @return True if the transfer was successful\n    */\n    function transferFrom(address _from, address _to, uint256 _amount) external returns (bool) {\n        return tellor.transferFrom(_from, _to, _amount);\n    }\n\n    /**\n    * @dev Allows users to access the token's name\n    */\n    function name() external pure returns (string memory) {\n        return \"v25Tellor Tributes\";\n    }\n\n    /**\n    * @dev Allows users to access the token's symbol\n    */\n    function symbol() external pure returns (string memory) {\n        return \"TRB\";\n    }\n\n    /**\n    * @dev Allows users to access the number of decimals\n    */\n    function decimals() external pure returns (uint8) {\n        return 18;\n    }\n\n    /**\n    * @dev Getter for the current variables that include the 5 requests Id's\n    * @return the challenge, 5 requestsId, difficulty and tip\n    */\n    function getNewCurrentVariables() external view returns(bytes32 _challenge,uint[5] memory _requestIds,uint256 _difficutly, uint256 _tip){\n        return tellor.getNewCurrentVariables();\n    }\n\n    /**\n    * @dev Getter for the top tipped 5 requests Id's\n    * @return the 5 requestsId\n    */\n    function getTopRequestIDs() external view returns(uint256[5] memory _requestIds){\n        return tellor.getTopRequestIDs();\n    }\n\n    /**\n    * @dev Getter for the 5 requests Id's next in line to get mined\n    * @return the 5 requestsId\n    */\n    function getNewVariablesOnDeck() external view returns (uint256[5] memory idsOnDeck, uint256[5] memory tipsOnDeck) {\n        return tellor.getNewVariablesOnDeck();\n    }\n\n    /**\n    * @dev Updates the v25Tellor address after a proposed fork has \n    * passed the vote and day has gone by without a dispute\n    * @param _disputeId the disputeId for the proposed fork\n    */\n     function updateTellor(uint _disputeId) external{\n        return tellor.updateTellor(_disputeId);\n    }\n\n    /**\n    * @dev Allows disputer to unlock the dispute fee\n    * @param _disputeId to unlock fee from\n    */\n     function unlockDisputeFee (uint _disputeId) external{\n        return tellor.unlockDisputeFee(_disputeId);\n    }\n\n    /*******************TEST Functions NOT INCLUDED ON PRODUCTION/MAINNET/RINKEBY******/\n    // /*This is a cheat for demo purposes, will delete upon actual launch*/\n    // function theLazyCoon(address _address, uint _amount) external {\n    //     tellor.theLazyCoon(_address,_amount);\n    // }\n\n    // // function testSubmitMiningSolution(string calldata _nonce, uint256 _requestId, uint256 _value) external {\n    // //     tellor.testSubmitMiningSolution(_nonce, _requestId, _value);\n    // // }\n\n    // function testSubmitMiningSolution(string calldata _nonce,uint256[5] calldata _requestId, uint256[5] calldata _value) external {\n    //     tellor.testSubmitMiningSolution(_nonce,_requestId, _value);\n    // }\n    /***************END TEST Functions NOT INCLUDED ON PRODUCTION/MAINNET/RINKEBY******/\n }\n",
  "sourcePath": "/home/jgcarv/Dev/Tellor/TellorLegacy/contracts/V25/v25Tellor.sol",
  "compiler": {
    "name": "solc",
    "version": "0.5.16+commit.9c3226ce.Emscripten.clang"
  },
  "schemaVersion": "3.3.2",
  "updatedAt": "2020-12-11T14:39:53.222Z",
  "devdoc": {
    "details": "Oracle contract where miners can submit the proof of work along with the value. The logic for this contract is in v25TellorLibrary.sol, v25TellorDispute.sol, v25TellorStake.sol, and v25TellorTransfer.sol",
    "methods": {
      "addTip(uint256,uint256)": {
        "details": "Add tip to Request value from oracle",
        "params": {
          "_requestId": "being requested to be mined",
          "_tip": "amount the requester is willing to pay to be get on queue. Miners mine the onDeckQueryHash, or the api with the highest payout pool"
        }
      },
      "approve(address,uint256)": {
        "details": "This function approves a _spender an _amount of tokens to use",
        "params": {
          "_amount": "amount the spender is being approved for",
          "_spender": "address"
        },
        "return": "true if spender appproved successfully"
      },
      "beginDispute(uint256,uint256,uint256)": {
        "details": "Helps initialize a dispute by assigning it a disputeId when a miner returns a false on the validate array(in v25Tellor.ProofOfWork) it sends the invalidated value information to POS voting",
        "params": {
          "_minerIndex": "the index of the miner that submitted the value being disputed. Since each official value requires 5 miners to submit a value.",
          "_requestId": "being disputed",
          "_timestamp": "being disputed"
        }
      },
      "claimOwnership()": {
        "details": "Allows the new owner to claim control of the contract"
      },
      "decimals()": {
        "details": "Allows users to access the number of decimals"
      },
      "depositStake()": {
        "details": "This function allows miners to deposit their stake."
      },
      "getNewCurrentVariables()": {
        "details": "Getter for the current variables that include the 5 requests Id's",
        "return": "the challenge, 5 requestsId, difficulty and tip"
      },
      "getNewVariablesOnDeck()": {
        "details": "Getter for the 5 requests Id's next in line to get mined",
        "return": "the 5 requestsId"
      },
      "getTopRequestIDs()": {
        "details": "Getter for the top tipped 5 requests Id's",
        "return": "the 5 requestsId"
      },
      "name()": {
        "details": "Allows users to access the token's name"
      },
      "proposeFork(address)": {
        "details": "Allows for a fork to be proposed",
        "params": {
          "_propNewTellorAddress": "address for new proposed v25Tellor"
        }
      },
      "proposeOwnership(address)": {
        "details": "Allows the current owner to propose transfer control of the contract to a newOwner and the ownership is pending until the new owner calls the claimOwnership function",
        "params": {
          "_pendingOwner": "The address to transfer ownership to."
        }
      },
      "requestStakingWithdraw()": {
        "details": "This function allows stakers to request to withdraw their stake (no longer stake) once they lock for withdraw(stakes.currentStatus = 2) they are locked for 7 days before they can withdraw the stake"
      },
      "submitMiningSolution(string,uint256[5],uint256[5])": {
        "details": "This is called by the miner when they submit the PoW solution (proof of work and value)",
        "params": {
          "_nonce": "uint submitted by miner",
          "_requestId": "is the array of the 5 PSR's being mined",
          "_value": "is an array of 5 values"
        }
      },
      "symbol()": {
        "details": "Allows users to access the token's symbol"
      },
      "tallyVotes(uint256)": {
        "details": "tallies the votes.",
        "params": {
          "_disputeId": "is the dispute id"
        }
      },
      "transfer(address,uint256)": {
        "details": "Allows for a transfer of tokens to _to",
        "params": {
          "_amount": "The amount of tokens to send",
          "_to": "The address to send tokens to"
        },
        "return": "true if transfer is successful"
      },
      "transferFrom(address,address,uint256)": {
        "details": "Sends _amount tokens to _to from _from on the condition it is approved by _from",
        "params": {
          "_amount": "The amount of tokens to be transferred",
          "_from": "The address holding the tokens being transferred",
          "_to": "The address of the recipient"
        },
        "return": "True if the transfer was successful"
      },
      "unlockDisputeFee(uint256)": {
        "details": "Allows disputer to unlock the dispute fee",
        "params": {
          "_disputeId": "to unlock fee from"
        }
      },
      "updateTellor(uint256)": {
        "details": "Updates the v25Tellor address after a proposed fork has  passed the vote and day has gone by without a dispute",
        "params": {
          "_disputeId": "the disputeId for the proposed fork"
        }
      },
      "vote(uint256,bool)": {
        "details": "Allows token holders to vote",
        "params": {
          "_disputeId": "is the dispute id",
          "_supportsDispute": "is the vote (true=the dispute has basis false = vote against dispute)"
        }
      },
      "withdrawStake()": {
        "details": "This function allows users to withdraw their stake after a 7 day waiting period from request"
      }
    },
    "title": "v25Tellor Oracle System"
  },
  "userdoc": {
    "methods": {}
  }
}