{
  "contractName": "v25TellorLibrary",
  "abi": [
    {
      "anonymous": false,
      "inputs": [
        {
          "indexed": true,
          "internalType": "bytes32",
          "name": "_currentChallenge",
          "type": "bytes32"
        },
        {
          "indexed": false,
          "internalType": "uint256[5]",
          "name": "_currentRequestId",
          "type": "uint256[5]"
        },
        {
          "indexed": false,
          "internalType": "uint256",
          "name": "_difficulty",
          "type": "uint256"
        },
        {
          "indexed": false,
          "internalType": "uint256",
          "name": "_totalTips",
          "type": "uint256"
        }
      ],
      "name": "NewChallenge",
      "type": "event"
    },
    {
      "anonymous": false,
      "inputs": [
        {
          "indexed": false,
          "internalType": "uint256[5]",
          "name": "_requestId",
          "type": "uint256[5]"
        },
        {
          "indexed": false,
          "internalType": "uint256",
          "name": "_time",
          "type": "uint256"
        },
        {
          "indexed": false,
          "internalType": "uint256[5]",
          "name": "_value",
          "type": "uint256[5]"
        },
        {
          "indexed": false,
          "internalType": "uint256",
          "name": "_totalTips",
          "type": "uint256"
        },
        {
          "indexed": true,
          "internalType": "bytes32",
          "name": "_currentChallenge",
          "type": "bytes32"
        }
      ],
      "name": "NewValue",
      "type": "event"
    },
    {
      "anonymous": false,
      "inputs": [
        {
          "indexed": true,
          "internalType": "address",
          "name": "_miner",
          "type": "address"
        },
        {
          "indexed": false,
          "internalType": "string",
          "name": "_nonce",
          "type": "string"
        },
        {
          "indexed": false,
          "internalType": "uint256[5]",
          "name": "_requestId",
          "type": "uint256[5]"
        },
        {
          "indexed": false,
          "internalType": "uint256[5]",
          "name": "_value",
          "type": "uint256[5]"
        },
        {
          "indexed": true,
          "internalType": "bytes32",
          "name": "_currentChallenge",
          "type": "bytes32"
        }
      ],
      "name": "NonceSubmitted",
      "type": "event"
    },
    {
      "anonymous": false,
      "inputs": [
        {
          "indexed": true,
          "internalType": "address",
          "name": "_previousOwner",
          "type": "address"
        },
        {
          "indexed": true,
          "internalType": "address",
          "name": "_newOwner",
          "type": "address"
        }
      ],
      "name": "OwnershipProposed",
      "type": "event"
    },
    {
      "anonymous": false,
      "inputs": [
        {
          "indexed": true,
          "internalType": "address",
          "name": "_previousOwner",
          "type": "address"
        },
        {
          "indexed": true,
          "internalType": "address",
          "name": "_newOwner",
          "type": "address"
        }
      ],
      "name": "OwnershipTransferred",
      "type": "event"
    },
    {
      "anonymous": false,
      "inputs": [
        {
          "indexed": true,
          "internalType": "address",
          "name": "_sender",
          "type": "address"
        },
        {
          "indexed": true,
          "internalType": "uint256",
          "name": "_requestId",
          "type": "uint256"
        },
        {
          "indexed": false,
          "internalType": "uint256",
          "name": "_tip",
          "type": "uint256"
        },
        {
          "indexed": false,
          "internalType": "uint256",
          "name": "_totalTips",
          "type": "uint256"
        }
      ],
      "name": "TipAdded",
      "type": "event"
    },
    {
      "constant": true,
      "inputs": [],
      "name": "_owner",
      "outputs": [
        {
          "internalType": "bytes32",
          "name": "",
          "type": "bytes32"
        }
      ],
      "payable": false,
      "stateMutability": "view",
      "type": "function"
    },
    {
      "constant": true,
      "inputs": [],
      "name": "_tBlock",
      "outputs": [
        {
          "internalType": "bytes32",
          "name": "",
          "type": "bytes32"
        }
      ],
      "payable": false,
      "stateMutability": "view",
      "type": "function"
    },
    {
      "constant": true,
      "inputs": [],
      "name": "currentRequestId",
      "outputs": [
        {
          "internalType": "bytes32",
          "name": "",
          "type": "bytes32"
        }
      ],
      "payable": false,
      "stateMutability": "view",
      "type": "function"
    },
    {
      "constant": true,
      "inputs": [],
      "name": "currentReward",
      "outputs": [
        {
          "internalType": "bytes32",
          "name": "",
          "type": "bytes32"
        }
      ],
      "payable": false,
      "stateMutability": "view",
      "type": "function"
    },
    {
      "constant": true,
      "inputs": [],
      "name": "currentTotalTips",
      "outputs": [
        {
          "internalType": "bytes32",
          "name": "",
          "type": "bytes32"
        }
      ],
      "payable": false,
      "stateMutability": "view",
      "type": "function"
    },
    {
      "constant": true,
      "inputs": [],
      "name": "devShare",
      "outputs": [
        {
          "internalType": "bytes32",
          "name": "",
          "type": "bytes32"
        }
      ],
      "payable": false,
      "stateMutability": "view",
      "type": "function"
    },
    {
      "constant": true,
      "inputs": [],
      "name": "difficulty",
      "outputs": [
        {
          "internalType": "bytes32",
          "name": "",
          "type": "bytes32"
        }
      ],
      "payable": false,
      "stateMutability": "view",
      "type": "function"
    },
    {
      "constant": true,
      "inputs": [],
      "name": "pending_owner",
      "outputs": [
        {
          "internalType": "bytes32",
          "name": "",
          "type": "bytes32"
        }
      ],
      "payable": false,
      "stateMutability": "view",
      "type": "function"
    },
    {
      "constant": true,
      "inputs": [],
      "name": "requestCount",
      "outputs": [
        {
          "internalType": "bytes32",
          "name": "",
          "type": "bytes32"
        }
      ],
      "payable": false,
      "stateMutability": "view",
      "type": "function"
    },
    {
      "constant": true,
      "inputs": [],
      "name": "requestQPosition",
      "outputs": [
        {
          "internalType": "bytes32",
          "name": "",
          "type": "bytes32"
        }
      ],
      "payable": false,
      "stateMutability": "view",
      "type": "function"
    },
    {
      "constant": true,
      "inputs": [],
      "name": "runningTips",
      "outputs": [
        {
          "internalType": "bytes32",
          "name": "",
          "type": "bytes32"
        }
      ],
      "payable": false,
      "stateMutability": "view",
      "type": "function"
    },
    {
      "constant": true,
      "inputs": [],
      "name": "slotProgress",
      "outputs": [
        {
          "internalType": "bytes32",
          "name": "",
          "type": "bytes32"
        }
      ],
      "payable": false,
      "stateMutability": "view",
      "type": "function"
    },
    {
      "constant": true,
      "inputs": [],
      "name": "timeOfLastNewValue",
      "outputs": [
        {
          "internalType": "bytes32",
          "name": "",
          "type": "bytes32"
        }
      ],
      "payable": false,
      "stateMutability": "view",
      "type": "function"
    },
    {
      "constant": true,
      "inputs": [],
      "name": "timeTarget",
      "outputs": [
        {
          "internalType": "bytes32",
          "name": "",
          "type": "bytes32"
        }
      ],
      "payable": false,
      "stateMutability": "view",
      "type": "function"
    },
    {
      "constant": true,
      "inputs": [],
      "name": "totalTip",
      "outputs": [
        {
          "internalType": "bytes32",
          "name": "",
          "type": "bytes32"
        }
      ],
      "payable": false,
      "stateMutability": "view",
      "type": "function"
    },
    {
      "constant": true,
      "inputs": [],
      "name": "total_supply",
      "outputs": [
        {
          "internalType": "bytes32",
          "name": "",
          "type": "bytes32"
        }
      ],
      "payable": false,
      "stateMutability": "view",
      "type": "function"
    }
  ],
  "bytecode": "0x613c94610026600b82828239805160001a60731461001957fe5b30600052607381538281f3fe730000000000000000000000000000000000000000301460806040526004361061014c5760003560e01c80635badbe4c116100c257806375ad1a2a1161008657806375ad1a2a146104745780637f4ec4c314610492578063acbfc765146104b0578063aed04fae146105c3578063b0dc7c20146105e1578063b2bdfa7b146105ff5761014c565b80635badbe4c146103ad57806364e2e1db146103cb5780636e3cf8851461041a5780636fc37811146104385780636fd4f229146104565761014c565b806336c0d8581161011457806336c0d858146102045780633718708d146102a95780633916bf88146102f85780633940e9ee14610353578063561cb04a146103715780635ae2bfdb1461038f5761014c565b806303b3160f1461015157806307621eca1461016f57806319cae4621461018d5780631d49d12d146101ab5780632bf07e9e146101e6575b600080fd5b61015961061d565b6040518082815260200191505060405180910390f35b610177610644565b6040518082815260200191505060405180910390f35b61019561066b565b6040518082815260200191505060405180910390f35b8180156101b757600080fd5b506101e4600480360360208110156101ce57600080fd5b8101908080359060200190929190505050610692565b005b6101ee610967565b6040518082815260200191505060405180910390f35b81801561021057600080fd5b506102a7600480360361018081101561022857600080fd5b81019080803590602001909291908035906020019064010000000081111561024f57600080fd5b82018360208201111561026157600080fd5b8035906020019184600183028401116401000000008311171561028357600080fd5b90919293919293908060a0019091929192908060a00190919291929050505061098e565b005b8180156102b557600080fd5b506102f6600480360360608110156102cc57600080fd5b81019080803590602001909291908035906020019092919080359060200190929190505050610aa1565b005b81801561030457600080fd5b506103516004803603604081101561031b57600080fd5b8101908080359060200190929190803573ffffffffffffffffffffffffffffffffffffffff169060200190929190505050610e1a565b005b61035b611040565b6040518082815260200191505060405180910390f35b610379611067565b6040518082815260200191505060405180910390f35b61039761108e565b6040518082815260200191505060405180910390f35b6103b56110b5565b6040518082815260200191505060405180910390f35b8180156103d757600080fd5b50610418600480360360608110156103ee57600080fd5b810190808035906020019092919080359060200190929190803590602001909291905050506110dc565b005b6104226114ba565b6040518082815260200191505060405180910390f35b6104406114e1565b6040518082815260200191505060405180910390f35b61045e611508565b6040518082815260200191505060405180910390f35b61047c61152f565b6040518082815260200191505060405180910390f35b61049a611556565b6040518082815260200191505060405180910390f35b8180156104bc57600080fd5b506105c1600480360360e08110156104d357600080fd5b8101908080359060200190929190803590602001906401000000008111156104fa57600080fd5b82018360208201111561050c57600080fd5b8035906020019184600183028401116401000000008311171561052e57600080fd5b91908080601f016020809104026020016040519081016040528093929190818152602001838380828437600081840152601f19601f8201169050808301925050505050505091929192908060a001906005806020026040519081016040528092919082600560200280828437600081840152601f19601f820116905080830192505050505050919291929050505061157d565b005b6105cb6120f1565b6040518082815260200191505060405180910390f35b6105e9612118565b6040518082815260200191505060405180910390f35b61060761213f565b6040518082815260200191505060405180910390f35b7f6c505cb2db6644f57b42d87bd9407b0f66788b07d0617a2bc1356a0e69e66f9a60001b81565b7f9b6853911475b07474368644a0d922ee13bc76a15cd3e97d3e334326424a47d460001b81565b7fb12aff7664b16cb99339be399b863feecd64d14817be7e1f042f97e3f358e64e60001b81565b80603f0160007f44b2657a0f8a90ed8e62f4c4cceca06eacaa9b4b25751ae1ebca9280a70abd6860001b815260200190815260200160002060009054906101000a900473ffffffffffffffffffffffffffffffffffffffff1673ffffffffffffffffffffffffffffffffffffffff163373ffffffffffffffffffffffffffffffffffffffff161461078b576040517f08c379a000000000000000000000000000000000000000000000000000000000815260040180806020018281038252601b8152602001807f53656e646572206973206e6f742070656e64696e67206f776e6572000000000081525060200191505060405180910390fd5b80603f0160007f44b2657a0f8a90ed8e62f4c4cceca06eacaa9b4b25751ae1ebca9280a70abd6860001b815260200190815260200160002060009054906101000a900473ffffffffffffffffffffffffffffffffffffffff1673ffffffffffffffffffffffffffffffffffffffff1681603f0160007f9dbc393ddc18fd27b1d9b1b129059925688d2f2d5818a5ec3ebb750b7c286ea660001b815260200190815260200160002060009054906101000a900473ffffffffffffffffffffffffffffffffffffffff1673ffffffffffffffffffffffffffffffffffffffff167f8be0079c531659141344cd1fd0a4f28419497f9722a3daafe3b4186f6b6457e060405160405180910390a380603f0160007f44b2657a0f8a90ed8e62f4c4cceca06eacaa9b4b25751ae1ebca9280a70abd6860001b815260200190815260200160002060009054906101000a900473ffffffffffffffffffffffffffffffffffffffff1681603f0160007f9dbc393ddc18fd27b1d9b1b129059925688d2f2d5818a5ec3ebb750b7c286ea660001b815260200190815260200160002060006101000a81548173ffffffffffffffffffffffffffffffffffffffff021916908373ffffffffffffffffffffffffffffffffffffffff16021790555050565b7f1e344bd070f05f1c5b3f0b1266f4f20d837a0a8190a3a2da8b0375eac2ba86ea60001b81565b6109dc8585858080601f016020809104026020016040519081016040528093929190818152602001838380828437600081840152601f19601f82011690508083019250505050505050612166565b610a9a8585858080601f016020809104026020016040519081016040528093929190818152602001838380828437600081840152601f19601f82011690508083019250505050505050846005806020026040519081016040528092919082600560200280828437600081840152601f19601f820116905080830192505050505050846005806020026040519081016040528092919082600560200280828437600081840152601f19601f820116905080830192505050505050612488565b5050505050565b6000821415610b18576040517f08c379a000000000000000000000000000000000000000000000000000000000815260040180806020018281038252600e8152602001807f526571756573744964206973203000000000000000000000000000000000000081525060200191505060405180910390fd5b6000811415610b8f576040517f08c379a000000000000000000000000000000000000000000000000000000000815260040180806020018281038252601c8152602001807f5469702073686f756c642062652067726561746572207468616e20300000000081525060200191505060405180910390fd5b600060018460400160007f05de9147d05477c0a5dc675aeea733157f5092f82add148cf39d579cafe3dc9860001b81526020019081526020016000205401905080831415610c1957808460400160007f05de9147d05477c0a5dc675aeea733157f5092f82add148cf39d579cafe3dc9860001b815260200190815260200160002081905550610c8f565b808310610c8e576040517f08c379a00000000000000000000000000000000000000000000000000000000081526004018080602001828103825260208152602001807f526571756573744964206973206e6f74206c657373207468616e20636f756e7481525060200191505060405180910390fd5b5b73__v25TellorTransfer_____________________63c30643b1853330866040518563ffffffff1660e01b8152600401808581526020018473ffffffffffffffffffffffffffffffffffffffff1673ffffffffffffffffffffffffffffffffffffffff1681526020018373ffffffffffffffffffffffffffffffffffffffff1673ffffffffffffffffffffffffffffffffffffffff16815260200182815260200194505050505060006040518083038186803b158015610d4e57600080fd5b505af4158015610d62573d6000803e3d6000fd5b50505050610d718484846110dc565b823373ffffffffffffffffffffffffffffffffffffffff167fd32134405b68f6f7220f9c38ae310df1b648d16188006768d45be2f7c24e88208487604801600088815260200190815260200160002060040160007f2a9e355a92978430eca9c1aa3a9ba590094bac282594bccf82de16b83046e2c360001b815260200190815260200160002054604051808381526020018281526020019250505060405180910390a350505050565b81603f0160007f9dbc393ddc18fd27b1d9b1b129059925688d2f2d5818a5ec3ebb750b7c286ea660001b815260200190815260200160002060009054906101000a900473ffffffffffffffffffffffffffffffffffffffff1673ffffffffffffffffffffffffffffffffffffffff163373ffffffffffffffffffffffffffffffffffffffff1614610f13576040517f08c379a00000000000000000000000000000000000000000000000000000000081526004018080602001828103825260138152602001807f53656e646572206973206e6f74206f776e65720000000000000000000000000081525060200191505060405180910390fd5b8073ffffffffffffffffffffffffffffffffffffffff1682603f0160007f9dbc393ddc18fd27b1d9b1b129059925688d2f2d5818a5ec3ebb750b7c286ea660001b815260200190815260200160002060009054906101000a900473ffffffffffffffffffffffffffffffffffffffff1673ffffffffffffffffffffffffffffffffffffffff167fb51454ce8c7f26becd312a46c4815553887f2ec876a0b8dc813b87f62edf6f8060405160405180910390a38082603f0160007f44b2657a0f8a90ed8e62f4c4cceca06eacaa9b4b25751ae1ebca9280a70abd6860001b815260200190815260200160002060006101000a81548173ffffffffffffffffffffffffffffffffffffffff021916908373ffffffffffffffffffffffffffffffffffffffff1602179055505050565b7fb1557182e4359a1f0c6301278e8f5b35a776ab58d39892581e357578fb28783660001b81565b7f2a9e355a92978430eca9c1aa3a9ba590094bac282594bccf82de16b83046e2c360001b81565b7f7584d7d8701714da9c117f5bf30af73b0b88aca5338a84a21eb28de2fe0d93b860001b81565b7f05de9147d05477c0a5dc675aeea733157f5092f82add148cf39d579cafe3dc9860001b81565b60008360480160008481526020019081526020016000209050611140828260040160007f2a9e355a92978430eca9c1aa3a9ba590094bac282594bccf82de16b83046e2c360001b81526020019081526020016000205461301090919063ffffffff16565b8160040160007f2a9e355a92978430eca9c1aa3a9ba590094bac282594bccf82de16b83046e2c360001b815260200190815260200160002081905550828460350160006005811061118d57fe5b600202016000015414806111b7575082846035016001600581106111ad57fe5b6002020160000154145b806111d8575082846035016002600581106111ce57fe5b6002020160000154145b806111f9575082846035016003600581106111ef57fe5b6002020160000154145b8061121a5750828460350160046005811061121057fe5b6002020160000154145b1561126a57818460400160007fd26d9834adf5a73309c4974bf654850bb699df8505e70d4cfde365c417b19dfc60001b8152602001908152602001600020600082825401925050819055506114b4565b60008160040160007f1e344bd070f05f1c5b3f0b1266f4f20d837a0a8190a3a2da8b0375eac2ba86ea60001b815260200190815260200160002054141561145c576000806112f6866001016033806020026040519081016040528092919082603380156112ec576020028201915b8154815260200190600101908083116112d8575b505050505061302c565b8092508193505050818360040160007f2a9e355a92978430eca9c1aa3a9ba590094bac282594bccf82de16b83046e2c360001b81526020019081526020016000205411806113445750600082145b15611455578260040160007f2a9e355a92978430eca9c1aa3a9ba590094bac282594bccf82de16b83046e2c360001b81526020019081526020016000205486600101826033811061139157fe5b0181905550600086604801600088604301600085815260200190815260200160002054815260200190815260200160002060040160007f1e344bd070f05f1c5b3f0b1266f4f20d837a0a8190a3a2da8b0375eac2ba86ea60001b8152602001908152602001600020819055508486604301600083815260200190815260200160002081905550808360040160007f1e344bd070f05f1c5b3f0b1266f4f20d837a0a8190a3a2da8b0375eac2ba86ea60001b8152602001908152602001600020819055505b50506114b3565b81846001018260040160007f1e344bd070f05f1c5b3f0b1266f4f20d837a0a8190a3a2da8b0375eac2ba86ea60001b815260200190815260200160002054603381106114a457fe5b01600082825401925050819055505b5b50505050565b7f969ea04b74d02bb4d9e6e8e57236e1b9ca31627139ae9f0e465249932e82450260001b81565b7fad16221efc80aaf1b7e69bd3ecb61ba5ffa539adf129c3b4ffff769c9b5bbc3360001b81565b7f97e6eb29f6a85471f7cc9b57f9e4c3deaf398cfc9798673160d7798baf0b13a460001b81565b7fd26d9834adf5a73309c4974bf654850bb699df8505e70d4cfde365c417b19dfc60001b81565b7f44b2657a0f8a90ed8e62f4c4cceca06eacaa9b4b25751ae1ebca9280a70abd6860001b81565b60008360480160008560400160007f969ea04b74d02bb4d9e6e8e57236e1b9ca31627139ae9f0e465249932e82450260001b8152602001908152602001600020548152602001908152602001600020905060008460400160007f97e6eb29f6a85471f7cc9b57f9e4c3deaf398cfc9798673160d7798baf0b13a460001b81526020019081526020016000205442039050600061161b6104b08361309f565b905060008660400160007fb12aff7664b16cb99339be399b863feecd64d14817be7e1f042f97e3f358e64e60001b8152602001908152602001600020549050610fa0828860400160007fad16221efc80aaf1b7e69bd3ecb61ba5ffa539adf129c3b4ffff769c9b5bbc3360001b815260200190815260200160002054038202816116a157fe5b05915060008214156116b257600191505b6116bf82820160016130b8565b8760400160007fb12aff7664b16cb99339be399b863feecd64d14817be7e1f042f97e3f358e64e60001b8152602001908152602001600020819055506000876000015490506000603c428161171057fe5b0642039050808960400160007f97e6eb29f6a85471f7cc9b57f9e4c3deaf398cfc9798673160d7798baf0b13a460001b81526020019081526020016000208190555061175a613a83565b60008090505b6005811015611bae576000600190505b60058110156119be576000896009016000848152602001908152602001600020826005811061179b57fe5b0154905060008a600801600085815260200190815260200160002083600581106117c157fe5b0160009054906101000a900473ffffffffffffffffffffffffffffffffffffffff16905060008390505b60008111801561181e57508b6009016000868152602001908152602001600020600182036005811061181957fe5b015483105b1561191f578b6009016000868152602001908152602001600020600182036005811061184657fe5b01548c6009016000878152602001908152602001600020826005811061186857fe5b01819055508b6008016000868152602001908152602001600020600182036005811061189057fe5b0160009054906101000a900473ffffffffffffffffffffffffffffffffffffffff168c600801600087815260200190815260200160002082600581106118d257fe5b0160006101000a81548173ffffffffffffffffffffffffffffffffffffffff021916908373ffffffffffffffffffffffffffffffffffffffff1602179055508080600190039150506117eb565b838110156119ae57828c6009016000878152602001908152602001600020826005811061194857fe5b0181905550818c6008016000878152602001908152602001600020826005811061196e57fe5b0160006101000a81548173ffffffffffffffffffffffffffffffffffffffff021916908373ffffffffffffffffffffffffffffffffffffffff1602179055505b5050508080600101915050611770565b5060008b60480160008b84600581106119d357fe5b602002015181526020019081526020016000209050886009016000838152602001908152602001600020600580602002604051908101604052809291908260058015611a34576020028201915b815481526020019060010190808311611a20575b5050505050925082600260058110611a4857fe5b602002015181600601600086815260200190815260200160002081905550886008016000838152602001908152602001600020816008016000868152602001908152602001600020906005611a9e929190613aa5565b50886009016000838152602001908152602001600020816009016000868152602001908152602001600020906005611ad7929190613ae2565b508860080160008381526020019081526020016000206000611af99190613b1f565b8860090160008381526020019081526020016000206000611b1a9190613b42565b80600301849080600181540180825580915050906001820390600052602060002001600090919290919091505550438160050160008681526020019081526020016000208190555060008160040160007f2a9e355a92978430eca9c1aa3a9ba590094bac282594bccf82de16b83046e2c360001b815260200190815260200160002081905550508080600101915050611760565b50827fbeb3b9f46c8d7bb00c873fca10d307538df350866d25f891ffb395147ddbdc458984848e60400160007fdb21f0c4accc4f2f5f1045353763a9ffe7091ceaf0fcceb5831858d96cf8463160001b8152602001908152602001600020546040518085600560200280838360005b83811015611c38578082015181840152602081019050611c1d565b5050505090500184815260200183600560200280838360005b83811015611c6c578082015181840152602081019050611c51565b5050505090500182815260200194505050505060405180910390a287600060058110611c9457fe5b60200201518a60420160008481526020019081526020016000208190555089603401829080600181540180825580915050906001820390600052602060002001600090919290919091505550611ce8613b65565b8a60480160008a600060058110611cfb57fe5b602002015181526020019081526020016000206008016000848152602001908152602001600020600580602002604051908101604052809291908260058015611d8f576020028201915b8160009054906101000a900473ffffffffffffffffffffffffffffffffffffffff1673ffffffffffffffffffffffffffffffffffffffff1681526020019060010190808311611d45575b50505050509050611da18b88836130d1565b8a60400160007f969ea04b74d02bb4d9e6e8e57236e1b9ca31627139ae9f0e465249932e82450260001b815260200190815260200160002060008154809291906001019190505550611df1613a83565b611dfa8c6137dd565b905060008090505b6005811015611f5757818160058110611e1757fe5b60200201518d6035018260058110611e2b57fe5b600202016000018190555060008d6001018e6048016000858560058110611e4e57fe5b6020020151815260200190815260200160002060040160007f1e344bd070f05f1c5b3f0b1266f4f20d837a0a8190a3a2da8b0375eac2ba86ea60001b81526020019081526020016000205460338110611ea357fe5b01819055508c6048016000838360058110611eba57fe5b6020020151815260200190815260200160002060040160007f2a9e355a92978430eca9c1aa3a9ba590094bac282594bccf82de16b83046e2c360001b8152602001908152602001600020548d60400160007fd26d9834adf5a73309c4974bf654850bb699df8505e70d4cfde365c417b19dfc60001b8152602001908152602001600020600082825401925050819055508080600101915050611e02565b508a8560014303406040516020018080602001848152602001838152602001828103825285818151815260200191508051906020019080838360005b83811015611fae578082015181840152602081019050611f93565b50505050905090810190601f168015611fdb5780820380516001836020036101000a031916815260200191505b50945050505050604051602081830303815290604052805190602001209450848c60000181905550847f1d85ce10456e29b67de37887496d3f1fcf1b64c79c4d07484038703a9f5c1408828e60400160007fb12aff7664b16cb99339be399b863feecd64d14817be7e1f042f97e3f358e64e60001b8152602001908152602001600020548f60400160007fd26d9834adf5a73309c4974bf654850bb699df8505e70d4cfde365c417b19dfc60001b8152602001908152602001600020546040518084600560200280838360005b838110156120c35780820151818401526020810190506120a8565b50505050905001838152602001828152602001935050505060405180910390a2505050505050505050505050565b7f8fe9ded8d7c08f720cf0340699024f83522ea66b2bbfb8f557851cb9ee63b54c60001b81565b7fdb21f0c4accc4f2f5f1045353763a9ffe7091ceaf0fcceb5831858d96cf8463160001b81565b7f9dbc393ddc18fd27b1d9b1b129059925688d2f2d5818a5ec3ebb750b7c286ea660001b81565b60008260400160007fb12aff7664b16cb99339be399b863feecd64d14817be7e1f042f97e3f358e64e60001b8152602001908152602001600020546002600385600001543386604051602001808481526020018373ffffffffffffffffffffffffffffffffffffffff1673ffffffffffffffffffffffffffffffffffffffff1660601b815260140182805190602001908083835b6020831061221d57805182526020820191506020810190506020830392506121fa565b6001836020036101000a038019825116818451168082178552505050505050905001935050505060405160208183030381529060405280519060200120604051602001808281526020019150506040516020818303038152906040526040518082805190602001908083835b602083106122ac5780518252602082019150602081019050602083039250612289565b6001836020036101000a038019825116818451168082178552505050505050905001915050602060405180830381855afa1580156122ee573d6000803e3d6000fd5b5050506040515160601b60405160200180826bffffffffffffffffffffffff19166bffffffffffffffffffffffff191681526014019150506040516020818303038152906040526040518082805190602001908083835b602083106123685780518252602082019150602081019050602083039250612345565b6001836020036101000a038019825116818451168082178552505050505050905001915050602060405180830381855afa1580156123aa573d6000803e3d6000fd5b5050506040513d60208110156123bf57600080fd5b810190808051906020019092919050505060001c816123da57fe5b06148061242f57506103848260400160007f97e6eb29f6a85471f7cc9b57f9e4c3deaf398cfc9798673160d7798baf0b13a460001b815260200190815260200160002054603c428161242857fe5b0642030310155b612484576040517f08c379a0000000000000000000000000000000000000000000000000000000008152600401808060200182810382526025815260200180613c3b6025913960400191505060405180910390fd5b5050565b600033604051602001808273ffffffffffffffffffffffffffffffffffffffff1673ffffffffffffffffffffffffffffffffffffffff16815260200191505060405160208183030381529060405280519060200120905060018560470160003373ffffffffffffffffffffffffffffffffffffffff1673ffffffffffffffffffffffffffffffffffffffff1681526020019081526020016000206000015414612599576040517f08c379a000000000000000000000000000000000000000000000000000000000815260040180806020018281038252601a8152602001807f4d696e657220737461747573206973206e6f74207374616b657200000000000081525060200191505060405180910390fd5b6103848560400160008381526020019081526020016000205442031161260a576040517f08c379a000000000000000000000000000000000000000000000000000000000815260040180806020018281038252602a815260200180613bf0602a913960400191505060405180910390fd5b8460350160006005811061261a57fe5b60020201600001548360006005811061262f57fe5b6020020151146126a7576040517f08c379a00000000000000000000000000000000000000000000000000000000081526004018080602001828103825260138152602001807f526571756573742049442069732077726f6e670000000000000000000000000081525060200191505060405180910390fd5b846035016001600581106126b757fe5b6002020160000154836001600581106126cc57fe5b602002015114612744576040517f08c379a00000000000000000000000000000000000000000000000000000000081526004018080602001828103825260138152602001807f526571756573742049442069732077726f6e670000000000000000000000000081525060200191505060405180910390fd5b8460350160026005811061275457fe5b60020201600001548360026005811061276957fe5b6020020151146127e1576040517f08c379a00000000000000000000000000000000000000000000000000000000081526004018080602001828103825260138152602001807f526571756573742049442069732077726f6e670000000000000000000000000081525060200191505060405180910390fd5b846035016003600581106127f157fe5b60020201600001548360036005811061280657fe5b60200201511461287e576040517f08c379a00000000000000000000000000000000000000000000000000000000081526004018080602001828103825260138152602001807f526571756573742049442069732077726f6e670000000000000000000000000081525060200191505060405180910390fd5b8460350160046005811061288e57fe5b6002020160000154836004600581106128a357fe5b60200201511461291b576040517f08c379a00000000000000000000000000000000000000000000000000000000081526004018080602001828103825260138152602001807f526571756573742049442069732077726f6e670000000000000000000000000081525060200191505060405180910390fd5b428560400160008381526020019081526020016000208190555060008560000154905060008660400160007f6c505cb2db6644f57b42d87bd9407b0f66788b07d0617a2bc1356a0e69e66f9a60001b81526020019081526020016000205490506000151587604101600084815260200190815260200160002060003373ffffffffffffffffffffffffffffffffffffffff1673ffffffffffffffffffffffffffffffffffffffff16815260200190815260200160002060009054906101000a900460ff16151514612a37576040517f08c379a0000000000000000000000000000000000000000000000000000000008152600401808060200182810382526021815260200180613c1a6021913960400191505060405180910390fd5b600187604101600084815260200190815260200160002060003373ffffffffffffffffffffffffffffffffffffffff1673ffffffffffffffffffffffffffffffffffffffff16815260200190815260200160002060006101000a81548160ff02191690831515021790555060008760480160008960400160007f969ea04b74d02bb4d9e6e8e57236e1b9ca31627139ae9f0e465249932e82450260001b8152602001908152602001600020548152602001908152602001600020905033816008016000600181526020019081526020016000208360058110612b1557fe5b0160006101000a81548173ffffffffffffffffffffffffffffffffffffffff021916908373ffffffffffffffffffffffffffffffffffffffff16021790555084600060058110612b6157fe5b60200201518160090160008081526020019081526020016000208360058110612b8657fe5b018190555084600160058110612b9857fe5b6020020151816009016000600181526020019081526020016000208360058110612bbe57fe5b018190555084600260058110612bd057fe5b6020020151816009016000600281526020019081526020016000208360058110612bf657fe5b018190555084600360058110612c0857fe5b6020020151816009016000600381526020019081526020016000208360058110612c2e57fe5b018190555084600460058110612c4057fe5b6020020151816009016000600481526020019081526020016000208360058110612c6657fe5b0181905550338160080160008081526020019081526020016000208360058110612c8c57fe5b0160006101000a81548173ffffffffffffffffffffffffffffffffffffffff021916908373ffffffffffffffffffffffffffffffffffffffff16021790555033816008016000600181526020019081526020016000208360058110612ced57fe5b0160006101000a81548173ffffffffffffffffffffffffffffffffffffffff021916908373ffffffffffffffffffffffffffffffffffffffff16021790555033816008016000600281526020019081526020016000208360058110612d4e57fe5b0160006101000a81548173ffffffffffffffffffffffffffffffffffffffff021916908373ffffffffffffffffffffffffffffffffffffffff16021790555033816008016000600381526020019081526020016000208360058110612daf57fe5b0160006101000a81548173ffffffffffffffffffffffffffffffffffffffff021916908373ffffffffffffffffffffffffffffffffffffffff16021790555033816008016000600481526020019081526020016000208360058110612e1057fe5b0160006101000a81548173ffffffffffffffffffffffffffffffffffffffff021916908373ffffffffffffffffffffffffffffffffffffffff1602179055506005600183011415612ea957612e6688888861157d565b60008860400160007f6c505cb2db6644f57b42d87bd9407b0f66788b07d0617a2bc1356a0e69e66f9a60001b815260200190815260200160002081905550612ef2565b8760400160007f6c505cb2db6644f57b42d87bd9407b0f66788b07d0617a2bc1356a0e69e66f9a60001b8152602001908152602001600020600081548092919060010191905055505b823373ffffffffffffffffffffffffffffffffffffffff167f0e4e65dc389613b6884b7f8c615e54fd3b894fbbbc534c990037744eea942000898989604051808060200184600560200280838360005b83811015612f5d578082015181840152602081019050612f42565b5050505090500183600560200280838360005b83811015612f8b578082015181840152602081019050612f70565b50505050905001828103825285818151815260200191508051906020019080838360005b83811015612fca578082015181840152602081019050612faf565b50505050905090810190601f168015612ff75780820380516001836020036101000a031916815260200191505b5094505050505060405180910390a35050505050505050565b60008082840190508381101561302257fe5b8091505092915050565b6000806001603303905082816033811061304257fe5b602002015191506000600260330390505b6000811115613099578284826033811061306957fe5b6020020151101561308b5783816033811061308057fe5b602002015192508091505b808060019003915050613053565b50915091565b60008183106130ae57816130b0565b825b905092915050565b60008183136130c757816130c9565b825b905092915050565b6000670de0b6b3a76400009050600061012c828502816130ed57fe5b0490506000600a8660400160007fd26d9834adf5a73309c4974bf654850bb699df8505e70d4cfde365c417b19dfc60001b8152602001908152602001600020548161313457fe5b04905060006002838161314357fe5b04905073__v25TellorTransfer_____________________63c30643b188308860006005811061316f57fe5b60200201518688016040518563ffffffff1660e01b8152600401808581526020018473ffffffffffffffffffffffffffffffffffffffff1673ffffffffffffffffffffffffffffffffffffffff1681526020018373ffffffffffffffffffffffffffffffffffffffff1673ffffffffffffffffffffffffffffffffffffffff16815260200182815260200194505050505060006040518083038186803b15801561321857600080fd5b505af415801561322c573d6000803e3d6000fd5b5050505073__v25TellorTransfer_____________________63c30643b188308860016005811061325957fe5b60200201518688016040518563ffffffff1660e01b8152600401808581526020018473ffffffffffffffffffffffffffffffffffffffff1673ffffffffffffffffffffffffffffffffffffffff1681526020018373ffffffffffffffffffffffffffffffffffffffff1673ffffffffffffffffffffffffffffffffffffffff16815260200182815260200194505050505060006040518083038186803b15801561330257600080fd5b505af4158015613316573d6000803e3d6000fd5b5050505073__v25TellorTransfer_____________________63c30643b188308860026005811061334357fe5b60200201518688016040518563ffffffff1660e01b8152600401808581526020018473ffffffffffffffffffffffffffffffffffffffff1673ffffffffffffffffffffffffffffffffffffffff1681526020018373ffffffffffffffffffffffffffffffffffffffff1673ffffffffffffffffffffffffffffffffffffffff16815260200182815260200194505050505060006040518083038186803b1580156133ec57600080fd5b505af4158015613400573d6000803e3d6000fd5b5050505073__v25TellorTransfer_____________________63c30643b188308860036005811061342d57fe5b60200201518688016040518563ffffffff1660e01b8152600401808581526020018473ffffffffffffffffffffffffffffffffffffffff1673ffffffffffffffffffffffffffffffffffffffff1681526020018373ffffffffffffffffffffffffffffffffffffffff1673ffffffffffffffffffffffffffffffffffffffff16815260200182815260200194505050505060006040518083038186803b1580156134d657600080fd5b505af41580156134ea573d6000803e3d6000fd5b5050505073__v25TellorTransfer_____________________63c30643b188308860046005811061351757fe5b60200201518688016040518563ffffffff1660e01b8152600401808581526020018473ffffffffffffffffffffffffffffffffffffffff1673ffffffffffffffffffffffffffffffffffffffff1681526020018373ffffffffffffffffffffffffffffffffffffffff1673ffffffffffffffffffffffffffffffffffffffff16815260200182815260200194505050505060006040518083038186803b1580156135c057600080fd5b505af41580156135d4573d6000803e3d6000fd5b5050505060028760400160007fd26d9834adf5a73309c4974bf654850bb699df8505e70d4cfde365c417b19dfc60001b8152602001908152602001600020548161361a57fe5b04600584028201038760400160007fb1557182e4359a1f0c6301278e8f5b35a776ab58d39892581e357578fb28783660001b81526020019081526020016000206000828254019250508190555073__v25TellorTransfer_____________________63c30643b188308a603f0160007f9dbc393ddc18fd27b1d9b1b129059925688d2f2d5818a5ec3ebb750b7c286ea660001b815260200190815260200160002060009054906101000a900473ffffffffffffffffffffffffffffffffffffffff16856040518563ffffffff1660e01b8152600401808581526020018473ffffffffffffffffffffffffffffffffffffffff1673ffffffffffffffffffffffffffffffffffffffff1681526020018373ffffffffffffffffffffffffffffffffffffffff1673ffffffffffffffffffffffffffffffffffffffff16815260200182815260200194505050505060006040518083038186803b15801561377e57600080fd5b505af4158015613792573d6000803e3d6000fd5b5050505060008760400160007fd26d9834adf5a73309c4974bf654850bb699df8505e70d4cfde365c417b19dfc60001b81526020019081526020016000208190555050505050505050565b6137e5613a83565b6137ed613a83565b6137f5613a83565b61383d84600101603380602002604051908101604052809291908260338015613833576020028201915b81548152602001906001019080831161381f575b50505050506138f1565b809250819350505060008090505b60058110156138e957600083826005811061386257fe5b6020020151146138ac5784604301600083836005811061387e57fe5b602002015181526020019081526020016000205484826005811061389e57fe5b6020020181815250506138dc565b8460350181600403600581106138be57fe5b60020201600001548482600581106138d257fe5b6020020181815250505b808060010191505061384b565b505050919050565b6138f9613a83565b613901613a83565b60008360016033811061391057fe5b60200201519050600080905060008090505b60058110156139a95785600182016033811061393a57fe5b602002015185826005811061394b57fe5b6020020181815250506001810184826005811061396457fe5b6020020181815250508285826005811061397a57fe5b6020020151101561399c5784816005811061399157fe5b602002015192508091505b8080600101915050613922565b506000600690505b6033811015613a7b57828682603381106139c757fe5b60200201511115613a6e578581603381106139de57fe5b60200201518583600581106139ef57fe5b60200201818152505080848360058110613a0557fe5b602002018181525050858160338110613a1a57fe5b6020020151925060008090505b6005811015613a6c5783868260058110613a3d57fe5b60200201511015613a5f57858160058110613a5457fe5b602002015193508092505b8080600101915050613a27565b505b80806001019150506139b1565b505050915091565b6040518060a00160405280600590602082028038833980820191505090505090565b8260058101928215613ad1579182015b82811115613ad0578254825591600101919060010190613ab5565b5b509050613ade9190613b87565b5090565b8260058101928215613b0e579182015b82811115613b0d578254825591600101919060010190613af2565b5b509050613b1b9190613bca565b5090565b506000815560010160008155600101600081556001016000815560010160009055565b506000815560010160008155600101600081556001016000815560010160009055565b6040518060a00160405280600590602082028038833980820191505090505090565b613bc791905b80821115613bc357600081816101000a81549073ffffffffffffffffffffffffffffffffffffffff021916905550600101613b8d565b5090565b90565b613bec91905b80821115613be8576000816000905550600101613bd0565b5090565b9056fe4d696e65722063616e206f6e6c792077696e2072657761726473206f6e636520706572203135206d696e4d696e657220616c7265616479207375626d6974746564207468652076616c7565496e636f7272656374206e6f6e636520666f722063757272656e74206368616c6c656e6765a265627a7a72315820e6666d4047724ab0b41422f8bf7e67a81b1572bc4a81b147fcb8fdd5f3863a1164736f6c63430005100032",
  "source": "pragma solidity ^0.5.16;\n\n\nimport \"./v25SafeMath.sol\";\nimport \"./v25Utilities.sol\";\nimport \"./v25TellorStorage.sol\";\nimport \"./v25TellorTransfer.sol\";\nimport \"./v25TellorDispute.sol\";\nimport \"./v25TellorStake.sol\";\nimport \"./v25TellorGettersLibrary.sol\";\n\n/**\n * @title v25Tellor Oracle System Library\n * @dev Contains the functions' logic for the v25Tellor contract where miners can submit the proof of work\n * along with the value and smart contracts can requestData and tip miners.\n */\nlibrary v25TellorLibrary {\n    using v25SafeMath for uint256;\n\n    bytes32 public constant requestCount = 0x05de9147d05477c0a5dc675aeea733157f5092f82add148cf39d579cafe3dc98; //keccak256(\"requestCount\")\n    bytes32 public constant totalTip = 0x2a9e355a92978430eca9c1aa3a9ba590094bac282594bccf82de16b83046e2c3; //keccak256(\"totalTip\")\n    bytes32 public constant _tBlock = 0x969ea04b74d02bb4d9e6e8e57236e1b9ca31627139ae9f0e465249932e824502; //keccak256(\"_tBlock\")\n    bytes32 public constant timeOfLastNewValue = 0x97e6eb29f6a85471f7cc9b57f9e4c3deaf398cfc9798673160d7798baf0b13a4; //keccak256(\"timeOfLastNewValue\")\n    bytes32 public constant difficulty = 0xb12aff7664b16cb99339be399b863feecd64d14817be7e1f042f97e3f358e64e; //keccak256(\"difficulty\")\n    bytes32 public constant timeTarget = 0xad16221efc80aaf1b7e69bd3ecb61ba5ffa539adf129c3b4ffff769c9b5bbc33; //keccak256(\"timeTarget\")\n    bytes32 public constant runningTips = 0xdb21f0c4accc4f2f5f1045353763a9ffe7091ceaf0fcceb5831858d96cf84631; //keccak256(\"runningTips\")\n    bytes32 public constant currentReward = 0x9b6853911475b07474368644a0d922ee13bc76a15cd3e97d3e334326424a47d4; //keccak256(\"currentReward\")\n    bytes32 public constant total_supply = 0xb1557182e4359a1f0c6301278e8f5b35a776ab58d39892581e357578fb287836; //keccak256(\"total_supply\")\n    bytes32 public constant devShare = 0x8fe9ded8d7c08f720cf0340699024f83522ea66b2bbfb8f557851cb9ee63b54c; //keccak256(\"devShare\")\n    bytes32 public constant _owner =  0x9dbc393ddc18fd27b1d9b1b129059925688d2f2d5818a5ec3ebb750b7c286ea6; //keccak256(\"_owner\")\n    bytes32 public constant requestQPosition = 0x1e344bd070f05f1c5b3f0b1266f4f20d837a0a8190a3a2da8b0375eac2ba86ea; //keccak256(\"requestQPosition\")\n    bytes32 public constant currentTotalTips = 0xd26d9834adf5a73309c4974bf654850bb699df8505e70d4cfde365c417b19dfc; //keccak256(\"currentTotalTips\")\n    bytes32 public constant slotProgress =0x6c505cb2db6644f57b42d87bd9407b0f66788b07d0617a2bc1356a0e69e66f9a; //keccak256(\"slotProgress\")\n    bytes32 public constant pending_owner = 0x44b2657a0f8a90ed8e62f4c4cceca06eacaa9b4b25751ae1ebca9280a70abd68; //keccak256(\"pending_owner\")\n    bytes32 public constant currentRequestId = 0x7584d7d8701714da9c117f5bf30af73b0b88aca5338a84a21eb28de2fe0d93b8; //keccak256(\"currentRequestId\")\n\n\n    event TipAdded(address indexed _sender, uint256 indexed _requestId, uint256 _tip, uint256 _totalTips);\n    //emits when a new challenge is created (either on mined block or when a new request is pushed forward on waiting system)\n    event NewChallenge(\n        bytes32 indexed _currentChallenge,\n        uint256[5] _currentRequestId,\n        uint256 _difficulty,\n        uint256 _totalTips\n    );\n    //Emits upon a successful Mine, indicates the blocktime at point of the mine and the value mined\n    event NewValue(uint256[5] _requestId, uint256 _time, uint256[5] _value, uint256 _totalTips, bytes32 indexed _currentChallenge);\n    //Emits upon each mine (5 total) and shows the miner, nonce, and value submitted\n    event NonceSubmitted(address indexed _miner, string _nonce, uint256[5] _requestId, uint256[5] _value, bytes32 indexed _currentChallenge);\n    event OwnershipTransferred(address indexed _previousOwner, address indexed _newOwner);\n    event OwnershipProposed(address indexed _previousOwner, address indexed _newOwner);\n\n    /*Functions*/\n    /**\n    * @dev Add tip to Request value from oracle\n    * @param _requestId being requested to be mined\n    * @param _tip amount the requester is willing to pay to be get on queue. Miners\n    * mine the onDeckQueryHash, or the api with the highest payout pool\n    */\n    function addTip(v25TellorStorage.TellorStorageStruct storage self, uint256 _requestId, uint256 _tip) public {\n        require(_requestId != 0, \"RequestId is 0\");\n        require(_tip != 0, \"Tip should be greater than 0\");\n        uint256 _count =self.uintVars[requestCount] + 1;\n        if(_requestId == _count){\n            self.uintVars[requestCount] = _count;\n        }\n        else{\n            require(_requestId < _count, \"RequestId is not less than count\");\n        }\n        v25TellorTransfer.doTransfer(self, msg.sender, address(this), _tip);\n        //Update the information for the request that should be mined next based on the tip submitted\n        updateOnDeck(self, _requestId, _tip);\n        emit TipAdded(msg.sender, _requestId, _tip, self.requestDetails[_requestId].apiUintVars[totalTip]);\n    }\n\n   /**\n    * @dev This function is called by submitMiningSolution and adjusts the difficulty, sorts and stores the first\n    * 5 values received, pays the miners, the dev share and assigns a new challenge\n    * @param _nonce or solution for the PoW  for the requestId\n    * @param _requestId for the current request being mined\n    */\n    function newBlock(v25TellorStorage.TellorStorageStruct storage self, string memory _nonce, uint256[5] memory _requestId) public {\n        v25TellorStorage.Request storage _tblock = self.requestDetails[self.uintVars[_tBlock]];\n        // If the difference between the timeTarget and how long it takes to solve the challenge this updates the challenge\n        //difficulty up or donw by the difference between the target time and how long it took to solve the previous challenge\n        //otherwise it sets it to 1\n        uint timeDiff = now - self.uintVars[timeOfLastNewValue];\n        int256 _change = int256(v25SafeMath.min(1200, timeDiff));\n        int256 _diff = int256(self.uintVars[difficulty]);\n        _change = (_diff * (int256(self.uintVars[timeTarget]) - _change)) / 4000;\n        if (_change == 0) {\n                _change = 1;\n            }\n        self.uintVars[difficulty]  = uint256(v25SafeMath.max(_diff + _change,1));\n\n\n        //Sets time of value submission rounded to 1 minute\n        bytes32 _currChallenge = self.currentChallenge;\n        uint256 _timeOfLastNewValue = now - (now % 1 minutes);\n        self.uintVars[timeOfLastNewValue] = _timeOfLastNewValue;\n        uint[5] memory a; \n        for (uint k = 0; k < 5; k++) {\n            for (uint i = 1; i < 5; i++) {\n                uint256 temp = _tblock.valuesByTimestamp[k][i];\n                address temp2 = _tblock.minersByValue[k][i];\n                uint256 j = i;\n                while (j > 0 && temp < _tblock.valuesByTimestamp[k][j - 1]) {\n                    _tblock.valuesByTimestamp[k][j] = _tblock.valuesByTimestamp[k][j - 1];\n                    _tblock.minersByValue[k][j] = _tblock.minersByValue[k][j - 1];\n                    j--;\n                }\n                if (j < i) {\n                    _tblock.valuesByTimestamp[k][j] = temp;\n                    _tblock.minersByValue[k][j] = temp2;\n                }\n            }\n            v25TellorStorage.Request storage _request = self.requestDetails[_requestId[k]];\n            //Save the official(finalValue), timestamp of it, 5 miners and their submitted values for it, and its block number\n            a = _tblock.valuesByTimestamp[k];\n            _request.finalValues[_timeOfLastNewValue] = a[2];\n            _request.minersByValue[_timeOfLastNewValue] = _tblock.minersByValue[k];\n            _request.valuesByTimestamp[_timeOfLastNewValue] = _tblock.valuesByTimestamp[k];\n            delete _tblock.minersByValue[k];\n            delete _tblock.valuesByTimestamp[k];\n            _request.requestTimestamps.push(_timeOfLastNewValue);\n            _request.minedBlockNum[_timeOfLastNewValue] = block.number;\n            _request.apiUintVars[totalTip] = 0;\n        }\n            emit NewValue(\n                _requestId,\n                _timeOfLastNewValue,\n                a,\n                self.uintVars[runningTips],\n                _currChallenge\n            );\n        //map the timeOfLastValue to the requestId that was just mined\n        self.requestIdByTimestamp[_timeOfLastNewValue] = _requestId[0];\n        //add timeOfLastValue to the newValueTimestamps array\n        self.newValueTimestamps.push(_timeOfLastNewValue);\n\n        address[5] memory miners = self.requestDetails[_requestId[0]].minersByValue[_timeOfLastNewValue];\n        //payMinersRewards\n        _payReward(self, timeDiff, miners);\n        \n        self.uintVars[_tBlock] ++;\n        uint256[5] memory _topId = v25TellorStake.getTopRequestIDs(self);\n        for(uint i = 0; i< 5;i++){\n            self.currentMiners[i].value = _topId[i];\n            self.requestQ[self.requestDetails[_topId[i]].apiUintVars[requestQPosition]] = 0;\n            self.uintVars[currentTotalTips] += self.requestDetails[_topId[i]].apiUintVars[totalTip];\n        }\n        //Issue the the next challenge\n       \n        _currChallenge = keccak256(abi.encode(_nonce, _currChallenge, blockhash(block.number - 1)));\n        self.currentChallenge = _currChallenge; // Save hash for next proof\n        emit NewChallenge(\n            _currChallenge,\n            _topId,\n            self.uintVars[difficulty],\n            self.uintVars[currentTotalTips]\n        );\n    }\n\n    /**\n    * @dev Proof of work is called by the miner when they submit the solution (proof of work and value)\n    * @param _nonce uint submitted by miner\n    * @param _requestId is the array of the 5 PSR's being mined\n    * @param _value is an array of 5 values\n    */\n    function submitMiningSolution(v25TellorStorage.TellorStorageStruct storage self, string calldata _nonce,uint256[5] calldata _requestId, uint256[5] calldata _value)\n        external\n    {\n        _verifyNonce(self, _nonce);\n        _submitMiningSolution(self, _nonce, _requestId, _value);\n    }\n\n\n    function _submitMiningSolution(v25TellorStorage.TellorStorageStruct storage self, string memory _nonce,uint256[5] memory _requestId, uint256[5] memory _value)\n        internal\n    {\n                //Verifying Miner Eligibility\n        bytes32 _hashMsgSender = keccak256(abi.encode(msg.sender));\n        require(self.stakerDetails[msg.sender].currentStatus == 1, \"Miner status is not staker\");\n        require(now - self.uintVars[_hashMsgSender] > 15 minutes, \"Miner can only win rewards once per 15 min\");\n        require(_requestId[0] ==  self.currentMiners[0].value,\"Request ID is wrong\");\n        require(_requestId[1] ==  self.currentMiners[1].value,\"Request ID is wrong\");\n        require(_requestId[2] ==  self.currentMiners[2].value,\"Request ID is wrong\");\n        require(_requestId[3] ==  self.currentMiners[3].value,\"Request ID is wrong\");\n        require(_requestId[4] ==  self.currentMiners[4].value,\"Request ID is wrong\");\n        self.uintVars[_hashMsgSender] = now;\n\n        \n        bytes32 _currChallenge = self.currentChallenge;\n        uint256 _slotProgress = self.uintVars[slotProgress]; \n        //Saving the challenge information as unique by using the msg.sender\n\n        //Checking and updating Miner Status\n        require(self.minersByChallenge[_currChallenge][msg.sender] == false, \"Miner already submitted the value\");\n        //Update the miner status to true once they submit a value so they don't submit more than once\n        self.minersByChallenge[_currChallenge][msg.sender] = true;\n\n        //Updating Request\n        v25TellorStorage.Request storage _tblock = self.requestDetails[self.uintVars[_tBlock]];\n        _tblock.minersByValue[1][_slotProgress]= msg.sender; \n        //Assigng directly is cheaper than using a for loop\n        _tblock.valuesByTimestamp[0][_slotProgress] = _value[0];\n        _tblock.valuesByTimestamp[1][_slotProgress] = _value[1];\n        _tblock.valuesByTimestamp[2][_slotProgress] = _value[2];\n        _tblock.valuesByTimestamp[3][_slotProgress] = _value[3];\n        _tblock.valuesByTimestamp[4][_slotProgress] = _value[4];\n        _tblock.minersByValue[0][_slotProgress]= msg.sender;\n        _tblock.minersByValue[1][_slotProgress]= msg.sender;\n        _tblock.minersByValue[2][_slotProgress]= msg.sender;\n        _tblock.minersByValue[3][_slotProgress]= msg.sender;\n        _tblock.minersByValue[4][_slotProgress]= msg.sender;\n\n        //If 5 values have been received, adjust the difficulty otherwise sort the values until 5 are received         \n        if (_slotProgress + 1 == 5) { //slotProgress has been incremented, but we're using the variable on stack to save gas\n            newBlock(self, _nonce, _requestId);\n            self.uintVars[slotProgress] = 0;\n        }\n        else{\n            self.uintVars[slotProgress]++;\n        }\n        emit NonceSubmitted(msg.sender, _nonce, _requestId, _value, _currChallenge);\n    }\n\n    function _verifyNonce(v25TellorStorage.TellorStorageStruct storage self,string memory _nonce ) view internal {\n                require(uint256(\n                sha256(abi.encodePacked(ripemd160(abi.encodePacked(keccak256(abi.encodePacked(self.currentChallenge, msg.sender, _nonce))))))\n            ) %\n                self.uintVars[difficulty] == 0\n                || (now - (now % 1 minutes)) - self.uintVars[timeOfLastNewValue] >= 15 minutes,\n            \"Incorrect nonce for current challenge\"\n        );\n    }\n\n     /**\n    * @dev Internal function to calculate and pay rewards to miners\n    * \n    */\n    function _payReward(v25TellorStorage.TellorStorageStruct storage self, uint _timeDiff, address[5] memory miners) internal {\n        //_timeDiff is how many minutes passed since last block\n        uint _currReward = 1e18;\n        uint reward = _timeDiff* _currReward / 300; //each miner get's \n        uint _tip = self.uintVars[currentTotalTips] / 10;\n        uint _devShare = reward / 2;\n\n        v25TellorTransfer.doTransfer(self, address(this), miners[0], reward + _tip);\n        v25TellorTransfer.doTransfer(self, address(this), miners[1], reward + _tip);\n        v25TellorTransfer.doTransfer(self, address(this), miners[2], reward + _tip);\n        v25TellorTransfer.doTransfer(self, address(this), miners[3], reward + _tip);\n        v25TellorTransfer.doTransfer(self, address(this), miners[4], reward + _tip);\n \n        //update the total supply\n        self.uintVars[total_supply] +=  _devShare + reward * 5 - (self.uintVars[currentTotalTips] / 2);\n        v25TellorTransfer.doTransfer(self, address(this), self.addressVars[_owner],  _devShare);\n        self.uintVars[currentTotalTips] = 0;\n    }\n\n\n    /**\n    * @dev Allows the current owner to propose transfer control of the contract to a\n    * newOwner and the ownership is pending until the new owner calls the claimOwnership\n    * function\n    * @param _pendingOwner The address to transfer ownership to.\n    */\n    function proposeOwnership(v25TellorStorage.TellorStorageStruct storage self, address payable _pendingOwner) public {\n        require(msg.sender == self.addressVars[_owner], \"Sender is not owner\");\n        emit OwnershipProposed(self.addressVars[_owner], _pendingOwner);\n        self.addressVars[pending_owner] = _pendingOwner;\n    }\n\n    /**\n    * @dev Allows the new owner to claim control of the contract\n    */\n    function claimOwnership(v25TellorStorage.TellorStorageStruct storage self) public {\n        require(msg.sender == self.addressVars[pending_owner], \"Sender is not pending owner\");\n        emit OwnershipTransferred(self.addressVars[_owner], self.addressVars[pending_owner]);\n        self.addressVars[_owner] = self.addressVars[pending_owner];\n    }\n\n    /**\n    * @dev This function updates APIonQ and the requestQ when requestData or addTip are ran\n    * @param _requestId being requested\n    * @param _tip is the tip to add\n    */\n    function updateOnDeck(v25TellorStorage.TellorStorageStruct storage self, uint256 _requestId, uint256 _tip) public {\n        v25TellorStorage.Request storage _request = self.requestDetails[_requestId];\n        _request.apiUintVars[totalTip] = _request.apiUintVars[totalTip].add(_tip);\n        if(self.currentMiners[0].value == _requestId || self.currentMiners[1].value== _requestId ||self.currentMiners[2].value == _requestId||self.currentMiners[3].value== _requestId || self.currentMiners[4].value== _requestId ){\n            self.uintVars[currentTotalTips] += _tip;\n        }\n        else {\n            //if the request is not part of the requestQ[51] array\n            //then add to the requestQ[51] only if the _payout/tip is greater than the minimum(tip) in the requestQ[51] array\n            if (_request.apiUintVars[requestQPosition] == 0) {\n                uint256 _min;\n                uint256 _index;\n                (_min, _index) = v25Utilities.getMin(self.requestQ);\n                //we have to zero out the oldOne\n                //if the _payout is greater than the current minimum payout in the requestQ[51] or if the minimum is zero\n                //then add it to the requestQ array aand map its index information to the requestId and the apiUintvars\n                if (_request.apiUintVars[totalTip] > _min || _min == 0) {\n                    self.requestQ[_index] = _request.apiUintVars[totalTip];\n                    self.requestDetails[self.requestIdByRequestQIndex[_index]].apiUintVars[requestQPosition] = 0;\n                    self.requestIdByRequestQIndex[_index] = _requestId;\n                    _request.apiUintVars[requestQPosition] = _index;\n                }\n                // else if the requestid is part of the requestQ[51] then update the tip for it\n            } else{\n                self.requestQ[_request.apiUintVars[requestQPosition]] += _tip;\n            }\n        }\n    }\n\n}\n",
  "sourcePath": "/home/jgcarv/Dev/Tellor/TellorLegacy/contracts/V25/libraries/v25TellorLibrary.sol",
  "compiler": {
    "name": "solc",
    "version": "0.5.16+commit.9c3226ce.Emscripten.clang"
  },
  "schemaVersion": "3.3.2",
  "updatedAt": "2020-12-11T14:39:53.192Z",
  "devdoc": {
    "details": "Contains the functions' logic for the v25Tellor contract where miners can submit the proof of work along with the value and smart contracts can requestData and tip miners.",
    "methods": {
      "addTip(v25TellorStorage.TellorStorageStruct storage,uint256,uint256)": {
        "details": "Add tip to Request value from oracle",
        "params": {
          "_requestId": "being requested to be mined",
          "_tip": "amount the requester is willing to pay to be get on queue. Miners mine the onDeckQueryHash, or the api with the highest payout pool"
        }
      },
      "claimOwnership(v25TellorStorage.TellorStorageStruct storage)": {
        "details": "Allows the new owner to claim control of the contract"
      },
      "newBlock(v25TellorStorage.TellorStorageStruct storage,string,uint256[5])": {
        "details": "This function is called by submitMiningSolution and adjusts the difficulty, sorts and stores the first 5 values received, pays the miners, the dev share and assigns a new challenge",
        "params": {
          "_nonce": "or solution for the PoW  for the requestId",
          "_requestId": "for the current request being mined"
        }
      },
      "proposeOwnership(v25TellorStorage.TellorStorageStruct storage,address)": {
        "details": "Allows the current owner to propose transfer control of the contract to a newOwner and the ownership is pending until the new owner calls the claimOwnership function",
        "params": {
          "_pendingOwner": "The address to transfer ownership to."
        }
      },
      "submitMiningSolution(v25TellorStorage.TellorStorageStruct storage,string,uint256[5],uint256[5])": {
        "details": "Proof of work is called by the miner when they submit the solution (proof of work and value)",
        "params": {
          "_nonce": "uint submitted by miner",
          "_requestId": "is the array of the 5 PSR's being mined",
          "_value": "is an array of 5 values"
        }
      },
      "updateOnDeck(v25TellorStorage.TellorStorageStruct storage,uint256,uint256)": {
        "details": "This function updates APIonQ and the requestQ when requestData or addTip are ran",
        "params": {
          "_requestId": "being requested",
          "_tip": "is the tip to add"
        }
      }
    },
    "title": "v25Tellor Oracle System Library"
  },
  "userdoc": {
    "methods": {}
  }
}