{
  "contractName": "v25TellorTransition",
  "abi": [
    {
      "payable": true,
      "stateMutability": "payable",
      "type": "fallback"
    },
    {
      "constant": true,
      "inputs": [],
      "name": "currentTellor",
      "outputs": [
        {
          "internalType": "address",
          "name": "",
          "type": "address"
        }
      ],
      "payable": false,
      "stateMutability": "view",
      "type": "function"
    },
    {
      "constant": true,
      "inputs": [],
      "name": "newTellor",
      "outputs": [
        {
          "internalType": "address",
          "name": "",
          "type": "address"
        }
      ],
      "payable": false,
      "stateMutability": "view",
      "type": "function"
    }
  ],
  "bytecode": "0x608060405234801561001057600080fd5b50610404806100206000396000f3fe6080604052600436106100295760003560e01c806371fa6b84146100e1578063ac01ef4b14610138575b6000736511d2957aa09350494f892ce2881851f0bb26d3905061004a61018f565b1561006f576100576101f5565b73032aa32e4069318b15e6462ce20926d4d821de9090505b60606000368080601f016020809104026020016040519081016040528093929190818152602001838380828437600081840152601f19601f82011690508083019250505050505050905060008082516020840185600019f43d604051816000823e82600081146100dd578282f35b8282fd5b3480156100ed57600080fd5b506100f661039f565b604051808273ffffffffffffffffffffffffffffffffffffffff1673ffffffffffffffffffffffffffffffffffffffff16815260200191505060405180910390f35b34801561014457600080fd5b5061014d6103b7565b604051808273ffffffffffffffffffffffffffffffffffffffff1673ffffffffffffffffffffffffffffffffffffffff16815260200191505060405180910390f35b6000806000604001600060405180807f736c6f7450726f67726573730000000000000000000000000000000000000000815250600c019050604051809103902081526020019081526020016000205414156101ed57600190506101f2565b600090505b90565b670de0b6b3a76400006000604001600060405180807f63757272656e7452657761726400000000000000000000000000000000000000815250600d0190506040518091039020815260200190815260200160002081905550681b1ae4d6e2ef5000006000604001600060405180807f7374616b65416d6f756e74000000000000000000000000000000000000000000815250600b0190506040518091039020815260200190815260200160002081905550681b1ae4d6e2ef5000006000604001600060405180807f6469737075746546656500000000000000000000000000000000000000000000815250600a019050604051809103902081526020019081526020016000208190555073032aa32e4069318b15e6462ce20926d4d821de906000603f01600060405180807f74656c6c6f72436f6e7472616374000000000000000000000000000000000000815250600e0190506040518091039020815260200190815260200160002060006101000a81548173ffffffffffffffffffffffffffffffffffffffff021916908373ffffffffffffffffffffffffffffffffffffffff160217905550565b736511d2957aa09350494f892ce2881851f0bb26d381565b73032aa32e4069318b15e6462ce20926d4d821de908156fea265627a7a723158207e8a9a81425e4dea0469846810555453ee2a64045f18e8fa1f714932665f5b9a64736f6c63430005100032",
  "source": "pragma solidity ^0.5.16;\n\nimport \"./libraries/v25TellorStorage.sol\";\n\n/**\n* @title v25Tellor Master\n* @dev This is a transaction contract designed to perform a temporary configuration on a v25Tellor Update.\n*/\ncontract v25TellorTransition {\n\n    v25TellorStorage.TellorStorageStruct tellor;\n\n    address public constant newTellor = 0x032Aa32e4069318b15e6462CE20926d4d821De90;\n    address public constant currentTellor = 0x6511D2957aa09350494f892Ce2881851f0bb26D3;\n\n    /**\n    * @dev Function to be executed before the first transaction to new version is called. After performing\n    * the necessary steps, it just sets the \"tellorContract\" to the actual new version. \n    */\n    function _transition() internal {\n        //Perfomr all necessary steps for the transition\n        tellor.uintVars[keccak256(\"currentReward\")] = 1e18;\n        tellor.uintVars[keccak256(\"stakeAmount\")] = 500e18;\n        tellor.uintVars[keccak256(\"disputeFee\")] = 500e18;\n\n        //After, change the \"tellorAddress\" to the new version\n        tellor.addressVars[keccak256(\"tellorContract\")] = newTellor;\n    } \n\n    /**\n    * @dev Function to be verify if the system is in the correct state for executing a transition.\n    *  Ex: we're not in the middle of a block;\n    */\n    function _isReady() internal view returns(bool){\n        if(tellor.uintVars[keccak256(\"slotProgress\")] == 0){\n            return true;\n        }\n        return false;\n    }\n\n    function() external payable{\n        \n        address addr = currentTellor;\n        //If contract is ready, perform the transition and set the definitive address as TellorContract;\n        if(_isReady()){\n            _transition();\n            addr = newTellor;\n        } \n        bytes memory _calldata = msg.data;\n        assembly {\n            let result := delegatecall(not(0), addr, add(_calldata, 0x20), mload(_calldata), 0, 0)\n            let size := returndatasize\n            let ptr := mload(0x40)\n            returndatacopy(ptr, 0, size)\n            // revert instead of invalid() bc if the underlying call failed with invalid() it already wasted gas.\n            // if the call returned error data, forward it\n            switch result\n                case 0 {\n                    revert(ptr, size)\n                }\n                default {\n                    return(ptr, size)\n                }\n        }\n    }\n}",
  "sourcePath": "/home/jgcarv/Dev/Tellor/TellorLegacy/contracts/V25/v25TransitionContract.sol",
  "compiler": {
    "name": "solc",
    "version": "0.5.16+commit.9c3226ce.Emscripten.clang"
  },
  "schemaVersion": "3.3.2",
  "updatedAt": "2020-12-11T14:39:53.231Z",
  "devdoc": {
    "details": "This is a transaction contract designed to perform a temporary configuration on a v25Tellor Update.",
    "methods": {},
    "title": "v25Tellor Master"
  },
  "userdoc": {
    "methods": {}
  }
}