{
  "contractName": "v25TellorTransfer",
  "abi": [
    {
      "anonymous": false,
      "inputs": [
        {
          "indexed": true,
          "internalType": "address",
          "name": "_owner",
          "type": "address"
        },
        {
          "indexed": true,
          "internalType": "address",
          "name": "_spender",
          "type": "address"
        },
        {
          "indexed": false,
          "internalType": "uint256",
          "name": "_value",
          "type": "uint256"
        }
      ],
      "name": "Approval",
      "type": "event"
    },
    {
      "anonymous": false,
      "inputs": [
        {
          "indexed": true,
          "internalType": "address",
          "name": "_from",
          "type": "address"
        },
        {
          "indexed": true,
          "internalType": "address",
          "name": "_to",
          "type": "address"
        },
        {
          "indexed": false,
          "internalType": "uint256",
          "name": "_value",
          "type": "uint256"
        }
      ],
      "name": "Transfer",
      "type": "event"
    },
    {
      "constant": true,
      "inputs": [],
      "name": "stakeAmount",
      "outputs": [
        {
          "internalType": "bytes32",
          "name": "",
          "type": "bytes32"
        }
      ],
      "payable": false,
      "stateMutability": "view",
      "type": "function"
    }
  ],
  "bytecode": "0x611310610026600b82828239805160001a60731461001957fe5b30600052607381538281f3fe73000000000000000000000000000000000000000030146080604052600436106100a85760003560e01c8063c30643b111610070578063c30643b1146102e4578063e22676ce14610369578063e7f2cdae146103d5578063f14c402e14610437578063ff6dae7e1461047c576100a8565b80634001c0fc146100ad57806352fec45d1461012f57806360c7dc47146101cc5780638fbe41c1146101ea578063b5e46a6214610267575b600080fd5b610119600480360360608110156100c357600080fd5b8101908080359060200190929190803573ffffffffffffffffffffffffffffffffffffffff169060200190929190803573ffffffffffffffffffffffffffffffffffffffff1690602001909291905050506104ec565b6040518082815260200191505060405180910390f35b81801561013b57600080fd5b506101b26004803603608081101561015257600080fd5b8101908080359060200190929190803573ffffffffffffffffffffffffffffffffffffffff169060200190929190803573ffffffffffffffffffffffffffffffffffffffff16906020019092919080359060200190929190505050610576565b604051808215151515815260200191505060405180910390f35b6101d4610710565b6040518082815260200191505060405180910390f35b8180156101f657600080fd5b5061024d6004803603606081101561020d57600080fd5b8101908080359060200190929190803573ffffffffffffffffffffffffffffffffffffffff16906020019092919080359060200190929190505050610737565b604051808215151515815260200191505060405180910390f35b81801561027357600080fd5b506102ca6004803603606081101561028a57600080fd5b8101908080359060200190929190803573ffffffffffffffffffffffffffffffffffffffff16906020019092919080359060200190929190505050610750565b604051808215151515815260200191505060405180910390f35b8180156102f057600080fd5b506103676004803603608081101561030757600080fd5b8101908080359060200190929190803573ffffffffffffffffffffffffffffffffffffffff169060200190929190803573ffffffffffffffffffffffffffffffffffffffff169060200190929190803590602001909291905050506109e6565b005b6103bf6004803603606081101561037f57600080fd5b8101908080359060200190929190803573ffffffffffffffffffffffffffffffffffffffff16906020019092919080359060200190929190505050610cd9565b6040518082815260200191505060405180910390f35b610421600480360360408110156103eb57600080fd5b8101908080359060200190929190803573ffffffffffffffffffffffffffffffffffffffff169060200190929190505050610fbd565b6040518082815260200191505060405180910390f35b81801561044357600080fd5b5061047a6004803603604081101561045a57600080fd5b810190808035906020019092919080359060200190929190505050610fd2565b005b6104d26004803603606081101561049257600080fd5b8101908080359060200190929190803573ffffffffffffffffffffffffffffffffffffffff16906020019092919080359060200190929190505050611181565b604051808215151515815260200191505060405180910390f35b60008360460160008473ffffffffffffffffffffffffffffffffffffffff1673ffffffffffffffffffffffffffffffffffffffff16815260200190815260200160002060008373ffffffffffffffffffffffffffffffffffffffff1673ffffffffffffffffffffffffffffffffffffffff1681526020019081526020016000205490509392505050565b6000818560460160008673ffffffffffffffffffffffffffffffffffffffff1673ffffffffffffffffffffffffffffffffffffffff16815260200190815260200160002060003373ffffffffffffffffffffffffffffffffffffffff1673ffffffffffffffffffffffffffffffffffffffff16815260200190815260200160002054101561066c576040517f08c379a00000000000000000000000000000000000000000000000000000000081526004018080602001828103825260128152602001807f416c6c6f77616e63652069732077726f6e67000000000000000000000000000081525060200191505060405180910390fd5b818560460160008673ffffffffffffffffffffffffffffffffffffffff1673ffffffffffffffffffffffffffffffffffffffff16815260200190815260200160002060003373ffffffffffffffffffffffffffffffffffffffff1673ffffffffffffffffffffffffffffffffffffffff16815260200190815260200160002060008282540392505081905550610704858585856109e6565b60019050949350505050565b7f7be108969d31a3f0b261465c71f2b0ba9301cd914d55d9091c3b36a49d4d41b260001b81565b6000610745843385856109e6565b600190509392505050565b60008073ffffffffffffffffffffffffffffffffffffffff168373ffffffffffffffffffffffffffffffffffffffff1614156107f4576040517f08c379a00000000000000000000000000000000000000000000000000000000081526004018080602001828103825260148152602001807f5370656e64657220697320302d6164647265737300000000000000000000000081525060200191505060405180910390fd5b60008460460160003373ffffffffffffffffffffffffffffffffffffffff1673ffffffffffffffffffffffffffffffffffffffff16815260200190815260200160002060008573ffffffffffffffffffffffffffffffffffffffff1673ffffffffffffffffffffffffffffffffffffffff1681526020019081526020016000205414806108815750600082145b6108f3576040517f08c379a000000000000000000000000000000000000000000000000000000000815260040180806020018281038252601b8152602001807f5370656e64657220697320616c726561647920617070726f766564000000000081525060200191505060405180910390fd5b818460460160003373ffffffffffffffffffffffffffffffffffffffff1673ffffffffffffffffffffffffffffffffffffffff16815260200190815260200160002060008573ffffffffffffffffffffffffffffffffffffffff1673ffffffffffffffffffffffffffffffffffffffff168152602001908152602001600020819055508273ffffffffffffffffffffffffffffffffffffffff163373ffffffffffffffffffffffffffffffffffffffff167f8c5be1e5ebec7d5bd14f71427d1e84f3dd0314c0f7b2291e5b200ac8c7c3b925846040518082815260200191505060405180910390a3600190509392505050565b6000811415610a40576040517f08c379a00000000000000000000000000000000000000000000000000000000081526004018080602001828103825260218152602001806112bb6021913960400191505060405180910390fd5b600073ffffffffffffffffffffffffffffffffffffffff168273ffffffffffffffffffffffffffffffffffffffff161415610ae3576040517f08c379a00000000000000000000000000000000000000000000000000000000081526004018080602001828103825260158152602001807f526563656976657220697320302061646472657373000000000000000000000081525060200191505060405180910390fd5b610aee848483611181565b610b43576040517f08c379a00000000000000000000000000000000000000000000000000000000081526004018080602001828103825260278152602001806112946027913960400191505060405180910390fd5b6000610b4f8585610fbd565b9050610b9d8560450160008673ffffffffffffffffffffffffffffffffffffffff1673ffffffffffffffffffffffffffffffffffffffff168152602001908152602001600020838303610fd2565b610ba78584610fbd565b9050808282011015610c21576040517f08c379a00000000000000000000000000000000000000000000000000000000081526004018080602001828103825260118152602001807f4f766572666c6f772068617070656e656400000000000000000000000000000081525060200191505060405180910390fd5b610c6d8560450160008573ffffffffffffffffffffffffffffffffffffffff1673ffffffffffffffffffffffffffffffffffffffff168152602001908152602001600020838301610fd2565b8273ffffffffffffffffffffffffffffffffffffffff168473ffffffffffffffffffffffffffffffffffffffff167fddf252ad1be2c89b69c2b068fc378daa952ba7f163c4a11628f55a4df523b3ef846040518082815260200191505060405180910390a35050505050565b6000808460450160008573ffffffffffffffffffffffffffffffffffffffff1673ffffffffffffffffffffffffffffffffffffffff1681526020019081526020016000209050600081805490501480610d7957508281600081548110610d3b57fe5b9060005260206000200160000160009054906101000a90046fffffffffffffffffffffffffffffffff166fffffffffffffffffffffffffffffffff16115b15610d88576000915050610fb6565b80600182805490500381548110610d9b57fe5b9060005260206000200160000160009054906101000a90046fffffffffffffffffffffffffffffffff166fffffffffffffffffffffffffffffffff168310610e345780600182805490500381548110610df057fe5b9060005260206000200160000160109054906101000a90046fffffffffffffffffffffffffffffffff166fffffffffffffffffffffffffffffffff16915050610fb6565b60008090506000600283805490500390505b81811115610f68576000600260018484010181610e5f57fe5b04905085848281548110610e6f57fe5b9060005260206000200160000160009054906101000a90046fffffffffffffffffffffffffffffffff166fffffffffffffffffffffffffffffffff161415610f0457838181548110610ebd57fe5b9060005260206000200160000160109054906101000a90046fffffffffffffffffffffffffffffffff166fffffffffffffffffffffffffffffffff16945050505050610fb6565b85848281548110610f1157fe5b9060005260206000200160000160009054906101000a90046fffffffffffffffffffffffffffffffff166fffffffffffffffffffffffffffffffff161015610f5b57809250610f62565b6001810391505b50610e46565b828281548110610f7457fe5b9060005260206000200160000160109054906101000a90046fffffffffffffffffffffffffffffffff166fffffffffffffffffffffffffffffffff1693505050505b9392505050565b6000610fca838343610cd9565b905092915050565b60008280549050148061103357504382600184805490500381548110610ff457fe5b9060005260206000200160000160009054906101000a90046fffffffffffffffffffffffffffffffff166fffffffffffffffffffffffffffffffff1614155b1561111f57816040518060400160405280436fffffffffffffffffffffffffffffffff168152602001836fffffffffffffffffffffffffffffffff1681525090806001815401808255809150509060018203906000526020600020016000909192909190915060008201518160000160006101000a8154816fffffffffffffffffffffffffffffffff02191690836fffffffffffffffffffffffffffffffff16021790555060208201518160000160106101000a8154816fffffffffffffffffffffffffffffffff02191690836fffffffffffffffffffffffffffffffff16021790555050505061117d565b60008260018480549050038154811061113457fe5b906000526020600020019050818160000160106101000a8154816fffffffffffffffffffffffffffffffff02191690836fffffffffffffffffffffffffffffffff160217905550505b5050565b6000808460470160008573ffffffffffffffffffffffffffffffffffffffff1673ffffffffffffffffffffffffffffffffffffffff168152602001908152602001600020600001541415801561121b575060058460470160008573ffffffffffffffffffffffffffffffffffffffff1673ffffffffffffffffffffffffffffffffffffffff16815260200190815260200160002060000154105b1561127c57818460400160007f7be108969d31a3f0b261465c71f2b0ba9301cd914d55d9091c3b36a49d4d41b260001b8152602001908152602001600020546112648686610fbd565b0310611273576001905061128c565b6000905061128c565b816112878585610fbd565b101590505b939250505056fe53686f756c6420686176652073756666696369656e742062616c616e636520746f207472616465547269656420746f2073656e64206e6f6e2d706f73697469766520616d6f756e74a265627a7a72315820d35b2d7666d0dfe3d5fe679198aae0f7cc34c995ae80673dc13e32354e15827d64736f6c63430005100032",
  "source": "pragma solidity ^0.5.16;\n\nimport \"./v25SafeMath.sol\";\nimport \"./v25TellorStorage.sol\";\n\n/**\n* @title v25Tellor Transfer\n* @dev Contains the methods related to transfers and ERC20. v25Tellor.sol and v25TellorGetters.sol\n* reference this library for function's logic.\n*/\nlibrary v25TellorTransfer {\n    using v25SafeMath for uint256;\n\n    event Approval(address indexed _owner, address indexed _spender, uint256 _value); //ERC20 Approval event\n    event Transfer(address indexed _from, address indexed _to, uint256 _value); //ERC20 Transfer Event\n\n    bytes32 public constant stakeAmount = 0x7be108969d31a3f0b261465c71f2b0ba9301cd914d55d9091c3b36a49d4d41b2; //keccak256(\"stakeAmount\")\n\n    /*Functions*/\n\n    /**\n    * @dev Allows for a transfer of tokens to _to\n    * @param _to The address to send tokens to\n    * @param _amount The amount of tokens to send\n    * @return true if transfer is successful\n    */\n    function transfer(v25TellorStorage.TellorStorageStruct storage self, address _to, uint256 _amount) public returns (bool success) {\n        doTransfer(self, msg.sender, _to, _amount);\n        return true;\n    }\n\n    /**\n    * @notice Send _amount tokens to _to from _from on the condition it\n    * is approved by _from\n    * @param _from The address holding the tokens being transferred\n    * @param _to The address of the recipient\n    * @param _amount The amount of tokens to be transferred\n    * @return True if the transfer was successful\n    */\n    function transferFrom(v25TellorStorage.TellorStorageStruct storage self, address _from, address _to, uint256 _amount)\n        public\n        returns (bool success)\n    {\n        require(self.allowed[_from][msg.sender] >= _amount, \"Allowance is wrong\");\n        self.allowed[_from][msg.sender] -= _amount;\n        doTransfer(self, _from, _to, _amount);\n        return true;\n    }\n\n    /**\n    * @dev This function approves a _spender an _amount of tokens to use\n    * @param _spender address\n    * @param _amount amount the spender is being approved for\n    * @return true if spender appproved successfully\n    */\n    function approve(v25TellorStorage.TellorStorageStruct storage self, address _spender, uint256 _amount) public returns (bool) {\n        require(_spender != address(0), \"Spender is 0-address\");\n        require(self.allowed[msg.sender][_spender] == 0 || _amount == 0, \"Spender is already approved\");\n        self.allowed[msg.sender][_spender] = _amount;\n        emit Approval(msg.sender, _spender, _amount);\n        return true;\n    }\n\n    /**\n    * @param _user address of party with the balance\n    * @param _spender address of spender of parties said balance\n    * @return Returns the remaining allowance of tokens granted to the _spender from the _user\n    */\n    function allowance(v25TellorStorage.TellorStorageStruct storage self, address _user, address _spender) public view returns (uint256) {\n        return self.allowed[_user][_spender];\n    }\n\n    /**\n    * @dev Completes POWO transfers by updating the balances on the current block number\n    * @param _from address to transfer from\n    * @param _to addres to transfer to\n    * @param _amount to transfer\n    */\n    function doTransfer(v25TellorStorage.TellorStorageStruct storage self, address _from, address _to, uint256 _amount) public {\n        require(_amount != 0, \"Tried to send non-positive amount\");\n        require(_to != address(0), \"Receiver is 0 address\");\n        require(allowedToTrade(self, _from, _amount), \"Should have sufficient balance to trade\");\n        uint256 previousBalance = balanceOf(self, _from);\n        updateBalanceAtNow(self.balances[_from], previousBalance - _amount);\n        previousBalance = balanceOf(self,_to);\n        require(previousBalance + _amount >= previousBalance, \"Overflow happened\"); // Check for overflow\n        updateBalanceAtNow(self.balances[_to], previousBalance + _amount);\n        emit Transfer(_from, _to, _amount);\n    }\n\n    /**\n    * @dev Gets balance of owner specified\n    * @param _user is the owner address used to look up the balance\n    * @return Returns the balance associated with the passed in _user\n    */\n    function balanceOf(v25TellorStorage.TellorStorageStruct storage self, address _user) public view returns (uint256) {\n        return balanceOfAt(self, _user, block.number);\n    }\n\n    /**\n    * @dev Queries the balance of _user at a specific _blockNumber\n    * @param _user The address from which the balance will be retrieved\n    * @param _blockNumber The block number when the balance is queried\n    * @return The balance at _blockNumber specified\n    */\n    function balanceOfAt(v25TellorStorage.TellorStorageStruct storage self, address _user, uint256 _blockNumber) public view returns (uint256) {\n        v25TellorStorage.Checkpoint[] storage checkpoints = self.balances[_user];\n        if (checkpoints.length == 0|| checkpoints[0].fromBlock > _blockNumber) {\n            return 0;\n        } else {\n            if (_blockNumber >= checkpoints[checkpoints.length - 1].fromBlock) return checkpoints[checkpoints.length - 1].value;\n            // Binary search of the value in the array\n            uint256 min = 0;\n            uint256 max = checkpoints.length - 2;\n            while (max > min) {\n                uint256 mid = (max + min + 1) / 2;\n                if  (checkpoints[mid].fromBlock ==_blockNumber){\n                    return checkpoints[mid].value;\n                }else if(checkpoints[mid].fromBlock < _blockNumber) {\n                    min = mid;\n                } else {\n                    max = mid - 1;\n                }\n            }\n            return checkpoints[min].value;\n        }\n    }\n    /**\n    * @dev This function returns whether or not a given user is allowed to trade a given amount\n    * and removing the staked amount from their balance if they are staked\n    * @param _user address of user\n    * @param _amount to check if the user can spend\n    * @return true if they are allowed to spend the amount being checked\n    */\n    function allowedToTrade(v25TellorStorage.TellorStorageStruct storage self, address _user, uint256 _amount) public view returns (bool) { \n        if (self.stakerDetails[_user].currentStatus != 0 && self.stakerDetails[_user].currentStatus < 5) {\n            //Subtracts the stakeAmount from balance if the _user is staked\n            if (balanceOf(self, _user)- self.uintVars[stakeAmount] >= _amount) {\n                return true;\n            }\n            return false;\n        } \n        return (balanceOf(self, _user) >= _amount);\n    }\n\n    /**\n    * @dev Updates balance for from and to on the current block number via doTransfer\n    * @param checkpoints gets the mapping for the balances[owner]\n    * @param _value is the new balance\n    */\n    function updateBalanceAtNow(v25TellorStorage.Checkpoint[] storage checkpoints, uint256 _value) public {\n        if (checkpoints.length == 0 || checkpoints[checkpoints.length - 1].fromBlock != block.number) {\n           checkpoints.push(v25TellorStorage.Checkpoint({\n                fromBlock : uint128(block.number),\n                value : uint128(_value)\n            }));\n        } else {\n            v25TellorStorage.Checkpoint storage oldCheckPoint = checkpoints[checkpoints.length - 1];\n            oldCheckPoint.value = uint128(_value);\n        }\n    }\n}\n",
  "sourcePath": "/home/jgcarv/Dev/Tellor/TellorLegacy/contracts/v25/libraries/v25TellorTransfer.sol",
  "compiler": {
    "name": "solc",
    "version": "0.5.16+commit.9c3226ce.Emscripten.clang"
  },
  "schemaVersion": "3.3.3",
  "updatedAt": "2020-12-22T20:15:06.200Z",
  "devdoc": {
    "details": "Contains the methods related to transfers and ERC20. v25Tellor.sol and v25TellorGetters.sol reference this library for function's logic.",
    "methods": {
      "allowance(v25TellorStorage.TellorStorageStruct storage,address,address)": {
        "params": {
          "_spender": "address of spender of parties said balance",
          "_user": "address of party with the balance"
        },
        "return": "Returns the remaining allowance of tokens granted to the _spender from the _user"
      },
      "allowedToTrade(v25TellorStorage.TellorStorageStruct storage,address,uint256)": {
        "details": "This function returns whether or not a given user is allowed to trade a given amount and removing the staked amount from their balance if they are staked",
        "params": {
          "_amount": "to check if the user can spend",
          "_user": "address of user"
        },
        "return": "true if they are allowed to spend the amount being checked"
      },
      "approve(v25TellorStorage.TellorStorageStruct storage,address,uint256)": {
        "details": "This function approves a _spender an _amount of tokens to use",
        "params": {
          "_amount": "amount the spender is being approved for",
          "_spender": "address"
        },
        "return": "true if spender appproved successfully"
      },
      "balanceOf(v25TellorStorage.TellorStorageStruct storage,address)": {
        "details": "Gets balance of owner specified",
        "params": {
          "_user": "is the owner address used to look up the balance"
        },
        "return": "Returns the balance associated with the passed in _user"
      },
      "balanceOfAt(v25TellorStorage.TellorStorageStruct storage,address,uint256)": {
        "details": "Queries the balance of _user at a specific _blockNumber",
        "params": {
          "_blockNumber": "The block number when the balance is queried",
          "_user": "The address from which the balance will be retrieved"
        },
        "return": "The balance at _blockNumber specified"
      },
      "doTransfer(v25TellorStorage.TellorStorageStruct storage,address,address,uint256)": {
        "details": "Completes POWO transfers by updating the balances on the current block number",
        "params": {
          "_amount": "to transfer",
          "_from": "address to transfer from",
          "_to": "addres to transfer to"
        }
      },
      "transfer(v25TellorStorage.TellorStorageStruct storage,address,uint256)": {
        "details": "Allows for a transfer of tokens to _to",
        "params": {
          "_amount": "The amount of tokens to send",
          "_to": "The address to send tokens to"
        },
        "return": "true if transfer is successful"
      },
      "transferFrom(v25TellorStorage.TellorStorageStruct storage,address,address,uint256)": {
        "params": {
          "_amount": "The amount of tokens to be transferred",
          "_from": "The address holding the tokens being transferred",
          "_to": "The address of the recipient"
        },
        "return": "True if the transfer was successful"
      },
      "updateBalanceAtNow(v25TellorStorage.Checkpoint[] storage,uint256)": {
        "details": "Updates balance for from and to on the current block number via doTransfer",
        "params": {
          "_value": "is the new balance",
          "checkpoints": "gets the mapping for the balances[owner]"
        }
      }
    },
    "title": "v25Tellor Transfer"
  },
  "userdoc": {
    "methods": {
      "transferFrom(v25TellorStorage.TellorStorageStruct storage,address,address,uint256)": {
        "notice": "Send _amount tokens to _to from _from on the condition it is approved by _from"
      }
    }
  }
}