{
  "contractName": "v25UtilitiesTests",
  "abi": [
    {
      "inputs": [
        {
          "internalType": "address payable",
          "name": "_TellorMasterAddress",
          "type": "address"
        }
      ],
      "payable": false,
      "stateMutability": "nonpayable",
      "type": "constructor"
    },
    {
      "constant": true,
      "inputs": [],
      "name": "tellorMasterAddress",
      "outputs": [
        {
          "internalType": "address payable",
          "name": "",
          "type": "address"
        }
      ],
      "payable": false,
      "stateMutability": "view",
      "type": "function"
    },
    {
      "constant": true,
      "inputs": [],
      "name": "testgetMax",
      "outputs": [
        {
          "internalType": "uint256",
          "name": "_max",
          "type": "uint256"
        },
        {
          "internalType": "uint256",
          "name": "_index",
          "type": "uint256"
        }
      ],
      "payable": false,
      "stateMutability": "view",
      "type": "function"
    },
    {
      "constant": true,
      "inputs": [],
      "name": "testgetMin",
      "outputs": [
        {
          "internalType": "uint256",
          "name": "_min",
          "type": "uint256"
        },
        {
          "internalType": "uint256",
          "name": "_index",
          "type": "uint256"
        }
      ],
      "payable": false,
      "stateMutability": "view",
      "type": "function"
    },
    {
      "constant": true,
      "inputs": [
        {
          "internalType": "uint256[51]",
          "name": "requests",
          "type": "uint256[51]"
        }
      ],
      "name": "testgetMax5",
      "outputs": [
        {
          "internalType": "uint256[5]",
          "name": "_max",
          "type": "uint256[5]"
        },
        {
          "internalType": "uint256[5]",
          "name": "_index",
          "type": "uint256[5]"
        }
      ],
      "payable": false,
      "stateMutability": "pure",
      "type": "function"
    },
    {
      "constant": true,
      "inputs": [
        {
          "internalType": "uint256[51]",
          "name": "requests",
          "type": "uint256[51]"
        }
      ],
      "name": "testgetMins",
      "outputs": [
        {
          "internalType": "uint256",
          "name": "_min",
          "type": "uint256"
        },
        {
          "internalType": "uint256",
          "name": "_index",
          "type": "uint256"
        }
      ],
      "payable": false,
      "stateMutability": "pure",
      "type": "function"
    }
  ],
  "bytecode": "0x608060405234801561001057600080fd5b506040516108683803806108688339818101604052602081101561003357600080fd5b8101908080519060200190929190505050336000806101000a81548173ffffffffffffffffffffffffffffffffffffffff021916908373ffffffffffffffffffffffffffffffffffffffff16021790555080600260006101000a81548173ffffffffffffffffffffffffffffffffffffffff021916908373ffffffffffffffffffffffffffffffffffffffff160217905550600260009054906101000a900473ffffffffffffffffffffffffffffffffffffffff16600160006101000a81548173ffffffffffffffffffffffffffffffffffffffff021916908373ffffffffffffffffffffffffffffffffffffffff16021790555050610730806101386000396000f3fe608060405234801561001057600080fd5b50600436106100575760003560e01c806318a6bdd31461005c5780632893e758146100de5780635e93d863146101035780637d215ec0146101d5578063b005ccae146101fa575b600080fd5b6100c1600480360361066081101561007357600080fd5b810190808061066001906033806020026040519081016040528092919082603360200280828437600081840152601f19601f8201169050808301925050505050509192919290505050610244565b604051808381526020018281526020019250505060405180910390f35b6100e661025d565b604051808381526020018281526020019250505060405180910390f35b610168600480360361066081101561011a57600080fd5b810190808061066001906033806020026040519081016040528092919082603360200280828437600081840152601f19601f820116905080830192505050505050919291929050505061032b565b6040518083600560200280838360005b83811015610193578082015181840152602081019050610178565b5050505090500182600560200280838360005b838110156101c15780820151818401526020810190506101a6565b505050509050019250505060405180910390f35b6101dd610351565b604051808381526020018281526020019250505060405180910390f35b61020261041f565b604051808273ffffffffffffffffffffffffffffffffffffffff1673ffffffffffffffffffffffffffffffffffffffff16815260200191505060405180910390f35b60008061025083610445565b8092508193505050915091565b6000806102686106b6565b600160009054906101000a900473ffffffffffffffffffffffffffffffffffffffff1673ffffffffffffffffffffffffffffffffffffffff1663b54130296040518163ffffffff1660e01b81526004016106606040518083038186803b1580156102d157600080fd5b505afa1580156102e5573d6000803e3d6000fd5b505050506040513d601f19601f8201168201806040525061066081101561030b57600080fd5b8101908091905050905061031e81610445565b8093508194505050509091565b6103336106d9565b61033b6106d9565b610344836104b8565b8092508193505050915091565b60008061035c6106b6565b600160009054906101000a900473ffffffffffffffffffffffffffffffffffffffff1673ffffffffffffffffffffffffffffffffffffffff1663b54130296040518163ffffffff1660e01b81526004016106606040518083038186803b1580156103c557600080fd5b505afa1580156103d9573d6000803e3d6000fd5b505050506040513d601f19601f820116820180604052506106608110156103ff57600080fd5b810190809190505090506104128161064a565b8093508194505050509091565b600260009054906101000a900473ffffffffffffffffffffffffffffffffffffffff1681565b6000806001603303905082816033811061045b57fe5b602002015191506000600260330390505b60008111156104b2578284826033811061048257fe5b602002015110156104a45783816033811061049957fe5b602002015192508091505b80806001900391505061046c565b50915091565b6104c06106d9565b6104c86106d9565b6000836001603381106104d757fe5b60200201519050600080905060008090505b60058110156105705785600182016033811061050157fe5b602002015185826005811061051257fe5b6020020181815250506001810184826005811061052b57fe5b6020020181815250508285826005811061054157fe5b602002015110156105635784816005811061055857fe5b602002015192508091505b80806001019150506104e9565b506000600690505b6033811015610642578286826033811061058e57fe5b60200201511115610635578581603381106105a557fe5b60200201518583600581106105b657fe5b602002018181525050808483600581106105cc57fe5b6020020181815250508581603381106105e157fe5b6020020151925060008090505b6005811015610633578386826005811061060457fe5b602002015110156106265785816005811061061b57fe5b602002015193508092505b80806001019150506105ee565b505b8080600101915050610578565b505050915091565b6000806001905082816033811061065d57fe5b602002015191506000600290505b60338110156106b0578284826033811061068157fe5b602002015111156106a35783816033811061069857fe5b602002015192508091505b808060010191505061066b565b50915091565b604051806106600160405280603390602082028038833980820191505090505090565b6040518060a0016040528060059060208202803883398082019150509050509056fea265627a7a723158200ac2c568771cb6dcc53b7d066f1343434485e885c361b541e17d14027d7dbb0b64736f6c63430005100032",
  "source": "pragma solidity ^0.5.16;\n\nimport \"./libraries/v25Utilities.sol\";\nimport \"./libraries/v25TellorGettersLibrary.sol\";\nimport \"./v25TellorMaster.sol\";\n\n/**\n* @title v25Utilities Tests\n* @dev These are the getter function for the two assembly code functions in the\n* v25Utilities library\n*/\ncontract v25UtilitiesTests {\n    address internal owner;\n    v25TellorMaster internal tellorMaster;\n    address payable public tellorMasterAddress;\n\n    /**\n    * @dev The constructor sets the owner\n    */\n    constructor(address payable _TellorMasterAddress) public {\n        owner = msg.sender;\n        tellorMasterAddress = _TellorMasterAddress;\n        tellorMaster = v25TellorMaster(tellorMasterAddress);\n    }\n\n    /**\n    * @dev Gets the max of the requestQ array\n    */\n    function testgetMax() public view returns (uint256 _max, uint256 _index) {\n        uint256[51] memory requests = tellorMaster.getRequestQ();\n        (_max, _index) = v25Utilities.getMax(requests);\n    }\n\n    /**\n    * @dev Gets the min of the requestQ array\n    */\n    function testgetMin() public view returns (uint256 _min, uint256 _index) {\n        uint256[51] memory requests = tellorMaster.getRequestQ();\n        (_min, _index) = v25Utilities.getMin(requests);\n    }\n\n    /**\n    * @dev Gets the top 5 of the array provided\n    * @param requests is an array of length 51\n    * @return the top 5 and their respective index within the array\n    */\n    function testgetMax5(uint256[51] memory requests) public pure returns (uint256[5] memory _max, uint256[5] memory _index) {\n        (_max, _index) = v25Utilities.getMax5(requests);\n    }\n\n    /**\n    * @dev Gets the min of the array provided\n    * @param requests is an array of length 51\n    * @return the min and its respective index within the array\n    */\n    function testgetMins(uint256[51] memory requests) public pure returns (uint256 _min, uint256 _index) {\n        (_min, _index) = v25Utilities.getMin(requests);\n    }\n\n\n\n}\n",
  "sourcePath": "/home/jgcarv/Dev/Tellor/TellorLegacy/contracts/V25/v25UtilitiesTests.sol",
  "compiler": {
    "name": "solc",
    "version": "0.5.16+commit.9c3226ce.Emscripten.clang"
  },
  "schemaVersion": "3.3.2",
  "updatedAt": "2020-12-11T14:39:53.232Z",
  "devdoc": {
    "details": "These are the getter function for the two assembly code functions in the v25Utilities library",
    "methods": {
      "constructor": {
        "details": "The constructor sets the owner"
      },
      "testgetMax()": {
        "details": "Gets the max of the requestQ array"
      },
      "testgetMax5(uint256[51])": {
        "details": "Gets the top 5 of the array provided",
        "params": {
          "requests": "is an array of length 51"
        },
        "return": "the top 5 and their respective index within the array"
      },
      "testgetMin()": {
        "details": "Gets the min of the requestQ array"
      },
      "testgetMins(uint256[51])": {
        "details": "Gets the min of the array provided",
        "params": {
          "requests": "is an array of length 51"
        },
        "return": "the min and its respective index within the array"
      }
    },
    "title": "v25Utilities Tests"
  },
  "userdoc": {
    "methods": {}
  }
}