{
  "contractName": "v2TellorLibrary",
  "abi": [
    {
      "anonymous": false,
      "inputs": [
        {
          "indexed": true,
          "internalType": "bytes32",
          "name": "_currentChallenge",
          "type": "bytes32"
        },
        {
          "indexed": false,
          "internalType": "uint256[5]",
          "name": "_currentRequestId",
          "type": "uint256[5]"
        },
        {
          "indexed": false,
          "internalType": "uint256",
          "name": "_difficulty",
          "type": "uint256"
        },
        {
          "indexed": false,
          "internalType": "uint256",
          "name": "_totalTips",
          "type": "uint256"
        }
      ],
      "name": "NewChallenge",
      "type": "event"
    },
    {
      "anonymous": false,
      "inputs": [
        {
          "indexed": false,
          "internalType": "uint256[5]",
          "name": "_requestId",
          "type": "uint256[5]"
        },
        {
          "indexed": false,
          "internalType": "uint256",
          "name": "_time",
          "type": "uint256"
        },
        {
          "indexed": false,
          "internalType": "uint256[5]",
          "name": "_value",
          "type": "uint256[5]"
        },
        {
          "indexed": false,
          "internalType": "uint256",
          "name": "_totalTips",
          "type": "uint256"
        },
        {
          "indexed": true,
          "internalType": "bytes32",
          "name": "_currentChallenge",
          "type": "bytes32"
        }
      ],
      "name": "NewValue",
      "type": "event"
    },
    {
      "anonymous": false,
      "inputs": [
        {
          "indexed": true,
          "internalType": "address",
          "name": "_miner",
          "type": "address"
        },
        {
          "indexed": false,
          "internalType": "string",
          "name": "_nonce",
          "type": "string"
        },
        {
          "indexed": false,
          "internalType": "uint256[5]",
          "name": "_requestId",
          "type": "uint256[5]"
        },
        {
          "indexed": false,
          "internalType": "uint256[5]",
          "name": "_value",
          "type": "uint256[5]"
        },
        {
          "indexed": true,
          "internalType": "bytes32",
          "name": "_currentChallenge",
          "type": "bytes32"
        }
      ],
      "name": "NonceSubmitted",
      "type": "event"
    },
    {
      "anonymous": false,
      "inputs": [
        {
          "indexed": true,
          "internalType": "address",
          "name": "_previousOwner",
          "type": "address"
        },
        {
          "indexed": true,
          "internalType": "address",
          "name": "_newOwner",
          "type": "address"
        }
      ],
      "name": "OwnershipProposed",
      "type": "event"
    },
    {
      "anonymous": false,
      "inputs": [
        {
          "indexed": true,
          "internalType": "address",
          "name": "_previousOwner",
          "type": "address"
        },
        {
          "indexed": true,
          "internalType": "address",
          "name": "_newOwner",
          "type": "address"
        }
      ],
      "name": "OwnershipTransferred",
      "type": "event"
    },
    {
      "anonymous": false,
      "inputs": [
        {
          "indexed": true,
          "internalType": "address",
          "name": "_sender",
          "type": "address"
        },
        {
          "indexed": true,
          "internalType": "uint256",
          "name": "_requestId",
          "type": "uint256"
        },
        {
          "indexed": false,
          "internalType": "uint256",
          "name": "_tip",
          "type": "uint256"
        },
        {
          "indexed": false,
          "internalType": "uint256",
          "name": "_totalTips",
          "type": "uint256"
        }
      ],
      "name": "TipAdded",
      "type": "event"
    },
    {
      "constant": true,
      "inputs": [],
      "name": "_owner",
      "outputs": [
        {
          "internalType": "bytes32",
          "name": "",
          "type": "bytes32"
        }
      ],
      "payable": false,
      "stateMutability": "view",
      "type": "function"
    },
    {
      "constant": true,
      "inputs": [],
      "name": "_tBlock",
      "outputs": [
        {
          "internalType": "bytes32",
          "name": "",
          "type": "bytes32"
        }
      ],
      "payable": false,
      "stateMutability": "view",
      "type": "function"
    },
    {
      "constant": true,
      "inputs": [],
      "name": "currentRequestId",
      "outputs": [
        {
          "internalType": "bytes32",
          "name": "",
          "type": "bytes32"
        }
      ],
      "payable": false,
      "stateMutability": "view",
      "type": "function"
    },
    {
      "constant": true,
      "inputs": [],
      "name": "currentReward",
      "outputs": [
        {
          "internalType": "bytes32",
          "name": "",
          "type": "bytes32"
        }
      ],
      "payable": false,
      "stateMutability": "view",
      "type": "function"
    },
    {
      "constant": true,
      "inputs": [],
      "name": "currentTotalTips",
      "outputs": [
        {
          "internalType": "bytes32",
          "name": "",
          "type": "bytes32"
        }
      ],
      "payable": false,
      "stateMutability": "view",
      "type": "function"
    },
    {
      "constant": true,
      "inputs": [],
      "name": "devShare",
      "outputs": [
        {
          "internalType": "bytes32",
          "name": "",
          "type": "bytes32"
        }
      ],
      "payable": false,
      "stateMutability": "view",
      "type": "function"
    },
    {
      "constant": true,
      "inputs": [],
      "name": "difficulty",
      "outputs": [
        {
          "internalType": "bytes32",
          "name": "",
          "type": "bytes32"
        }
      ],
      "payable": false,
      "stateMutability": "view",
      "type": "function"
    },
    {
      "constant": true,
      "inputs": [],
      "name": "pending_owner",
      "outputs": [
        {
          "internalType": "bytes32",
          "name": "",
          "type": "bytes32"
        }
      ],
      "payable": false,
      "stateMutability": "view",
      "type": "function"
    },
    {
      "constant": true,
      "inputs": [],
      "name": "requestCount",
      "outputs": [
        {
          "internalType": "bytes32",
          "name": "",
          "type": "bytes32"
        }
      ],
      "payable": false,
      "stateMutability": "view",
      "type": "function"
    },
    {
      "constant": true,
      "inputs": [],
      "name": "requestQPosition",
      "outputs": [
        {
          "internalType": "bytes32",
          "name": "",
          "type": "bytes32"
        }
      ],
      "payable": false,
      "stateMutability": "view",
      "type": "function"
    },
    {
      "constant": true,
      "inputs": [],
      "name": "runningTips",
      "outputs": [
        {
          "internalType": "bytes32",
          "name": "",
          "type": "bytes32"
        }
      ],
      "payable": false,
      "stateMutability": "view",
      "type": "function"
    },
    {
      "constant": true,
      "inputs": [],
      "name": "slotProgress",
      "outputs": [
        {
          "internalType": "bytes32",
          "name": "",
          "type": "bytes32"
        }
      ],
      "payable": false,
      "stateMutability": "view",
      "type": "function"
    },
    {
      "constant": true,
      "inputs": [],
      "name": "timeOfLastNewValue",
      "outputs": [
        {
          "internalType": "bytes32",
          "name": "",
          "type": "bytes32"
        }
      ],
      "payable": false,
      "stateMutability": "view",
      "type": "function"
    },
    {
      "constant": true,
      "inputs": [],
      "name": "timeTarget",
      "outputs": [
        {
          "internalType": "bytes32",
          "name": "",
          "type": "bytes32"
        }
      ],
      "payable": false,
      "stateMutability": "view",
      "type": "function"
    },
    {
      "constant": true,
      "inputs": [],
      "name": "totalTip",
      "outputs": [
        {
          "internalType": "bytes32",
          "name": "",
          "type": "bytes32"
        }
      ],
      "payable": false,
      "stateMutability": "view",
      "type": "function"
    },
    {
      "constant": true,
      "inputs": [],
      "name": "total_supply",
      "outputs": [
        {
          "internalType": "bytes32",
          "name": "",
          "type": "bytes32"
        }
      ],
      "payable": false,
      "stateMutability": "view",
      "type": "function"
    }
  ],
  "bytecode": "0x61568d62000027600b82828239805160001a60731461001a57fe5b30600052607381538281f3fe73000000000000000000000000000000000000000030146080604052600436106101625760003560e01c80636fd4f229116100cd578063b261191611610086578063b26119161461049b578063b2bdfa7b146104ea578063c02634de14610508578063c108687c14610557578063d798e6c01461063d578063fce5b00f1461075057610162565b80636fd4f229146103ca57806375ad1a2a146103e857806376bb5a79146104065780637f4ec4c314610441578063aed04fae1461045f578063b0dc7c201461047d57610162565b80633c5ff1a81161011f5780633c5ff1a8146102d9578063561cb04a146103345780635ae2bfdb146103525780635badbe4c146103705780636e3cf8851461038e5780636fc37811146103ac57610162565b806303b3160f1461016757806307621eca146101855780630befc5ae146101a357806319cae4621461027f5780632bf07e9e1461029d5780633940e9ee146102bb575b600080fd5b61016f6107f5565b6040518082815260200191505060405180910390f35b61018d61081c565b6040518082815260200191505060405180910390f35b8180156101af57600080fd5b5061027d600480360360608110156101c657600080fd5b8101908080359060200190929190803590602001906401000000008111156101ed57600080fd5b8201836020820111156101ff57600080fd5b8035906020019184600183028401116401000000008311171561022157600080fd5b91908080601f016020809104026020016040519081016040528093929190818152602001838380828437600081840152601f19601f82011690508083019250505050505050919291929080359060200190929190505050610843565b005b610287611a20565b6040518082815260200191505060405180910390f35b6102a5611a47565b6040518082815260200191505060405180910390f35b6102c3611a6e565b6040518082815260200191505060405180910390f35b8180156102e557600080fd5b50610332600480360360408110156102fc57600080fd5b8101908080359060200190929190803573ffffffffffffffffffffffffffffffffffffffff169060200190929190505050611a95565b005b61033c611cbb565b6040518082815260200191505060405180910390f35b61035a611ce2565b6040518082815260200191505060405180910390f35b610378611d09565b6040518082815260200191505060405180910390f35b610396611d30565b6040518082815260200191505060405180910390f35b6103b4611d57565b6040518082815260200191505060405180910390f35b6103d2611d7e565b6040518082815260200191505060405180910390f35b6103f0611da5565b6040518082815260200191505060405180910390f35b81801561041257600080fd5b5061043f6004803603602081101561042957600080fd5b8101908080359060200190929190505050611dcc565b005b6104496120a1565b6040518082815260200191505060405180910390f35b6104676120c8565b6040518082815260200191505060405180910390f35b6104856120ef565b6040518082815260200191505060405180910390f35b8180156104a757600080fd5b506104e8600480360360608110156104be57600080fd5b81019080803590602001909291908035906020019092919080359060200190929190505050612116565b005b6104f261248f565b6040518082815260200191505060405180910390f35b81801561051457600080fd5b506105556004803603606081101561052b57600080fd5b810190808035906020019092919080359060200190929190803590602001909291905050506124b6565b005b81801561056357600080fd5b5061063b6004803603608081101561057a57600080fd5b8101908080359060200190929190803590602001906401000000008111156105a157600080fd5b8201836020820111156105b357600080fd5b803590602001918460018302840111640100000000831117156105d557600080fd5b91908080601f016020809104026020016040519081016040528093929190818152602001838380828437600081840152601f19601f8201169050808301925050505050505091929192908035906020019092919080359060200190929190505050612894565b005b81801561064957600080fd5b5061074e600480360360e081101561066057600080fd5b81019080803590602001909291908035906020019064010000000081111561068757600080fd5b82018360208201111561069957600080fd5b803590602001918460018302840111640100000000831117156106bb57600080fd5b91908080601f016020809104026020016040519081016040528093929190818152602001838380828437600081840152601f19601f8201169050808301925050505050505091929192908060a001906005806020026040519081016040528092919082600560200280828437600081840152601f19601f8201169050808301925050505050509192919290505050613002565b005b81801561075c57600080fd5b506107f3600480360361018081101561077457600080fd5b81019080803590602001909291908035906020019064010000000081111561079b57600080fd5b8201836020820111156107ad57600080fd5b803590602001918460018302840111640100000000831117156107cf57600080fd5b90919293919293908060a0019091929192908060a001909192919290505050613deb565b005b7f6c505cb2db6644f57b42d87bd9407b0f66788b07d0617a2bc1356a0e69e66f9a60001b81565b7f9b6853911475b07474368644a0d922ee13bc76a15cd3e97d3e334326424a47d460001b81565b6000836048016000838152602001908152602001600020905060006108a46104b08660400160007f97e6eb29f6a85471f7cc9b57f9e4c3deaf398cfc9798673160d7798baf0b13a460001b8152602001908152602001600020544203614d91565b905060008560400160007fb12aff7664b16cb99339be399b863feecd64d14817be7e1f042f97e3f358e64e60001b8152602001908152602001600020549050610fa0828760400160007fad16221efc80aaf1b7e69bd3ecb61ba5ffa539adf129c3b4ffff769c9b5bbc3360001b8152602001908152602001600020540382028161092a57fe5b059150600082141561093b57600191505b6109488282016001614daa565b8660400160007fb12aff7664b16cb99339be399b863feecd64d14817be7e1f042f97e3f358e64e60001b8152602001908152602001600020819055506000603c428161099057fe5b0642039050808760400160007f97e6eb29f6a85471f7cc9b57f9e4c3deaf398cfc9798673160d7798baf0b13a460001b8152602001908152602001600020819055506109da61535c565b87603501600580602002604051908101604052809291906000905b82821015610a7d57838260020201604051806040016040529081600082015481526020016001820160009054906101000a900473ffffffffffffffffffffffffffffffffffffffff1673ffffffffffffffffffffffffffffffffffffffff1673ffffffffffffffffffffffffffffffffffffffff1681525050815260200190600101906109f5565b5050505090506000600190505b6005811015610c0f576000828260058110610aa157fe5b60200201516000015190506000838360058110610aba57fe5b602002015160200151905060008390505b600081118015610af15750846001820360058110610ae557fe5b60200201516000015183105b15610b9457846001820360058110610b0557fe5b602002015160000151858260058110610b1a57fe5b60200201516000018181525050846001820360058110610b3657fe5b602002015160200151858260058110610b4b57fe5b60200201516020019073ffffffffffffffffffffffffffffffffffffffff16908173ffffffffffffffffffffffffffffffffffffffff1681525050808060019003915050610acb565b83811015610bff5782858260058110610ba957fe5b6020020151600001818152505081858260058110610bc357fe5b60200201516020019073ffffffffffffffffffffffffffffffffffffffff16908173ffffffffffffffffffffffffffffffffffffffff16815250505b5050508080600101915050610a8a565b60008960400160007f9b6853911475b07474368644a0d922ee13bc76a15cd3e97d3e334326424a47d460001b8152602001908152602001600020541415610c9657674563918244f400008960400160007f9b6853911475b07474368644a0d922ee13bc76a15cd3e97d3e334326424a47d460001b8152602001908152602001600020819055505b670de0b6b3a76400008960400160007f9b6853911475b07474368644a0d922ee13bc76a15cd3e97d3e334326424a47d460001b8152602001908152602001600020541115610e2d57670de0b6b3a7640000651bd78f205bc68a60400160007f9b6853911475b07474368644a0d922ee13bc76a15cd3e97d3e334326424a47d460001b8152602001908152602001600020540281610d2f57fe5b048960400160007f9b6853911475b07474368644a0d922ee13bc76a15cd3e97d3e334326424a47d460001b815260200190815260200160002054038960400160007f9b6853911475b07474368644a0d922ee13bc76a15cd3e97d3e334326424a47d460001b815260200190815260200160002081905550606460328a60400160007f9b6853911475b07474368644a0d922ee13bc76a15cd3e97d3e334326424a47d460001b8152602001908152602001600020540281610deb57fe5b048960400160007f8fe9ded8d7c08f720cf0340699024f83522ea66b2bbfb8f557851cb9ee63b54c60001b815260200190815260200160002081905550610e73565b670de0b6b3a76400008960400160007f9b6853911475b07474368644a0d922ee13bc76a15cd3e97d3e334326424a47d460001b8152602001908152602001600020819055505b600090505b6005811015610ff55773__v2TellorTransfer______________________63c0b0c21b8a30858560058110610ea957fe5b60200201516020015160058e60400160007fd26d9834adf5a73309c4974bf654850bb699df8505e70d4cfde365c417b19dfc60001b81526020019081526020016000205481610ef457fe5b048e60400160007f9b6853911475b07474368644a0d922ee13bc76a15cd3e97d3e334326424a47d460001b815260200190815260200160002054016040518563ffffffff1660e01b8152600401808581526020018473ffffffffffffffffffffffffffffffffffffffff1673ffffffffffffffffffffffffffffffffffffffff1681526020018373ffffffffffffffffffffffffffffffffffffffff1673ffffffffffffffffffffffffffffffffffffffff16815260200182815260200194505050505060006040518083038186803b158015610fd057600080fd5b505af4158015610fe4573d6000803e3d6000fd5b505050508080600101915050610e78565b60058960400160007f9b6853911475b07474368644a0d922ee13bc76a15cd3e97d3e334326424a47d460001b815260200190815260200160002054028960400160007f8fe9ded8d7c08f720cf0340699024f83522ea66b2bbfb8f557851cb9ee63b54c60001b815260200190815260200160002054018960400160007fb1557182e4359a1f0c6301278e8f5b35a776ab58d39892581e357578fb28783660001b81526020019081526020016000206000828254019250508190555073__v2TellorTransfer______________________63c0b0c21b8a308c603f0160007f9dbc393ddc18fd27b1d9b1b129059925688d2f2d5818a5ec3ebb750b7c286ea660001b815260200190815260200160002060009054906101000a900473ffffffffffffffffffffffffffffffffffffffff168d60400160007f8fe9ded8d7c08f720cf0340699024f83522ea66b2bbfb8f557851cb9ee63b54c60001b8152602001908152602001600020546040518563ffffffff1660e01b8152600401808581526020018473ffffffffffffffffffffffffffffffffffffffff1673ffffffffffffffffffffffffffffffffffffffff1681526020018373ffffffffffffffffffffffffffffffffffffffff1673ffffffffffffffffffffffffffffffffffffffff16815260200182815260200194505050505060006040518083038186803b1580156111ff57600080fd5b505af4158015611213573d6000803e3d6000fd5b505050508160026005811061122457fe5b60200201516000015186600601600085815260200190815260200160002081905550856003018390806001815401808255809150509060018203906000526020600020016000909192909190915055506040518060a001604052808360006005811061128c57fe5b60200201516020015173ffffffffffffffffffffffffffffffffffffffff1673ffffffffffffffffffffffffffffffffffffffff168152602001836001600581106112d357fe5b60200201516020015173ffffffffffffffffffffffffffffffffffffffff1673ffffffffffffffffffffffffffffffffffffffff1681526020018360026005811061131a57fe5b60200201516020015173ffffffffffffffffffffffffffffffffffffffff1673ffffffffffffffffffffffffffffffffffffffff1681526020018360036005811061136157fe5b60200201516020015173ffffffffffffffffffffffffffffffffffffffff1673ffffffffffffffffffffffffffffffffffffffff168152602001836004600581106113a857fe5b60200201516020015173ffffffffffffffffffffffffffffffffffffffff1673ffffffffffffffffffffffffffffffffffffffff16815250866008016000858152602001908152602001600020906005611403929190615389565b506040518060a001604052808360006005811061141c57fe5b60200201516000015181526020018360016005811061143757fe5b60200201516000015181526020018360026005811061145257fe5b60200201516000015181526020018360036005811061146d57fe5b60200201516000015181526020018360046005811061148857fe5b6020020151600001518152508660090160008581526020019081526020016000209060056114b7929190615406565b50438660050160008581526020019081526020016000208190555086896042016000858152602001908152602001600020819055508860340183908060018154018082558091505090600182039060005260206000200160009091929091909150555060008960400160007f6c505cb2db6644f57b42d87bd9407b0f66788b07d0617a2bc1356a0e69e66f9a60001b8152602001908152602001600020819055506102588960400160007fad16221efc80aaf1b7e69bd3ecb61ba5ffa539adf129c3b4ffff769c9b5bbc3360001b81526020019081526020016000205414156117275761012c8960400160007fad16221efc80aaf1b7e69bd3ecb61ba5ffa539adf129c3b4ffff769c9b5bbc3360001b81526020019081526020016000208190555060028960400160007f9b6853911475b07474368644a0d922ee13bc76a15cd3e97d3e334326424a47d460001b8152602001908152602001600020548161161b57fe5b048960400160007f9b6853911475b07474368644a0d922ee13bc76a15cd3e97d3e334326424a47d460001b815260200190815260200160002081905550670de0b6b3a76400008960400160007f969ea04b74d02bb4d9e6e8e57236e1b9ca31627139ae9f0e465249932e82450260001b8152602001908152602001600020819055506116ea600160038b60400160007fb12aff7664b16cb99339be399b863feecd64d14817be7e1f042f97e3f358e64e60001b815260200190815260200160002054816116e457fe5b04614dc3565b8960400160007fb12aff7664b16cb99339be399b863feecd64d14817be7e1f042f97e3f358e64e60001b8152602001908152602001600020819055505b600090505b600581101561185a576001810189603501826005811061174857fe5b60020201600001819055506000896001018a604801600060018501815260200190815260200160002060040160007f1e344bd070f05f1c5b3f0b1266f4f20d837a0a8190a3a2da8b0375eac2ba86ea60001b815260200190815260200160002054603381106117b357fe5b018190555088604801600060018301815260200190815260200160002060040160007f2a9e355a92978430eca9c1aa3a9ba590094bac282594bccf82de16b83046e2c360001b8152602001908152602001600020548960400160007fd26d9834adf5a73309c4974bf654850bb699df8505e70d4cfde365c417b19dfc60001b815260200190815260200160002060008282540192505081905550808060010191505061172c565b87896000015460014303406040516020018080602001848152602001838152602001828103825285818151815260200191508051906020019080838360005b838110156118b4578082015181840152602081019050611899565b50505050905090810190601f1680156118e15780820380516001836020036101000a031916815260200191505b5094505050505060405160208183030381529060405280519060200120896000018190555088600001547f1d85ce10456e29b67de37887496d3f1fcf1b64c79c4d07484038703a9f5c14086040518060a001604052806001815260200160028152602001600381526020016004815260200160058152508b60400160007fb12aff7664b16cb99339be399b863feecd64d14817be7e1f042f97e3f358e64e60001b8152602001908152602001600020548c60400160007fd26d9834adf5a73309c4974bf654850bb699df8505e70d4cfde365c417b19dfc60001b8152602001908152602001600020546040518084600560200280838360005b838110156119f55780820151818401526020810190506119da565b50505050905001838152602001828152602001935050505060405180910390a2505050505050505050565b7fb12aff7664b16cb99339be399b863feecd64d14817be7e1f042f97e3f358e64e60001b81565b7f1e344bd070f05f1c5b3f0b1266f4f20d837a0a8190a3a2da8b0375eac2ba86ea60001b81565b7fb1557182e4359a1f0c6301278e8f5b35a776ab58d39892581e357578fb28783660001b81565b81603f0160007f9dbc393ddc18fd27b1d9b1b129059925688d2f2d5818a5ec3ebb750b7c286ea660001b815260200190815260200160002060009054906101000a900473ffffffffffffffffffffffffffffffffffffffff1673ffffffffffffffffffffffffffffffffffffffff163373ffffffffffffffffffffffffffffffffffffffff1614611b8e576040517f08c379a00000000000000000000000000000000000000000000000000000000081526004018080602001828103825260138152602001807f53656e646572206973206e6f74206f776e65720000000000000000000000000081525060200191505060405180910390fd5b8073ffffffffffffffffffffffffffffffffffffffff1682603f0160007f9dbc393ddc18fd27b1d9b1b129059925688d2f2d5818a5ec3ebb750b7c286ea660001b815260200190815260200160002060009054906101000a900473ffffffffffffffffffffffffffffffffffffffff1673ffffffffffffffffffffffffffffffffffffffff167fb51454ce8c7f26becd312a46c4815553887f2ec876a0b8dc813b87f62edf6f8060405160405180910390a38082603f0160007f44b2657a0f8a90ed8e62f4c4cceca06eacaa9b4b25751ae1ebca9280a70abd6860001b815260200190815260200160002060006101000a81548173ffffffffffffffffffffffffffffffffffffffff021916908373ffffffffffffffffffffffffffffffffffffffff1602179055505050565b7f2a9e355a92978430eca9c1aa3a9ba590094bac282594bccf82de16b83046e2c360001b81565b7f7584d7d8701714da9c117f5bf30af73b0b88aca5338a84a21eb28de2fe0d93b860001b81565b7f05de9147d05477c0a5dc675aeea733157f5092f82add148cf39d579cafe3dc9860001b81565b7f969ea04b74d02bb4d9e6e8e57236e1b9ca31627139ae9f0e465249932e82450260001b81565b7fad16221efc80aaf1b7e69bd3ecb61ba5ffa539adf129c3b4ffff769c9b5bbc3360001b81565b7f97e6eb29f6a85471f7cc9b57f9e4c3deaf398cfc9798673160d7798baf0b13a460001b81565b7fd26d9834adf5a73309c4974bf654850bb699df8505e70d4cfde365c417b19dfc60001b81565b80603f0160007f44b2657a0f8a90ed8e62f4c4cceca06eacaa9b4b25751ae1ebca9280a70abd6860001b815260200190815260200160002060009054906101000a900473ffffffffffffffffffffffffffffffffffffffff1673ffffffffffffffffffffffffffffffffffffffff163373ffffffffffffffffffffffffffffffffffffffff1614611ec5576040517f08c379a000000000000000000000000000000000000000000000000000000000815260040180806020018281038252601b8152602001807f53656e646572206973206e6f742070656e64696e67206f776e6572000000000081525060200191505060405180910390fd5b80603f0160007f44b2657a0f8a90ed8e62f4c4cceca06eacaa9b4b25751ae1ebca9280a70abd6860001b815260200190815260200160002060009054906101000a900473ffffffffffffffffffffffffffffffffffffffff1673ffffffffffffffffffffffffffffffffffffffff1681603f0160007f9dbc393ddc18fd27b1d9b1b129059925688d2f2d5818a5ec3ebb750b7c286ea660001b815260200190815260200160002060009054906101000a900473ffffffffffffffffffffffffffffffffffffffff1673ffffffffffffffffffffffffffffffffffffffff167f8be0079c531659141344cd1fd0a4f28419497f9722a3daafe3b4186f6b6457e060405160405180910390a380603f0160007f44b2657a0f8a90ed8e62f4c4cceca06eacaa9b4b25751ae1ebca9280a70abd6860001b815260200190815260200160002060009054906101000a900473ffffffffffffffffffffffffffffffffffffffff1681603f0160007f9dbc393ddc18fd27b1d9b1b129059925688d2f2d5818a5ec3ebb750b7c286ea660001b815260200190815260200160002060006101000a81548173ffffffffffffffffffffffffffffffffffffffff021916908373ffffffffffffffffffffffffffffffffffffffff16021790555050565b7f44b2657a0f8a90ed8e62f4c4cceca06eacaa9b4b25751ae1ebca9280a70abd6860001b81565b7f8fe9ded8d7c08f720cf0340699024f83522ea66b2bbfb8f557851cb9ee63b54c60001b81565b7fdb21f0c4accc4f2f5f1045353763a9ffe7091ceaf0fcceb5831858d96cf8463160001b81565b600082141561218d576040517f08c379a000000000000000000000000000000000000000000000000000000000815260040180806020018281038252600e8152602001807f526571756573744964206973203000000000000000000000000000000000000081525060200191505060405180910390fd5b6000811415612204576040517f08c379a000000000000000000000000000000000000000000000000000000000815260040180806020018281038252601c8152602001807f5469702073686f756c642062652067726561746572207468616e20300000000081525060200191505060405180910390fd5b600060018460400160007f05de9147d05477c0a5dc675aeea733157f5092f82add148cf39d579cafe3dc9860001b8152602001908152602001600020540190508083141561228e57808460400160007f05de9147d05477c0a5dc675aeea733157f5092f82add148cf39d579cafe3dc9860001b815260200190815260200160002081905550612304565b808310612303576040517f08c379a00000000000000000000000000000000000000000000000000000000081526004018080602001828103825260208152602001807f526571756573744964206973206e6f74206c657373207468616e20636f756e7481525060200191505060405180910390fd5b5b73__v2TellorTransfer______________________63c0b0c21b853330866040518563ffffffff1660e01b8152600401808581526020018473ffffffffffffffffffffffffffffffffffffffff1673ffffffffffffffffffffffffffffffffffffffff1681526020018373ffffffffffffffffffffffffffffffffffffffff1673ffffffffffffffffffffffffffffffffffffffff16815260200182815260200194505050505060006040518083038186803b1580156123c357600080fd5b505af41580156123d7573d6000803e3d6000fd5b505050506123e68484846124b6565b823373ffffffffffffffffffffffffffffffffffffffff167fd32134405b68f6f7220f9c38ae310df1b648d16188006768d45be2f7c24e88208487604801600088815260200190815260200160002060040160007f2a9e355a92978430eca9c1aa3a9ba590094bac282594bccf82de16b83046e2c360001b815260200190815260200160002054604051808381526020018281526020019250505060405180910390a350505050565b7f9dbc393ddc18fd27b1d9b1b129059925688d2f2d5818a5ec3ebb750b7c286ea660001b81565b6000836048016000848152602001908152602001600020905061251a828260040160007f2a9e355a92978430eca9c1aa3a9ba590094bac282594bccf82de16b83046e2c360001b815260200190815260200160002054614ddc90919063ffffffff16565b8160040160007f2a9e355a92978430eca9c1aa3a9ba590094bac282594bccf82de16b83046e2c360001b815260200190815260200160002081905550828460350160006005811061256757fe5b600202016000015414806125915750828460350160016005811061258757fe5b6002020160000154145b806125b2575082846035016002600581106125a857fe5b6002020160000154145b806125d3575082846035016003600581106125c957fe5b6002020160000154145b806125f4575082846035016004600581106125ea57fe5b6002020160000154145b1561264457818460400160007fd26d9834adf5a73309c4974bf654850bb699df8505e70d4cfde365c417b19dfc60001b81526020019081526020016000206000828254019250508190555061288e565b60008160040160007f1e344bd070f05f1c5b3f0b1266f4f20d837a0a8190a3a2da8b0375eac2ba86ea60001b8152602001908152602001600020541415612836576000806126d0866001016033806020026040519081016040528092919082603380156126c6576020028201915b8154815260200190600101908083116126b2575b5050505050614df8565b8092508193505050818360040160007f2a9e355a92978430eca9c1aa3a9ba590094bac282594bccf82de16b83046e2c360001b815260200190815260200160002054118061271e5750600082145b1561282f578260040160007f2a9e355a92978430eca9c1aa3a9ba590094bac282594bccf82de16b83046e2c360001b81526020019081526020016000205486600101826033811061276b57fe5b0181905550600086604801600088604301600085815260200190815260200160002054815260200190815260200160002060040160007f1e344bd070f05f1c5b3f0b1266f4f20d837a0a8190a3a2da8b0375eac2ba86ea60001b8152602001908152602001600020819055508486604301600083815260200190815260200160002081905550808360040160007f1e344bd070f05f1c5b3f0b1266f4f20d837a0a8190a3a2da8b0375eac2ba86ea60001b8152602001908152602001600020819055505b505061288d565b81846001018260040160007f1e344bd070f05f1c5b3f0b1266f4f20d837a0a8190a3a2da8b0375eac2ba86ea60001b8152602001908152602001600020546033811061287e57fe5b01600082825401925050819055505b5b50505050565b6102588460400160007fad16221efc80aaf1b7e69bd3ecb61ba5ffa539adf129c3b4ffff769c9b5bbc3360001b81526020019081526020016000205414612926576040517f08c379a00000000000000000000000000000000000000000000000000000000081526004018080602001828103825260288152602001806156316028913960400191505060405180910390fd5b60018460470160003373ffffffffffffffffffffffffffffffffffffffff1673ffffffffffffffffffffffffffffffffffffffff16815260200190815260200160002060000154146129e0576040517f08c379a000000000000000000000000000000000000000000000000000000000815260040180806020018281038252601a8152602001807f4d696e657220737461747573206973206e6f74207374616b657200000000000081525060200191505060405180910390fd5b8360400160007f7584d7d8701714da9c117f5bf30af73b0b88aca5338a84a21eb28de2fe0d93b860001b8152602001908152602001600020548214612a8d576040517f08c379a00000000000000000000000000000000000000000000000000000000081526004018080602001828103825260128152602001807f5265717565737449642069732077726f6e67000000000000000000000000000081525060200191505060405180910390fd5b60008460400160007fb12aff7664b16cb99339be399b863feecd64d14817be7e1f042f97e3f358e64e60001b8152602001908152602001600020546002600387600001543388604051602001808481526020018373ffffffffffffffffffffffffffffffffffffffff1673ffffffffffffffffffffffffffffffffffffffff1660601b815260140182805190602001908083835b60208310612b445780518252602082019150602081019050602083039250612b21565b6001836020036101000a038019825116818451168082178552505050505050905001935050505060405160208183030381529060405280519060200120604051602001808281526020019150506040516020818303038152906040526040518082805190602001908083835b60208310612bd35780518252602082019150602081019050602083039250612bb0565b6001836020036101000a038019825116818451168082178552505050505050905001915050602060405180830381855afa158015612c15573d6000803e3d6000fd5b5050506040515160601b60405160200180826bffffffffffffffffffffffff19166bffffffffffffffffffffffff191681526014019150506040516020818303038152906040526040518082805190602001908083835b60208310612c8f5780518252602082019150602081019050602083039250612c6c565b6001836020036101000a038019825116818451168082178552505050505050905001915050602060405180830381855afa158015612cd1573d6000803e3d6000fd5b5050506040513d6020811015612ce657600080fd5b810190808051906020019092919050505060001c81612d0157fe5b0614612d58576040517f08c379a000000000000000000000000000000000000000000000000000000000815260040180806020018281038252602581526020018061560c6025913960400191505060405180910390fd5b600015158460410160008660000154815260200190815260200160002060003373ffffffffffffffffffffffffffffffffffffffff1673ffffffffffffffffffffffffffffffffffffffff16815260200190815260200160002060009054906101000a900460ff16151514612e18576040517f08c379a00000000000000000000000000000000000000000000000000000000081526004018080602001828103825260218152602001806155eb6021913960400191505060405180910390fd5b80846035018560400160007f6c505cb2db6644f57b42d87bd9407b0f66788b07d0617a2bc1356a0e69e66f9a60001b81526020019081526020016000205460058110612e6057fe5b600202016000018190555033846035018560400160007f6c505cb2db6644f57b42d87bd9407b0f66788b07d0617a2bc1356a0e69e66f9a60001b81526020019081526020016000205460058110612eb357fe5b6002020160010160006101000a81548173ffffffffffffffffffffffffffffffffffffffff021916908373ffffffffffffffffffffffffffffffffffffffff1602179055508360400160007f6c505cb2db6644f57b42d87bd9407b0f66788b07d0617a2bc1356a0e69e66f9a60001b81526020019081526020016000206000815480929190600101919050555060018460410160008660000154815260200190815260200160002060003373ffffffffffffffffffffffffffffffffffffffff1673ffffffffffffffffffffffffffffffffffffffff16815260200190815260200160002060006101000a81548160ff02191690831515021790555060058460400160007f6c505cb2db6644f57b42d87bd9407b0f66788b07d0617a2bc1356a0e69e66f9a60001b8152602001908152602001600020541415612ffc57612ffb848484610843565b5b50505050565b60008360480160008560400160007f969ea04b74d02bb4d9e6e8e57236e1b9ca31627139ae9f0e465249932e82450260001b81526020019081526020016000205481526020019081526020016000209050600061309b6104b08660400160007f97e6eb29f6a85471f7cc9b57f9e4c3deaf398cfc9798673160d7798baf0b13a460001b8152602001908152602001600020544203614d91565b905060008560400160007fb12aff7664b16cb99339be399b863feecd64d14817be7e1f042f97e3f358e64e60001b8152602001908152602001600020549050610fa0828760400160007fad16221efc80aaf1b7e69bd3ecb61ba5ffa539adf129c3b4ffff769c9b5bbc3360001b8152602001908152602001600020540382028161312157fe5b059150600082141561313257600191505b61313f8282016001614daa565b8660400160007fb12aff7664b16cb99339be399b863feecd64d14817be7e1f042f97e3f358e64e60001b8152602001908152602001600020819055506000866000015490506000603c428161319057fe5b0642039050808860400160007f97e6eb29f6a85471f7cc9b57f9e4c3deaf398cfc9798673160d7798baf0b13a460001b8152602001908152602001600020819055506131da615446565b60008090505b600581101561362e576000600190505b600581101561343e576000886009016000848152602001908152602001600020826005811061321b57fe5b015490506000896008016000858152602001908152602001600020836005811061324157fe5b0160009054906101000a900473ffffffffffffffffffffffffffffffffffffffff16905060008390505b60008111801561329e57508a6009016000868152602001908152602001600020600182036005811061329957fe5b015483105b1561339f578a600901600086815260200190815260200160002060018203600581106132c657fe5b01548b600901600087815260200190815260200160002082600581106132e857fe5b01819055508a6008016000868152602001908152602001600020600182036005811061331057fe5b0160009054906101000a900473ffffffffffffffffffffffffffffffffffffffff168b6008016000878152602001908152602001600020826005811061335257fe5b0160006101000a81548173ffffffffffffffffffffffffffffffffffffffff021916908373ffffffffffffffffffffffffffffffffffffffff16021790555080806001900391505061326b565b8381101561342e57828b600901600087815260200190815260200160002082600581106133c857fe5b0181905550818b600801600087815260200190815260200160002082600581106133ee57fe5b0160006101000a81548173ffffffffffffffffffffffffffffffffffffffff021916908373ffffffffffffffffffffffffffffffffffffffff1602179055505b50505080806001019150506131f0565b5060008a60480160008a846005811061345357fe5b6020020151815260200190815260200160002090508760090160008381526020019081526020016000206005806020026040519081016040528092919082600580156134b4576020028201915b8154815260200190600101908083116134a0575b50505050509250826002600581106134c857fe5b60200201518160060160008681526020019081526020016000208190555087600801600083815260200190815260200160002081600801600086815260200190815260200160002090600561351e929190615468565b508760090160008381526020019081526020016000208160090160008681526020019081526020016000209060056135579291906154a5565b50876008016000838152602001908152602001600020600061357991906154e2565b876009016000838152602001908152602001600020600061359a9190615505565b80600301849080600181540180825580915050906001820390600052602060002001600090919290919091505550438160050160008681526020019081526020016000208190555060008160040160007f2a9e355a92978430eca9c1aa3a9ba590094bac282594bccf82de16b83046e2c360001b8152602001908152602001600020819055505080806001019150506131e0565b50827fbeb3b9f46c8d7bb00c873fca10d307538df350866d25f891ffb395147ddbdc458884848d60400160007fdb21f0c4accc4f2f5f1045353763a9ffe7091ceaf0fcceb5831858d96cf8463160001b8152602001908152602001600020546040518085600560200280838360005b838110156136b857808201518184015260208101905061369d565b5050505090500184815260200183600560200280838360005b838110156136ec5780820151818401526020810190506136d1565b5050505090500182815260200194505050505060405180910390a28660006005811061371457fe5b6020020151896042016000848152602001908152602001600020819055508860340182908060018154018082558091505090600182039060005260206000200160009091929091909150555060008960400160007f9b6853911475b07474368644a0d922ee13bc76a15cd3e97d3e334326424a47d460001b8152602001908152602001600020549050809250670de0b6b3a764000081111561382057670de0b6b3a7640000650debc7902de38202816137c957fe5b0481039050606460328202816137db57fe5b048a60400160007f8fe9ded8d7c08f720cf0340699024f83522ea66b2bbfb8f557851cb9ee63b54c60001b81526020019081526020016000208190555080925061382c565b670de0b6b3a764000092505b828a60400160007f9b6853911475b07474368644a0d922ee13bc76a15cd3e97d3e334326424a47d460001b81526020019081526020016000208190555082905060008a60400160007f8fe9ded8d7c08f720cf0340699024f83522ea66b2bbfb8f557851cb9ee63b54c60001b81526020019081526020016000205490508a60400160007fd26d9834adf5a73309c4974bf654850bb699df8505e70d4cfde365c417b19dfc60001b815260200190815260200160002054600583028201038b60400160007fb1557182e4359a1f0c6301278e8f5b35a776ab58d39892581e357578fb28783660001b81526020019081526020016000206000828254019250508190555073__v2TellorTransfer______________________63c0b0c21b8c308e603f0160007f9dbc393ddc18fd27b1d9b1b129059925688d2f2d5818a5ec3ebb750b7c286ea660001b815260200190815260200160002060009054906101000a900473ffffffffffffffffffffffffffffffffffffffff16856040518563ffffffff1660e01b8152600401808581526020018473ffffffffffffffffffffffffffffffffffffffff1673ffffffffffffffffffffffffffffffffffffffff1681526020018373ffffffffffffffffffffffffffffffffffffffff1673ffffffffffffffffffffffffffffffffffffffff16815260200182815260200194505050505060006040518083038186803b158015613a4557600080fd5b505af4158015613a59573d6000803e3d6000fd5b505050508a60400160007f969ea04b74d02bb4d9e6e8e57236e1b9ca31627139ae9f0e465249932e82450260001b81526020019081526020016000206000815480929190600101919050555060008b60400160007fd26d9834adf5a73309c4974bf654850bb699df8505e70d4cfde365c417b19dfc60001b815260200190815260200160002081905550613aeb615446565b613af48c614e6b565b905060008090505b6005811015613c5157818160058110613b1157fe5b60200201518d6035018260058110613b2557fe5b600202016000018190555060008d6001018e6048016000858560058110613b4857fe5b6020020151815260200190815260200160002060040160007f1e344bd070f05f1c5b3f0b1266f4f20d837a0a8190a3a2da8b0375eac2ba86ea60001b81526020019081526020016000205460338110613b9d57fe5b01819055508c6048016000838360058110613bb457fe5b6020020151815260200190815260200160002060040160007f2a9e355a92978430eca9c1aa3a9ba590094bac282594bccf82de16b83046e2c360001b8152602001908152602001600020548d60400160007fd26d9834adf5a73309c4974bf654850bb699df8505e70d4cfde365c417b19dfc60001b8152602001908152602001600020600082825401925050819055508080600101915050613afc565b508a8660014303406040516020018080602001848152602001838152602001828103825285818151815260200191508051906020019080838360005b83811015613ca8578082015181840152602081019050613c8d565b50505050905090810190601f168015613cd55780820380516001836020036101000a031916815260200191505b50945050505050604051602081830303815290604052805190602001209550858c60000181905550857f1d85ce10456e29b67de37887496d3f1fcf1b64c79c4d07484038703a9f5c1408828e60400160007fb12aff7664b16cb99339be399b863feecd64d14817be7e1f042f97e3f358e64e60001b8152602001908152602001600020548f60400160007fd26d9834adf5a73309c4974bf654850bb699df8505e70d4cfde365c417b19dfc60001b8152602001908152602001600020546040518084600560200280838360005b83811015613dbd578082015181840152602081019050613da2565b50505050905001838152602001828152602001935050505060405180910390a2505050505050505050505050565b600033604051602001808273ffffffffffffffffffffffffffffffffffffffff1673ffffffffffffffffffffffffffffffffffffffff16815260200191505060405160208183030381529060405280519060200120905060018660470160003373ffffffffffffffffffffffffffffffffffffffff1673ffffffffffffffffffffffffffffffffffffffff1681526020019081526020016000206000015414613efc576040517f08c379a000000000000000000000000000000000000000000000000000000000815260040180806020018281038252601a8152602001807f4d696e657220737461747573206973206e6f74207374616b657200000000000081525060200191505060405180910390fd5b61038486604001600083815260200190815260200160002054420311613f6d576040517f08c379a000000000000000000000000000000000000000000000000000000000815260040180806020018281038252602a8152602001806155c1602a913960400191505060405180910390fd5b85603501600060058110613f7d57fe5b600202016000015483600060058110613f9257fe5b60200201351461400a576040517f08c379a00000000000000000000000000000000000000000000000000000000081526004018080602001828103825260138152602001807f526571756573742049442069732077726f6e670000000000000000000000000081525060200191505060405180910390fd5b8560350160016005811061401a57fe5b60020201600001548360016005811061402f57fe5b6020020135146140a7576040517f08c379a00000000000000000000000000000000000000000000000000000000081526004018080602001828103825260138152602001807f526571756573742049442069732077726f6e670000000000000000000000000081525060200191505060405180910390fd5b856035016002600581106140b757fe5b6002020160000154836002600581106140cc57fe5b602002013514614144576040517f08c379a00000000000000000000000000000000000000000000000000000000081526004018080602001828103825260138152602001807f526571756573742049442069732077726f6e670000000000000000000000000081525060200191505060405180910390fd5b8560350160036005811061415457fe5b60020201600001548360036005811061416957fe5b6020020135146141e1576040517f08c379a00000000000000000000000000000000000000000000000000000000081526004018080602001828103825260138152602001807f526571756573742049442069732077726f6e670000000000000000000000000081525060200191505060405180910390fd5b856035016004600581106141f157fe5b60020201600001548360046005811061420657fe5b60200201351461427e576040517f08c379a00000000000000000000000000000000000000000000000000000000081526004018080602001828103825260138152602001807f526571756573742049442069732077726f6e670000000000000000000000000081525060200191505060405180910390fd5b428660400160008381526020019081526020016000208190555060008660000154905060008760400160007f6c505cb2db6644f57b42d87bd9407b0f66788b07d0617a2bc1356a0e69e66f9a60001b815260200190815260200160002054905060008860400160007fb12aff7664b16cb99339be399b863feecd64d14817be7e1f042f97e3f358e64e60001b8152602001908152602001600020546002600385338c8c604051602001808581526020018473ffffffffffffffffffffffffffffffffffffffff1673ffffffffffffffffffffffffffffffffffffffff1660601b81526014018383808284378083019250505094505050505060405160208183030381529060405280519060200120604051602001808281526020019150506040516020818303038152906040526040518082805190602001908083835b602083106143de57805182526020820191506020810190506020830392506143bb565b6001836020036101000a038019825116818451168082178552505050505050905001915050602060405180830381855afa158015614420573d6000803e3d6000fd5b5050506040515160601b60405160200180826bffffffffffffffffffffffff19166bffffffffffffffffffffffff191681526014019150506040516020818303038152906040526040518082805190602001908083835b6020831061449a5780518252602082019150602081019050602083039250614477565b6001836020036101000a038019825116818451168082178552505050505050905001915050602060405180830381855afa1580156144dc573d6000803e3d6000fd5b5050506040513d60208110156144f157600080fd5b810190808051906020019092919050505060001c8161450c57fe5b06148061456157506103848860400160007f97e6eb29f6a85471f7cc9b57f9e4c3deaf398cfc9798673160d7798baf0b13a460001b815260200190815260200160002054603c428161455a57fe5b0642030310155b6145b6576040517f08c379a000000000000000000000000000000000000000000000000000000000815260040180806020018281038252602581526020018061560c6025913960400191505060405180910390fd5b6000151588604101600084815260200190815260200160002060003373ffffffffffffffffffffffffffffffffffffffff1673ffffffffffffffffffffffffffffffffffffffff16815260200190815260200160002060009054906101000a900460ff16151514614672576040517f08c379a00000000000000000000000000000000000000000000000000000000081526004018080602001828103825260218152602001806155eb6021913960400191505060405180910390fd5b600188604101600084815260200190815260200160002060003373ffffffffffffffffffffffffffffffffffffffff1673ffffffffffffffffffffffffffffffffffffffff16815260200190815260200160002060006101000a81548160ff02191690831515021790555060008860480160008a60400160007f969ea04b74d02bb4d9e6e8e57236e1b9ca31627139ae9f0e465249932e82450260001b815260200190815260200160002054815260200190815260200160002090503381600801600060018152602001908152602001600020836005811061475057fe5b0160006101000a81548173ffffffffffffffffffffffffffffffffffffffff021916908373ffffffffffffffffffffffffffffffffffffffff1602179055508460006005811061479c57fe5b602002013581600901600080815260200190815260200160002083600581106147c157fe5b0181905550846001600581106147d357fe5b60200201358160090160006001815260200190815260200160002083600581106147f957fe5b01819055508460026005811061480b57fe5b602002013581600901600060028152602001908152602001600020836005811061483157fe5b01819055508460036005811061484357fe5b602002013581600901600060038152602001908152602001600020836005811061486957fe5b01819055508460046005811061487b57fe5b60200201358160090160006004815260200190815260200160002083600581106148a157fe5b0181905550338160080160008081526020019081526020016000208a60400160007f6c505cb2db6644f57b42d87bd9407b0f66788b07d0617a2bc1356a0e69e66f9a60001b815260200190815260200160002054600581106148ff57fe5b0160006101000a81548173ffffffffffffffffffffffffffffffffffffffff021916908373ffffffffffffffffffffffffffffffffffffffff16021790555033816008016000600181526020019081526020016000208a60400160007f6c505cb2db6644f57b42d87bd9407b0f66788b07d0617a2bc1356a0e69e66f9a60001b8152602001908152602001600020546005811061499857fe5b0160006101000a81548173ffffffffffffffffffffffffffffffffffffffff021916908373ffffffffffffffffffffffffffffffffffffffff16021790555033816008016000600281526020019081526020016000208a60400160007f6c505cb2db6644f57b42d87bd9407b0f66788b07d0617a2bc1356a0e69e66f9a60001b81526020019081526020016000205460058110614a3157fe5b0160006101000a81548173ffffffffffffffffffffffffffffffffffffffff021916908373ffffffffffffffffffffffffffffffffffffffff16021790555033816008016000600381526020019081526020016000208a60400160007f6c505cb2db6644f57b42d87bd9407b0f66788b07d0617a2bc1356a0e69e66f9a60001b81526020019081526020016000205460058110614aca57fe5b0160006101000a81548173ffffffffffffffffffffffffffffffffffffffff021916908373ffffffffffffffffffffffffffffffffffffffff16021790555033816008016000600481526020019081526020016000208a60400160007f6c505cb2db6644f57b42d87bd9407b0f66788b07d0617a2bc1356a0e69e66f9a60001b81526020019081526020016000205460058110614b6357fe5b0160006101000a81548173ffffffffffffffffffffffffffffffffffffffff021916908373ffffffffffffffffffffffffffffffffffffffff160217905550614bac8983614f7f565b8860400160007f6c505cb2db6644f57b42d87bd9407b0f66788b07d0617a2bc1356a0e69e66f9a60001b8152602001908152602001600020600081548092919060010191905055506005600183011415614cc557614c868989898080601f016020809104026020016040519081016040528093929190818152602001838380828437600081840152601f19601f82011690508083019250505050505050886005806020026040519081016040528092919082600560200280828437600081840152601f19601f820116905080830192505050505050613002565b60008960400160007f6c505cb2db6644f57b42d87bd9407b0f66788b07d0617a2bc1356a0e69e66f9a60001b8152602001908152602001600020819055505b823373ffffffffffffffffffffffffffffffffffffffff167f0e4e65dc389613b6884b7f8c615e54fd3b894fbbbc534c990037744eea9420008a8a8a8a604051808060200184600560200280828437600081840152601f19601f82011690508083019250505083600560200280828437600081840152601f19601f8201169050808301925050508281038252868682818152602001925080828437600081840152601f19601f8201169050808301925050509550505050505060405180910390a3505050505050505050565b6000818310614da05781614da2565b825b905092915050565b6000818313614db95781614dbb565b825b905092915050565b6000818311614dd25781614dd4565b825b905092915050565b600080828401905083811015614dee57fe5b8091505092915050565b60008060016033039050828160338110614e0e57fe5b602002015191506000600260330390505b6000811115614e655782848260338110614e3557fe5b60200201511015614e5757838160338110614e4c57fe5b602002015192508091505b808060019003915050614e1f565b50915091565b614e73615446565b614e7b615446565b614e83615446565b614ecb84600101603380602002604051908101604052809291908260338015614ec1576020028201915b815481526020019060010190808311614ead575b50505050506151ca565b809250819350505060008090505b6005811015614f77576000838260058110614ef057fe5b602002015114614f3a57846043016000838360058110614f0c57fe5b6020020151815260200190815260200160002054848260058110614f2c57fe5b602002018181525050614f6a565b846035018160040360058110614f4c57fe5b6002020160000154848260058110614f6057fe5b6020020181815250505b8080600101915050614ed9565b505050919050565b60008260400160007fdb21f0c4accc4f2f5f1045353763a9ffe7091ceaf0fcceb5831858d96cf8463160001b815260200190815260200160002054905060008360400160007fd26d9834adf5a73309c4974bf654850bb699df8505e70d4cfde365c417b19dfc60001b8152602001908152602001600020549050600083141561504357809150808460400160007fdb21f0c4accc4f2f5f1045353763a9ffe7091ceaf0fcceb5831858d96cf8463160001b8152602001908152602001600020819055505b6000836005038383038161505357fe5b04905073__v2TellorTransfer______________________63c0b0c21b86303385600560028a8161508057fe5b048161508857fe5b048b60400160007f9b6853911475b07474368644a0d922ee13bc76a15cd3e97d3e334326424a47d460001b81526020019081526020016000205401016040518563ffffffff1660e01b8152600401808581526020018473ffffffffffffffffffffffffffffffffffffffff1673ffffffffffffffffffffffffffffffffffffffff1681526020018373ffffffffffffffffffffffffffffffffffffffff1673ffffffffffffffffffffffffffffffffffffffff16815260200182815260200194505050505060006040518083038186803b15801561516557600080fd5b505af4158015615179573d6000803e3d6000fd5b50505050808560400160007fd26d9834adf5a73309c4974bf654850bb699df8505e70d4cfde365c417b19dfc60001b8152602001908152602001600020600082825403925050819055505050505050565b6151d2615446565b6151da615446565b6000836001603381106151e957fe5b60200201519050600080905060008090505b60058110156152825785600182016033811061521357fe5b602002015185826005811061522457fe5b6020020181815250506001810184826005811061523d57fe5b6020020181815250508285826005811061525357fe5b602002015110156152755784816005811061526a57fe5b602002015192508091505b80806001019150506151fb565b506000600690505b603381101561535457828682603381106152a057fe5b60200201511115615347578581603381106152b757fe5b60200201518583600581106152c857fe5b602002018181525050808483600581106152de57fe5b6020020181815250508581603381106152f357fe5b6020020151925060008090505b6005811015615345578386826005811061531657fe5b602002015110156153385785816005811061532d57fe5b602002015193508092505b8080600101915050615300565b505b808060010191505061528a565b505050915091565b6040518060a001604052806005905b615373615528565b81526020019060019003908161536b5790505090565b82600581019282156153f5579160200282015b828111156153f45782518260006101000a81548173ffffffffffffffffffffffffffffffffffffffff021916908373ffffffffffffffffffffffffffffffffffffffff1602179055509160200191906001019061539c565b5b5090506154029190615558565b5090565b8260058101928215615435579160200282015b82811115615434578251825591602001919060010190615419565b5b509050615442919061559b565b5090565b6040518060a00160405280600590602082028038833980820191505090505090565b8260058101928215615494579182015b82811115615493578254825591600101919060010190615478565b5b5090506154a19190615558565b5090565b82600581019282156154d1579182015b828111156154d05782548255916001019190600101906154b5565b5b5090506154de919061559b565b5090565b506000815560010160008155600101600081556001016000815560010160009055565b506000815560010160008155600101600081556001016000815560010160009055565b604051806040016040528060008152602001600073ffffffffffffffffffffffffffffffffffffffff1681525090565b61559891905b8082111561559457600081816101000a81549073ffffffffffffffffffffffffffffffffffffffff02191690555060010161555e565b5090565b90565b6155bd91905b808211156155b95760008160009055506001016155a1565b5090565b9056fe4d696e65722063616e206f6e6c792077696e2072657761726473206f6e636520706572203135206d696e4d696e657220616c7265616479207375626d6974746564207468652076616c7565496e636f7272656374206e6f6e636520666f722063757272656e74206368616c6c656e6765436f6e7472616374206861732075706772616465642c2063616c6c206e65772066756e6374696f6ea265627a7a723158205d1a77ddaf2a3318f7d1fa695c4acccdd54a84ac026b248954bd62f86bdd057064736f6c63430005100032",
  "source": "pragma solidity ^0.5.16;\r\n\r\n\r\nimport \"./v2SafeMath.sol\";\r\nimport \"./v2Utilities.sol\";\r\nimport \"./v2TellorStorage.sol\";\r\nimport \"./v2TellorTransfer.sol\";\r\nimport \"./v2TellorDispute.sol\";\r\nimport \"./v2TellorStake.sol\";\r\nimport \"./v2TellorGettersLibrary.sol\";\r\n\r\n/**\r\n * @title Tellor Oracle System Library\r\n * @dev Contains the functions' logic for the Tellor contract where miners can submit the proof of work\r\n * along with the value and smart contracts can requestData and tip miners.\r\n */\r\nlibrary v2TellorLibrary {\r\n    using v2SafeMath for uint256;\r\n\r\n    bytes32 public constant requestCount = 0x05de9147d05477c0a5dc675aeea733157f5092f82add148cf39d579cafe3dc98; //keccak256(\"requestCount\")\r\n    bytes32 public constant totalTip = 0x2a9e355a92978430eca9c1aa3a9ba590094bac282594bccf82de16b83046e2c3; //keccak256(\"totalTip\")\r\n    bytes32 public constant _tBlock = 0x969ea04b74d02bb4d9e6e8e57236e1b9ca31627139ae9f0e465249932e824502; //keccak256(\"_tBlock\")\r\n    bytes32 public constant timeOfLastNewValue = 0x97e6eb29f6a85471f7cc9b57f9e4c3deaf398cfc9798673160d7798baf0b13a4; //keccak256(\"timeOfLastNewValue\")\r\n    bytes32 public constant difficulty = 0xb12aff7664b16cb99339be399b863feecd64d14817be7e1f042f97e3f358e64e; //keccak256(\"difficulty\")\r\n    bytes32 public constant timeTarget = 0xad16221efc80aaf1b7e69bd3ecb61ba5ffa539adf129c3b4ffff769c9b5bbc33; //keccak256(\"timeTarget\")\r\n    bytes32 public constant runningTips = 0xdb21f0c4accc4f2f5f1045353763a9ffe7091ceaf0fcceb5831858d96cf84631; //keccak256(\"runningTips\")\r\n    bytes32 public constant currentReward = 0x9b6853911475b07474368644a0d922ee13bc76a15cd3e97d3e334326424a47d4; //keccak256(\"currentReward\")\r\n    bytes32 public constant total_supply = 0xb1557182e4359a1f0c6301278e8f5b35a776ab58d39892581e357578fb287836; //keccak256(\"total_supply\")\r\n    bytes32 public constant devShare = 0x8fe9ded8d7c08f720cf0340699024f83522ea66b2bbfb8f557851cb9ee63b54c; //keccak256(\"devShare\")\r\n    bytes32 public constant _owner =  0x9dbc393ddc18fd27b1d9b1b129059925688d2f2d5818a5ec3ebb750b7c286ea6; //keccak256(\"_owner\")\r\n    bytes32 public constant requestQPosition = 0x1e344bd070f05f1c5b3f0b1266f4f20d837a0a8190a3a2da8b0375eac2ba86ea; //keccak256(\"requestQPosition\")\r\n    bytes32 public constant currentTotalTips = 0xd26d9834adf5a73309c4974bf654850bb699df8505e70d4cfde365c417b19dfc; //keccak256(\"currentTotalTips\")\r\n    bytes32 public constant slotProgress =0x6c505cb2db6644f57b42d87bd9407b0f66788b07d0617a2bc1356a0e69e66f9a; //keccak256(\"slotProgress\")\r\n    bytes32 public constant pending_owner = 0x44b2657a0f8a90ed8e62f4c4cceca06eacaa9b4b25751ae1ebca9280a70abd68; //keccak256(\"pending_owner\")\r\n    bytes32 public constant currentRequestId = 0x7584d7d8701714da9c117f5bf30af73b0b88aca5338a84a21eb28de2fe0d93b8; //keccak256(\"currentRequestId\")\r\n\r\n\r\n    event TipAdded(address indexed _sender, uint256 indexed _requestId, uint256 _tip, uint256 _totalTips);\r\n    //emits when a new challenge is created (either on mined block or when a new request is pushed forward on waiting system)\r\n    event NewChallenge(\r\n        bytes32 indexed _currentChallenge,\r\n        uint256[5] _currentRequestId,\r\n        uint256 _difficulty,\r\n        uint256 _totalTips\r\n    );\r\n    //Emits upon a successful Mine, indicates the blocktime at point of the mine and the value mined\r\n    event NewValue(uint256[5] _requestId, uint256 _time, uint256[5] _value, uint256 _totalTips, bytes32 indexed _currentChallenge);\r\n    //Emits upon each mine (5 total) and shows the miner, nonce, and value submitted\r\n    event NonceSubmitted(address indexed _miner, string _nonce, uint256[5] _requestId, uint256[5] _value, bytes32 indexed _currentChallenge);\r\n    event OwnershipTransferred(address indexed _previousOwner, address indexed _newOwner);\r\n    event OwnershipProposed(address indexed _previousOwner, address indexed _newOwner);\r\n\r\n    /*Functions*/\r\n    /**\r\n    * @dev Add tip to Request value from oracle\r\n    * @param _requestId being requested to be mined\r\n    * @param _tip amount the requester is willing to pay to be get on queue. Miners\r\n    * mine the onDeckQueryHash, or the api with the highest payout pool\r\n    */\r\n    function addTip(v2TellorStorage.TellorStorageStruct storage self, uint256 _requestId, uint256 _tip) public {\r\n        require(_requestId != 0, \"RequestId is 0\");\r\n        require(_tip != 0, \"Tip should be greater than 0\");\r\n        uint256 _count =self.uintVars[requestCount] + 1;\r\n        if(_requestId == _count){\r\n            self.uintVars[requestCount] = _count;\r\n        }\r\n        else{\r\n            require(_requestId < _count, \"RequestId is not less than count\");\r\n        }\r\n        v2TellorTransfer.doTransfer(self, msg.sender, address(this), _tip);\r\n        //Update the information for the request that should be mined next based on the tip submitted\r\n        updateOnDeck(self, _requestId, _tip);\r\n        emit TipAdded(msg.sender, _requestId, _tip, self.requestDetails[_requestId].apiUintVars[totalTip]);\r\n    }\r\n\r\n   /**\r\n    * @dev This function is called by submitMiningSolution and adjusts the difficulty, sorts and stores the first\r\n    * 5 values received, pays the miners, the dev share and assigns a new challenge\r\n    * @param _nonce or solution for the PoW  for the requestId\r\n    * @param _requestId for the current request being mined\r\n    */\r\n    function newBlock(v2TellorStorage.TellorStorageStruct storage self, string memory _nonce, uint256[5] memory _requestId) public {\r\n        v2TellorStorage.Request storage _tblock = self.requestDetails[self.uintVars[_tBlock]];\r\n        // If the difference between the timeTarget and how long it takes to solve the challenge this updates the challenge\r\n        //difficulty up or donw by the difference between the target time and how long it took to solve the previous challenge\r\n        //otherwise it sets it to 1\r\n        int256 _change = int256(v2SafeMath.min(1200, (now - self.uintVars[timeOfLastNewValue])));\r\n        int256 _diff = int256(self.uintVars[difficulty]);\r\n        _change = (_diff * (int256(self.uintVars[timeTarget]) - _change)) / 4000;\r\n        if (_change == 0) {\r\n                _change = 1;\r\n            }\r\n        self.uintVars[difficulty]  = uint256(v2SafeMath.max(_diff + _change,1));\r\n        //Sets time of value submission rounded to 1 minute\r\n        bytes32 _currChallenge = self.currentChallenge;\r\n        uint256 _timeOfLastNewValue = now - (now % 1 minutes);\r\n        self.uintVars[timeOfLastNewValue] = _timeOfLastNewValue;\r\n        uint[5] memory a; \r\n        for (uint k = 0; k < 5; k++) {\r\n            for (uint i = 1; i < 5; i++) {\r\n                uint256 temp = _tblock.valuesByTimestamp[k][i];\r\n                address temp2 = _tblock.minersByValue[k][i];\r\n                uint256 j = i;\r\n                while (j > 0 && temp < _tblock.valuesByTimestamp[k][j - 1]) {\r\n                    _tblock.valuesByTimestamp[k][j] = _tblock.valuesByTimestamp[k][j - 1];\r\n                    _tblock.minersByValue[k][j] = _tblock.minersByValue[k][j - 1];\r\n                    j--;\r\n                }\r\n                if (j < i) {\r\n                    _tblock.valuesByTimestamp[k][j] = temp;\r\n                    _tblock.minersByValue[k][j] = temp2;\r\n                }\r\n            }\r\n            v2TellorStorage.Request storage _request = self.requestDetails[_requestId[k]];\r\n            //Save the official(finalValue), timestamp of it, 5 miners and their submitted values for it, and its block number\r\n            a = _tblock.valuesByTimestamp[k];\r\n            _request.finalValues[_timeOfLastNewValue] = a[2];\r\n            _request.minersByValue[_timeOfLastNewValue] = _tblock.minersByValue[k];\r\n            _request.valuesByTimestamp[_timeOfLastNewValue] = _tblock.valuesByTimestamp[k];\r\n            delete _tblock.minersByValue[k];\r\n            delete _tblock.valuesByTimestamp[k];\r\n            _request.requestTimestamps.push(_timeOfLastNewValue);\r\n            _request.minedBlockNum[_timeOfLastNewValue] = block.number;\r\n            _request.apiUintVars[totalTip] = 0;\r\n        }\r\n            emit NewValue(\r\n                _requestId,\r\n                _timeOfLastNewValue,\r\n                a,\r\n                self.uintVars[runningTips],\r\n                _currChallenge\r\n            );\r\n        //map the timeOfLastValue to the requestId that was just mined\r\n        self.requestIdByTimestamp[_timeOfLastNewValue] = _requestId[0];\r\n        //add timeOfLastValue to the newValueTimestamps array\r\n        self.newValueTimestamps.push(_timeOfLastNewValue);\r\n\r\n        uint _currReward = self.uintVars[currentReward];\r\n        //WARNING Reusing _timeOfLastNewValue to avoid stack too deep\r\n        _timeOfLastNewValue = _currReward; \r\n        if (_currReward > 1e18) {\r\n            //These number represent the inflation adjustement that started in 03/2019\r\n            _currReward = _currReward - _currReward *  15306316590563/1e18; \r\n            self.uintVars[devShare] = _currReward * 50/100;\r\n            _timeOfLastNewValue = _currReward;\r\n        } else {\r\n            _timeOfLastNewValue = 1e18;\r\n        }\r\n        self.uintVars[currentReward] = _timeOfLastNewValue;\r\n        _currReward = _timeOfLastNewValue;\r\n        uint _devShare = self.uintVars[devShare]; \r\n        //update the total supply\r\n        self.uintVars[total_supply] +=  _devShare + _currReward*5 - (self.uintVars[currentTotalTips]);\r\n        v2TellorTransfer.doTransfer(self, address(this), self.addressVars[_owner],  _devShare);\r\n        self.uintVars[_tBlock] ++;\r\n        self.uintVars[currentTotalTips] = 0;\r\n        uint256[5] memory _topId = v2TellorStake.getTopRequestIDs(self);\r\n        for(uint i = 0; i< 5;i++){\r\n            self.currentMiners[i].value = _topId[i];\r\n            self.requestQ[self.requestDetails[_topId[i]].apiUintVars[requestQPosition]] = 0;\r\n            self.uintVars[currentTotalTips] += self.requestDetails[_topId[i]].apiUintVars[totalTip];\r\n        }\r\n        //Issue the the next challenge\r\n       \r\n        _currChallenge = keccak256(abi.encode(_nonce, _currChallenge, blockhash(block.number - 1)));\r\n        self.currentChallenge = _currChallenge; // Save hash for next proof\r\n        emit NewChallenge(\r\n            _currChallenge,\r\n            _topId,\r\n            self.uintVars[difficulty],\r\n            self.uintVars[currentTotalTips]\r\n        );\r\n    }\r\n\r\n/**\r\n    * @dev This function is called by submitMiningSolution and adjusts the difficulty, sorts and stores the first\r\n    * 5 values received, pays the miners, the dev share and assigns a new challenge\r\n    * @param _nonce or solution for the PoW  for the requestId\r\n    * @param _requestId for the current request being mined\r\n    */\r\n    function newBlock(v2TellorStorage.TellorStorageStruct storage self, string memory _nonce, uint256 _requestId) public {\r\n        v2TellorStorage.Request storage _request = self.requestDetails[_requestId];\r\n\r\n        // If the difference between the timeTarget and how long it takes to solve the challenge this updates the challenge\r\n        //difficulty up or donw by the difference between the target time and how long it took to solve the prevous challenge\r\n        //otherwise it sets it to 1\r\n        int256 _change = int256(v2SafeMath.min(1200, (now - self.uintVars[timeOfLastNewValue])));\r\n       int256 _diff = int256(self.uintVars[difficulty]);\r\n        _change = (_diff * (int256(self.uintVars[timeTarget]) - _change)) / 4000;\r\n        \r\n        if (_change == 0) {\r\n                _change = 1;\r\n            }\r\n        self.uintVars[difficulty]  = uint256(v2SafeMath.max(_diff+ _change,1));\r\n        //Sets time of value submission rounded to 1 minute\r\n        uint256 _timeOfLastNewValue = now - (now % 1 minutes);\r\n        self.uintVars[timeOfLastNewValue] = _timeOfLastNewValue;\r\n\r\n        //The sorting algorithm that sorts the values of the first five values that come in\r\n        v2TellorStorage.Details[5] memory a = self.currentMiners;\r\n        uint256 i;\r\n        for (i = 1; i < 5; i++) {\r\n            uint256 temp = a[i].value;\r\n            address temp2 = a[i].miner;\r\n            uint256 j = i;\r\n            while (j > 0 && temp < a[j - 1].value) {\r\n                a[j].value = a[j - 1].value;\r\n                a[j].miner = a[j - 1].miner;\r\n                j--;\r\n            }\r\n            if (j < i) {\r\n                a[j].value = temp;\r\n                a[j].miner = temp2;\r\n            }\r\n        }\r\n\r\n        //Pay the miners \r\n        //adjust by payout = payout * ratio 0.000030612633181126/1e18  \r\n        if(self.uintVars[currentReward] == 0){\r\n            self.uintVars[currentReward] = 5e18;\r\n        }\r\n        if (self.uintVars[currentReward] > 1e18) {\r\n        self.uintVars[currentReward] = self.uintVars[currentReward] - self.uintVars[currentReward] * 30612633181126/1e18; \r\n        self.uintVars[devShare] = self.uintVars[currentReward] * 50/100;\r\n        } else {\r\n            self.uintVars[currentReward] = 1e18;\r\n        }\r\n        for (i = 0; i < 5; i++) {\r\n            v2TellorTransfer.doTransfer(self, address(this), a[i].miner, self.uintVars[currentReward]  + self.uintVars[currentTotalTips] / 5);\r\n        }\r\n        //update the total supply\r\n        self.uintVars[total_supply] +=  self.uintVars[devShare] + self.uintVars[currentReward]*5 ;\r\n        //pay the dev-share\r\n        v2TellorTransfer.doTransfer(self, address(this), self.addressVars[_owner],  self.uintVars[devShare]);\r\n        //Save the official(finalValue), timestamp of it, 5 miners and their submitted values for it, and its block number\r\n        _request.finalValues[_timeOfLastNewValue] = a[2].value;\r\n        _request.requestTimestamps.push(_timeOfLastNewValue);\r\n        //these are miners by timestamp\r\n        _request.minersByValue[_timeOfLastNewValue] = [a[0].miner, a[1].miner, a[2].miner, a[3].miner, a[4].miner];\r\n        _request.valuesByTimestamp[_timeOfLastNewValue] = [a[0].value, a[1].value, a[2].value, a[3].value, a[4].value];\r\n        _request.minedBlockNum[_timeOfLastNewValue] = block.number;\r\n        //map the timeOfLastValue to the requestId that was just mined\r\n        self.requestIdByTimestamp[_timeOfLastNewValue] = _requestId;\r\n        //add timeOfLastValue to the newValueTimestamps array\r\n        self.newValueTimestamps.push(_timeOfLastNewValue);\r\n        //re-start the count for the slot progress to zero before the new request mining starts\r\n        self.uintVars[slotProgress] = 0;\r\n\r\n\r\n        \r\n        if(self.uintVars[timeTarget] == 600){\r\n            self.uintVars[timeTarget] = 300;\r\n            self.uintVars[currentReward] = self.uintVars[currentReward]/2;\r\n            self.uintVars[_tBlock] = 1e18;\r\n            self.uintVars[difficulty] = v2SafeMath.max(1,self.uintVars[difficulty]/3);\r\n        }\r\n        for(i = 0; i< 5;i++){\r\n            self.currentMiners[i].value = i+1;\r\n            self.requestQ[self.requestDetails[i+1].apiUintVars[requestQPosition]] = 0;\r\n            self.uintVars[currentTotalTips] += self.requestDetails[i+1].apiUintVars[totalTip];\r\n        }\r\n        self.currentChallenge = keccak256(abi.encode(_nonce, self.currentChallenge, blockhash(block.number - 1))); // Save hash for next proof\r\n        emit NewChallenge(\r\n            self.currentChallenge,\r\n            [uint256(1),uint256(2),uint256(3),uint256(4),uint256(5)],\r\n            self.uintVars[difficulty],\r\n            self.uintVars[currentTotalTips]\r\n        );\r\n    }\r\n\r\n    /**\r\n    * @dev Proof of work is called by the miner when they submit the solution (proof of work and value)\r\n    * @param _nonce uint submitted by miner\r\n    * @param _requestId the apiId being mined\r\n    * @param _value of api query\r\n    */\r\n    function submitMiningSolution(v2TellorStorage.TellorStorageStruct storage self, string memory _nonce, uint256 _requestId, uint256 _value)\r\n        public\r\n    {\r\n\r\n        require (self.uintVars[timeTarget] == 600, \"Contract has upgraded, call new function\");\r\n        //require miner is staked\r\n        require(self.stakerDetails[msg.sender].currentStatus == 1, \"Miner status is not staker\");\r\n\r\n        //Check the miner is submitting the pow for the current request Id\r\n        require(_requestId == self.uintVars[currentRequestId], \"RequestId is wrong\");\r\n\r\n        //Saving the challenge information as unique by using the msg.sender\r\n        require(\r\n            uint256(\r\n                sha256(abi.encodePacked(ripemd160(abi.encodePacked(keccak256(abi.encodePacked(self.currentChallenge, msg.sender, _nonce))))))\r\n            ) %\r\n                self.uintVars[difficulty] ==\r\n                0,\r\n            \"Incorrect nonce for current challenge\"\r\n        );\r\n\r\n        //Make sure the miner does not submit a value more than once\r\n        require(self.minersByChallenge[self.currentChallenge][msg.sender] == false, \"Miner already submitted the value\");\r\n\r\n        //Save the miner and value received\r\n        self.currentMiners[self.uintVars[slotProgress]].value = _value;\r\n        self.currentMiners[self.uintVars[slotProgress]].miner = msg.sender;\r\n\r\n        //Add to the count how many values have been submitted, since only 5 are taken per request\r\n        self.uintVars[slotProgress]++;\r\n\r\n        //Update the miner status to true once they submit a value so they don't submit more than once\r\n        self.minersByChallenge[self.currentChallenge][msg.sender] = true;\r\n        if (self.uintVars[slotProgress] == 5) {\r\n            newBlock(self, _nonce, _requestId);\r\n        }\r\n    }\r\n\r\n\r\n\r\n\r\n    /**\r\n    * @dev Proof of work is called by the miner when they submit the solution (proof of work and value)\r\n    * @param _nonce uint submitted by miner\r\n    * @param _requestId is the array of the 5 PSR's being mined\r\n    * @param _value is an array of 5 values\r\n    */\r\n    function submitMiningSolution(v2TellorStorage.TellorStorageStruct storage self, string calldata _nonce,uint256[5] calldata _requestId, uint256[5] calldata _value)\r\n        external\r\n    {\r\n        //Verifying Miner Eligibility\r\n        bytes32 _hashMsgSender = keccak256(abi.encode(msg.sender));\r\n        require(self.stakerDetails[msg.sender].currentStatus == 1, \"Miner status is not staker\");\r\n        require(now - self.uintVars[_hashMsgSender] > 15 minutes, \"Miner can only win rewards once per 15 min\");\r\n        require(_requestId[0] ==  self.currentMiners[0].value,\"Request ID is wrong\");\r\n        require(_requestId[1] ==  self.currentMiners[1].value,\"Request ID is wrong\");\r\n        require(_requestId[2] ==  self.currentMiners[2].value,\"Request ID is wrong\");\r\n        require(_requestId[3] ==  self.currentMiners[3].value,\"Request ID is wrong\");\r\n        require(_requestId[4] ==  self.currentMiners[4].value,\"Request ID is wrong\");\r\n        self.uintVars[_hashMsgSender] = now;\r\n\r\n        \r\n        bytes32 _currChallenge = self.currentChallenge;\r\n        uint256 _slotProgress = self.uintVars[slotProgress]; \r\n        //Saving the challenge information as unique by using the msg.sender\r\n        require(uint256(\r\n                sha256(abi.encodePacked(ripemd160(abi.encodePacked(keccak256(abi.encodePacked(_currChallenge, msg.sender, _nonce))))))\r\n            ) %\r\n                self.uintVars[difficulty] == 0\r\n                || (now - (now % 1 minutes)) - self.uintVars[timeOfLastNewValue] >= 15 minutes,\r\n            \"Incorrect nonce for current challenge\"\r\n        );\r\n\r\n        //Checking and updating Miner Status\r\n        require(self.minersByChallenge[_currChallenge][msg.sender] == false, \"Miner already submitted the value\");\r\n        //Update the miner status to true once they submit a value so they don't submit more than once\r\n        self.minersByChallenge[_currChallenge][msg.sender] = true;\r\n\r\n        //Updating Request\r\n        v2TellorStorage.Request storage _tblock = self.requestDetails[self.uintVars[_tBlock]];\r\n        _tblock.minersByValue[1][_slotProgress]= msg.sender; \r\n        //Assigng directly is cheaper than using a for loop\r\n        _tblock.valuesByTimestamp[0][_slotProgress] = _value[0];\r\n        _tblock.valuesByTimestamp[1][_slotProgress] = _value[1];\r\n        _tblock.valuesByTimestamp[2][_slotProgress] = _value[2];\r\n        _tblock.valuesByTimestamp[3][_slotProgress] = _value[3];\r\n        _tblock.valuesByTimestamp[4][_slotProgress] = _value[4];\r\n        _tblock.minersByValue[0][self.uintVars[slotProgress]]= msg.sender;\r\n        _tblock.minersByValue[1][self.uintVars[slotProgress]]= msg.sender;\r\n        _tblock.minersByValue[2][self.uintVars[slotProgress]]= msg.sender;\r\n        _tblock.minersByValue[3][self.uintVars[slotProgress]]= msg.sender;\r\n        _tblock.minersByValue[4][self.uintVars[slotProgress]]= msg.sender;\r\n\r\n        //Internal Function Added to allow for more stack variables\r\n        _payReward(self, _slotProgress);\r\n        self.uintVars[slotProgress]++;\r\n\r\n        //If 5 values have been received, adjust the difficulty otherwise sort the values until 5 are received         \r\n        if (_slotProgress + 1 == 5) { //slotProgress has been incremented, but we're using the variable on stack to save gas\r\n            newBlock(self, _nonce, _requestId);\r\n            self.uintVars[slotProgress] = 0;\r\n        }\r\n        emit NonceSubmitted(msg.sender, _nonce, _requestId, _value, _currChallenge);\r\n    }\r\n     /**\r\n    * @dev Internal function to calculate and pay rewards to miners\r\n    * @param _slotProgress A value indicating which position is this miner is withing the first 5.\r\n    */\r\n    function _payReward(v2TellorStorage.TellorStorageStruct storage self, uint _slotProgress) internal {\r\n        uint _runningTips = self.uintVars[runningTips]; \r\n        uint _currentTotalTips = self.uintVars[currentTotalTips];\r\n        if(_slotProgress == 0){\r\n            _runningTips = _currentTotalTips;\r\n            self.uintVars[runningTips] = _currentTotalTips;\r\n        }\r\n        uint _extraTip = (_currentTotalTips-_runningTips)/(5-_slotProgress);\r\n        v2TellorTransfer.doTransfer(self, address(this), msg.sender, self.uintVars[currentReward]  + _runningTips / 2 / 5 + _extraTip);\r\n        self.uintVars[currentTotalTips] -= _extraTip;\r\n    }\r\n\r\n\r\n    /**\r\n    * @dev Allows the current owner to propose transfer control of the contract to a\r\n    * newOwner and the ownership is pending until the new owner calls the claimOwnership\r\n    * function\r\n    * @param _pendingOwner The address to transfer ownership to.\r\n    */\r\n    function proposeOwnership(v2TellorStorage.TellorStorageStruct storage self, address payable _pendingOwner) public {\r\n        require(msg.sender == self.addressVars[_owner], \"Sender is not owner\");\r\n        emit OwnershipProposed(self.addressVars[_owner], _pendingOwner);\r\n        self.addressVars[pending_owner] = _pendingOwner;\r\n    }\r\n\r\n    /**\r\n    * @dev Allows the new owner to claim control of the contract\r\n    */\r\n    function claimOwnership(v2TellorStorage.TellorStorageStruct storage self) public {\r\n        require(msg.sender == self.addressVars[pending_owner], \"Sender is not pending owner\");\r\n        emit OwnershipTransferred(self.addressVars[_owner], self.addressVars[pending_owner]);\r\n        self.addressVars[_owner] = self.addressVars[pending_owner];\r\n    }\r\n\r\n    /**\r\n    * @dev This function updates APIonQ and the requestQ when requestData or addTip are ran\r\n    * @param _requestId being requested\r\n    * @param _tip is the tip to add\r\n    */\r\n    function updateOnDeck(v2TellorStorage.TellorStorageStruct storage self, uint256 _requestId, uint256 _tip) public {\r\n        v2TellorStorage.Request storage _request = self.requestDetails[_requestId];\r\n        _request.apiUintVars[totalTip] = _request.apiUintVars[totalTip].add(_tip);\r\n        if(self.currentMiners[0].value == _requestId || self.currentMiners[1].value== _requestId ||self.currentMiners[2].value == _requestId||self.currentMiners[3].value== _requestId || self.currentMiners[4].value== _requestId ){\r\n            self.uintVars[currentTotalTips] += _tip;\r\n        }\r\n        else {\r\n            //if the request is not part of the requestQ[51] array\r\n            //then add to the requestQ[51] only if the _payout/tip is greater than the minimum(tip) in the requestQ[51] array\r\n            if (_request.apiUintVars[requestQPosition] == 0) {\r\n                uint256 _min;\r\n                uint256 _index;\r\n                (_min, _index) = v2Utilities.getMin(self.requestQ);\r\n                //we have to zero out the oldOne\r\n                //if the _payout is greater than the current minimum payout in the requestQ[51] or if the minimum is zero\r\n                //then add it to the requestQ array aand map its index information to the requestId and the apiUintvars\r\n                if (_request.apiUintVars[totalTip] > _min || _min == 0) {\r\n                    self.requestQ[_index] = _request.apiUintVars[totalTip];\r\n                    self.requestDetails[self.requestIdByRequestQIndex[_index]].apiUintVars[requestQPosition] = 0;\r\n                    self.requestIdByRequestQIndex[_index] = _requestId;\r\n                    _request.apiUintVars[requestQPosition] = _index;\r\n                }\r\n                // else if the requestid is part of the requestQ[51] then update the tip for it\r\n            } else{\r\n                self.requestQ[_request.apiUintVars[requestQPosition]] += _tip;\r\n            }\r\n        }\r\n    }\r\n\r\n\r\n/**********************CHEAT Functions for Testing******************************/\r\n/**********************CHEAT Functions for Testing******************************/\r\n/**********************CHEAT Functions for Testing--No Nonce******************************/\r\n\r\n\r\n    // /*This is a cheat for demo purposes, will delete upon actual launch*/\r\n    // function theLazyCoon(TellorStorage.TellorStorageStruct storage self,address _address, uint _amount) public {\r\n    //     self.uintVars[total_supply] += _amount;\r\n    //     TellorTransfer.updateBalanceAtNow(self.balances[_address],_amount);\r\n    // } \r\n\r\n    // /**\r\n    // * @dev Proof of work is called by the miner when they submit the solution (proof of work and value)\r\n    // * @param _nonce uint submitted by miner\r\n    // * @param _requestId the apiId being mined\r\n    // * @param _value of api query\r\n    // ** OLD!!!!!!!!\r\n    // */\r\n    // function testSubmitMiningSolution(TellorStorage.TellorStorageStruct storage self, string memory _nonce, uint256 _requestId, uint256 _value)\r\n    //     public\r\n    // {\r\n    //     require (self.uintVars[timeTarget] == 600, \"Contract has upgraded, call new function\");\r\n    //     //require miner is staked\r\n    //     require(self.stakerDetails[msg.sender].currentStatus == 1, \"Miner status is not staker\");\r\n    //     //Check the miner is submitting the pow for the current request Id\r\n    //     require(_requestId == self.uintVars[currentRequestId], \"RequestId is wrong\");\r\n    //     //Saving the challenge information as unique by using the msg.sender\r\n    //     // require(\r\n    //     //     uint256(\r\n    //     //         sha256(abi.encodePacked(ripemd160(abi.encodePacked(keccak256(abi.encodePacked(self.currentChallenge, msg.sender, _nonce))))))\r\n    //     //     ) %\r\n    //     //         self.uintVars[difficulty] ==\r\n    //     //         0,\r\n    //     //     \"Incorrect nonce for current challenge\"\r\n    //     // );\r\n    //     //Make sure the miner does not submit a value more than once\r\n    //     require(self.minersByChallenge[self.currentChallenge][msg.sender] == false, \"Miner already submitted the value\");\r\n    //     //Save the miner and value received\r\n    //     uint256 _slotProgress = self.uintVars[slotProgress]; \r\n    //     self.currentMiners[_slotProgress].value = _value;\r\n    //     self.currentMiners[_slotProgress].miner = msg.sender;\r\n    //     //Add to the count how many values have been submitted, since only 5 are taken per request\r\n    //     self.uintVars[slotProgress]++;\r\n    //     //Update the miner status to true once they submit a value so they don't submit more than once\r\n    //     self.minersByChallenge[self.currentChallenge][msg.sender] = true;\r\n    //     //If 5 values have been received, adjust the difficulty otherwise sort the values until 5 are received\r\n    //     if (_slotProgress + 1 == 5) {\r\n    //         newBlock(self, _nonce, _requestId);\r\n    //     }\r\n    // }\r\n\r\n    // /**\r\n    // * @dev Proof of work is called by the miner when they submit the solution (proof of work and value)\r\n    // * @param _nonce uint submitted by miner\r\n    // * @param _requestId is the array of the 5 PSR's being mined\r\n    // * @param _value is an array of 5 values\r\n    // */\r\n    // function testSubmitMiningSolution(TellorStorage.TellorStorageStruct storage self, string memory _nonce,uint256[5] memory _requestId, uint256[5] memory _value)\r\n    //     public\r\n    // {\r\n    //     bytes32 _hashMsgSender = keccak256(abi.encode(msg.sender));\r\n    //     require(self.stakerDetails[msg.sender].currentStatus == 1, \"Miner status is not staker\");\r\n    //     //require(now - self.uintVars[_hashMsgSender] > 15 minutes, \"Miner can only win rewards once per 15 min\");\r\n    //     require(_requestId[0] ==  self.currentMiners[0].value,\"Request ID is wrong\");\r\n    //     require(_requestId[1] ==  self.currentMiners[1].value,\"Request ID is wrong\");\r\n    //     require(_requestId[2] ==  self.currentMiners[2].value,\"Request ID is wrong\");\r\n    //     require(_requestId[3] ==  self.currentMiners[3].value,\"Request ID is wrong\");\r\n    //     require(_requestId[4] ==  self.currentMiners[4].value,\"Request ID is wrong\");\r\n    //     self.uintVars[_hashMsgSender] = now;\r\n\r\n    //     bytes32 _currChallenge = self.currentChallenge;\r\n    //     uint256 _slotProgress = self.uintVars[slotProgress];\r\n\r\n    //     //Saving the challenge information as unique by using the msg.sender\r\n    //     // require(uint256(\r\n    //     //         sha256(abi.encodePacked(ripemd160(abi.encodePacked(keccak256(abi.encodePacked(self.currentChallenge, msg.sender, _nonce))))))\r\n    //     //     ) %\r\n    //     //         self.uintVars[difficulty] == 0\r\n    //     //         || (now - (now % 1 minutes)) - self.uintVars[timeOfLastNewValue] >= 15 minutes,\r\n    //     //     \"Incorrect nonce for current challenge\"\r\n    //     // );\r\n\r\n    //     //Checking and updating Miner Status\r\n    //     require(self.minersByChallenge[_currChallenge][msg.sender] == false, \"Miner already submitted the value\");\r\n    //     //Update the miner status to true once they submit a value so they don't submit more than once\r\n    //     self.minersByChallenge[_currChallenge][msg.sender] = true;\r\n\r\n    //     //Updating Request\r\n    //     TellorStorage.Request storage _tblock = self.requestDetails[self.uintVars[_tBlock]];\r\n    //     _tblock.minersByValue[1][_slotProgress]= msg.sender; \r\n    //     //this will fill the currentMiners array\r\n    //     _tblock.valuesByTimestamp[0][_slotProgress] = _value[0];\r\n    //     _tblock.valuesByTimestamp[1][_slotProgress] = _value[1];\r\n    //     _tblock.valuesByTimestamp[2][_slotProgress] = _value[2];\r\n    //     _tblock.valuesByTimestamp[3][_slotProgress] = _value[3];\r\n    //     _tblock.valuesByTimestamp[4][_slotProgress] = _value[4];\r\n    //     //Save the miner and value received\r\n    //     _tblock.minersByValue[0][self.uintVars[slotProgress]]= msg.sender;\r\n    //     _tblock.minersByValue[1][self.uintVars[slotProgress]]= msg.sender;\r\n    //     _tblock.minersByValue[2][self.uintVars[slotProgress]]= msg.sender;\r\n    //     _tblock.minersByValue[3][self.uintVars[slotProgress]]= msg.sender;\r\n    //     _tblock.minersByValue[4][self.uintVars[slotProgress]]= msg.sender;\r\n      \r\n\r\n    //     //Internal Function Added to allow for more stack variables\r\n    //     _payReward(self, _slotProgress);\r\n    //     self.uintVars[slotProgress]++;\r\n\r\n    //     //If 5 values have been received, adjust the difficulty otherwise sort the values until 5 are received \r\n    //     if (_slotProgress + 1 == 5) { //slotProgress has been incremented, but we're using the variable on stack to save gas\r\n    //         newBlock(self, _nonce, _requestId);\r\n    //         self.uintVars[slotProgress] = 0;\r\n    //     }\r\n\r\n    //     emit NonceSubmitted(msg.sender, _nonce, _requestId, _value, _currChallenge);\r\n       \r\n    // }\r\n}\r\n",
  "sourcePath": "C:\\company\\code\\tellorlegacy\\contracts\\v2\\libraries\\v2TellorLibrary.sol",
  "compiler": {
    "name": "solc",
    "version": "0.5.16+commit.9c3226ce.Emscripten.clang"
  },
  "schemaVersion": "3.0.23",
  "updatedAt": "2020-10-04T01:22:40.262Z",
  "devdoc": {
    "details": "Contains the functions' logic for the Tellor contract where miners can submit the proof of work along with the value and smart contracts can requestData and tip miners.",
    "methods": {
      "addTip(v2TellorStorage.TellorStorageStruct storage,uint256,uint256)": {
        "details": "Add tip to Request value from oracle",
        "params": {
          "_requestId": "being requested to be mined",
          "_tip": "amount the requester is willing to pay to be get on queue. Miners mine the onDeckQueryHash, or the api with the highest payout pool"
        }
      },
      "claimOwnership(v2TellorStorage.TellorStorageStruct storage)": {
        "details": "Allows the new owner to claim control of the contract"
      },
      "newBlock(v2TellorStorage.TellorStorageStruct storage,string,uint256)": {
        "details": "This function is called by submitMiningSolution and adjusts the difficulty, sorts and stores the first 5 values received, pays the miners, the dev share and assigns a new challenge",
        "params": {
          "_nonce": "or solution for the PoW  for the requestId",
          "_requestId": "for the current request being mined"
        }
      },
      "newBlock(v2TellorStorage.TellorStorageStruct storage,string,uint256[5])": {
        "details": "This function is called by submitMiningSolution and adjusts the difficulty, sorts and stores the first 5 values received, pays the miners, the dev share and assigns a new challenge",
        "params": {
          "_nonce": "or solution for the PoW  for the requestId",
          "_requestId": "for the current request being mined"
        }
      },
      "proposeOwnership(v2TellorStorage.TellorStorageStruct storage,address)": {
        "details": "Allows the current owner to propose transfer control of the contract to a newOwner and the ownership is pending until the new owner calls the claimOwnership function",
        "params": {
          "_pendingOwner": "The address to transfer ownership to."
        }
      },
      "submitMiningSolution(v2TellorStorage.TellorStorageStruct storage,string,uint256,uint256)": {
        "details": "Proof of work is called by the miner when they submit the solution (proof of work and value)",
        "params": {
          "_nonce": "uint submitted by miner",
          "_requestId": "the apiId being mined",
          "_value": "of api query"
        }
      },
      "submitMiningSolution(v2TellorStorage.TellorStorageStruct storage,string,uint256[5],uint256[5])": {
        "details": "Proof of work is called by the miner when they submit the solution (proof of work and value)",
        "params": {
          "_nonce": "uint submitted by miner",
          "_requestId": "is the array of the 5 PSR's being mined",
          "_value": "is an array of 5 values"
        }
      },
      "updateOnDeck(v2TellorStorage.TellorStorageStruct storage,uint256,uint256)": {
        "details": "This function updates APIonQ and the requestQ when requestData or addTip are ran",
        "params": {
          "_requestId": "being requested",
          "_tip": "is the tip to add"
        }
      }
    },
    "title": "Tellor Oracle System Library"
  },
  "userdoc": {
    "methods": {}
  }
}