{
  "contractName": "v2TellorMaster",
  "abi": [
    {
      "inputs": [
        {
          "internalType": "address",
          "name": "_tellorContract",
          "type": "address"
        }
      ],
      "payable": false,
      "stateMutability": "nonpayable",
      "type": "constructor"
    },
    {
      "anonymous": false,
      "inputs": [
        {
          "indexed": false,
          "internalType": "address",
          "name": "_newTellor",
          "type": "address"
        }
      ],
      "name": "NewTellorAddress",
      "type": "event"
    },
    {
      "payable": true,
      "stateMutability": "payable",
      "type": "fallback"
    },
    {
      "constant": true,
      "inputs": [
        {
          "internalType": "address",
          "name": "_user",
          "type": "address"
        },
        {
          "internalType": "address",
          "name": "_spender",
          "type": "address"
        }
      ],
      "name": "allowance",
      "outputs": [
        {
          "internalType": "uint256",
          "name": "",
          "type": "uint256"
        }
      ],
      "payable": false,
      "stateMutability": "view",
      "type": "function"
    },
    {
      "constant": true,
      "inputs": [
        {
          "internalType": "address",
          "name": "_user",
          "type": "address"
        },
        {
          "internalType": "uint256",
          "name": "_amount",
          "type": "uint256"
        }
      ],
      "name": "allowedToTrade",
      "outputs": [
        {
          "internalType": "bool",
          "name": "",
          "type": "bool"
        }
      ],
      "payable": false,
      "stateMutability": "view",
      "type": "function"
    },
    {
      "constant": true,
      "inputs": [
        {
          "internalType": "address",
          "name": "_user",
          "type": "address"
        }
      ],
      "name": "balanceOf",
      "outputs": [
        {
          "internalType": "uint256",
          "name": "",
          "type": "uint256"
        }
      ],
      "payable": false,
      "stateMutability": "view",
      "type": "function"
    },
    {
      "constant": true,
      "inputs": [
        {
          "internalType": "address",
          "name": "_user",
          "type": "address"
        },
        {
          "internalType": "uint256",
          "name": "_blockNumber",
          "type": "uint256"
        }
      ],
      "name": "balanceOfAt",
      "outputs": [
        {
          "internalType": "uint256",
          "name": "",
          "type": "uint256"
        }
      ],
      "payable": false,
      "stateMutability": "view",
      "type": "function"
    },
    {
      "constant": true,
      "inputs": [
        {
          "internalType": "bytes32",
          "name": "_challenge",
          "type": "bytes32"
        },
        {
          "internalType": "address",
          "name": "_miner",
          "type": "address"
        }
      ],
      "name": "didMine",
      "outputs": [
        {
          "internalType": "bool",
          "name": "",
          "type": "bool"
        }
      ],
      "payable": false,
      "stateMutability": "view",
      "type": "function"
    },
    {
      "constant": true,
      "inputs": [
        {
          "internalType": "uint256",
          "name": "_disputeId",
          "type": "uint256"
        },
        {
          "internalType": "address",
          "name": "_address",
          "type": "address"
        }
      ],
      "name": "didVote",
      "outputs": [
        {
          "internalType": "bool",
          "name": "",
          "type": "bool"
        }
      ],
      "payable": false,
      "stateMutability": "view",
      "type": "function"
    },
    {
      "constant": true,
      "inputs": [
        {
          "internalType": "bytes32",
          "name": "_data",
          "type": "bytes32"
        }
      ],
      "name": "getAddressVars",
      "outputs": [
        {
          "internalType": "address",
          "name": "",
          "type": "address"
        }
      ],
      "payable": false,
      "stateMutability": "view",
      "type": "function"
    },
    {
      "constant": true,
      "inputs": [
        {
          "internalType": "uint256",
          "name": "_disputeId",
          "type": "uint256"
        }
      ],
      "name": "getAllDisputeVars",
      "outputs": [
        {
          "internalType": "bytes32",
          "name": "",
          "type": "bytes32"
        },
        {
          "internalType": "bool",
          "name": "",
          "type": "bool"
        },
        {
          "internalType": "bool",
          "name": "",
          "type": "bool"
        },
        {
          "internalType": "bool",
          "name": "",
          "type": "bool"
        },
        {
          "internalType": "address",
          "name": "",
          "type": "address"
        },
        {
          "internalType": "address",
          "name": "",
          "type": "address"
        },
        {
          "internalType": "address",
          "name": "",
          "type": "address"
        },
        {
          "internalType": "uint256[9]",
          "name": "",
          "type": "uint256[9]"
        },
        {
          "internalType": "int256",
          "name": "",
          "type": "int256"
        }
      ],
      "payable": false,
      "stateMutability": "view",
      "type": "function"
    },
    {
      "constant": true,
      "inputs": [],
      "name": "getCurrentVariables",
      "outputs": [
        {
          "internalType": "bytes32",
          "name": "",
          "type": "bytes32"
        },
        {
          "internalType": "uint256",
          "name": "",
          "type": "uint256"
        },
        {
          "internalType": "uint256",
          "name": "",
          "type": "uint256"
        },
        {
          "internalType": "string",
          "name": "",
          "type": "string"
        },
        {
          "internalType": "uint256",
          "name": "",
          "type": "uint256"
        },
        {
          "internalType": "uint256",
          "name": "",
          "type": "uint256"
        }
      ],
      "payable": false,
      "stateMutability": "view",
      "type": "function"
    },
    {
      "constant": true,
      "inputs": [
        {
          "internalType": "bytes32",
          "name": "_hash",
          "type": "bytes32"
        }
      ],
      "name": "getDisputeIdByDisputeHash",
      "outputs": [
        {
          "internalType": "uint256",
          "name": "",
          "type": "uint256"
        }
      ],
      "payable": false,
      "stateMutability": "view",
      "type": "function"
    },
    {
      "constant": true,
      "inputs": [
        {
          "internalType": "uint256",
          "name": "_disputeId",
          "type": "uint256"
        },
        {
          "internalType": "bytes32",
          "name": "_data",
          "type": "bytes32"
        }
      ],
      "name": "getDisputeUintVars",
      "outputs": [
        {
          "internalType": "uint256",
          "name": "",
          "type": "uint256"
        }
      ],
      "payable": false,
      "stateMutability": "view",
      "type": "function"
    },
    {
      "constant": true,
      "inputs": [],
      "name": "getLastNewValue",
      "outputs": [
        {
          "internalType": "uint256",
          "name": "",
          "type": "uint256"
        },
        {
          "internalType": "bool",
          "name": "",
          "type": "bool"
        }
      ],
      "payable": false,
      "stateMutability": "view",
      "type": "function"
    },
    {
      "constant": true,
      "inputs": [
        {
          "internalType": "uint256",
          "name": "_requestId",
          "type": "uint256"
        }
      ],
      "name": "getLastNewValueById",
      "outputs": [
        {
          "internalType": "uint256",
          "name": "",
          "type": "uint256"
        },
        {
          "internalType": "bool",
          "name": "",
          "type": "bool"
        }
      ],
      "payable": false,
      "stateMutability": "view",
      "type": "function"
    },
    {
      "constant": true,
      "inputs": [
        {
          "internalType": "uint256",
          "name": "_requestId",
          "type": "uint256"
        },
        {
          "internalType": "uint256",
          "name": "_timestamp",
          "type": "uint256"
        }
      ],
      "name": "getMinedBlockNum",
      "outputs": [
        {
          "internalType": "uint256",
          "name": "",
          "type": "uint256"
        }
      ],
      "payable": false,
      "stateMutability": "view",
      "type": "function"
    },
    {
      "constant": true,
      "inputs": [
        {
          "internalType": "uint256",
          "name": "_requestId",
          "type": "uint256"
        },
        {
          "internalType": "uint256",
          "name": "_timestamp",
          "type": "uint256"
        }
      ],
      "name": "getMinersByRequestIdAndTimestamp",
      "outputs": [
        {
          "internalType": "address[5]",
          "name": "",
          "type": "address[5]"
        }
      ],
      "payable": false,
      "stateMutability": "view",
      "type": "function"
    },
    {
      "constant": true,
      "inputs": [
        {
          "internalType": "uint256",
          "name": "_requestId",
          "type": "uint256"
        }
      ],
      "name": "getNewValueCountbyRequestId",
      "outputs": [
        {
          "internalType": "uint256",
          "name": "",
          "type": "uint256"
        }
      ],
      "payable": false,
      "stateMutability": "view",
      "type": "function"
    },
    {
      "constant": true,
      "inputs": [
        {
          "internalType": "bytes32",
          "name": "_request",
          "type": "bytes32"
        }
      ],
      "name": "getRequestIdByQueryHash",
      "outputs": [
        {
          "internalType": "uint256",
          "name": "",
          "type": "uint256"
        }
      ],
      "payable": false,
      "stateMutability": "view",
      "type": "function"
    },
    {
      "constant": true,
      "inputs": [
        {
          "internalType": "uint256",
          "name": "_index",
          "type": "uint256"
        }
      ],
      "name": "getRequestIdByRequestQIndex",
      "outputs": [
        {
          "internalType": "uint256",
          "name": "",
          "type": "uint256"
        }
      ],
      "payable": false,
      "stateMutability": "view",
      "type": "function"
    },
    {
      "constant": true,
      "inputs": [
        {
          "internalType": "uint256",
          "name": "_timestamp",
          "type": "uint256"
        }
      ],
      "name": "getRequestIdByTimestamp",
      "outputs": [
        {
          "internalType": "uint256",
          "name": "",
          "type": "uint256"
        }
      ],
      "payable": false,
      "stateMutability": "view",
      "type": "function"
    },
    {
      "constant": true,
      "inputs": [],
      "name": "getRequestQ",
      "outputs": [
        {
          "internalType": "uint256[51]",
          "name": "",
          "type": "uint256[51]"
        }
      ],
      "payable": false,
      "stateMutability": "view",
      "type": "function"
    },
    {
      "constant": true,
      "inputs": [
        {
          "internalType": "uint256",
          "name": "_requestId",
          "type": "uint256"
        },
        {
          "internalType": "bytes32",
          "name": "_data",
          "type": "bytes32"
        }
      ],
      "name": "getRequestUintVars",
      "outputs": [
        {
          "internalType": "uint256",
          "name": "",
          "type": "uint256"
        }
      ],
      "payable": false,
      "stateMutability": "view",
      "type": "function"
    },
    {
      "constant": true,
      "inputs": [
        {
          "internalType": "uint256",
          "name": "_requestId",
          "type": "uint256"
        }
      ],
      "name": "getRequestVars",
      "outputs": [
        {
          "internalType": "string",
          "name": "",
          "type": "string"
        },
        {
          "internalType": "string",
          "name": "",
          "type": "string"
        },
        {
          "internalType": "bytes32",
          "name": "",
          "type": "bytes32"
        },
        {
          "internalType": "uint256",
          "name": "",
          "type": "uint256"
        },
        {
          "internalType": "uint256",
          "name": "",
          "type": "uint256"
        },
        {
          "internalType": "uint256",
          "name": "",
          "type": "uint256"
        }
      ],
      "payable": false,
      "stateMutability": "view",
      "type": "function"
    },
    {
      "constant": true,
      "inputs": [
        {
          "internalType": "address",
          "name": "_staker",
          "type": "address"
        }
      ],
      "name": "getStakerInfo",
      "outputs": [
        {
          "internalType": "uint256",
          "name": "",
          "type": "uint256"
        },
        {
          "internalType": "uint256",
          "name": "",
          "type": "uint256"
        }
      ],
      "payable": false,
      "stateMutability": "view",
      "type": "function"
    },
    {
      "constant": true,
      "inputs": [
        {
          "internalType": "uint256",
          "name": "_requestId",
          "type": "uint256"
        },
        {
          "internalType": "uint256",
          "name": "_timestamp",
          "type": "uint256"
        }
      ],
      "name": "getSubmissionsByTimestamp",
      "outputs": [
        {
          "internalType": "uint256[5]",
          "name": "",
          "type": "uint256[5]"
        }
      ],
      "payable": false,
      "stateMutability": "view",
      "type": "function"
    },
    {
      "constant": true,
      "inputs": [
        {
          "internalType": "uint256",
          "name": "_requestID",
          "type": "uint256"
        },
        {
          "internalType": "uint256",
          "name": "_index",
          "type": "uint256"
        }
      ],
      "name": "getTimestampbyRequestIDandIndex",
      "outputs": [
        {
          "internalType": "uint256",
          "name": "",
          "type": "uint256"
        }
      ],
      "payable": false,
      "stateMutability": "view",
      "type": "function"
    },
    {
      "constant": true,
      "inputs": [
        {
          "internalType": "bytes32",
          "name": "_data",
          "type": "bytes32"
        }
      ],
      "name": "getUintVar",
      "outputs": [
        {
          "internalType": "uint256",
          "name": "",
          "type": "uint256"
        }
      ],
      "payable": false,
      "stateMutability": "view",
      "type": "function"
    },
    {
      "constant": true,
      "inputs": [],
      "name": "getVariablesOnDeck",
      "outputs": [
        {
          "internalType": "uint256",
          "name": "",
          "type": "uint256"
        },
        {
          "internalType": "uint256",
          "name": "",
          "type": "uint256"
        },
        {
          "internalType": "string",
          "name": "",
          "type": "string"
        }
      ],
      "payable": false,
      "stateMutability": "view",
      "type": "function"
    },
    {
      "constant": true,
      "inputs": [
        {
          "internalType": "uint256",
          "name": "_requestId",
          "type": "uint256"
        },
        {
          "internalType": "uint256",
          "name": "_timestamp",
          "type": "uint256"
        }
      ],
      "name": "isInDispute",
      "outputs": [
        {
          "internalType": "bool",
          "name": "",
          "type": "bool"
        }
      ],
      "payable": false,
      "stateMutability": "view",
      "type": "function"
    },
    {
      "constant": true,
      "inputs": [
        {
          "internalType": "uint256",
          "name": "_requestId",
          "type": "uint256"
        },
        {
          "internalType": "uint256",
          "name": "_timestamp",
          "type": "uint256"
        }
      ],
      "name": "retrieveData",
      "outputs": [
        {
          "internalType": "uint256",
          "name": "",
          "type": "uint256"
        }
      ],
      "payable": false,
      "stateMutability": "view",
      "type": "function"
    },
    {
      "constant": true,
      "inputs": [],
      "name": "totalSupply",
      "outputs": [
        {
          "internalType": "uint256",
          "name": "",
          "type": "uint256"
        }
      ],
      "payable": false,
      "stateMutability": "view",
      "type": "function"
    },
    {
      "constant": false,
      "inputs": [
        {
          "internalType": "address",
          "name": "_newDeity",
          "type": "address"
        }
      ],
      "name": "changeDeity",
      "outputs": [],
      "payable": false,
      "stateMutability": "nonpayable",
      "type": "function"
    },
    {
      "constant": false,
      "inputs": [
        {
          "internalType": "address",
          "name": "_tellorContract",
          "type": "address"
        }
      ],
      "name": "changeTellorContract",
      "outputs": [],
      "payable": false,
      "stateMutability": "nonpayable",
      "type": "function"
    }
  ],
  "bytecode": "0x608060405234801561001057600080fd5b50604051620031a2380380620031a28339818101604052602081101561003557600080fd5b8101908080519060200190929190505050600073__v2TellorStake_________________________63d57867ed90916040518263ffffffff1660e01b81526004018082815260200191505060006040518083038186803b15801561009857600080fd5b505af41580156100ac573d6000803e3d6000fd5b50505050336000603f01600060405180807f5f6f776e6572000000000000000000000000000000000000000000000000000081525060060190506040518091039020815260200190815260200160002060006101000a81548173ffffffffffffffffffffffffffffffffffffffff021916908373ffffffffffffffffffffffffffffffffffffffff160217905550336000603f01600060405180807f5f6465697479000000000000000000000000000000000000000000000000000081525060060190506040518091039020815260200190815260200160002060006101000a81548173ffffffffffffffffffffffffffffffffffffffff021916908373ffffffffffffffffffffffffffffffffffffffff160217905550806000603f01600060405180807f74656c6c6f72436f6e7472616374000000000000000000000000000000000000815250600e0190506040518091039020815260200190815260200160002060006101000a81548173ffffffffffffffffffffffffffffffffffffffff021916908373ffffffffffffffffffffffffffffffffffffffff1602179055507fc2d1449eb0b6547aa426e09d9942a77fa4fc8cd3296305b3163e22452e0bcb8d81604051808273ffffffffffffffffffffffffffffffffffffffff1673ffffffffffffffffffffffffffffffffffffffff16815260200191505060405180910390a150612ee080620002c26000396000f3fe6080604052600436106101e35760003560e01c8063733bdef011610102578063af0b132711610095578063dd62ed3e11610064578063dd62ed3e14610e7f578063e0ae93c114610f04578063e1eee6d614610f5d578063fc7cf0a014611099576101e3565b8063af0b132714610c45578063b541302914610d84578063c775b54214610dd7578063da37994114610e30576101e3565b8063999cf26c116100d1578063999cf26c14610a5b578063a22e407a14610ace578063a7c438bc14610b81578063ae0a827914610bf4576101e3565b8063733bdef0146108e457806377fbb663146109505780637f6fd5d9146109a957806393fa491514610a02576101e3565b806346eee1c41161017a5780636173c0b8116101495780636173c0b81461073c57806363bb82ad1461078b57806369026d63146107fe57806370a082311461087f576101e3565b806346eee1c4146105de57806347abd7f11461062d5780634ee2cd7e1461067e578063612c8f7f146106ed576101e3565b806319e8e03b116101b657806319e8e03b1461043a5780631db842f0146104d85780633180f8df146105275780633df0777b14610581576101e3565b80630f0b424d146102c457806311c9851214610313578063133bee5e1461039457806318160ddd1461040f575b600080603f01600060405180807f74656c6c6f72436f6e7472616374000000000000000000000000000000000000815250600e0190506040518091039020815260200190815260200160002060009054906101000a900473ffffffffffffffffffffffffffffffffffffffff16905060606000368080601f016020809104026020016040519081016040528093929190818152602001838380828437600081840152601f19601f82011690508083019250505050505050905060008082516020840185600019f43d604051816000823e82600081146102c0578282f35b8282fd5b3480156102d057600080fd5b506102fd600480360360208110156102e757600080fd5b81019080803590602001909291905050506110cf565b6040518082815260200191505060405180910390f35b34801561031f57600080fd5b506103566004803603604081101561033657600080fd5b8101908080359060200190929190803590602001909291905050506110ec565b6040518082600560200280838360005b83811015610381578082015181840152602081019050610366565b5050505090500191505060405180910390f35b3480156103a057600080fd5b506103cd600480360360208110156103b757600080fd5b8101908080359060200190929190505050611112565b604051808273ffffffffffffffffffffffffffffffffffffffff1673ffffffffffffffffffffffffffffffffffffffff16815260200191505060405180910390f35b34801561041b57600080fd5b5061042461112f565b6040518082815260200191505060405180910390f35b34801561044657600080fd5b5061044f611140565b6040518084815260200183815260200180602001828103825283818151815260200191508051906020019080838360005b8381101561049b578082015181840152602081019050610480565b50505050905090810190601f1680156104c85780820380516001836020036101000a031916815260200191505b5094505050505060405180910390f35b3480156104e457600080fd5b50610511600480360360208110156104fb57600080fd5b810190808035906020019092919050505061115a565b6040518082815260200191505060405180910390f35b34801561053357600080fd5b506105606004803603602081101561054a57600080fd5b8101908080359060200190929190505050611177565b60405180838152602001821515151581526020019250505060405180910390f35b34801561058d57600080fd5b506105c4600480360360408110156105a457600080fd5b810190808035906020019092919080359060200190929190505050611197565b604051808215151515815260200191505060405180910390f35b3480156105ea57600080fd5b506106176004803603602081101561060157600080fd5b81019080803590602001909291905050506111b7565b6040518082815260200191505060405180910390f35b34801561063957600080fd5b5061067c6004803603602081101561065057600080fd5b81019080803573ffffffffffffffffffffffffffffffffffffffff1690602001909291905050506111d4565b005b34801561068a57600080fd5b506106d7600480360360408110156106a157600080fd5b81019080803573ffffffffffffffffffffffffffffffffffffffff169060200190929190803590602001909291905050506111eb565b6040518082815260200191505060405180910390f35b3480156106f957600080fd5b506107266004803603602081101561071057600080fd5b81019080803590602001909291905050506112bd565b6040518082815260200191505060405180910390f35b34801561074857600080fd5b506107756004803603602081101561075f57600080fd5b81019080803590602001909291905050506112da565b6040518082815260200191505060405180910390f35b34801561079757600080fd5b506107e4600480360360408110156107ae57600080fd5b8101908080359060200190929190803573ffffffffffffffffffffffffffffffffffffffff1690602001909291905050506112f7565b604051808215151515815260200191505060405180910390f35b34801561080a57600080fd5b506108416004803603604081101561082157600080fd5b8101908080359060200190929190803590602001909291905050506113c9565b6040518082600560200280838360005b8381101561086c578082015181840152602081019050610851565b5050505090500191505060405180910390f35b34801561088b57600080fd5b506108ce600480360360208110156108a257600080fd5b81019080803573ffffffffffffffffffffffffffffffffffffffff1690602001909291905050506113ef565b6040518082815260200191505060405180910390f35b3480156108f057600080fd5b506109336004803603602081101561090757600080fd5b81019080803573ffffffffffffffffffffffffffffffffffffffff1690602001909291905050506114b8565b604051808381526020018281526020019250505060405180910390f35b34801561095c57600080fd5b506109936004803603604081101561097357600080fd5b8101908080359060200190929190803590602001909291905050506114d8565b6040518082815260200191505060405180910390f35b3480156109b557600080fd5b506109ec600480360360408110156109cc57600080fd5b8101908080359060200190929190803590602001909291905050506114f8565b6040518082815260200191505060405180910390f35b348015610a0e57600080fd5b50610a4560048036036040811015610a2557600080fd5b810190808035906020019092919080359060200190929190505050611518565b6040518082815260200191505060405180910390f35b348015610a6757600080fd5b50610ab460048036036040811015610a7e57600080fd5b81019080803573ffffffffffffffffffffffffffffffffffffffff16906020019092919080359060200190929190505050611538565b604051808215151515815260200191505060405180910390f35b348015610ada57600080fd5b50610ae361160a565b6040518087815260200186815260200185815260200180602001848152602001838152602001828103825285818151815260200191508051906020019080838360005b83811015610b41578082015181840152602081019050610b26565b50505050905090810190601f168015610b6e5780820380516001836020036101000a031916815260200191505b5097505050505050505060405180910390f35b348015610b8d57600080fd5b50610bda60048036036040811015610ba457600080fd5b8101908080359060200190929190803573ffffffffffffffffffffffffffffffffffffffff169060200190929190505050611632565b604051808215151515815260200191505060405180910390f35b348015610c0057600080fd5b50610c4360048036036020811015610c1757600080fd5b81019080803573ffffffffffffffffffffffffffffffffffffffff169060200190929190505050611652565b005b348015610c5157600080fd5b50610c7e60048036036020811015610c6857600080fd5b8101908080359060200190929190505050611669565b604051808a81526020018915151515815260200188151515158152602001871515151581526020018673ffffffffffffffffffffffffffffffffffffffff1673ffffffffffffffffffffffffffffffffffffffff1681526020018573ffffffffffffffffffffffffffffffffffffffff1673ffffffffffffffffffffffffffffffffffffffff1681526020018473ffffffffffffffffffffffffffffffffffffffff1673ffffffffffffffffffffffffffffffffffffffff16815260200183600960200280838360005b83811015610d63578082015181840152602081019050610d48565b50505050905001828152602001995050505050505050505060405180910390f35b348015610d9057600080fd5b50610d996116b1565b6040518082603360200280838360005b83811015610dc4578082015181840152602081019050610da9565b5050505090500191505060405180910390f35b348015610de357600080fd5b50610e1a60048036036040811015610dfa57600080fd5b8101908080359060200190929190803590602001909291905050506116c8565b6040518082815260200191505060405180910390f35b348015610e3c57600080fd5b50610e6960048036036020811015610e5357600080fd5b81019080803590602001909291905050506116e8565b6040518082815260200191505060405180910390f35b348015610e8b57600080fd5b50610eee60048036036040811015610ea257600080fd5b81019080803573ffffffffffffffffffffffffffffffffffffffff169060200190929190803573ffffffffffffffffffffffffffffffffffffffff169060200190929190505050611705565b6040518082815260200191505060405180910390f35b348015610f1057600080fd5b50610f4760048036036040811015610f2757600080fd5b810190808035906020019092919080359060200190929190505050611803565b6040518082815260200191505060405180910390f35b348015610f6957600080fd5b50610f9660048036036020811015610f8057600080fd5b8101908080359060200190929190505050611823565b604051808060200180602001878152602001868152602001858152602001848152602001838103835289818151815260200191508051906020019080838360005b83811015610ff2578082015181840152602081019050610fd7565b50505050905090810190601f16801561101f5780820380516001836020036101000a031916815260200191505b50838103825288818151815260200191508051906020019080838360005b8381101561105857808201518184015260208101905061103d565b50505050905090810190601f1680156110855780820380516001836020036101000a031916815260200191505b509850505050505050505060405180910390f35b3480156110a557600080fd5b506110ae611855565b60405180838152602001821515151581526020019250505060405180910390f35b60006110e582600061186a90919063ffffffff16565b9050919050565b6110f4612e21565b61110a8383600061188a9092919063ffffffff16565b905092915050565b600061112882600061190090919063ffffffff16565b9050919050565b600061113b6000611940565b905090565b600080606061114f6000611994565b925092509250909192565b6000611170826000611ac890919063ffffffff16565b9050919050565b60008061118e836000611ae890919063ffffffff16565b91509150915091565b60006111af83836000611b609092919063ffffffff16565b905092915050565b60006111cd826000611ba290919063ffffffff16565b9050919050565b6111e8816000611bc890919063ffffffff16565b50565b60008073__v2TellorTransfer______________________6395b91ea0909185856040518463ffffffff1660e01b8152600401808481526020018373ffffffffffffffffffffffffffffffffffffffff1673ffffffffffffffffffffffffffffffffffffffff168152602001828152602001935050505060206040518083038186803b15801561127a57600080fd5b505af415801561128e573d6000803e3d6000fd5b505050506040513d60208110156112a457600080fd5b8101908080519060200190929190505050905092915050565b60006112d3826000611d6090919063ffffffff16565b9050919050565b60006112f0826000611d8090919063ffffffff16565b9050919050565b60008073__v2TellorGettersLibrary________________6362bd6a96909185856040518463ffffffff1660e01b8152600401808481526020018381526020018273ffffffffffffffffffffffffffffffffffffffff1673ffffffffffffffffffffffffffffffffffffffff168152602001935050505060206040518083038186803b15801561138657600080fd5b505af415801561139a573d6000803e3d6000fd5b505050506040513d60208110156113b057600080fd5b8101908080519060200190929190505050905092915050565b6113d1612e43565b6113e783836000611e179092919063ffffffff16565b905092915050565b60008073__v2TellorTransfer______________________634b4112349091846040518363ffffffff1660e01b8152600401808381526020018273ffffffffffffffffffffffffffffffffffffffff1673ffffffffffffffffffffffffffffffffffffffff1681526020019250505060206040518083038186803b15801561147657600080fd5b505af415801561148a573d6000803e3d6000fd5b505050506040513d60208110156114a057600080fd5b81019080805190602001909291905050509050919050565b6000806114cf836000611ec390919063ffffffff16565b91509150915091565b60006114f083836000611f5b9092919063ffffffff16565b905092915050565b600061151083836000611f949092919063ffffffff16565b905092915050565b600061153083836000611fc99092919063ffffffff16565b905092915050565b60008073__v2TellorTransfer______________________63db23ad08909185856040518463ffffffff1660e01b8152600401808481526020018373ffffffffffffffffffffffffffffffffffffffff1673ffffffffffffffffffffffffffffffffffffffff168152602001828152602001935050505060206040518083038186803b1580156115c757600080fd5b505af41580156115db573d6000803e3d6000fd5b505050506040513d60208110156115f157600080fd5b8101908080519060200190929190505050905092915050565b6000806000606060008061161e6000611ffe565b955095509550955095509550909192939495565b600061164a838360006123089092919063ffffffff16565b905092915050565b61166681600061237690919063ffffffff16565b50565b600080600080600080600061167c612e65565b60006116928a600061257190919063ffffffff16565b9850985098509850985098509850985098509193959799909294969850565b6116b9612e88565b6116c36000612947565b905090565b60006116e0838360006129969092919063ffffffff16565b905092915050565b60006116fe8260006129cb90919063ffffffff16565b9050919050565b60008073__v2TellorTransfer______________________63bb2d5246909185856040518463ffffffff1660e01b8152600401808481526020018373ffffffffffffffffffffffffffffffffffffffff1673ffffffffffffffffffffffffffffffffffffffff1681526020018273ffffffffffffffffffffffffffffffffffffffff1673ffffffffffffffffffffffffffffffffffffffff168152602001935050505060206040518083038186803b1580156117c057600080fd5b505af41580156117d4573d6000803e3d6000fd5b505050506040513d60208110156117ea57600080fd5b8101908080519060200190929190505050905092915050565b600061181b838360006129eb9092919063ffffffff16565b905092915050565b606080600080600080611840876000612a2090919063ffffffff16565b95509550955095509550955091939550919395565b6000806118626000612c7f565b915091509091565b600082604201600083815260200190815260200160002054905092915050565b611892612e21565b83604801600084815260200190815260200160002060090160008381526020019081526020016000206005806020026040519081016040528092919082600580156118f2576020028201915b8154815260200190600101908083116118de575b505050505090509392505050565b600082603f01600083815260200190815260200160002060009054906101000a900473ffffffffffffffffffffffffffffffffffffffff16905092915050565b600081604001600060405180807f746f74616c5f737570706c790000000000000000000000000000000000000000815250600c01905060405180910390208152602001908152602001600020549050919050565b600080606060006119a485612d41565b905080856048016000838152602001908152602001600020600401600060405180807f746f74616c54697000000000000000000000000000000000000000000000000081525060080190506040518091039020815260200190815260200160002054866048016000848152602001908152602001600020600001808054600181600116156101000203166002900480601f016020809104026020016040519081016040528092919081815260200182805460018160011615610100020316600290048015611ab35780601f10611a8857610100808354040283529160200191611ab3565b820191906000526020600020905b815481529060010190602001808311611a9657829003601f168201915b50505050509050935093509350509193909250565b600082604901600083815260200190815260200160002054905092915050565b600080600084604801600085815260200190815260200160002090506000816003018054905014611b4d57611b41858583600301600185600301805490500381548110611b3157fe5b9060005260206000200154611fc9565b60019250925050611b59565b60008081915092509250505b9250929050565b6000836048016000848152602001908152602001600020600701600083815260200190815260200160002060009054906101000a900460ff1690509392505050565b600082604801600083815260200190815260200160002060030180549050905092915050565b3373ffffffffffffffffffffffffffffffffffffffff1682603f01600060405180807f5f6465697479000000000000000000000000000000000000000000000000000081525060060190506040518091039020815260200190815260200160002060009054906101000a900473ffffffffffffffffffffffffffffffffffffffff1673ffffffffffffffffffffffffffffffffffffffff1614611cd3576040517f08c379a00000000000000000000000000000000000000000000000000000000081526004018080602001828103825260138152602001807f53656e646572206973206e6f742064656974790000000000000000000000000081525060200191505060405180910390fd5b8082603f01600060405180807f5f6465697479000000000000000000000000000000000000000000000000000081525060060190506040518091039020815260200190815260200160002060006101000a81548173ffffffffffffffffffffffffffffffffffffffff021916908373ffffffffffffffffffffffffffffffffffffffff1602179055505050565b600082604001600083815260200190815260200160002054905092915050565b60006032821115611df9576040517f08c379a000000000000000000000000000000000000000000000000000000000815260040180806020018281038252601a8152602001807f526571756573745120696e6465782069732061626f766520353000000000000081525060200191505060405180910390fd5b82604301600083815260200190815260200160002054905092915050565b611e1f612e43565b8360480160008481526020019081526020016000206008016000838152602001908152602001600020600580602002604051908101604052809291908260058015611eb5576020028201915b8160009054906101000a900473ffffffffffffffffffffffffffffffffffffffff1673ffffffffffffffffffffffffffffffffffffffff1681526020019060010190808311611e6b575b505050505090509392505050565b6000808360470160008473ffffffffffffffffffffffffffffffffffffffff1673ffffffffffffffffffffffffffffffffffffffff168152602001908152602001600020600001548460470160008573ffffffffffffffffffffffffffffffffffffffff1673ffffffffffffffffffffffffffffffffffffffff16815260200190815260200160002060010154915091509250929050565b60008360480160008481526020019081526020016000206003018281548110611f8057fe5b906000526020600020015490509392505050565b600083604401600084815260200190815260200160002060050160008381526020019081526020016000205490509392505050565b600083604801600084815260200190815260200160002060060160008381526020019081526020016000205490509392505050565b60008060006060600080866000015487604001600060405180807f63757272656e74526571756573744964000000000000000000000000000000008152506010019050604051809103902081526020019081526020016000205488604001600060405180807f646966666963756c747900000000000000000000000000000000000000000000815250600a01905060405180910390208152602001908152602001600020548960480160008b604001600060405180807f63757272656e74526571756573744964000000000000000000000000000000008152506010019050604051809103902081526020019081526020016000205481526020019081526020016000206000018a60480160008c604001600060405180807f63757272656e7452657175657374496400000000000000000000000000000000815250601001905060405180910390208152602001908152602001600020548152602001908152602001600020600401600060405180807f6772616e756c6172697479000000000000000000000000000000000000000000815250600b01905060405180910390208152602001908152602001600020548b60480160008d604001600060405180807f63757272656e7452657175657374496400000000000000000000000000000000815250601001905060405180910390208152602001908152602001600020548152602001908152602001600020600401600060405180807f746f74616c54697000000000000000000000000000000000000000000000000081525060080190506040518091039020815260200190815260200160002054828054600181600116156101000203166002900480601f0160208091040260200160405190810160405280929190818152602001828054600181600116156101000203166002900480156122ec5780601f106122c1576101008083540402835291602001916122ec565b820191906000526020600020905b8154815290600101906020018083116122cf57829003601f168201915b5050505050925095509550955095509550955091939550919395565b600083604401600084815260200190815260200160002060060160008373ffffffffffffffffffffffffffffffffffffffff1673ffffffffffffffffffffffffffffffffffffffff16815260200190815260200160002060009054906101000a900460ff1690509392505050565b3373ffffffffffffffffffffffffffffffffffffffff1682603f01600060405180807f5f6465697479000000000000000000000000000000000000000000000000000081525060060190506040518091039020815260200190815260200160002060009054906101000a900473ffffffffffffffffffffffffffffffffffffffff1673ffffffffffffffffffffffffffffffffffffffff1614612481576040517f08c379a00000000000000000000000000000000000000000000000000000000081526004018080602001828103825260138152602001807f53656e646572206973206e6f742064656974790000000000000000000000000081525060200191505060405180910390fd5b8082603f01600060405180807f74656c6c6f72436f6e7472616374000000000000000000000000000000000000815250600e0190506040518091039020815260200190815260200160002060006101000a81548173ffffffffffffffffffffffffffffffffffffffff021916908373ffffffffffffffffffffffffffffffffffffffff1602179055507fc2d1449eb0b6547aa426e09d9942a77fa4fc8cd3296305b3163e22452e0bcb8d81604051808273ffffffffffffffffffffffffffffffffffffffff1673ffffffffffffffffffffffffffffffffffffffff16815260200191505060405180910390a15050565b6000806000806000806000612584612e65565b6000808b60440160008c8152602001908152602001600020905080600001548160020160009054906101000a900460ff168260020160019054906101000a900460ff168360020160029054906101000a900460ff168460020160039054906101000a900473ffffffffffffffffffffffffffffffffffffffff168560030160009054906101000a900473ffffffffffffffffffffffffffffffffffffffff168660040160009054906101000a900473ffffffffffffffffffffffffffffffffffffffff1660405180610120016040528089600501600060405180807f726571756573744964000000000000000000000000000000000000000000000081525060090190506040518091039020815260200190815260200160002054815260200189600501600060405180807f74696d657374616d70000000000000000000000000000000000000000000000081525060090190506040518091039020815260200190815260200160002054815260200189600501600060405180807f76616c756500000000000000000000000000000000000000000000000000000081525060050190506040518091039020815260200190815260200160002054815260200189600501600060405180807f6d696e457865637574696f6e446174650000000000000000000000000000000081525060100190506040518091039020815260200190815260200160002054815260200189600501600060405180807f6e756d6265724f66566f74657300000000000000000000000000000000000000815250600d0190506040518091039020815260200190815260200160002054815260200189600501600060405180807f626c6f636b4e756d626572000000000000000000000000000000000000000000815250600b0190506040518091039020815260200190815260200160002054815260200189600501600060405180807f6d696e6572536c6f74000000000000000000000000000000000000000000000081525060090190506040518091039020815260200190815260200160002054815260200189600501600060405180807f71756f72756d000000000000000000000000000000000000000000000000000081525060060190506040518091039020815260200190815260200160002054815260200189600501600060405180807f6665650000000000000000000000000000000000000000000000000000000000815250600301905060405180910390208152602001908152602001600020548152508860010154995099509950995099509950995099509950509295985092959850929598565b61294f612e88565b8160010160338060200260405190810160405280929190826033801561298a576020028201915b815481526020019060010190808311612976575b50505050509050919050565b600083604801600084815260200190815260200160002060050160008381526020019081526020016000205490509392505050565b600082604a01600083815260200190815260200160002054905092915050565b600083604801600084815260200190815260200160002060040160008381526020019081526020016000205490509392505050565b606080600080600080600088604801600089815260200190815260200160002090508060000181600101826002015483600401600060405180807f6772616e756c6172697479000000000000000000000000000000000000000000815250600b019050604051809103902081526020019081526020016000205484600401600060405180807f7265717565737451506f736974696f6e000000000000000000000000000000008152506010019050604051809103902081526020019081526020016000205485600401600060405180807f746f74616c54697000000000000000000000000000000000000000000000000081525060080190506040518091039020815260200190815260200160002054858054600181600116156101000203166002900480601f016020809104026020016040519081016040528092919081815260200182805460018160011615610100020316600290048015612bc55780601f10612b9a57610100808354040283529160200191612bc5565b820191906000526020600020905b815481529060010190602001808311612ba857829003601f168201915b50505050509550848054600181600116156101000203166002900480601f016020809104026020016040519081016040528092919081815260200182805460018160011615610100020316600290048015612c615780601f10612c3657610100808354040283529160200191612c61565b820191906000526020600020905b815481529060010190602001808311612c4457829003601f168201915b50505050509450965096509650965096509650509295509295509295565b600080612d368384604201600086604001600060405180807f74696d654f664c6173744e657756616c756500000000000000000000000000008152506012019050604051809103902081526020019081526020016000205481526020019081526020016000205485604001600060405180807f74696d654f664c6173744e657756616c7565000000000000000000000000000081525060120190506040518091039020815260200190815260200160002054611fc9565b600191509150915091565b6000806000612d8e84600101603380602002604051908101604052809291908260338015612d84576020028201915b815481526020019060010190808311612d70575b5050505050612db5565b80925081935050508360430160008281526020019081526020016000205492505050919050565b60008060019050828160338110612dc857fe5b602002015191506000600290505b6033811015612e1b5782848260338110612dec57fe5b60200201511115612e0e57838160338110612e0357fe5b602002015192508091505b8080600101915050612dd6565b50915091565b6040518060a00160405280600590602082028038833980820191505090505090565b6040518060a00160405280600590602082028038833980820191505090505090565b604051806101200160405280600990602082028038833980820191505090505090565b60405180610660016040528060339060208202803883398082019150509050509056fea265627a7a723158209ef1f04675fed31cd2d42679bb45c00fbf0f3d0b68920ee91e39445c109d344264736f6c63430005100032",
  "deployedBytecode": "0x6080604052600436106101e35760003560e01c8063733bdef011610102578063af0b132711610095578063dd62ed3e11610064578063dd62ed3e14610e7f578063e0ae93c114610f04578063e1eee6d614610f5d578063fc7cf0a014611099576101e3565b8063af0b132714610c45578063b541302914610d84578063c775b54214610dd7578063da37994114610e30576101e3565b8063999cf26c116100d1578063999cf26c14610a5b578063a22e407a14610ace578063a7c438bc14610b81578063ae0a827914610bf4576101e3565b8063733bdef0146108e457806377fbb663146109505780637f6fd5d9146109a957806393fa491514610a02576101e3565b806346eee1c41161017a5780636173c0b8116101495780636173c0b81461073c57806363bb82ad1461078b57806369026d63146107fe57806370a082311461087f576101e3565b806346eee1c4146105de57806347abd7f11461062d5780634ee2cd7e1461067e578063612c8f7f146106ed576101e3565b806319e8e03b116101b657806319e8e03b1461043a5780631db842f0146104d85780633180f8df146105275780633df0777b14610581576101e3565b80630f0b424d146102c457806311c9851214610313578063133bee5e1461039457806318160ddd1461040f575b600080603f01600060405180807f74656c6c6f72436f6e7472616374000000000000000000000000000000000000815250600e0190506040518091039020815260200190815260200160002060009054906101000a900473ffffffffffffffffffffffffffffffffffffffff16905060606000368080601f016020809104026020016040519081016040528093929190818152602001838380828437600081840152601f19601f82011690508083019250505050505050905060008082516020840185600019f43d604051816000823e82600081146102c0578282f35b8282fd5b3480156102d057600080fd5b506102fd600480360360208110156102e757600080fd5b81019080803590602001909291905050506110cf565b6040518082815260200191505060405180910390f35b34801561031f57600080fd5b506103566004803603604081101561033657600080fd5b8101908080359060200190929190803590602001909291905050506110ec565b6040518082600560200280838360005b83811015610381578082015181840152602081019050610366565b5050505090500191505060405180910390f35b3480156103a057600080fd5b506103cd600480360360208110156103b757600080fd5b8101908080359060200190929190505050611112565b604051808273ffffffffffffffffffffffffffffffffffffffff1673ffffffffffffffffffffffffffffffffffffffff16815260200191505060405180910390f35b34801561041b57600080fd5b5061042461112f565b6040518082815260200191505060405180910390f35b34801561044657600080fd5b5061044f611140565b6040518084815260200183815260200180602001828103825283818151815260200191508051906020019080838360005b8381101561049b578082015181840152602081019050610480565b50505050905090810190601f1680156104c85780820380516001836020036101000a031916815260200191505b5094505050505060405180910390f35b3480156104e457600080fd5b50610511600480360360208110156104fb57600080fd5b810190808035906020019092919050505061115a565b6040518082815260200191505060405180910390f35b34801561053357600080fd5b506105606004803603602081101561054a57600080fd5b8101908080359060200190929190505050611177565b60405180838152602001821515151581526020019250505060405180910390f35b34801561058d57600080fd5b506105c4600480360360408110156105a457600080fd5b810190808035906020019092919080359060200190929190505050611197565b604051808215151515815260200191505060405180910390f35b3480156105ea57600080fd5b506106176004803603602081101561060157600080fd5b81019080803590602001909291905050506111b7565b6040518082815260200191505060405180910390f35b34801561063957600080fd5b5061067c6004803603602081101561065057600080fd5b81019080803573ffffffffffffffffffffffffffffffffffffffff1690602001909291905050506111d4565b005b34801561068a57600080fd5b506106d7600480360360408110156106a157600080fd5b81019080803573ffffffffffffffffffffffffffffffffffffffff169060200190929190803590602001909291905050506111eb565b6040518082815260200191505060405180910390f35b3480156106f957600080fd5b506107266004803603602081101561071057600080fd5b81019080803590602001909291905050506112bd565b6040518082815260200191505060405180910390f35b34801561074857600080fd5b506107756004803603602081101561075f57600080fd5b81019080803590602001909291905050506112da565b6040518082815260200191505060405180910390f35b34801561079757600080fd5b506107e4600480360360408110156107ae57600080fd5b8101908080359060200190929190803573ffffffffffffffffffffffffffffffffffffffff1690602001909291905050506112f7565b604051808215151515815260200191505060405180910390f35b34801561080a57600080fd5b506108416004803603604081101561082157600080fd5b8101908080359060200190929190803590602001909291905050506113c9565b6040518082600560200280838360005b8381101561086c578082015181840152602081019050610851565b5050505090500191505060405180910390f35b34801561088b57600080fd5b506108ce600480360360208110156108a257600080fd5b81019080803573ffffffffffffffffffffffffffffffffffffffff1690602001909291905050506113ef565b6040518082815260200191505060405180910390f35b3480156108f057600080fd5b506109336004803603602081101561090757600080fd5b81019080803573ffffffffffffffffffffffffffffffffffffffff1690602001909291905050506114b8565b604051808381526020018281526020019250505060405180910390f35b34801561095c57600080fd5b506109936004803603604081101561097357600080fd5b8101908080359060200190929190803590602001909291905050506114d8565b6040518082815260200191505060405180910390f35b3480156109b557600080fd5b506109ec600480360360408110156109cc57600080fd5b8101908080359060200190929190803590602001909291905050506114f8565b6040518082815260200191505060405180910390f35b348015610a0e57600080fd5b50610a4560048036036040811015610a2557600080fd5b810190808035906020019092919080359060200190929190505050611518565b6040518082815260200191505060405180910390f35b348015610a6757600080fd5b50610ab460048036036040811015610a7e57600080fd5b81019080803573ffffffffffffffffffffffffffffffffffffffff16906020019092919080359060200190929190505050611538565b604051808215151515815260200191505060405180910390f35b348015610ada57600080fd5b50610ae361160a565b6040518087815260200186815260200185815260200180602001848152602001838152602001828103825285818151815260200191508051906020019080838360005b83811015610b41578082015181840152602081019050610b26565b50505050905090810190601f168015610b6e5780820380516001836020036101000a031916815260200191505b5097505050505050505060405180910390f35b348015610b8d57600080fd5b50610bda60048036036040811015610ba457600080fd5b8101908080359060200190929190803573ffffffffffffffffffffffffffffffffffffffff169060200190929190505050611632565b604051808215151515815260200191505060405180910390f35b348015610c0057600080fd5b50610c4360048036036020811015610c1757600080fd5b81019080803573ffffffffffffffffffffffffffffffffffffffff169060200190929190505050611652565b005b348015610c5157600080fd5b50610c7e60048036036020811015610c6857600080fd5b8101908080359060200190929190505050611669565b604051808a81526020018915151515815260200188151515158152602001871515151581526020018673ffffffffffffffffffffffffffffffffffffffff1673ffffffffffffffffffffffffffffffffffffffff1681526020018573ffffffffffffffffffffffffffffffffffffffff1673ffffffffffffffffffffffffffffffffffffffff1681526020018473ffffffffffffffffffffffffffffffffffffffff1673ffffffffffffffffffffffffffffffffffffffff16815260200183600960200280838360005b83811015610d63578082015181840152602081019050610d48565b50505050905001828152602001995050505050505050505060405180910390f35b348015610d9057600080fd5b50610d996116b1565b6040518082603360200280838360005b83811015610dc4578082015181840152602081019050610da9565b5050505090500191505060405180910390f35b348015610de357600080fd5b50610e1a60048036036040811015610dfa57600080fd5b8101908080359060200190929190803590602001909291905050506116c8565b6040518082815260200191505060405180910390f35b348015610e3c57600080fd5b50610e6960048036036020811015610e5357600080fd5b81019080803590602001909291905050506116e8565b6040518082815260200191505060405180910390f35b348015610e8b57600080fd5b50610eee60048036036040811015610ea257600080fd5b81019080803573ffffffffffffffffffffffffffffffffffffffff169060200190929190803573ffffffffffffffffffffffffffffffffffffffff169060200190929190505050611705565b6040518082815260200191505060405180910390f35b348015610f1057600080fd5b50610f4760048036036040811015610f2757600080fd5b810190808035906020019092919080359060200190929190505050611803565b6040518082815260200191505060405180910390f35b348015610f6957600080fd5b50610f9660048036036020811015610f8057600080fd5b8101908080359060200190929190505050611823565b604051808060200180602001878152602001868152602001858152602001848152602001838103835289818151815260200191508051906020019080838360005b83811015610ff2578082015181840152602081019050610fd7565b50505050905090810190601f16801561101f5780820380516001836020036101000a031916815260200191505b50838103825288818151815260200191508051906020019080838360005b8381101561105857808201518184015260208101905061103d565b50505050905090810190601f1680156110855780820380516001836020036101000a031916815260200191505b509850505050505050505060405180910390f35b3480156110a557600080fd5b506110ae611855565b60405180838152602001821515151581526020019250505060405180910390f35b60006110e582600061186a90919063ffffffff16565b9050919050565b6110f4612e21565b61110a8383600061188a9092919063ffffffff16565b905092915050565b600061112882600061190090919063ffffffff16565b9050919050565b600061113b6000611940565b905090565b600080606061114f6000611994565b925092509250909192565b6000611170826000611ac890919063ffffffff16565b9050919050565b60008061118e836000611ae890919063ffffffff16565b91509150915091565b60006111af83836000611b609092919063ffffffff16565b905092915050565b60006111cd826000611ba290919063ffffffff16565b9050919050565b6111e8816000611bc890919063ffffffff16565b50565b60008073__v2TellorTransfer______________________6395b91ea0909185856040518463ffffffff1660e01b8152600401808481526020018373ffffffffffffffffffffffffffffffffffffffff1673ffffffffffffffffffffffffffffffffffffffff168152602001828152602001935050505060206040518083038186803b15801561127a57600080fd5b505af415801561128e573d6000803e3d6000fd5b505050506040513d60208110156112a457600080fd5b8101908080519060200190929190505050905092915050565b60006112d3826000611d6090919063ffffffff16565b9050919050565b60006112f0826000611d8090919063ffffffff16565b9050919050565b60008073__v2TellorGettersLibrary________________6362bd6a96909185856040518463ffffffff1660e01b8152600401808481526020018381526020018273ffffffffffffffffffffffffffffffffffffffff1673ffffffffffffffffffffffffffffffffffffffff168152602001935050505060206040518083038186803b15801561138657600080fd5b505af415801561139a573d6000803e3d6000fd5b505050506040513d60208110156113b057600080fd5b8101908080519060200190929190505050905092915050565b6113d1612e43565b6113e783836000611e179092919063ffffffff16565b905092915050565b60008073__v2TellorTransfer______________________634b4112349091846040518363ffffffff1660e01b8152600401808381526020018273ffffffffffffffffffffffffffffffffffffffff1673ffffffffffffffffffffffffffffffffffffffff1681526020019250505060206040518083038186803b15801561147657600080fd5b505af415801561148a573d6000803e3d6000fd5b505050506040513d60208110156114a057600080fd5b81019080805190602001909291905050509050919050565b6000806114cf836000611ec390919063ffffffff16565b91509150915091565b60006114f083836000611f5b9092919063ffffffff16565b905092915050565b600061151083836000611f949092919063ffffffff16565b905092915050565b600061153083836000611fc99092919063ffffffff16565b905092915050565b60008073__v2TellorTransfer______________________63db23ad08909185856040518463ffffffff1660e01b8152600401808481526020018373ffffffffffffffffffffffffffffffffffffffff1673ffffffffffffffffffffffffffffffffffffffff168152602001828152602001935050505060206040518083038186803b1580156115c757600080fd5b505af41580156115db573d6000803e3d6000fd5b505050506040513d60208110156115f157600080fd5b8101908080519060200190929190505050905092915050565b6000806000606060008061161e6000611ffe565b955095509550955095509550909192939495565b600061164a838360006123089092919063ffffffff16565b905092915050565b61166681600061237690919063ffffffff16565b50565b600080600080600080600061167c612e65565b60006116928a600061257190919063ffffffff16565b9850985098509850985098509850985098509193959799909294969850565b6116b9612e88565b6116c36000612947565b905090565b60006116e0838360006129969092919063ffffffff16565b905092915050565b60006116fe8260006129cb90919063ffffffff16565b9050919050565b60008073__v2TellorTransfer______________________63bb2d5246909185856040518463ffffffff1660e01b8152600401808481526020018373ffffffffffffffffffffffffffffffffffffffff1673ffffffffffffffffffffffffffffffffffffffff1681526020018273ffffffffffffffffffffffffffffffffffffffff1673ffffffffffffffffffffffffffffffffffffffff168152602001935050505060206040518083038186803b1580156117c057600080fd5b505af41580156117d4573d6000803e3d6000fd5b505050506040513d60208110156117ea57600080fd5b8101908080519060200190929190505050905092915050565b600061181b838360006129eb9092919063ffffffff16565b905092915050565b606080600080600080611840876000612a2090919063ffffffff16565b95509550955095509550955091939550919395565b6000806118626000612c7f565b915091509091565b600082604201600083815260200190815260200160002054905092915050565b611892612e21565b83604801600084815260200190815260200160002060090160008381526020019081526020016000206005806020026040519081016040528092919082600580156118f2576020028201915b8154815260200190600101908083116118de575b505050505090509392505050565b600082603f01600083815260200190815260200160002060009054906101000a900473ffffffffffffffffffffffffffffffffffffffff16905092915050565b600081604001600060405180807f746f74616c5f737570706c790000000000000000000000000000000000000000815250600c01905060405180910390208152602001908152602001600020549050919050565b600080606060006119a485612d41565b905080856048016000838152602001908152602001600020600401600060405180807f746f74616c54697000000000000000000000000000000000000000000000000081525060080190506040518091039020815260200190815260200160002054866048016000848152602001908152602001600020600001808054600181600116156101000203166002900480601f016020809104026020016040519081016040528092919081815260200182805460018160011615610100020316600290048015611ab35780601f10611a8857610100808354040283529160200191611ab3565b820191906000526020600020905b815481529060010190602001808311611a9657829003601f168201915b50505050509050935093509350509193909250565b600082604901600083815260200190815260200160002054905092915050565b600080600084604801600085815260200190815260200160002090506000816003018054905014611b4d57611b41858583600301600185600301805490500381548110611b3157fe5b9060005260206000200154611fc9565b60019250925050611b59565b60008081915092509250505b9250929050565b6000836048016000848152602001908152602001600020600701600083815260200190815260200160002060009054906101000a900460ff1690509392505050565b600082604801600083815260200190815260200160002060030180549050905092915050565b3373ffffffffffffffffffffffffffffffffffffffff1682603f01600060405180807f5f6465697479000000000000000000000000000000000000000000000000000081525060060190506040518091039020815260200190815260200160002060009054906101000a900473ffffffffffffffffffffffffffffffffffffffff1673ffffffffffffffffffffffffffffffffffffffff1614611cd3576040517f08c379a00000000000000000000000000000000000000000000000000000000081526004018080602001828103825260138152602001807f53656e646572206973206e6f742064656974790000000000000000000000000081525060200191505060405180910390fd5b8082603f01600060405180807f5f6465697479000000000000000000000000000000000000000000000000000081525060060190506040518091039020815260200190815260200160002060006101000a81548173ffffffffffffffffffffffffffffffffffffffff021916908373ffffffffffffffffffffffffffffffffffffffff1602179055505050565b600082604001600083815260200190815260200160002054905092915050565b60006032821115611df9576040517f08c379a000000000000000000000000000000000000000000000000000000000815260040180806020018281038252601a8152602001807f526571756573745120696e6465782069732061626f766520353000000000000081525060200191505060405180910390fd5b82604301600083815260200190815260200160002054905092915050565b611e1f612e43565b8360480160008481526020019081526020016000206008016000838152602001908152602001600020600580602002604051908101604052809291908260058015611eb5576020028201915b8160009054906101000a900473ffffffffffffffffffffffffffffffffffffffff1673ffffffffffffffffffffffffffffffffffffffff1681526020019060010190808311611e6b575b505050505090509392505050565b6000808360470160008473ffffffffffffffffffffffffffffffffffffffff1673ffffffffffffffffffffffffffffffffffffffff168152602001908152602001600020600001548460470160008573ffffffffffffffffffffffffffffffffffffffff1673ffffffffffffffffffffffffffffffffffffffff16815260200190815260200160002060010154915091509250929050565b60008360480160008481526020019081526020016000206003018281548110611f8057fe5b906000526020600020015490509392505050565b600083604401600084815260200190815260200160002060050160008381526020019081526020016000205490509392505050565b600083604801600084815260200190815260200160002060060160008381526020019081526020016000205490509392505050565b60008060006060600080866000015487604001600060405180807f63757272656e74526571756573744964000000000000000000000000000000008152506010019050604051809103902081526020019081526020016000205488604001600060405180807f646966666963756c747900000000000000000000000000000000000000000000815250600a01905060405180910390208152602001908152602001600020548960480160008b604001600060405180807f63757272656e74526571756573744964000000000000000000000000000000008152506010019050604051809103902081526020019081526020016000205481526020019081526020016000206000018a60480160008c604001600060405180807f63757272656e7452657175657374496400000000000000000000000000000000815250601001905060405180910390208152602001908152602001600020548152602001908152602001600020600401600060405180807f6772616e756c6172697479000000000000000000000000000000000000000000815250600b01905060405180910390208152602001908152602001600020548b60480160008d604001600060405180807f63757272656e7452657175657374496400000000000000000000000000000000815250601001905060405180910390208152602001908152602001600020548152602001908152602001600020600401600060405180807f746f74616c54697000000000000000000000000000000000000000000000000081525060080190506040518091039020815260200190815260200160002054828054600181600116156101000203166002900480601f0160208091040260200160405190810160405280929190818152602001828054600181600116156101000203166002900480156122ec5780601f106122c1576101008083540402835291602001916122ec565b820191906000526020600020905b8154815290600101906020018083116122cf57829003601f168201915b5050505050925095509550955095509550955091939550919395565b600083604401600084815260200190815260200160002060060160008373ffffffffffffffffffffffffffffffffffffffff1673ffffffffffffffffffffffffffffffffffffffff16815260200190815260200160002060009054906101000a900460ff1690509392505050565b3373ffffffffffffffffffffffffffffffffffffffff1682603f01600060405180807f5f6465697479000000000000000000000000000000000000000000000000000081525060060190506040518091039020815260200190815260200160002060009054906101000a900473ffffffffffffffffffffffffffffffffffffffff1673ffffffffffffffffffffffffffffffffffffffff1614612481576040517f08c379a00000000000000000000000000000000000000000000000000000000081526004018080602001828103825260138152602001807f53656e646572206973206e6f742064656974790000000000000000000000000081525060200191505060405180910390fd5b8082603f01600060405180807f74656c6c6f72436f6e7472616374000000000000000000000000000000000000815250600e0190506040518091039020815260200190815260200160002060006101000a81548173ffffffffffffffffffffffffffffffffffffffff021916908373ffffffffffffffffffffffffffffffffffffffff1602179055507fc2d1449eb0b6547aa426e09d9942a77fa4fc8cd3296305b3163e22452e0bcb8d81604051808273ffffffffffffffffffffffffffffffffffffffff1673ffffffffffffffffffffffffffffffffffffffff16815260200191505060405180910390a15050565b6000806000806000806000612584612e65565b6000808b60440160008c8152602001908152602001600020905080600001548160020160009054906101000a900460ff168260020160019054906101000a900460ff168360020160029054906101000a900460ff168460020160039054906101000a900473ffffffffffffffffffffffffffffffffffffffff168560030160009054906101000a900473ffffffffffffffffffffffffffffffffffffffff168660040160009054906101000a900473ffffffffffffffffffffffffffffffffffffffff1660405180610120016040528089600501600060405180807f726571756573744964000000000000000000000000000000000000000000000081525060090190506040518091039020815260200190815260200160002054815260200189600501600060405180807f74696d657374616d70000000000000000000000000000000000000000000000081525060090190506040518091039020815260200190815260200160002054815260200189600501600060405180807f76616c756500000000000000000000000000000000000000000000000000000081525060050190506040518091039020815260200190815260200160002054815260200189600501600060405180807f6d696e457865637574696f6e446174650000000000000000000000000000000081525060100190506040518091039020815260200190815260200160002054815260200189600501600060405180807f6e756d6265724f66566f74657300000000000000000000000000000000000000815250600d0190506040518091039020815260200190815260200160002054815260200189600501600060405180807f626c6f636b4e756d626572000000000000000000000000000000000000000000815250600b0190506040518091039020815260200190815260200160002054815260200189600501600060405180807f6d696e6572536c6f74000000000000000000000000000000000000000000000081525060090190506040518091039020815260200190815260200160002054815260200189600501600060405180807f71756f72756d000000000000000000000000000000000000000000000000000081525060060190506040518091039020815260200190815260200160002054815260200189600501600060405180807f6665650000000000000000000000000000000000000000000000000000000000815250600301905060405180910390208152602001908152602001600020548152508860010154995099509950995099509950995099509950509295985092959850929598565b61294f612e88565b8160010160338060200260405190810160405280929190826033801561298a576020028201915b815481526020019060010190808311612976575b50505050509050919050565b600083604801600084815260200190815260200160002060050160008381526020019081526020016000205490509392505050565b600082604a01600083815260200190815260200160002054905092915050565b600083604801600084815260200190815260200160002060040160008381526020019081526020016000205490509392505050565b606080600080600080600088604801600089815260200190815260200160002090508060000181600101826002015483600401600060405180807f6772616e756c6172697479000000000000000000000000000000000000000000815250600b019050604051809103902081526020019081526020016000205484600401600060405180807f7265717565737451506f736974696f6e000000000000000000000000000000008152506010019050604051809103902081526020019081526020016000205485600401600060405180807f746f74616c54697000000000000000000000000000000000000000000000000081525060080190506040518091039020815260200190815260200160002054858054600181600116156101000203166002900480601f016020809104026020016040519081016040528092919081815260200182805460018160011615610100020316600290048015612bc55780601f10612b9a57610100808354040283529160200191612bc5565b820191906000526020600020905b815481529060010190602001808311612ba857829003601f168201915b50505050509550848054600181600116156101000203166002900480601f016020809104026020016040519081016040528092919081815260200182805460018160011615610100020316600290048015612c615780601f10612c3657610100808354040283529160200191612c61565b820191906000526020600020905b815481529060010190602001808311612c4457829003601f168201915b50505050509450965096509650965096509650509295509295509295565b600080612d368384604201600086604001600060405180807f74696d654f664c6173744e657756616c756500000000000000000000000000008152506012019050604051809103902081526020019081526020016000205481526020019081526020016000205485604001600060405180807f74696d654f664c6173744e657756616c7565000000000000000000000000000081525060120190506040518091039020815260200190815260200160002054611fc9565b600191509150915091565b6000806000612d8e84600101603380602002604051908101604052809291908260338015612d84576020028201915b815481526020019060010190808311612d70575b5050505050612db5565b80925081935050508360430160008281526020019081526020016000205492505050919050565b60008060019050828160338110612dc857fe5b602002015191506000600290505b6033811015612e1b5782848260338110612dec57fe5b60200201511115612e0e57838160338110612e0357fe5b602002015192508091505b8080600101915050612dd6565b50915091565b6040518060a00160405280600590602082028038833980820191505090505090565b6040518060a00160405280600590602082028038833980820191505090505090565b604051806101200160405280600990602082028038833980820191505090505090565b60405180610660016040528060339060208202803883398082019150509050509056fea265627a7a723158209ef1f04675fed31cd2d42679bb45c00fbf0f3d0b68920ee91e39445c109d344264736f6c63430005100032",
  "source": "pragma solidity ^0.5.0;\r\n\r\nimport \"./v2TellorGetters.sol\";\r\n\r\n/**\r\n* @title Tellor Master\r\n* @dev This is the Master contract with all tellor getter functions and delegate call to Tellor.\r\n* The logic for the functions on this contract is saved on the TellorGettersLibrary, TellorTransfer,\r\n* TellorGettersLibrary, and TellorStake\r\n*/\r\ncontract v2TellorMaster is v2TellorGetters {\r\n    event NewTellorAddress(address _newTellor);\r\n\r\n    /**\r\n    * @dev The constructor sets the original `tellorStorageOwner` of the contract to the sender\r\n    * account, the tellor contract to the Tellor master address and owner to the Tellor master owner address\r\n    * @param _tellorContract is the address for the tellor contract\r\n    */\r\n    constructor(address _tellorContract) public {\r\n        tellor.init();\r\n        tellor.addressVars[keccak256(\"_owner\")] = msg.sender;\r\n        tellor.addressVars[keccak256(\"_deity\")] = msg.sender;\r\n        tellor.addressVars[keccak256(\"tellorContract\")] = _tellorContract;\r\n        emit NewTellorAddress(_tellorContract);\r\n    }\r\n\r\n    /**\r\n    * @dev Gets the 5 miners who mined the value for the specified requestId/_timestamp\r\n    * @dev Only needs to be in library\r\n    * @param _newDeity the new Deity in the contract\r\n    */\r\n\r\n    function changeDeity(address _newDeity) external {\r\n        tellor.changeDeity(_newDeity);\r\n    }\r\n\r\n    /**\r\n    * @dev  allows for the deity to make fast upgrades.  Deity should be 0 address if decentralized\r\n    * @param _tellorContract the address of the new Tellor Contract\r\n    */\r\n    function changeTellorContract(address _tellorContract) external {\r\n        tellor.changeTellorContract(_tellorContract);\r\n    }\r\n\r\n    /**\r\n    * @dev This is the fallback function that allows contracts to call the tellor contract at the address stored\r\n    */\r\n    function() external payable {\r\n        address addr = tellor.addressVars[keccak256(\"tellorContract\")];\r\n        bytes memory _calldata = msg.data;\r\n        assembly {\r\n            let result := delegatecall(not(0), addr, add(_calldata, 0x20), mload(_calldata), 0, 0)\r\n            let size := returndatasize\r\n            let ptr := mload(0x40)\r\n            returndatacopy(ptr, 0, size)\r\n            // revert instead of invalid() bc if the underlying call failed with invalid() it already wasted gas.\r\n            // if the call returned error data, forward it\r\n            switch result\r\n                case 0 {\r\n                    revert(ptr, size)\r\n                }\r\n                default {\r\n                    return(ptr, size)\r\n                }\r\n        }\r\n    }\r\n}\r\n",
  "sourcePath": "C:\\company\\code\\tellorlegacy\\contracts\\v2\\v2TellorMaster.sol",
  "compiler": {
    "name": "solc",
    "version": "0.5.16+commit.9c3226ce.Emscripten.clang"
  },
  "schemaVersion": "3.0.23",
  "updatedAt": "2020-10-04T01:22:40.408Z",
  "devdoc": {
    "details": "This is the Master contract with all tellor getter functions and delegate call to Tellor. The logic for the functions on this contract is saved on the TellorGettersLibrary, TellorTransfer, TellorGettersLibrary, and TellorStake",
    "methods": {
      "allowance(address,address)": {
        "params": {
          "_spender": "address",
          "_user": "address"
        },
        "return": "Returns the remaining allowance of tokens granted to the _spender from the _user"
      },
      "allowedToTrade(address,uint256)": {
        "details": "This function returns whether or not a given user is allowed to trade a given amount",
        "params": {
          "_amount": "uint of amount",
          "_user": "address"
        },
        "return": "true if the user is alloed to trade the amount specified"
      },
      "balanceOf(address)": {
        "details": "Gets balance of owner specified",
        "params": {
          "_user": "is the owner address used to look up the balance"
        },
        "return": "Returns the balance associated with the passed in _user"
      },
      "balanceOfAt(address,uint256)": {
        "details": "Queries the balance of _user at a specific _blockNumber",
        "params": {
          "_blockNumber": "The block number when the balance is queried",
          "_user": "The address from which the balance will be retrieved"
        },
        "return": "The balance at _blockNumber"
      },
      "changeDeity(address)": {
        "details": "Gets the 5 miners who mined the value for the specified requestId/_timestampOnly needs to be in library",
        "params": {
          "_newDeity": "the new Deity in the contract"
        }
      },
      "changeTellorContract(address)": {
        "details": "allows for the deity to make fast upgrades.  Deity should be 0 address if decentralized",
        "params": {
          "_tellorContract": "the address of the new Tellor Contract"
        }
      },
      "constructor": {
        "details": "The constructor sets the original `tellorStorageOwner` of the contract to the sender account, the tellor contract to the Tellor master address and owner to the Tellor master owner address",
        "params": {
          "_tellorContract": "is the address for the tellor contract"
        }
      },
      "didMine(bytes32,address)": {
        "details": "This function tells you if a given challenge has been completed by a given miner",
        "params": {
          "_challenge": "the challenge to search for",
          "_miner": "address that you want to know if they solved the challenge"
        },
        "return": "true if the _miner address provided solved the"
      },
      "didVote(uint256,address)": {
        "details": "Checks if an address voted in a given dispute",
        "params": {
          "_address": "to look up",
          "_disputeId": "to look up"
        },
        "return": "bool of whether or not party voted"
      },
      "getAddressVars(bytes32)": {
        "details": "allows Tellor to read data from the addressVars mapping",
        "params": {
          "_data": "is the keccak256(\"variable_name\") of the variable that is being accessed. These are examples of how the variables are saved within other functions: addressVars[keccak256(\"_owner\")] addressVars[keccak256(\"tellorContract\")]"
        },
        "return": "address of the requested variable "
      },
      "getAllDisputeVars(uint256)": {
        "details": "Gets all dispute variables",
        "params": {
          "_disputeId": "to look up"
        },
        "return": "bytes32 hash of disputebool executed where true if it has been voted onbool disputeVotePassedbool isPropFork true if the dispute is a proposed forkaddress of reportedMineraddress of reportingPartyaddress of proposedForkAddressuint of requestIduint of timestampuint of valueuint of minExecutionDateuint of numberOfVotesuint of blocknumberuint of minerSlotuint of quorumuint of feeint count of the current tally"
      },
      "getCurrentVariables()": {
        "details": "Getter function for variables for the requestId being currently mined(currentRequestId)",
        "return": "current challenge, curretnRequestId, level of difficulty, api/query string, and granularity(number of decimals requested), total tip for the request"
      },
      "getDisputeIdByDisputeHash(bytes32)": {
        "details": "Checks if a given hash of miner,requestId has been disputed",
        "params": {
          "_hash": "is the sha256(abi.encodePacked(_miners[2],_requestId));"
        },
        "return": "uint disputeId"
      },
      "getDisputeUintVars(uint256,bytes32)": {
        "details": "Checks for uint variables in the disputeUintVars mapping based on the disuputeId",
        "params": {
          "_data": "the variable to pull from the mapping. _data = keccak256(\"variable_name\") where variable_name is the variables/strings used to save the data in the mapping. The variables names are commented out under the disputeUintVars under the Dispute struct",
          "_disputeId": "is the dispute id;"
        },
        "return": "uint value for the bytes32 data submitted"
      },
      "getLastNewValue()": {
        "details": "Gets the a value for the latest timestamp available",
        "return": "value for timestamp of last proof of work submitedtrue if the is a timestamp for the lastNewValue"
      },
      "getLastNewValueById(uint256)": {
        "details": "Gets the a value for the latest timestamp available",
        "params": {
          "_requestId": "being requested"
        },
        "return": "value for timestamp of last proof of work submited and if true if it exist or 0 and false if it doesn't"
      },
      "getMinedBlockNum(uint256,uint256)": {
        "details": "Gets blocknumber for mined timestamp",
        "params": {
          "_requestId": "to look up",
          "_timestamp": "is the timestamp to look up blocknumber"
        },
        "return": "uint of the blocknumber which the dispute was mined"
      },
      "getMinersByRequestIdAndTimestamp(uint256,uint256)": {
        "details": "Gets the 5 miners who mined the value for the specified requestId/_timestamp",
        "params": {
          "_requestId": "to look up",
          "_timestamp": "is the timestamp to look up miners for"
        },
        "return": "the 5 miners' addresses"
      },
      "getNewValueCountbyRequestId(uint256)": {
        "details": "Counts the number of values that have been submited for the request if called for the currentRequest being mined it can tell you how many miners have submitted a value for that request so far",
        "params": {
          "_requestId": "the requestId to look up"
        },
        "return": "uint count of the number of values received for the requestId"
      },
      "getRequestIdByQueryHash(bytes32)": {
        "details": "Getter function for requestId based on the queryHash",
        "params": {
          "_request": "is the hash(of string api and granularity) to check if a request already exists"
        },
        "return": "uint requestId"
      },
      "getRequestIdByRequestQIndex(uint256)": {
        "details": "Getter function for the specified requestQ index",
        "params": {
          "_index": "to look up in the requestQ array"
        },
        "return": "uint of reqeuestId"
      },
      "getRequestIdByTimestamp(uint256)": {
        "details": "Getter function for requestId based on timestamp",
        "params": {
          "_timestamp": "to check requestId"
        },
        "return": "uint of reqeuestId"
      },
      "getRequestQ()": {
        "details": "Getter function for the requestQ array",
        "return": "the requestQ arrray"
      },
      "getRequestUintVars(uint256,bytes32)": {
        "details": "Allowes access to the uint variables saved in the apiUintVars under the requestDetails struct for the requestId specified",
        "params": {
          "_data": "the variable to pull from the mapping. _data = keccak256(\"variable_name\") where variable_name is the variables/strings used to save the data in the mapping. The variables names are commented out under the apiUintVars under the requestDetails struct",
          "_requestId": "to look up"
        },
        "return": "uint value of the apiUintVars specified in _data for the requestId specified"
      },
      "getRequestVars(uint256)": {
        "details": "Gets the API struct variables that are not mappings",
        "params": {
          "_requestId": "to look up"
        },
        "return": "string of api to querystring of symbol of api to querybytes32 hash of stringbytes32 of the granularity(decimal places) requesteduint of index in requestQ arrayuint of current payout/tip for this requestId"
      },
      "getStakerInfo(address)": {
        "details": "This function allows users to retireve all information about a staker",
        "params": {
          "_staker": "address of staker inquiring about"
        },
        "return": "uint current state of stakeruint startDate of staking"
      },
      "getSubmissionsByTimestamp(uint256,uint256)": {
        "details": "Gets the 5 miners who mined the value for the specified requestId/_timestamp",
        "params": {
          "_requestId": "to look up",
          "_timestamp": "is the timestampt to look up miners for"
        },
        "return": "address[5] array of 5 addresses ofminers that mined the requestId"
      },
      "getTimestampbyRequestIDandIndex(uint256,uint256)": {
        "details": "Gets the timestamp for the value based on their index",
        "params": {
          "_index": "is the value index to look up",
          "_requestID": "is the requestId to look up"
        },
        "return": "uint timestamp"
      },
      "getUintVar(bytes32)": {
        "details": "Getter for the variables saved under the TellorStorageStruct uintVars variable",
        "params": {
          "_data": "the variable to pull from the mapping. _data = keccak256(\"variable_name\") where variable_name is the variables/strings used to save the data in the mapping. The variables names are commented out under the uintVars under the TellorStorageStruct struct This is an example of how data is saved into the mapping within other functions: self.uintVars[keccak256(\"stakerCount\")]"
        },
        "return": "uint of specified variable"
      },
      "getVariablesOnDeck()": {
        "details": "Getter function for next requestId on queue/request with highest payout at time the function is called",
        "return": "onDeck/info on request with highest payout-- RequestId, Totaltips, and API query string"
      },
      "isInDispute(uint256,uint256)": {
        "details": "Gets the 5 miners who mined the value for the specified requestId/_timestamp",
        "params": {
          "_requestId": "to look up",
          "_timestamp": "is the timestamp to look up miners for"
        },
        "return": "bool true if requestId/timestamp is under dispute"
      },
      "retrieveData(uint256,uint256)": {
        "details": "Retreive value from oracle based on timestamp",
        "params": {
          "_requestId": "being requested",
          "_timestamp": "to retreive data/value from"
        },
        "return": "value for timestamp submitted"
      },
      "totalSupply()": {
        "details": "Getter for the total_supply of oracle tokens",
        "return": "uint total supply"
      }
    },
    "title": "Tellor Master"
  },
  "userdoc": {
    "methods": {}
  }
}