{
  "contractName": "v2TellorTransfer",
  "abi": [
    {
      "anonymous": false,
      "inputs": [
        {
          "indexed": true,
          "internalType": "address",
          "name": "_owner",
          "type": "address"
        },
        {
          "indexed": true,
          "internalType": "address",
          "name": "_spender",
          "type": "address"
        },
        {
          "indexed": false,
          "internalType": "uint256",
          "name": "_value",
          "type": "uint256"
        }
      ],
      "name": "Approval",
      "type": "event"
    },
    {
      "anonymous": false,
      "inputs": [
        {
          "indexed": true,
          "internalType": "address",
          "name": "_from",
          "type": "address"
        },
        {
          "indexed": true,
          "internalType": "address",
          "name": "_to",
          "type": "address"
        },
        {
          "indexed": false,
          "internalType": "uint256",
          "name": "_value",
          "type": "uint256"
        }
      ],
      "name": "Transfer",
      "type": "event"
    },
    {
      "constant": true,
      "inputs": [],
      "name": "stakeAmount",
      "outputs": [
        {
          "internalType": "bytes32",
          "name": "",
          "type": "bytes32"
        }
      ],
      "payable": false,
      "stateMutability": "view",
      "type": "function"
    }
  ],
  "bytecode": "0x611310610026600b82828239805160001a60731461001957fe5b30600052607381538281f3fe73000000000000000000000000000000000000000030146080604052600436106100a85760003560e01c8063bb2d524611610070578063bb2d524614610293578063c0b0c21b14610315578063db23ad081461039a578063dc84521e1461040a578063e0c8c235146104a7576100a8565b8063052bc340146100ad57806317fe051c1461012a5780634b411234146101a757806360c7dc471461020957806395b91ea014610227575b600080fd5b8180156100b957600080fd5b50610110600480360360608110156100d057600080fd5b8101908080359060200190929190803573ffffffffffffffffffffffffffffffffffffffff169060200190929190803590602001909291905050506104ec565b604051808215151515815260200191505060405180910390f35b81801561013657600080fd5b5061018d6004803603606081101561014d57600080fd5b8101908080359060200190929190803573ffffffffffffffffffffffffffffffffffffffff16906020019092919080359060200190929190505050610782565b604051808215151515815260200191505060405180910390f35b6101f3600480360360408110156101bd57600080fd5b8101908080359060200190929190803573ffffffffffffffffffffffffffffffffffffffff16906020019092919050505061079b565b6040518082815260200191505060405180910390f35b6102116107b0565b6040518082815260200191505060405180910390f35b61027d6004803603606081101561023d57600080fd5b8101908080359060200190929190803573ffffffffffffffffffffffffffffffffffffffff169060200190929190803590602001909291905050506107d7565b6040518082815260200191505060405180910390f35b6102ff600480360360608110156102a957600080fd5b8101908080359060200190929190803573ffffffffffffffffffffffffffffffffffffffff169060200190929190803573ffffffffffffffffffffffffffffffffffffffff169060200190929190505050610abb565b6040518082815260200191505060405180910390f35b81801561032157600080fd5b506103986004803603608081101561033857600080fd5b8101908080359060200190929190803573ffffffffffffffffffffffffffffffffffffffff169060200190929190803573ffffffffffffffffffffffffffffffffffffffff16906020019092919080359060200190929190505050610b45565b005b6103f0600480360360608110156103b057600080fd5b8101908080359060200190929190803573ffffffffffffffffffffffffffffffffffffffff16906020019092919080359060200190929190505050610e38565b604051808215151515815260200191505060405180910390f35b81801561041657600080fd5b5061048d6004803603608081101561042d57600080fd5b8101908080359060200190929190803573ffffffffffffffffffffffffffffffffffffffff169060200190929190803573ffffffffffffffffffffffffffffffffffffffff16906020019092919080359060200190929190505050610f4a565b604051808215151515815260200191505060405180910390f35b8180156104b357600080fd5b506104ea600480360360408110156104ca57600080fd5b8101908080359060200190929190803590602001909291905050506110e4565b005b60008073ffffffffffffffffffffffffffffffffffffffff168373ffffffffffffffffffffffffffffffffffffffff161415610590576040517f08c379a00000000000000000000000000000000000000000000000000000000081526004018080602001828103825260148152602001807f5370656e64657220697320302d6164647265737300000000000000000000000081525060200191505060405180910390fd5b60008460460160003373ffffffffffffffffffffffffffffffffffffffff1673ffffffffffffffffffffffffffffffffffffffff16815260200190815260200160002060008573ffffffffffffffffffffffffffffffffffffffff1673ffffffffffffffffffffffffffffffffffffffff16815260200190815260200160002054148061061d5750600082145b61068f576040517f08c379a000000000000000000000000000000000000000000000000000000000815260040180806020018281038252601b8152602001807f5370656e64657220697320616c726561647920617070726f766564000000000081525060200191505060405180910390fd5b818460460160003373ffffffffffffffffffffffffffffffffffffffff1673ffffffffffffffffffffffffffffffffffffffff16815260200190815260200160002060008573ffffffffffffffffffffffffffffffffffffffff1673ffffffffffffffffffffffffffffffffffffffff168152602001908152602001600020819055508273ffffffffffffffffffffffffffffffffffffffff163373ffffffffffffffffffffffffffffffffffffffff167f8c5be1e5ebec7d5bd14f71427d1e84f3dd0314c0f7b2291e5b200ac8c7c3b925846040518082815260200191505060405180910390a3600190509392505050565b600061079084338585610b45565b600190509392505050565b60006107a88383436107d7565b905092915050565b7f7be108969d31a3f0b261465c71f2b0ba9301cd914d55d9091c3b36a49d4d41b260001b81565b6000808460450160008573ffffffffffffffffffffffffffffffffffffffff1673ffffffffffffffffffffffffffffffffffffffff16815260200190815260200160002090506000818054905014806108775750828160008154811061083957fe5b9060005260206000200160000160009054906101000a90046fffffffffffffffffffffffffffffffff166fffffffffffffffffffffffffffffffff16115b15610886576000915050610ab4565b8060018280549050038154811061089957fe5b9060005260206000200160000160009054906101000a90046fffffffffffffffffffffffffffffffff166fffffffffffffffffffffffffffffffff16831061093257806001828054905003815481106108ee57fe5b9060005260206000200160000160109054906101000a90046fffffffffffffffffffffffffffffffff166fffffffffffffffffffffffffffffffff16915050610ab4565b60008090506000600283805490500390505b81811115610a6657600060026001848401018161095d57fe5b0490508584828154811061096d57fe5b9060005260206000200160000160009054906101000a90046fffffffffffffffffffffffffffffffff166fffffffffffffffffffffffffffffffff161415610a02578381815481106109bb57fe5b9060005260206000200160000160109054906101000a90046fffffffffffffffffffffffffffffffff166fffffffffffffffffffffffffffffffff16945050505050610ab4565b85848281548110610a0f57fe5b9060005260206000200160000160009054906101000a90046fffffffffffffffffffffffffffffffff166fffffffffffffffffffffffffffffffff161015610a5957809250610a60565b6001810391505b50610944565b828281548110610a7257fe5b9060005260206000200160000160109054906101000a90046fffffffffffffffffffffffffffffffff166fffffffffffffffffffffffffffffffff1693505050505b9392505050565b60008360460160008473ffffffffffffffffffffffffffffffffffffffff1673ffffffffffffffffffffffffffffffffffffffff16815260200190815260200160002060008373ffffffffffffffffffffffffffffffffffffffff1673ffffffffffffffffffffffffffffffffffffffff1681526020019081526020016000205490509392505050565b6000811415610b9f576040517f08c379a00000000000000000000000000000000000000000000000000000000081526004018080602001828103825260218152602001806112bb6021913960400191505060405180910390fd5b600073ffffffffffffffffffffffffffffffffffffffff168273ffffffffffffffffffffffffffffffffffffffff161415610c42576040517f08c379a00000000000000000000000000000000000000000000000000000000081526004018080602001828103825260158152602001807f526563656976657220697320302061646472657373000000000000000000000081525060200191505060405180910390fd5b610c4d848483610e38565b610ca2576040517f08c379a00000000000000000000000000000000000000000000000000000000081526004018080602001828103825260278152602001806112946027913960400191505060405180910390fd5b6000610cae858561079b565b9050610cfc8560450160008673ffffffffffffffffffffffffffffffffffffffff1673ffffffffffffffffffffffffffffffffffffffff1681526020019081526020016000208383036110e4565b610d06858461079b565b9050808282011015610d80576040517f08c379a00000000000000000000000000000000000000000000000000000000081526004018080602001828103825260118152602001807f4f766572666c6f772068617070656e656400000000000000000000000000000081525060200191505060405180910390fd5b610dcc8560450160008573ffffffffffffffffffffffffffffffffffffffff1673ffffffffffffffffffffffffffffffffffffffff1681526020019081526020016000208383016110e4565b8273ffffffffffffffffffffffffffffffffffffffff168473ffffffffffffffffffffffffffffffffffffffff167fddf252ad1be2c89b69c2b068fc378daa952ba7f163c4a11628f55a4df523b3ef846040518082815260200191505060405180910390a35050505050565b6000808460470160008573ffffffffffffffffffffffffffffffffffffffff1673ffffffffffffffffffffffffffffffffffffffff1681526020019081526020016000206000015414158015610ed2575060058460470160008573ffffffffffffffffffffffffffffffffffffffff1673ffffffffffffffffffffffffffffffffffffffff16815260200190815260200160002060000154105b15610f3357818460400160007f7be108969d31a3f0b261465c71f2b0ba9301cd914d55d9091c3b36a49d4d41b260001b815260200190815260200160002054610f1b868661079b565b0310610f2a5760019050610f43565b60009050610f43565b81610f3e858561079b565b101590505b9392505050565b6000818560460160008673ffffffffffffffffffffffffffffffffffffffff1673ffffffffffffffffffffffffffffffffffffffff16815260200190815260200160002060003373ffffffffffffffffffffffffffffffffffffffff1673ffffffffffffffffffffffffffffffffffffffff168152602001908152602001600020541015611040576040517f08c379a00000000000000000000000000000000000000000000000000000000081526004018080602001828103825260128152602001807f416c6c6f77616e63652069732077726f6e67000000000000000000000000000081525060200191505060405180910390fd5b818560460160008673ffffffffffffffffffffffffffffffffffffffff1673ffffffffffffffffffffffffffffffffffffffff16815260200190815260200160002060003373ffffffffffffffffffffffffffffffffffffffff1673ffffffffffffffffffffffffffffffffffffffff168152602001908152602001600020600082825403925050819055506110d885858585610b45565b60019050949350505050565b6000828054905014806111455750438260018480549050038154811061110657fe5b9060005260206000200160000160009054906101000a90046fffffffffffffffffffffffffffffffff166fffffffffffffffffffffffffffffffff1614155b1561123157816040518060400160405280436fffffffffffffffffffffffffffffffff168152602001836fffffffffffffffffffffffffffffffff1681525090806001815401808255809150509060018203906000526020600020016000909192909190915060008201518160000160006101000a8154816fffffffffffffffffffffffffffffffff02191690836fffffffffffffffffffffffffffffffff16021790555060208201518160000160106101000a8154816fffffffffffffffffffffffffffffffff02191690836fffffffffffffffffffffffffffffffff16021790555050505061128f565b60008260018480549050038154811061124657fe5b906000526020600020019050818160000160106101000a8154816fffffffffffffffffffffffffffffffff02191690836fffffffffffffffffffffffffffffffff160217905550505b505056fe53686f756c6420686176652073756666696369656e742062616c616e636520746f207472616465547269656420746f2073656e64206e6f6e2d706f73697469766520616d6f756e74a265627a7a723158205231793687402f0a9b74f1b189a06b9ef651428bde4fe6d19f19d6176f2ba00664736f6c63430005100032",
  "source": "pragma solidity ^0.5.16;\r\n\r\nimport \"./v2SafeMath.sol\";\r\nimport \"./v2TellorStorage.sol\";\r\n\r\n/**\r\n* @title Tellor Transfer\r\n* @dev Contains the methods related to transfers and ERC20. Tellor.sol and TellorGetters.sol\r\n* reference this library for function's logic.\r\n*/\r\nlibrary v2TellorTransfer {\r\n    using v2SafeMath for uint256;\r\n\r\n    event Approval(address indexed _owner, address indexed _spender, uint256 _value); //ERC20 Approval event\r\n    event Transfer(address indexed _from, address indexed _to, uint256 _value); //ERC20 Transfer Event\r\n\r\n    bytes32 public constant stakeAmount = 0x7be108969d31a3f0b261465c71f2b0ba9301cd914d55d9091c3b36a49d4d41b2; //keccak256(\"stakeAmount\")\r\n\r\n    /*Functions*/\r\n\r\n    /**\r\n    * @dev Allows for a transfer of tokens to _to\r\n    * @param _to The address to send tokens to\r\n    * @param _amount The amount of tokens to send\r\n    * @return true if transfer is successful\r\n    */\r\n    function transfer(v2TellorStorage.TellorStorageStruct storage self, address _to, uint256 _amount) public returns (bool success) {\r\n        doTransfer(self, msg.sender, _to, _amount);\r\n        return true;\r\n    }\r\n\r\n    /**\r\n    * @notice Send _amount tokens to _to from _from on the condition it\r\n    * is approved by _from\r\n    * @param _from The address holding the tokens being transferred\r\n    * @param _to The address of the recipient\r\n    * @param _amount The amount of tokens to be transferred\r\n    * @return True if the transfer was successful\r\n    */\r\n    function transferFrom(v2TellorStorage.TellorStorageStruct storage self, address _from, address _to, uint256 _amount)\r\n        public\r\n        returns (bool success)\r\n    {\r\n        require(self.allowed[_from][msg.sender] >= _amount, \"Allowance is wrong\");\r\n        self.allowed[_from][msg.sender] -= _amount;\r\n        doTransfer(self, _from, _to, _amount);\r\n        return true;\r\n    }\r\n\r\n    /**\r\n    * @dev This function approves a _spender an _amount of tokens to use\r\n    * @param _spender address\r\n    * @param _amount amount the spender is being approved for\r\n    * @return true if spender appproved successfully\r\n    */\r\n    function approve(v2TellorStorage.TellorStorageStruct storage self, address _spender, uint256 _amount) public returns (bool) {\r\n        require(_spender != address(0), \"Spender is 0-address\");\r\n        require(self.allowed[msg.sender][_spender] == 0 || _amount == 0, \"Spender is already approved\");\r\n        self.allowed[msg.sender][_spender] = _amount;\r\n        emit Approval(msg.sender, _spender, _amount);\r\n        return true;\r\n    }\r\n\r\n    /**\r\n    * @param _user address of party with the balance\r\n    * @param _spender address of spender of parties said balance\r\n    * @return Returns the remaining allowance of tokens granted to the _spender from the _user\r\n    */\r\n    function allowance(v2TellorStorage.TellorStorageStruct storage self, address _user, address _spender) public view returns (uint256) {\r\n        return self.allowed[_user][_spender];\r\n    }\r\n\r\n    /**\r\n    * @dev Completes POWO transfers by updating the balances on the current block number\r\n    * @param _from address to transfer from\r\n    * @param _to addres to transfer to\r\n    * @param _amount to transfer\r\n    */\r\n    function doTransfer(v2TellorStorage.TellorStorageStruct storage self, address _from, address _to, uint256 _amount) public {\r\n        require(_amount != 0, \"Tried to send non-positive amount\");\r\n        require(_to != address(0), \"Receiver is 0 address\");\r\n        require(allowedToTrade(self, _from, _amount), \"Should have sufficient balance to trade\");\r\n        uint256 previousBalance = balanceOf(self, _from);\r\n        updateBalanceAtNow(self.balances[_from], previousBalance - _amount);\r\n        previousBalance = balanceOf(self,_to);\r\n        require(previousBalance + _amount >= previousBalance, \"Overflow happened\"); // Check for overflow\r\n        updateBalanceAtNow(self.balances[_to], previousBalance + _amount);\r\n        emit Transfer(_from, _to, _amount);\r\n    }\r\n\r\n    /**\r\n    * @dev Gets balance of owner specified\r\n    * @param _user is the owner address used to look up the balance\r\n    * @return Returns the balance associated with the passed in _user\r\n    */\r\n    function balanceOf(v2TellorStorage.TellorStorageStruct storage self, address _user) public view returns (uint256) {\r\n        return balanceOfAt(self, _user, block.number);\r\n    }\r\n\r\n    /**\r\n    * @dev Queries the balance of _user at a specific _blockNumber\r\n    * @param _user The address from which the balance will be retrieved\r\n    * @param _blockNumber The block number when the balance is queried\r\n    * @return The balance at _blockNumber specified\r\n    */\r\n    function balanceOfAt(v2TellorStorage.TellorStorageStruct storage self, address _user, uint256 _blockNumber) public view returns (uint256) {\r\n        v2TellorStorage.Checkpoint[] storage checkpoints = self.balances[_user];\r\n        if (checkpoints.length == 0|| checkpoints[0].fromBlock > _blockNumber) {\r\n            return 0;\r\n        } else {\r\n            if (_blockNumber >= checkpoints[checkpoints.length - 1].fromBlock) return checkpoints[checkpoints.length - 1].value;\r\n            // Binary search of the value in the array\r\n            uint256 min = 0;\r\n            uint256 max = checkpoints.length - 2;\r\n            while (max > min) {\r\n                uint256 mid = (max + min + 1) / 2;\r\n                if  (checkpoints[mid].fromBlock ==_blockNumber){\r\n                    return checkpoints[mid].value;\r\n                }else if(checkpoints[mid].fromBlock < _blockNumber) {\r\n                    min = mid;\r\n                } else {\r\n                    max = mid - 1;\r\n                }\r\n            }\r\n            return checkpoints[min].value;\r\n        }\r\n    }\r\n    /**\r\n    * @dev This function returns whether or not a given user is allowed to trade a given amount\r\n    * and removing the staked amount from their balance if they are staked\r\n    * @param _user address of user\r\n    * @param _amount to check if the user can spend\r\n    * @return true if they are allowed to spend the amount being checked\r\n    */\r\n    function allowedToTrade(v2TellorStorage.TellorStorageStruct storage self, address _user, uint256 _amount) public view returns (bool) { \r\n        if (self.stakerDetails[_user].currentStatus != 0 && self.stakerDetails[_user].currentStatus < 5) {\r\n            //Subtracts the stakeAmount from balance if the _user is staked\r\n            if (balanceOf(self, _user)- self.uintVars[stakeAmount] >= _amount) {\r\n                return true;\r\n            }\r\n            return false;\r\n        } \r\n        return (balanceOf(self, _user) >= _amount);\r\n    }\r\n\r\n    /**\r\n    * @dev Updates balance for from and to on the current block number via doTransfer\r\n    * @param checkpoints gets the mapping for the balances[owner]\r\n    * @param _value is the new balance\r\n    */\r\n    function updateBalanceAtNow(v2TellorStorage.Checkpoint[] storage checkpoints, uint256 _value) public {\r\n        if (checkpoints.length == 0 || checkpoints[checkpoints.length - 1].fromBlock != block.number) {\r\n           checkpoints.push(v2TellorStorage.Checkpoint({\r\n                fromBlock : uint128(block.number),\r\n                value : uint128(_value)\r\n            }));\r\n        } else {\r\n            v2TellorStorage.Checkpoint storage oldCheckPoint = checkpoints[checkpoints.length - 1];\r\n            oldCheckPoint.value = uint128(_value);\r\n        }\r\n    }\r\n}\r\n",
  "sourcePath": "C:\\company\\code\\tellorlegacy\\contracts\\v2\\libraries\\v2TellorTransfer.sol",
  "compiler": {
    "name": "solc",
    "version": "0.5.16+commit.9c3226ce.Emscripten.clang"
  },
  "schemaVersion": "3.0.23",
  "updatedAt": "2020-10-04T01:22:40.363Z",
  "devdoc": {
    "details": "Contains the methods related to transfers and ERC20. Tellor.sol and TellorGetters.sol reference this library for function's logic.",
    "methods": {
      "allowance(v2TellorStorage.TellorStorageStruct storage,address,address)": {
        "params": {
          "_spender": "address of spender of parties said balance",
          "_user": "address of party with the balance"
        },
        "return": "Returns the remaining allowance of tokens granted to the _spender from the _user"
      },
      "allowedToTrade(v2TellorStorage.TellorStorageStruct storage,address,uint256)": {
        "details": "This function returns whether or not a given user is allowed to trade a given amount and removing the staked amount from their balance if they are staked",
        "params": {
          "_amount": "to check if the user can spend",
          "_user": "address of user"
        },
        "return": "true if they are allowed to spend the amount being checked"
      },
      "approve(v2TellorStorage.TellorStorageStruct storage,address,uint256)": {
        "details": "This function approves a _spender an _amount of tokens to use",
        "params": {
          "_amount": "amount the spender is being approved for",
          "_spender": "address"
        },
        "return": "true if spender appproved successfully"
      },
      "balanceOf(v2TellorStorage.TellorStorageStruct storage,address)": {
        "details": "Gets balance of owner specified",
        "params": {
          "_user": "is the owner address used to look up the balance"
        },
        "return": "Returns the balance associated with the passed in _user"
      },
      "balanceOfAt(v2TellorStorage.TellorStorageStruct storage,address,uint256)": {
        "details": "Queries the balance of _user at a specific _blockNumber",
        "params": {
          "_blockNumber": "The block number when the balance is queried",
          "_user": "The address from which the balance will be retrieved"
        },
        "return": "The balance at _blockNumber specified"
      },
      "doTransfer(v2TellorStorage.TellorStorageStruct storage,address,address,uint256)": {
        "details": "Completes POWO transfers by updating the balances on the current block number",
        "params": {
          "_amount": "to transfer",
          "_from": "address to transfer from",
          "_to": "addres to transfer to"
        }
      },
      "transfer(v2TellorStorage.TellorStorageStruct storage,address,uint256)": {
        "details": "Allows for a transfer of tokens to _to",
        "params": {
          "_amount": "The amount of tokens to send",
          "_to": "The address to send tokens to"
        },
        "return": "true if transfer is successful"
      },
      "transferFrom(v2TellorStorage.TellorStorageStruct storage,address,address,uint256)": {
        "params": {
          "_amount": "The amount of tokens to be transferred",
          "_from": "The address holding the tokens being transferred",
          "_to": "The address of the recipient"
        },
        "return": "True if the transfer was successful"
      },
      "updateBalanceAtNow(v2TellorStorage.Checkpoint[] storage,uint256)": {
        "details": "Updates balance for from and to on the current block number via doTransfer",
        "params": {
          "_value": "is the new balance",
          "checkpoints": "gets the mapping for the balances[owner]"
        }
      }
    },
    "title": "Tellor Transfer"
  },
  "userdoc": {
    "methods": {
      "transferFrom(v2TellorStorage.TellorStorageStruct storage,address,address,uint256)": {
        "notice": "Send _amount tokens to _to from _from on the condition it is approved by _from"
      }
    }
  }
}